:100000000C9434000C9451000C9451000C94510049
:100010000C9451000C9479010C9451000C945100F3
:100020000C9451000C9451000C9451000C9451000C
:100030000C9451000C9451000C9451000C945100FC
:100040000C9451000C9451000C9451000C945100EC
:100050000C9451000C9451000C9451000C945100DC
:100060000C9451000C94510011241FBECFEFD4E02A
:10007000DEBFCDBF11E0A0E0B1E0EAE5F9E102C0EA
:1000800005900D92AA33B107D9F721E0AAE3B1E0B8
:1000900001C01D92AC35B207E1F70E946E070C94C7
:1000A000AB0C0C9400005898599800C000C0599AA5
:1000B00000C000C0589A0895589A599800C000C0CE
:1000C000599A00C000C0589A0895CF93DF93C0E2B8
:1000D000D0E00E9453002197E1F7DF91CF9108957E
:1000E000CF93DF93C0E2D0E00E945C002197E1F75C
:1000F000DF91CF910895CF93DF930E946500C5E013
:10010000D0E00E945C000E945C000E945C000E94A3
:100110005C000E945C000E945C000E945C000E94E7
:100120005C000E945C000E945C000E945C000E94D7
:100130005C000E945C000E945C000E945C000E94C7
:100140005C000E9453000E9453000E9453000E94D2
:1001500053000E9453000E9453000E9453000E94CB
:1001600053000E9453000E9453000E9453000E94BB
:1001700053000E9453000E9453000E9453000E94AB
:100180005300219709F0BDCFDF91CF910C947000FF
:10019000CF93DF930E946500C5E0D0E00E945C0031
:1001A0000E945C000E945C000E945C000E945C0057
:1001B0000E945C000E945C000E945C000E94530050
:1001C0000E9453000E9453000E9453000E9453005B
:1001D0000E9453000E9453000E9453000E945C0042
:1001E0000E945C000E945C000E945C000E945C0017
:1001F0000E945C000E945C000E945C000E94530010
:100200000E9453000E9453000E9453000E9453001A
:100210000E9453000E9453000E945300219709F04E
:10022000BDCFDF91CF910C9470000F931F93CF93AC
:10023000DF930E94650005E010E0C0E2D0E00E947C
:100240005C002197E1F701501109B9F7DF91CF91D7
:100250001F910F910C947000CF93DF930E94650063
:10026000C5E0D0E00E945C000E945C000E945C003F
:100270000E945C000E945C000E945C000E945C0086
:100280000E945C000E9453000E9453000E94530091
:100290000E9453000E9453000E9453000E9453008A
:1002A0000E9453000E9453000E9453000E9453007A
:1002B0000E9453000E9453000E9453000E9453006A
:1002C0000E9453000E945C000E945C000E945C003F
:1002D0000E945C000E945C000E945C000E945C0026
:1002E0000E945C00219709F0BDCFDF91CF910C9463
:1002F00070001F920F920FB60F9211248F939F934D
:1003000099B180911E01892790931E0182FF0AC036
:1003100091E0909311019093120190911B019F5FC6
:1003200090931B0183FF0BC092E09093110191E029
:100330009093120190911B019F5F90931B0184FF8A
:100340000BC093E09093110191E090931201909172
:100350001B019F5F90931B0180FF0BC084E0809383
:10036000110181E08093120180911B018F5F8093C6
:100370001B019F918F910F900FBE0F901F901895AA
:100380008AB1827E8AB98BB18D618BB93898409AD7
:100390007894569A08950C94C0011092C50087E68F
:1003A0008093C400E2ECF0E080818F7080838081D4
:1003B00088608083A0ECB0E08C918D7F8C93A1EC61
:1003C000B0E088E18C938C918B7F8C9380818660E8
:1003D0008083089586B590E025EA822792270C94C1
:1003E000650928E030E090E8482F4923409A59F009
:1003F00042E04A95F1F700004098000096952150A0
:10040000310991F70895409842E04A95F1F7F6CF07
:100410006F927F928F929F92AF92BF92CF92DF9214
:10042000EF92FF920F931F93CF93DF93CDB7DEB779
:10043000C85CD1090FB6F894DEBF0FBECDBF8C01EA
:100440004B01CE0101965C0188ECD5011D928A9585
:10045000E9F7D801ED91FC91D501309709F054C02E
:10046000F80166817781C5010E943303EE24E3948D
:10047000F12CD12CC12CF4E6CF16D10408F04CC0DD
:10048000F601EE0FFF1FEA0DFB1D808191818E1595
:100490009F0509F041C0D8011A967C901A971B96C7
:1004A0006C901B971C968C910E94F101862D0E94E6
:1004B000F101872D0E94F101BFEFCB1ADB0ABFEFDC
:1004C000EB1AFB0AE1E0EE16E6E0FE06A1F6409824
:1004D00089EF90E00197F1F700C00000C853DF4FAB
:1004E0000FB6F894DEBF0FBECDBFDF91CF911F9145
:1004F0000F91FF90EF90DF90CF90BF90AF909F90C3
:100500008F907F906F900895848195818D939D93B6
:100510000190F081E02DA1CFF8018489882399F022
:10052000D40114968D919C918E159F0561F476846B
:10053000678480890E94F101862D0E94F101872D38
:100540000E94F101BCCF80E00E94F10180E00E9496
:10055000F10180E0F5CFCF93DF93C0E0D6E080E0FB
:100560000E94F10180E00E94F10180E00E94F1010F
:100570002197A9F7409889EF90E00197F1F700C023
:100580000000DF91CF910895DF92EF92FF920F93D9
:100590001F93CF93DF930097F9F0122FD42E7B0196
:1005A000EC0189E090E00E94EF07FC01892BA1F0AB
:1005B00000871382128211821082D6821783F582FD
:1005C000E4828E819F81009779F4F983E883FB832D
:1005D000EA8301969F838E83DF91CF911F910F91C4
:1005E000FF90EF90DF900895A881B981B183A08337
:1005F0001396FC93EE931297F983E883EACFCF9397
:10060000DF93EC01892BA1F088819981009781F01B
:100610002A813B818217930771F4198218821B8209
:100620001A820E948B088E819F8101979F838E83FF
:10063000DF91CF910895FC01A081B181B983A88396
:1006400013961C921E921297ECCFCF93DF93EC017E
:100650008E819F81892B19F4DF91CF910895CE016E
:100660000E94FF02F5CF0F931F93CF93DF93FC01FE
:10067000329681E090E08617970728F0DF91CF91BE
:100680001F910F910895DF014D915D919C012150C3
:1006900031098F0137FD05C0D291C2914C175D071A
:1006A00030F0F801518340830196FD01E4CFD383FC
:1006B000C283EDCFDC01FC0101900020E9F7319706
:1006C000E81BF90B9D01281B390B2E173F0710F073
:1006D000089500002091C00025FFFBCF2D912093AD
:1006E000C600E9CFCF92DF92EF92FF920F93CF93A4
:1006F000DF936C017B01C6E1D0E04C2F4F5FCE0150
:1007000023E0959587952A95E1F7982F990F990FF2
:10071000990F642F691B262F30E028583F4F61E066
:10072000680F6150770B762F6627620F731F00E00A
:1007300020E1C6010E94C4022197C230D105E9F62A
:10074000B701C601DF91CF910F91FF90EF90DF903D
:10075000CF900C940802DC01ED91FC91309711F4DC
:1007600081E00895848195818617970721F0019093
:10077000F081E02DF3CF80E008953F924F925F9299
:100780006F927F928F929F92AF92BF92CF92DF92A1
:10079000EF92FF920F931F93CF93DF93CDB7DEB706
:1007A000A0970FB6F894DEBF0FBECDBFFB01A481AA
:1007B000B581A417B50709F0CDC0F9017B016C0123
:1007C00081E08083FB01008527814681BD01C60150
:1007D0000E94C402F60187818F9386818F9389E2FC
:1007E00091E09F938F938E010F5F1F4F1F930F9385
:1007F0000E94700961E070E0C8010E945A030F90E6
:100800000F900F900F900F900F9070E3672E712C48
:10081000E0E28E2E912CAA24A394B12C0E946009B0
:10082000B3010E94C70744244394480E0E94600904
:10083000B4010E94C70755245394580E842D90E0AC
:10084000F52DF1703F2E252D30E0FC013197F7FD9D
:10085000379643E0F595E7954A95E1F7EF5F4E2F20
:100860004150550B58A34F8F742F662731104DC040
:10087000A9014150510903E0440F551F0A95E1F7C2
:10088000480F591F460F571FF601A081B18110E094
:10089000109709F046C0112309F4C0CFF701468232
:1008A0005782EF8DF8A1A3E0EE0FFF1FAA95E1F7A5
:1008B0008E1B9F0B311042C02150310953E0220F93
:1008C000331F5A95E1F7820F931F680F791FF701C5
:1008D00075836483808591E08927A0960FB6F8948C
:1008E000DEBF0FBECDBFDF91CF911F910F91FF9063
:1008F000EF90DF90CF90BF90AF909F908F907F90C0
:100900006F905F904F903F900895D501A81BB90B51
:10091000A90113E0440F551F1A95E1F74A0F5B1F19
:10092000B1CF14960D911C9115970417150709F472
:1009300075CF0D90BC91A02D11E0AACF43E0220FFE
:10094000331F4A95E1F7281B390B2F5F3F4F620F8A
:10095000731FBDCF81E0C1CF8F929F92AF92BF92A4
:10096000CF92DF92EF92FF920F931F93CF93DF937B
:100970001F92CDB7DEB7009709F451C0611571051C
:1009800009F44DC0DC01ED91FC91119786809780B0
:10099000198218962C91223009F458C008F04DC0E5
:1009A000213009F451C0B0E3B81508F453C08820D1
:1009B00009F453C0E0E2E91508F452C0992009F4A3
:1009C00052C0E82DF0E09F012150310913E0359528
:1009D00027951A95E1F7A90103E0440F551F0A95E1
:1009E000E1F7E41BF50B492D50E0122F002790FC96
:1009F0003DC041505109B3E0440F551FBA95E1F78E
:100A00000E0F1F1F040F151F5B017C01B8010E9410
:100A1000AB03811135C081E0D70153968C930F90C1
:100A2000DF91CF911F910F91FF90EF90DF90CF90CA
:100A3000BF90AF909F908F900895233049F024305D
:100A400009F0B1CF8394AFCF9394ADCF9A94ABCF4D
:100A50008A94A9CF88248394ADCF10E3812EAACFA6
:100A600099249394AECFB0E29B2EABCF0F5F1F4F74
:100A70000E1B1F0BA3E0440F551FAA95E1F7C2CF31
:100A80009E012F5F3F4FA801B501C7010E94BD0322
:100A9000882309F2F701C080D1808981811129C0A2
:100AA000A281B3811296ED91FC911397309789F44E
:100AB000D60116968C92169717969C9217971596B4
:100AC0001C930E9314971982B501C7010E94080266
:100AD000A6CF868116968C931697878117968C934E
:100AE00017978481958115969C938E931497DF01B7
:100AF000D9CFF60186809780D70118968C918230E5
:100B000009F45FC008F054C0813009F458C0B0E364
:100B1000B81508F45AC0882009F45AC0E0E2E91573
:100B200008F459C0992009F459C0482D50E0CA0171
:100B3000019723E0959587952A95E1F79C0163E05D
:100B4000220F331F6A95E1F7421B530B292D30E02A
:100B5000182F002790FC45C02150310993E0220F47
:100B6000331F9A95E1F7040F151F020F131FB801E9
:100B7000C7010E94AB03882309F44DCFF701A2817E
:100B8000B3811296ED91FC911397309709F490CFB1
:100B9000868116968C931697878117968C93179754
:100BA0008481958115969C938E931497DF01E9CFEC
:100BB000833049F0843009F0AACF8394A8CF93946E
:100BC000A6CF9A94A4CF8A94A2CF88248394A6CF48
:100BD000F0E38F2EA3CF99249394A7CFE0E29E2E2B
:100BE000A4CF0F5F1F4F041B150B83E0220F331F91
:100BF0008A95E1F7BACF2F923F924F925F926F9210
:100C00007F928F929F92AF92BF92CF92DF92EF929C
:100C1000FF920F931F93CF93DF9300D000D000D0AB
:100C20001F92CDB7DEB77C015B01412CA2E0CA2E3A
:100C3000D12C10E1B8E15B2E22242394312C612EBB
:100C4000712CC30123E0880F991F2A95E1F79F8338
:100C50008E8391E0691A710833E0660C771C3A952F
:100C6000E1F7CB821982E12FE170ED834110EEC0F4
:100C70005A94852C912CB4016150710977FF02C000
:100C8000695F7F4FE3E075956795EA95E1F7862FF9
:100C9000880F880F880F252D281B822F90E06F5F0B
:100CA0006150770B762F66273D813111D1C0860DBB
:100CB000971D680F791F00E0212F452DC7010E9465
:100CC000C402B501C7010E9408023FE38DE093E032
:100CD000315080409040E1F700C00000E981EF5FB3
:100CE000E983FB81EF13C2CF96012F5F3F4F3C8317
:100CF0002B83C40101979A83898397FF04C0F40171
:100D00003696FA83E98329813A8163E03595279500
:100D10006A95E1F7822F880F880F880F852C881A33
:100D2000912CC101881999099A8389832F5FE22F39
:100D3000E150FF0B3E2F22273F832E83712C612C25
:100D400041108FC01150612F70E010FD8CC06150B8
:100D5000710953E0660F771F5A95E1F7680D791D09
:100D60008E819F81680F791F00E0212F452DC701DB
:100D70000E94C402B501C7010E9408023FE38DE052
:100D800093E0315080409040E1F700C00000EFEF69
:100D90006E1A7E0A2B813C816216730688F232E05D
:100DA000C30ED11C81E04826B501C7010E9408028C
:100DB0009FE3EDE0F3E09150E040F040E1F700C048
:100DC000000026E0C216D10409F039CF80E09FEF81
:100DD000A0E0B0E0F70182879387A487B58724E07D
:100DE00030E03A8329830E94AB02B501C7010E941B
:100DF00008023FE78FE492E1315080409040E1F7F4
:100E000000C00000E981FA813197FA83E983EF2B72
:100E100051F70E94AB02C70127960FB6F894DEBFC8
:100E20000FBECDBFDF91CF911F910F91FF90EF903B
:100E3000DF90CF90BF90AF909F908F907F906F90FA
:100E40005F904F903F902F900C942503539411CFB7
:100E5000F101E81BF90BCF012E813F81820F931F17
:100E600028CF1F5F70CF43E0660F771F4A95E1F7E9
:100E7000E981FA816E0F7F1F2E813F81620F731F00
:100E800073CFEF92FF920F931F93CF93DF93EC01F9
:100E90007B0180E09FEFA0E0B0E08A879B87AC8772
:100EA000BD870AE010E00E94AB02B701CE010E94AC
:100EB00008022FE78FE492E1215080409040E1F753
:100EC00000C000000150110971F7CE01DF91CF91F0
:100ED0001F910F91FF90EF900C942503389A0E9478
:100EE000CB01219A29988AB183608AB98BB183603A
:100EF0008BB92FE784E89EE1215080409040E1F7D4
:100F000000C000000E9465000E947B002FE38DE07E
:100F100093E0215080409040E1F700C000000E9423
:100F200015012FE38DE093E0215080409040E1F7E0
:100F300000C000000E94C8002FE38DE093E0215024
:100F400080409040E1F700C000000E9415012FE3AF
:100F50008DE093E0215080409040E1F700C0000018
:100F60000E942C012FE38DE093E0215080409040BF
:100F7000E1F700C000000E9415012FE38DE093E02F
:100F8000215080409040E1F700C00000BDCF97FBAA
:100F9000072E16F4009407D077FD09D00E94DB07D6
:100FA00007FC05D03EF4909581959F4F089570956C
:100FB00061957F4F0895AA1BBB1B51E107C0AA1F73
:100FC000BB1FA617B70710F0A61BB70B881F991FEA
:100FD0005A95A9F780959095BC01CD0108950F937E
:100FE0001F93CF93DF938230910510F482E090E05D
:100FF000E0915A01F0915B0130E020E0B0E0A0E028
:10100000309799F42115310509F44AC0281B390B92
:1010100024303105D8F58A819B816115710589F1EC
:10102000FB0193838283FE0111C0408151810281C3
:10103000138148175907E0F04817590799F410979A
:1010400061F012960C93129713961C933296CF016F
:10105000DF91CF911F910F91089500935A01109342
:101060005B01F4CF2115310551F04217530738F0D9
:10107000A901DB019A01BD01DF01F801C1CFEF0138
:10108000F9CF90935B0180935A01CDCFFE01E20F1F
:10109000F31F819391932250310939832883D7CF4D
:1010A0002091580130915901232B41F420912101C5
:1010B00030912201309359012093580120911F0152
:1010C000309120012115310541F42DB73EB74091F3
:1010D000230150912401241B350BE0915801F0911C
:1010E0005901E217F307A0F42E1B3F0B281739070D
:1010F00078F0AC014E5F5F4F2417350748F04E0F74
:101100005F1F5093590140935801819391939FCF52
:10111000F0E0E0E09CCFCF93DF930097E9F0FC0193
:10112000329713821282A0915A01B0915B01ED01B6
:1011300030E020E01097A1F420813181820F931FCD
:1011400020915801309159012817390709F061C0E1
:10115000F0935901E0935801DF91CF910895EA018E
:10116000CE17DF07E8F54A815B819E0141155105E5
:10117000B1F7E901FB83EA8349915991C40FD51F67
:10118000EC17FD0761F4808191810296840F951F11
:10119000E90199838883828193819B838A83F0E02C
:1011A000E0E012968D919C9113970097B9F52D91DF
:1011B0003C911197CD010296820F931F2091580107
:1011C000309159012817390739F6309751F51092A7
:1011D0005B0110925A01B0935901A0935801BCCF02
:1011E000D383C28340815181840F951FC817D907CB
:1011F00061F44E5F5F4F88819981480F591F518379
:1012000040838A819B81938382832115310509F074
:10121000B0CFF0935B01E0935A019ECFFD01DC015A
:10122000C0CF13821282D7CF8F929F92AF92BF927C
:10123000CF92DF92EF92FF92CF93DF93EC01688120
:1012400079818A819B81611571058105910521F460
:1012500064E279ED8BE597E02DE133EF41E050E07A
:101260000E94110C49015A019B01AC01A7EAB1E4AB
:101270000E94300C6B017C01ACEEB4EFA50194012F
:101280000E943E0CDC01CB018C0D9D1DAE1DBF1DCF
:10129000B7FF03C00197A109B04888839983AA8347
:1012A000BB839F77DF91CF91FF90EF90DF90CF903E
:1012B000BF90AF909F908F9008950E941409089559
:1012C00085E291E00E9414090895B0E0A0E08093C7
:1012D000250190932601A0932701B093280108953A
:1012E000AEE0B0E0E6E7F9E00C94510C0D891E8900
:1012F00086E08C831A8309838FEF9FE79E838D831B
:10130000AE01475E5F4F6F89788DCE0101960E94D6
:1013100093092F813885020F131FF80110822E9632
:10132000E4E00C946D0CABE0B0E0E9E9F9E00C947A
:10133000430C7C013B018A01FC01178216828381E8
:1013400081FFC8C1CE0101965C01F7019381F301D1
:1013500093FD859193FF81913F01882309F453C147
:10136000853239F493FD859193FF81913F01853258
:1013700029F4B70190E00E94830BE7CF912C212C38
:10138000312CFFE1F31538F08B3211F190F48032FB
:1013900009F1833229F137FC3CC020ED280F2A30B7
:1013A00050F536FE20C08AE0989E200D1124922E22
:1013B00006C08D3291F0803371F7689430F8F301F4
:1013C00093FD859193FF81913F018111DACF21C077
:1013D000689431F8689432F8F2CF689433F8EFCF1C
:1013E000689434F8ECCFEAE02E9E200D1124222ED2
:1013F000689435F8E4CF8E3229F436FC04C1689441
:1014000036F8DDCF8C3619F4689437F8D8CF8836A3
:10141000B1F2982F9F7D95549330E0F08336A1F17F
:101420008337C1F1833509F063C02801F2E04F0E24
:10143000511CF801C080D180692D70E036FC02C0DB
:101440006FEF7FEFC6010E946D0B4C01689437F877
:1014500082010AC00C5F1F4FFFE3F9838824839445
:10146000912C6501E89437F833FE2DC0522C81147D
:10147000910471F5552009F468CFB70180E290E03E
:101480000E94830B5A94F6CFF801808189830E5F06
:101490001F4FE4CF2801F2E04F0E511CF801C0802D
:1014A000D180692D70E036FC02C06FEF7FEFC6017E
:1014B0000E94780B4C018201D5CFB70180E290E009
:1014C0000E94830B2A942814190409F0B0F7CECF98
:1014D000F60137FC859137FE81916F01B70190E0ED
:1014E0000E94830B51105A94F1E08F1A9108BFCFDC
:1014F000843619F0893609F077C0F80137FE6BC0E1
:1015000060817181828193810C5F1F4FF32DFF7683
:101510003F2E97FF09C090958095709561957F4FFC
:101520008F4F9F4F689437F82AE030E0A5010E9462
:10153000B30BC82ECA188C2C432C36FE0CC0E89472
:1015400040F8C91440F434FE05C032FC03C0F32D4A
:10155000FE7E4F2E892C44FE95C0FE01EC0DF11D40
:101560008081803309F087C0242D297E422E842D6E
:101570008870582E43FC95C040FE8FC09C2C82146E
:1015800018F42C0C922C981844FE91C0B70180E3FB
:1015900090E00E94830B42FE09C088E790E041FE84
:1015A00002C088E590E0B7010E94830BC91408F4DB
:1015B0008AC0CA94D12C9FEFC91AD90ACA0CDB1C65
:1015C000F60182916F01B70190E00E94830BAC1489
:1015D000BD04B1F74FCF60817181072E000C880BDD
:1015E000990B0E5F1F4F92CFD32CE894D4F82AE0CA
:1015F00030E0853739F1232D297FD22E8F3601F146
:1016000048F48835A9F0F701868197812B96E2E1AD
:101610000C945F0C803749F08837A9F7D4FE02C0DC
:101620006894D2F820E130E00DC06894D4F8F6CF89
:1016300034FE03C0822F8660D82E20E132E002C043
:1016400028E030E0F801D7FE0FC06081718182810F
:1016500093810C5F1F4FA5010E94B30BC82ECA18BF
:101660003D2CE89437F867CF6081718190E080E08D
:101670000E5F1F4FF0CF42FC02C0839478CF83945B
:10168000839475CF842D867809F471CFF6CFB70196
:1016900080E290E00E94830B83948214C0F3512C6B
:1016A00073CF522C5818821408F46ECFF8CF842DC3
:1016B000867809F47BCF8BE241FE80E247FC8DE225
:1016C000B70190E071CFB70180E390E00E94830BF7
:1016D0009A946CCF8FEF9FEF99CFFC0105906150EA
:1016E00070400110D8F7809590958E0F9F1F089538
:1016F000FC016150704001900110D8F780959095E1
:101700008E0F9F1F08950F931F93CF93DF93182F72
:10171000092FEB018B8181FD09C01FEF0FEF812F96
:10172000902FDF91CF911F910F91089582FF14C0E8
:101730002E813F818C819D81281739073CF4E881F7
:10174000F981CF0101969983888310838E819F81CF
:1017500001969F838E83E3CFE885F985812F0995D4
:10176000892BA1F3DACFFA01AA27283051F12031D1
:1017700081F1E8946F936E7F6E5F7F4F8F4F9F4F25
:10178000AF4FB1E03ED0B4E03CD0670F781F891F67
:101790009A1FA11D680F791F8A1F911DA11D6A0F35
:1017A000711D811D911DA11D20D009F468943F91E8
:1017B0002AE0269F11243019305D3193DEF6CF01E7
:1017C0000895462F4770405D4193B3E00FD0C9F7AD
:1017D000F6CF462F4F70405D4A3318F0495D31FD1A
:1017E0004052419302D0A9F7EACFB4E0A69597956D
:1017F000879577956795BA95C9F700976105710543
:1018000008959B01AC010A2E06945795479537958C
:101810002795BA95C9F7620F731F841F951FA01DE6
:101820000895052E97FB1EF400940E94280C57FD86
:1018300007D00E947A0C07FC03D04EF40C94280CBD
:1018400050954095309521953F4F4F4F5F4F0895EC
:1018500090958095709561957F4F8F4F9F4F08951C
:101860000E949C0CA59F900DB49F900DA49F800D8D
:10187000911D11240895B7FF0C94300C0E94300C78
:10188000821B930B08952F923F924F925F926F921B
:101890007F928F929F92AF92BF92CF92DF92EF9200
:1018A000FF920F931F93CF93DF93CDB7DEB7CA1B81
:1018B000DB0B0FB6F894DEBF0FBECDBF09942A88AC
:1018C000398848885F846E847D848C849B84AA8454
:1018D000B984C884DF80EE80FD800C811B81AA81E1
:1018E000B981CE0FD11D0FB6F894DEBF0FBECDBFAC
:1018F000ED010895A1E21A2EAA1BBB1BFD010DC02C
:10190000AA1FBB1FEE1FFF1FA217B307E407F507AF
:1019100020F0A21BB30BE40BF50B661F771F881F8B
:10192000991F1A9469F760957095809590959B0121
:10193000AC01BD01CF010895A29FB001B39FC001CA
:10194000A39F700D811D1124911DB29F700D811DEB
:0A1950001124911D0895F894FFCFB3
:10195A00000000002101080500000000000000004E
:10196A0000030000FFD7000000FF00000000FF0096
:10197A00005C0120000100000042656C6C79204384
:0A198A006F756E743A2025640A00A0
:04000003000000CA2F
:00000001FF
