:100000000C9434000C9451000C9451000C94510049
:100010000C9451000C94DE070C9451000C94510088
:100020000C9451000C9451000C9451000C9451000C
:100030000C9451000C9451000C9451000C945100FC
:100040000C9451000C9451000C9451000C945100EC
:100050000C9451000C9451000C9451000C945100DC
:100060000C9451000C94510011241FBECFEFD4E02A
:10007000DEBFCDBF12E0A0E0B1E0EEEBFFE102C0D9
:1000800005900D92A03AB107D9F722E0A0EAB2E0BC
:1000900001C01D92AB3DB207E1F70E94840A0C94A7
:1000A000DD0F0C9400000F931F93CF93DF938C010F
:1000B000EB01DC0116964D915C91179770E060E0C2
:1000C00014968D919C910E94AB0C82E0C115B2E018
:1000D000DB0781F0C115E4E0DE0739F080E0C115EF
:1000E000F8E0DF0739F483E005C083E791E00E9480
:1000F000710981E08C60D8011496ED91FC911597FF
:100100009C2F907F982B90831496ED91FC911597DE
:1001100090819B7F9183EFE3FFE13197F1F700C07E
:1001200000001496ED91FC911597C295C07FC82BE5
:10013000C2831496ED91FC91159782818B7F838306
:100140001496ED91FC911482DF91CF911F910F9144
:1001500008950F931F93CF93DF93EC018B0168E217
:1001600070E00E9453008C819D8199838883B8013F
:10017000CE010E9496078FE891E00197F1F700C049
:10018000000068E270E0CE010E9453008C819D81E6
:1001900099838883B801CE010E949607AFE8B1E049
:1001A0001197F1F700C0000061E070E0CE010E94FD
:1001B00053008C819D8199838883B801CE010E9470
:1001C00096078FED9EE20197F1F700C0000066E010
:1001D00070E0CE010E9453008C819D8199838883B9
:1001E000B801CE010E949607AFE8B1E01197F1F790
:1001F00000C000006FE070E0CE010E9453008C81CF
:100200009D8199838883B801CE010E9496078FE86B
:1002100091E00197F1F700C0000064E170E0CE01C9
:100220000E9453008C819D8199838883B801CE01FF
:100230000E949607AFE8B1E01197F1F700C0000007
:1002400062E070E0CE010E9453008C819D81998311
:100250008883B801CE010E9496078FED9EE2019738
:10026000F1F700C00000EC81FD8186E0DF011D9206
:100270008A95E9F7DF91CF911F910F910895CF9261
:10028000DF92EF92FF920F931F93CF93DF936C0156
:10029000FC01C081D181FE0101900020E9F78F01AE
:1002A0000150110980EAE82E82E0F82EC017D1072C
:1002B00049F4DF91CF911F910F91FF90EF90DF9064
:1002C000CF9008958991982F907F9D609093A00280
:1002D0009B7F9093A102F0E18F02C00111248D60F9
:1002E0008093A2028B7F8093A3021092A402F60156
:1002F000F182E082C6010E9418078FEE90E001971C
:10030000F1F700C00000D2CFEF92FF920F931F933E
:10031000CF93DF93DC01ED90FC90E114F10489F1BF
:100320008B01EC0160E870E00E9453008C819D819C
:1003300099838883B801CE010E949607EFE8F1E027
:100340003197F1F700C0000060E074E0CE010E9438
:1003500053008C819D8199838883C8010E94BC06CB
:10036000CE010E941807F982E882CE010E943F0167
:100370000E94E306EC81FD8186E0DF011D928A95F3
:10038000E9F7DF91CF911F910F91FF90EF900895C2
:10039000DF92EF92FF920F931F93CF93DF93EC01C5
:1003A000F62E172FD42EE22E892BD9F089E090E07B
:1003B0000E942A0BFC01892BA1F000871382128274
:1003C00011821082D682E782F48215838E819F810A
:1003D000009779F4F983E883FB83EA8301969F838E
:1003E0008E83DF91CF911F910F91FF90EF90DF905F
:1003F0000895A881B981B183A0831396FC93EE93ED
:100400001297F983E883EACFCF93DF93EC01892B2E
:10041000A1F088819981009781F02A813B81821720
:10042000930771F4198218821B821A820E94C60BEC
:100430008E819F8101979F838E83DF91CF91089555
:10044000DC01ED91FC91F983E88313821282EECFF7
:10045000CF93DF93EC018E819F81892B19F4DF917B
:10046000CF910895CE010E940402F5CF0F931F9300
:10047000CF93DF939B01FC01329681E090E08217DD
:10048000930728F0DF91CF911F910F910895DF011D
:100490006D917D91AC01415051098F0157FD05C00F
:1004A000D291C2916C177D0730F0F801718360839F
:1004B0000196FD01E4CFD383C283EDCFDF92EF92AB
:1004C000FF920F931F93CF93DF93F82E192FD62E01
:1004D000E72EC6E1D0E04C2F4F5F9E0183E03595BB
:1004E00027958A95E1F7822F880F880F880F642F50
:1004F000681B70E068587F4F2F5F2150330B322FFD
:100500002227620F731F00E020E18F2D912F0E94A0
:10051000C8012197C230D105F1F66D2D7E2D8F2DAA
:10052000912FDF91CF911F910F91FF90EF90DF906E
:100530000C94BF099B01DC01ED91FC91309711F403
:1005400081E00895848195818217930721F00190BD
:10055000F081E02DF3CF80E008953F924F925F92BB
:100560006F927F928F929F92AF92BF92CF92DF92C3
:10057000EF92FF920F931F93CF93DF93CDB7DEB728
:10058000A0970FB6F894DEBF0FBECDBF6C017B0104
:10059000F901DB0114966D917C91159781E0641748
:1005A000750709F092C0808318960C9118971796DA
:1005B0002C91179716964C91C6010E94C801F6011E
:1005C00087818F9386818F9383E891E09F938F93A8
:1005D000CE0101969F938F930E94C40C0F900F90B1
:1005E0000F900F900F900F9000E3802E912C80E2DF
:1005F000A82EB12C66246394712C0E949B0CB4012C
:100600000E94D90A44244394480E0E949B0CB501D1
:100610000E94D90A55245394580E642D70E0F52D8C
:10062000F1703F2E852D90E0AB014150510957FFED
:1006300002C0495F5F4FB3E055954795BA95E1F722
:100640004F5F4150550B342F222738A32F8F311085
:1006500054C09C0121503109A3E0220F331FAA95F9
:10066000E1F7260F371FAF8DB8A12A0F3B1FF60108
:10067000A081B18110E0109709F04FC0112309F457
:10068000BCCFD70116964C92169717965C92E3E072
:10069000440F551FEA95E1F7641B750B31104AC0F2
:1006A000019733E0880F991F3A95E1F7680F791F9A
:1006B000EF8DF8A1E60FF71FD7011596FC93EE9387
:1006C000149718968C9191E08927A0960FB6F8940C
:1006D000DEBF0FBECDBFDF91CF911F910F91FF9075
:1006E000EF90DF90CF90BF90AF909F908F907F90D2
:1006F0006F905F904F903F900895D301A61BB70B6A
:100700009C01F3E0220F331FFA95E1F72A0F3B1FFC
:10071000EF8DF8A12E0F3F1FAACF14960D911C91BB
:1007200015970217130709F468CF0D90BC91A02DFF
:1007300011E0A1CF23E0880F991F2A95E1F7861BCE
:10074000970B0196EF8DF8A1E80FF91FB5CF8F92A7
:100750009F92AF92BF92CF92DF92EF92FF920F9350
:100760001F93CF93DF930F92CDB7DEB77C016B0160
:10077000009709F450C0672B09F44DC0DC01ED91DE
:10078000FC91119786809780198218968C918330FE
:1007900009F458C008F04DC0813009F44FC08230D0
:1007A00009F44EC0B0E3B81508F44EC0811002C081
:1007B00080E3882EE0E2E91508F449C0911002C0F8
:1007C00000E2902E482D50E0CA010197BC01B3E031
:1007D00075956795BA95E1F7887F292D30E0762FDA
:1007E000662790FC37C021503109A3E0220F331F48
:1007F000AA95E1F78A01060F171F081B190B020FB4
:10080000131FB801C7010E949A02811130C081E014
:10081000D70153968C930F90DF91CF911F910F9139
:10082000FF90EF90DF90CF90BF90AF909F908F9010
:100830000895843009F0B6CF8394B4CF9394B2CFA7
:100840009A94B0CF8A94AECF88248394B3CF99245E
:100850009394B8CF8C01041B150B0F5F1F4F060F2D
:10086000171FF3E0220F331FFA95E1F7C8CF9E015F
:100870002F5F3F4FA801B601C7010E94AD02882338
:1008800031F2F701A080B1808981811129C0A28154
:10089000B3811296ED91FC911397309789F4D501AD
:1008A00016968C92169717969C92179715961C93EE
:1008B0000E9314971982B601C7010E94BF09ABCFEE
:1008C000868116968C931697878117968C93179727
:1008D0008481958115969C938E931497DF01D9CFCF
:1008E000F50106811781D70118968C91833009F4A0
:1008F00058C008F04DC0813009F44FC0823009F46F
:100900004EC0013308F04FC0011101C000E31132A5
:1009100008F04BC0111101C010E2402F50E0CA0195
:1009200001979C0173E0359527957A95E1F7887FCB
:10093000812E912C322F222710FD39C0B1E08B1A65
:10094000910863E0880C991C6A95E1F7240F351F24
:10095000281B390B820E931EB401C7010E949A0214
:10096000882309F454CFF701A281B3811296ED9147
:10097000FC911397309741F5D50116960C93169775
:1009800017961C93179715969C928E92149792CF58
:10099000843009F0B6CF0F5FB4CF1F5FB2CF1150D4
:1009A000B0CF0150AECF01E0B2CF11E0B6CF841B83
:1009B000950B0196820F931F23E0880C991C2A95B2
:1009C000E1F7880E991EC8CF868116968C931697EC
:1009D000878117968C9317978481958115969C93A0
:1009E0008E931497DF01C2CF2F923F924F925F9266
:1009F0006F927F928F929F92AF92BF92CF92DF922F
:100A0000EF92FF920F931F93CF93DF9300D000D00C
:100A100000D0CDB7DEB77C01562E172F72E0372EEF
:100A200023E02983412C30E13D8388E18E838824B3
:100A30008394912C3D8128E0329F30011124E32FD3
:100A4000E150FF0B9F0183E0220F331F8A95E1F7EE
:100A50003B832A83212C3D8131703C834110CDC0E2
:100A60009E8191509E83FE812F2F30E0C901019716
:100A700097FD079663E0959587956A95E1F7CC24F5
:100A8000C394C80E880F880F880FAE80A81AB12CA7
:100A9000D12C2C812111B5C0B60161507109762F7E
:100AA00066278A819B818A0D9B1D680F791F00E054
:100AB0002D814E81C7010E94C801652D712FC7018C
:100AC0000E94BF093FEF80E792E0315080409040A4
:100AD000E1F700C0000023942310C0CF34016A184E
:100AE0007B08E1E0CE1AD108DC2CCC24212C41106B
:100AF00092C0FD81F150FD833D81632F70E030FD98
:100B00008EC06150710923E0660F771F2A95E1F7C7
:100B10006A0D7B1D6C0D7D1D00E02D814E81C7018E
:100B20000E94C801652D712FC7010E94BF098FEF78
:100B300090E7E2E081509040E040E1F700C0000023
:100B40002394F9812F12D3CF21E04226652D712FF6
:100B5000C7010E94BF093FEF80E792E0315080401B
:100B60009040E1F700C00000E2E0E20DE983339439
:100B70003394F5E02F125ECF80E09FEFA0E0B0E06D
:100B8000F70182879387A487B58724E030E03B8311
:100B90002A830E94600A652D712FC7010E94BF0938
:100BA0003FEF85EA9EE0315080409040E1F700C081
:100BB0000000EA81FB813197FB83EA83EF2B49F741
:100BC0000E94600AC70126960FB6F894DEBF0FBEDA
:100BD000CDBFDF91CF911F910F91FF90EF90DF90EC
:100BE000CF90BF90AF909F908F907F906F905F90CD
:100BF0004F903F902F900C942802EE81EF5FEE8390
:100C000032CFB4016A197B09660D771DC6010197C1
:100C1000982F88274ACF2D812F5F2D836DCF93E0AA
:100C2000660F771F9A95E1F7660D771D73CFEF92E8
:100C3000FF920F931F93CF93DF93EC017B0180E032
:100C40009FEFA0E0B0E08A879B87AC87BD870AE072
:100C500010E00E94600AB701CE010E94BF092FEF89
:100C600085EA9EE0215080409040E1F700C00000FE
:100C70000150110971F7CE01DF91CF911F910F91B2
:100C8000FF90EF900C9428028AB1837C8AB98BB1D3
:100C90008C638BB9DA9AEDE6F0E080818C63808317
:100CA000E8E6F0E0808184608083789408950E9473
:100CB00044060E948A090C94250886B590E025EA2E
:100CC000822792270C94A00CCF93DF93EC018885A8
:100CD000843081F108F5813039F12C813D814E81DC
:100CE0005F8160E074E284EF90E00E94ED0ACA0147
:100CF000B9016051710981099109288530E0220FFD
:100D0000331F032E000C440B550B0E94ED0A209359
:100D1000B800DF91CF9108958031A9F08034E9F6D1
:100D20008091B900826009C08091B9008C7F809366
:100D3000B900D3CF8091B9008D7F8093B9008091A5
:100D4000B9008160F4CF8091B90082608093B900CE
:100D50008091B9008E7FEBCFFC018385823038F023
:100D60008051823020F084E991E00C94710908955B
:100D70000895089508950895FC019185990F82853D
:100D80008170892B9091BC00946A9093BC009091E3
:100D9000BC0097FFFCCF8093BB008091BC008F7D8F
:100DA0008093BC008091BC0084688093BC008091DB
:100DB000BC0087FFFCCF8091B900887F08958091A7
:100DC000B900887F0895ECEBF0E08081846980832E
:100DD0008091B900887F08950F931F93CF93DF937D
:100DE0008C01EB01FC0191858B85981719F0CB01E3
:100DF0000E94AC06F80190858985981719F0CE01FC
:100E00000E9464061AE0CE010E94BC06883159F0A7
:100E10009091BC0094699093BC00F5E0FA95F1F7CD
:100E20000000115081F7DF91CF911F910F9108952C
:100E300030E020E064E8FC0142815381241735074B
:100E400008F008954091BC0047FFFCCFDC01ED9114
:100E5000FC91E20FF31F40814093BB006093BC0004
:100E60004091B9004832E1F72F5F3F4FE4CF009740
:100E700081F0FC0180819181892B59F0672B49F029
:100E80008091BC0084698093BC008091B900887F08
:100E90000895089508950F931F93CF93DF93CDB7CF
:100EA000DEB7EC970FB6F894DEBF0FBECDBF8E0154
:100EB0000F5F1F4F8CE3F80111928A95E9F7C80183
:100EC0000E94B20C8091B900887F803231F148F4E1
:100ED000883081F06FEC71E0883171F084E892E045
:100EE0000FC08033E9F08833F1F08832B9F76EE053
:100EF00072E002C06FEA71E0C8010E94B20CC80142
:100F00000E947109EC960FB6F894DEBF0FBECDBFFC
:100F1000DF91CF911F910F9108956AEE71E0ECCFB0
:100F200064E372E0E9CF62E672E0E6CF0F931F93CD
:100F3000CF93DF93009709F43FC0FC0120813181FA
:100F4000232BD1F161157105B9F18B01EC010E94E0
:100F5000EC068091B900887F883151F162E972E036
:100F6000C8010E944B078091BC0084698093BC003B
:100F70008091B900887FDF91CF911F910F910895E3
:100F80002091BC0027FFFCCFE881F981E80FF91F11
:100F900020812093BB004093BC002091B9002832EF
:100FA000E1F701962A813B818217930748F3DBCF53
:100FB00090E080E044E8F6CF81E0DDCF1F920F9211
:100FC0000FB60F9211248F939F9399B180910001D6
:100FD00089279093000182FF0AC091E09093390124
:100FE00090933A01909143019F5F9093430183FF57
:100FF0000BC092E09093390191E090933A01909167
:1010000043019F5F9093430184FF0BC093E0909353
:10101000390191E090933A01909143019F5F909341
:10102000430185FF0BC084E08093390181E0809308
:101030003A01809143018F5F809343019F918F918B
:101040000F900FBE0F901F90189584B18A6384B9DA
:101050002A9A2498299A8CB58CBD8CB580648CBD55
:101060008CB58CBD8CB580618CBD8CB58CBD8CB5C0
:101070008CBD8CB582608CBD8CB58CBD8DB58DBDA5
:1010800008950C9425082998DC01FC0101900020AA
:10109000E9F73197E81BF90B9D01281B390B2E1737
:1010A0003F0710F0299A08952D912EBD0DB407FE2B
:1010B000FDCFEBCF680F791F8617970709F40895C6
:1010C000FC012191CF012EBD0DB407FEFDCFF4CF61
:1010D00008952998680F791F8617970711F4299AA0
:1010E00008951EBC0DB407FEFDCF2EB5FC01219363
:1010F000CF01F2CF680F791F8617970709F408957B
:101100001EBC0DB407FEFDCF2EB5FC012193CF010F
:10111000F3CF0895CF93DF9300D000D0CDB7DEB7E3
:101120000E940F0B69837A838B839C8364E070E059
:10113000CE0101960E945A080F900F900F900F90C9
:10114000DF91CF910895CF93DF9300D000D00F921D
:10115000CDB7DEB789832998DB01CA01B2608A83E3
:101160009B83AC83BD83BC01CD010E948A0861E0F2
:1011700070E0CE0101960E945A08299A0F900F90B4
:101180000F900F900F90DF91CF9108950F931F93C1
:10119000CF93DF9300D000D000D0CDB7DEB78E83E1
:1011A0009D8389012998DB01CA01B26089839A83F2
:1011B000AB83BC83BC01CD010E948A08B8018E813B
:1011C0009D810E945A08299A26960FB6F894DEBF90
:1011D0000FBECDBFDF91CF911F910F910895CF9397
:1011E000DF9300D000D000D0CDB7DEB78D839E83D3
:1011F000AD81BE811C922998DB01CA01B36089834D
:101200009A83AB83BC83BC01CD010E948A081EBCBB
:101210000DB407FEFDCF8EB5AD81BE818C93299AAA
:1012200026960FB6F894DEBF0FBECDBFDF91CF91EB
:1012300008950F931F93CF93DF9300D000D000D079
:10124000CDB7DEB78E839D838B012998DA01C90162
:10125000B36089839A83AB83BC83BC01CD010E94B8
:101260008A08B8018E819D810E947A08299A269663
:101270000FB6F894DEBF0FBECDBFDF91CF911F91A7
:101280000F910895299885E08EBD0DB407FEFDCF1E
:101290008FEF8EBD0DB407FEFDCF8EB5299A089550
:1012A000982F9F7361F4299891E09EBD0DB407FEBD
:1012B000FDCF8EBD0DB407FEFDCF8EB5299A0895E2
:1012C000680F791F8617970711F408950000209181
:1012D000C00025FFFBCFFC012191CF012093C60068
:1012E000F1CFDC01FC0101900020E9F73197E81B08
:1012F000F90B9D01281B390B2E173F0710F008959D
:1013000000002091C00025FFFBCF2D912093C60047
:10131000E9CF08951092C50087E68093C400E2ECFF
:10132000F0E080818F708083808188608083A0EC72
:10133000B0E08C918D7F8C93A1ECB0E088E18C9330
:101340008C918B7F8C93808186608083089528E0C8
:1013500030E090E8482F4923409A59F043E04A95FD
:10136000F1F7409800C0000096952150310991F79F
:10137000089500C0409843E04A95F1F7F4CF6F928A
:101380007F928F929F92AF92BF92CF92DF92EF9215
:10139000FF920F931F93CF93DF93CDB7DEB7C85C57
:1013A000D1090FB6F894DEBF0FBECDBF8C014B0143
:1013B000CE0101965C0188ECD5011D928A95E9F772
:1013C000D801ED91FC91D501309709F052C0F80198
:1013D00066817781C5010E943602EE24E394F12CE8
:1013E000D12CC12CF4E6CF16D10408F04AC0F60186
:1013F000EE0FFF1FEA0DFB1D808191818E159F0569
:1014000009F03FC0D8011A967C901A971B966C90F1
:101410001B971C968C910E94A709862D0E94A709F4
:10142000872D0E94A709BFEFCB1ADB0ABFEFEB1A8B
:10143000FB0AE1E0EE16E6E0FE06A1F64098F1E2D6
:10144000FA95F1F70000C853DF4F0FB6F894DEBFEE
:101450000FBECDBFDF91CF911F910F91FF90EF9005
:10146000DF90CF90BF90AF909F908F907F906F90C4
:101470000895848195818D939D930190F081E02D55
:10148000A3CFF8018489882399F0D40114968D9113
:101490009C918E159F0561F47684678480890E94F3
:1014A000A709862D0E94A709872D0E94A709BECFF4
:1014B00080E00E94A70980E00E94A70980E0F5CFA4
:1014C000CF93DF93C0E0D6E080E00E94A70980E0E0
:1014D0000E94A70980E00E94A7092197A9F74098D8
:1014E00081E28A95F1F70000DF91CF910895CF93C3
:1014F000DF93C2E1D1E08E819F810E942A0B9D8300
:101500008C83DF91CF910895CF93DF93CDB7DEB772
:101510006E970FB6F894DEBF0FBECDBF389A0E940B
:1015200057060E94600A6CE171E082E191E00E943E
:10153000A90060E571E08E010F5F1F4FC8010E9496
:10154000BD0CC8010E9471092FEF81EE94E021507B
:1015500080409040E1F700C000008091120190911E
:101560001301FC0101900020E9F73197AF01481BFE
:10157000590B70E060E00E94AB0C109313010093D4
:10158000120141E051E06CE171E082E191E00E94E2
:10159000840169E070E08AE691E00E9460092FEF23
:1015A00083E294EF215080409040E1F700C00000BA
:1015B000F0CF97FB072E16F4009407D077FD09D0E3
:1015C0000E94160B07FC05D03EF4909581959F4F25
:1015D0000895709561957F4F0895A1E21A2EAA1B78
:1015E000BB1BFD010DC0AA1FBB1FEE1FFF1FA217D3
:1015F000B307E407F50720F0A21BB30BE40BF50BD0
:10160000661F771F881F991F1A9469F76095709558
:10161000809590959B01AC01BD01CF01089569278C
:10162000962769277827872778270895AA1BBB1B49
:1016300051E107C0AA1FBB1FA617B70710F0A61BD2
:10164000B70B881F991F5A95A9F780959095BC01F3
:10165000CD0108950F931F93CF93DF9382309105AF
:1016600010F482E090E0E091D902F091DA0230E0EB
:1016700020E0B0E0A0E0309799F42115310509F49D
:101680004AC0281B390B24303105D8F58A819B814B
:101690006115710589F1FB0193838283FE0111C0FD
:1016A000408151810281138148175907E0F04817A2
:1016B000590799F4109761F012960C9312971396AC
:1016C0001C933296CF01DF91CF911F910F91089516
:1016D0000093D9021093DA02F4CF2115310551F0AD
:1016E0004217530738F0A901DB019A01BD01DF0160
:1016F000F801C1CFEF01F9CF9093DA028093D902BC
:10170000CDCFFE01E20FF31F819391932250310957
:1017100039832883D7CF2091D7023091D802232B49
:1017200041F420914801309149013093D80220932F
:10173000D70220914601309147012115310541F42E
:101740002DB73EB740914A0150914B01241B350BF8
:10175000E091D702F091D802E217F307A0F42E1B14
:101760003F0B2817390778F0AC014E5F5F4F241705
:10177000350748F04E0F5F1F5093D8024093D702B1
:10178000819391939FCFF0E0E0E09CCFCF93DF93E4
:101790000097E9F0FC01329713821282A091D902DE
:1017A000B091DA02ED0130E020E01097A1F4208141
:1017B0003181820F931F2091D7023091D8022817D0
:1017C000390709F061C0F093D802E093D702DF91A6
:1017D000CF910895EA01CE17DF07E8F54A815B81D2
:1017E0009E0141155105B1F7E901FB83EA83499157
:1017F0005991C40FD51FEC17FD0761F480819181C9
:101800000296840F951FE9019983888382819381D1
:101810009B838A83F0E0E0E012968D919C91139770
:101820000097B9F52D913C911197CD010296820F49
:10183000931F2091D7023091D8022817390739F623
:10184000309751F51092DA021092D902B093D80273
:10185000A093D702BCCFD383C28340815181840F30
:10186000951FC817D90761F44E5F5F4F8881998132
:10187000480F591F518340838A819B8193838283C0
:101880002115310509F0B0CFF093DA02E093D902C7
:101890009ECFFD01DC01C0CF13821282D7CF8F9281
:1018A0009F92AF92BF92CF92DF92EF92FF92CF932F
:1018B000DF93EC01688179818A819B8161157105D3
:1018C0008105910521F464E279ED8BE597E02DE146
:1018D00033EF41E050E00E94650F49015A019B013E
:1018E000AC01A7EAB1E40E94840F6B017C01ACEE6D
:1018F000B4EFA50194010E94920FDC01CB018C0D85
:101900009D1DAE1DBF1DB7FF03C00197A109B048C3
:1019100088839983AA83BB839F77DF91CF91FF90C0
:10192000EF90DF90CF90BF90AF909F908F900895F1
:101930000E944F0C08958CE491E00E944F0C089592
:10194000B0E0A0E080934C0190934D01A0934E0134
:10195000B0934F010895DC0101C06D934150504098
:10196000E0F70895FB01DC010D900020E9F71197E5
:1019700001900D920020E1F70895FB01DC01019038
:101980000D920020E1F70895AEE0B0E0EAECFCE053
:101990000C94A50F0D891E8986E08C831A83098318
:1019A0008FEF9FE79E838D83AE01475E5F4F6F8908
:1019B000788DCE0101960E94E70C2F813885020FA9
:1019C000131FF80110822E96E4E00C94C10FABE0D7
:1019D000B0E0EDEEFCE00C94970F7C013B018A0136
:1019E000FC0117821682838181FFC8C1CE01019656
:1019F0005C01F7019381F30193FD859193FF819140
:101A00003F01882309F453C1853239F493FD859150
:101A100093FF81913F01853229F4B70190E00E9444
:101A2000D70EE7CF912C212C312CFFE1F31538F0A4
:101A30008B3211F190F4803209F1833229F137FCB5
:101A40003CC020ED280F2A3050F536FE20C08AE039
:101A5000989E200D1124922E06C08D3291F0803375
:101A600071F7689430F8F30193FD859193FF8191AC
:101A70003F018111DACF21C0689431F8689432F8BF
:101A8000F2CF689433F8EFCF689434F8ECCFEAE003
:101A90002E9E200D1124222E689435F8E4CF8E322C
:101AA00029F436FC04C1689436F8DDCF8C3619F47D
:101AB000689437F8D8CF8836B1F2982F9F7D955427
:101AC0009330E0F08336A1F18337C1F1833509F01B
:101AD00063C02801F2E04F0E511CF801C080D18094
:101AE000692D70E036FC02C06FEF7FEFC6010E94E7
:101AF000C10E4C01689437F882010AC00C5F1F4F79
:101B0000FFE3F98388248394912C6501E89437F8E6
:101B100033FE2DC0522C8114910471F5552009F427
:101B200068CFB70180E290E00E94D70E5A94F6CFBA
:101B3000F801808189830E5F1F4FE4CF2801F2E016
:101B40004F0E511CF801C080D180692D70E036FC29
:101B500002C06FEF7FEFC6010E94CC0E4C018201E4
:101B6000D5CFB70180E290E00E94D70E2A942814C6
:101B7000190409F0B0F7CECFF60137FC859137FE96
:101B800081916F01B70190E00E94D70E51105A94D5
:101B9000F1E08F1A9108BFCF843619F0893609F029
:101BA00077C0F80137FE6BC06081718182819381BB
:101BB0000C5F1F4FF32DFF763F2E97FF09C09095C6
:101BC0008095709561957F4F8F4F9F4F689437F840
:101BD0002AE030E0A5010E94070FC82ECA188C2CFD
:101BE000432C36FE0CC0E89440F8C91440F434FE8F
:101BF00005C032FC03C0F32DFE7E4F2E892C44FE1F
:101C000095C0FE01EC0DF11D8081803309F087C085
:101C1000242D297E422E842D8870582E43FC95C099
:101C200040FE8FC09C2C821418F42C0C922C981817
:101C300044FE91C0B70180E390E00E94D70E42FEBF
:101C400009C088E790E041FE02C088E590E0B70156
:101C50000E94D70EC91408F48AC0CA94D12C9FEFF1
:101C6000C91AD90ACA0CDB1CF60182916F01B701AF
:101C700090E00E94D70EAC14BD04B1F74FCF608145
:101C80007181072E000C880B990B0E5F1F4F92CFAE
:101C9000D32CE894D4F82AE030E0853739F1232DAD
:101CA000297FD22E8F3601F148F48835A9F0F7014B
:101CB000868197812B96E2E10C94B30F803749F02F
:101CC0008837A9F7D4FE02C06894D2F820E130E04A
:101CD0000DC06894D4F8F6CF34FE03C0822F86601E
:101CE000D82E20E132E002C028E030E0F801D7FE33
:101CF0000FC060817181828193810C5F1F4FA501AC
:101D00000E94070FC82ECA183D2CE89437F867CFF9
:101D10006081718190E080E00E5F1F4FF0CF42FC48
:101D200002C0839478CF8394839475CF842D867872
:101D300009F471CFF6CFB70180E290E00E94D70E90
:101D400083948214C0F3512C73CF522C58188214F0
:101D500008F46ECFF8CF842D867809F47BCF8BE220
:101D600041FE80E247FC8DE2B70190E071CFB70100
:101D700080E390E00E94D70E9A946CCF8FEF9FEF94
:101D800099CFFC010590615070400110D8F7809503
:101D900090958E0F9F1F0895FC0161507040019037
:101DA0000110D8F7809590958E0F9F1F08950F937F
:101DB0001F93CF93DF93182F092FEB018B8181FDA8
:101DC00009C01FEF0FEF812F902FDF91CF911F914F
:101DD0000F91089582FF14C02E813F818C819D81D7
:101DE000281739073CF4E881F981CF0101969983DE
:101DF000888310838E819F8101969F838E83E3CF9A
:101E0000E885F985812F0995892BA1F3DACFFA01AD
:101E1000AA27283051F1203181F1E8946F936E7F29
:101E20006E5F7F4F8F4F9F4FAF4FB1E03ED0B4E01A
:101E30003CD0670F781F891F9A1FA11D680F791F5B
:101E40008A1F911DA11D6A0F711D811D911DA11D6C
:101E500020D009F468943F912AE0269F112430197C
:101E6000305D3193DEF6CF010895462F4770405D17
:101E70004193B3E00FD0C9F7F6CF462F4F70405DC6
:101E80004A3318F0495D31FD4052419302D0A9F721
:101E9000EACFB4E0A6959795879577956795BA951B
:101EA000C9F700976105710508959B01AC010A2EE1
:101EB00006945795479537952795BA95C9F7620FB8
:101EC000731F841F951FA01D0895052E97FB1EF4F8
:101ED00000940E947C0F57FD07D00E94ED0A07FC7A
:101EE00003D04EF40C947C0F50954095309521957D
:101EF0003F4F4F4F5F4F0895909580957095619536
:101F00007F4F8F4F9F4F08950E94CE0FA59F900D3A
:101F1000B49F900DA49F800D911D11240895B7FFCB
:101F20000C94840F0E94840F821B930B08952F92B0
:101F30003F924F925F926F927F928F929F92AF9259
:101F4000BF92CF92DF92EF92FF920F931F93CF93A6
:101F5000DF93CDB7DEB7CA1BDB0B0FB6F894DEBF3D
:101F60000FBECDBF09942A88398848885F846E8463
:101F70007D848C849B84AA84B984C884DF80EE80AD
:101F8000FD800C811B81AA81B981CE0FD11D0FB6B6
:101F9000F894DEBF0FBECDBFED010895A29FB00142
:101FA000B39FC001A39F700D811D1124911DB29F8D
:0E1FB000700D811D1124911D0895F894FFCF2E
:101FBE00FF270000000000000000000000000000ED
:101FCE0000000000000000000600FFFF00000000FF
:101FDE0040420F000127000000000000210108050B
:101FEE00000000000000000000030000FFD700000A
:101FFE0000FF000000000000DB02200001000000D6
:10200E0048454C4C4F20574F524C4420534E414B59
:10201E00452050524F4A454354006C4F4F50494E45
:10202E00470A0049542053484F554C4420484552C6
:10203E00450A0042656C6C7920436F756E743A20C8
:10204E0025640A004572722E2E693263436F6E66E6
:10205E003C496E76616C6964204D6F64653E002E5E
:10206E002E2E20466C6167203C53544152545F52D1
:10207E00455452414E534D49545445443E0A002E48
:10208E002E2E20466C6167203C534C415F504C55C0
:10209E00535F575F41434B3E0A002E2E2E20457252
:1020AE00726F72466C6167203C534C415F504C55C9
:1020BE00535F575F4E4F545F41434B3E0A002E2EE7
:1020CE002E20466C6167203C444154415F42595476
:1020DE00455F5452414E534D49545445445F41431C
:1020EE004B3E0A002E2E2E204572726F72466C6188
:1020FE0067203C444154415F425954455F5452411C
:10210E004E534D49545445445F4E4F5F41434B3EF1
:10211E000A002E2E2E204572726F72466C61672059
:10212E003C4152424954524154494F4E5F4C4F53D9
:10213E00543E0A00556E6B6E6F776E20464C61678B
:10214E000A0069326357726974655F506F6C0000E4
:00000001FF
