:100000000C9434000C9451000C9451000C94510049
:100010000C9451000C9451000C9451000C9451001C
:100020000C9451000C9451000C9451000C9451000C
:100030000C9451000C9451000C9451000C945100FC
:100040000C9451000C9451000C9451000C945100EC
:100050000C9451000C9451000C9451000C945100DC
:100060000C9451000C94510011241FBECFEFD8E026
:10007000DEBFCDBF11E0A0E0B1E0E6ECF2E302C0EC
:1000800005900D92A03BB107D9F722E0A0EBB1E0BB
:1000900001C01D92AA38B207E1F70E942A140C94FD
:1000A00061190C940000CF92DF92EF92FF920F93B0
:1000B0001F93C12CD12C7601970186014FEFC0FC14
:1000C00040E060E080E00E940A0E8FEFC81AD80A74
:1000D000E80AF80AC11486E0D806E104F10461F7E1
:1000E0001F910F91FF90EF90DF90CF900895CF92E6
:1000F000DF92EF92FF920F931F93C12CD12C7601C8
:10010000970186014FEFC0FE40E060E080E00E9472
:100110000A0E8FEFC81AD80AE80AF80AC11486E056
:10012000D806E104F10461F71F910F91FF90EF9061
:10013000DF90CF900895CF93DF93CBEDD1E083E0B4
:1001400090E0A0E0B0E08E8F9F8FA8A3B9A38AEAC9
:1001500090E09BA38AA38BEB90E09DA38CA38CECF7
:1001600090E09FA38EA381E890E09B8F8A8F89E91E
:1001700090E0998F888F64E171E087EE91E00E94B2
:100180005B166AE171E0CE010E945B160E944C1082
:100190000E94AB0F1E8E1F8E18A219A21BA21AA2BC
:1001A0001DA21CA21FA21EA21B8E1A8E198E188EB3
:1001B0008CE0E7EEF1E0DF01982F1D929A95E9F7C8
:1001C000DE011D928A95E9F7DF91CF910895CF93D3
:1001D000DF93DC01ECEBF1E091E094831382108279
:1001E000118282E082839583C5EBD1E0FE83ED83AB
:1001F000E0EBF1E024E230E03183208325E230E0DF
:100200003383228394831196DC93CE931396FC93CD
:10021000EE931297DF91CF910895DF92EF92FF92C4
:100220000F931F93CF93DF930097F9F0122FD42EE3
:100230007B01EC0189E090E00E94D114FC01892B44
:10024000A1F000871382128211821082D682178356
:10025000F582E4828E819F81009779F4F983E883A7
:10026000FB83EA8301969F838E83DF91CF911F9159
:100270000F91FF90EF90DF900895A881B981B1832D
:10028000A0831396FC93EE931297F983E883EACF49
:10029000CF93DF93EC01892BA1F08881998100979E
:1002A00081F02A813B818217930771F419821882A9
:1002B0001B821A820E946D158E819F8101979F83F8
:1002C0008E83DF91CF910895FC01A081B181B98324
:1002D000A88313961C921E921297ECCFCF93DF93B4
:1002E000EC018E819F81892B19F4DF91CF910895C4
:1002F000CE010E944801F5CF0F931F93CF93DF9358
:10030000FC01329681E090E08617970728F0DF9194
:10031000CF911F910F910895DF014D915D919C0147
:10032000215031098F0137FD05C0D291C2914C1780
:100330005D0730F0F801518340830196FD01E4CF61
:10034000D383C283EDCFFC0180E092E1AAE7B0E065
:1003500082879387A487B58780E89AE1A6E0B0E01A
:1003600084839583A683B783118681E0808708956F
:100370000895089508950895CF93DF93EC0188853B
:100380008430E1F168F5813099F16A857B858C854F
:100390009D852C813D814E815F810E948114CA011F
:1003A000B9016051710981099109288530E0220F56
:1003B000331F032E000C440B550B0E948114223076
:1003C00008F422E02093B8008091B80090E0B0E0FB
:1003D000A0E088839983AA83BB83DF91CF9108959E
:1003E0008031A9F0803489F68091B900826009C01B
:1003F0008091B9008C7F8093B900C7CF8091B900FC
:100400008D7F8093B9008091B9008160F4CF809195
:10041000B90082608093B9008091B9008E7FEBCFE4
:10042000CF93DF93EC0187B18F7C87B988B180636C
:1004300088B9662319F0CE010E94A301CE01DF9195
:10044000CF910C94BC010895880F682B8091BC005B
:10045000846A8093BC008091BC0087FFFCCF6093CE
:10046000BB008091BC008F7D8093BC008091BC005C
:1004700084688093BC008091BC0087FFFCCF809192
:10048000B900887F0895ECEBF0E080818469808377
:100490008091B900887F08951F93CF93DF93D82F61
:1004A000162FCAE061E0113009F060E08D2F0E9444
:1004B0002402883159F09091BC0094699093BC005B
:1004C00096E09A95F1F700C0C15061F7DF91CF91A6
:1004D0001F9108958091B90008950F931F93CF93B2
:1004E000DF93EC01892B21F1842F8B0160E00E94C6
:1004F0004C020C0F1D1F94E88831B1F08091B900B7
:10050000DF91CF911F910F910C9443028091BC0019
:1005100087FFFCCF89918093BB009093BC008091B2
:10052000B900887F8832D9F7C017D10779F7E8CFAB
:1005300081E0DF91CF911F910F910895009739F0DD
:10054000FC01680F791F94E8E617F70711F481E0C2
:1005500008958091BC0087FFFCCF81918093BB0000
:100560009093BC008091B900887F8832D9F7ECCF96
:100570000F931F93CF93DF93EC0181E02097A1F0BD
:10058000842F8B0161E00E944C020C0F1D1F94E828
:100590008831E9F08091B9008091BC008469809332
:1005A000BC008091B900887FDF91CF911F910F919E
:1005B00008958091BC0087FFFCCF89918093BB0098
:1005C0009093BC008091B900887F8832D9F7C0171A
:1005D000D10779F7E1CF0097F1F0FC01680F791F9F
:1005E00094E8E617F70741F49091B900987F81E00D
:1005F000983291F480E008958091BC0087FFFCCF91
:1006000081918093BB009093BC008091B900887F5A
:100610008832D9F7E6CF81E00895FC01A281B38149
:100620001296ED91FC911397208114963C9181E0F4
:1006300090E001C0880F3A95EAF780958223808385
:100640000895FC01A281B3811296ED91FC9113975C
:10065000808114969C9121E030E001C0220F9A9590
:10066000EAF7822B80830895DC01ED91FC91A5814E
:10067000B6818C918130C1F0A0F08230C1F083301E
:10068000C9F012968C91803151F1B8F48430F9F0B0
:10069000883009F18230F1F41382148281E0828380
:1006A000089510821182EDCF10828183EACF81E01C
:1006B0008083F8CF81E08083F8CF8034A1F0803848
:1006C000A9F0803239F481E083831482E8CF138269
:1006D000148212820895138281E08483E0CF138212
:1006E00081E08483F6CF81E08383F2CF81E083834E
:1006F000F8CFCF93DF93EC010E94340384B18C6276
:1007000084B9249885B18C6385B9AA81BB81ED91A8
:10071000FC911197208114963C9181E090E0AC010E
:1007200001C0440F3A95EAF7242B2083AA81BB81AC
:100730001296ED91FC911397208114963C9101C083
:10074000880F3A95EAF7822B80838CB5E881F9818E
:100750000580F681E02D938190FB87F98CBD8CB5E7
:10076000E881F9810580F681E02D918190FB85F982
:100770008CBD8CB5E881F9810580F681E02D9581ED
:1007800090FB84F98CBD8CB5E881F981908190FB58
:1007900083F98CBD8CB5E881F981918190FB82F958
:1007A0008CBD8CB5E881F981938190FB81F98CBD7A
:1007B0008CB5E881F981948190FB80F98CBD8DB571
:1007C000E881F981928190FB80F98DBD8CB5E8813B
:1007D000F9810580F681E02D948190FB86F98CBD2E
:1007E000DF91CF9108950F931F93CF93DF938C01E7
:1007F000EB010E940D03DE01FE0101900020E9F7EC
:100800003197EC1BFD0BCD018C1B9D0B8E179F07A9
:1008100038F0C801DF91CF911F910F910C94210303
:100820008D918EBD0DB407FEFDCFE6CF0F931F93C4
:10083000FC018F01081B190B30E020E0041715079D
:100840002607370718F01F910F91089521912EBDAB
:100850000DB407FEFDCFEDCF8EBD0DB407FEFDCF6D
:1008600008958EBD0DB407FEFDCF8EB50895EF92AD
:10087000FF920F931F93CF93DF938C017B01EA01CB
:100880000E940D03F701CE0DDF1DEC17FD0749F4A3
:10089000C801DF91CF911F910F91FF90EF900C94C1
:1008A00021031EBC0DB407FEFDCF8EB58193EDCFA5
:1008B000680F791F8617970709F408951EBC0DB4B9
:1008C00007FEFDCF2EB5FC012193CF01F3CF1EBC57
:1008D0000DB407FEFDCF2EB5FC01208308958F9245
:1008E0009F92AF92BF92CF92DF92EF92FF929B01C5
:1008F000AC01A3E0B0E00E94A3144B015C01C12C49
:10090000D12C76018C149D04AE04BF0451F4FF90E9
:10091000EF90DF90CF90BF90AF909F908F900C940E
:100920006D131EBC0DB407FEFDCF8EB50E94731370
:100930008FEFC81AD80AE80AF80AE4CF680F791FBF
:100940008617970711F4089500002091C00025FF35
:10095000FBCFFC012191CF012093C600F1CFDC0138
:10096000FC0101900020E9F73197E81BF90B9D018C
:10097000281B390B2E173F0710F008950000209117
:10098000C00025FFFBCF2D912093C600E9CF519ADF
:100990008AB11AB88BB183608BB908950E94C704DD
:1009A0001092C50081E88093C400E2ECF0E0808101
:1009B0008F708083808188608083A0ECB0E08C9110
:1009C0008D7F8C93A1ECB0E088E18C938C918B7F30
:1009D0008C938081866080830895FC0181E083830D
:1009E00014828583168217821086818712868387F8
:1009F00014861282118287E2808308951092C701C3
:100A0000811522E09207E9F0811524E09207D9F0E0
:100A1000811528E09207C9F020E02C60982F907F84
:100A2000922B9093C3019B7F9093C4018295807F0A
:100A3000822B8093C5018B7F8093C60183EC91E06C
:100A4000089522E0EACF21E0E8CF23E0E6CF1F932C
:100A5000CF93DF93EC0161110E94ED0418812A8588
:100A600040E1249F900111248B8548E0849FC001C0
:100A70001124282B392B20628C8544E0849FC001EF
:100A80001124822B932B0E94FE04412F64E070E01E
:100A90000E946D0283EF91E00197F1F700C0000022
:100AA00018812A8590E1299F900111248B8548E0C7
:100AB000849FC0011124282B392B20628C8544E0AF
:100AC000849FC0011124822B932B0E94FE04412F8E
:100AD00064E070E00E946D0283EF91E00197F1F70E
:100AE00000C00000188181E090E00E94FE04412FC8
:100AF00064E070E00E946D028FE097E20197F1F7E9
:100B000000C0000018818B8190E0880F991F2C8114
:100B10002460822B0E94FE04412F64E070E00E945A
:100B20006D0283EF91E00197F1F700C0000018819A
:100B30008D8124E0829FC00111242E8130E0220F9C
:100B4000331F822B932B2F812860822B0E94FE045F
:100B5000412F64E070E00E946D0283EF91E0019705
:100B6000F1F700C000001881888528E0829FC0014D
:100B70001124298544E0249F90011124822B932B7A
:100B800080610E94FE04412F64E070E00E946D02CB
:100B900083EF91E00197F1F700C00000C88182E087
:100BA00090E00E94FE044C2F64E070E00E946D0211
:100BB0008FE097E20197F1F700C00000DF91CF913D
:100BC0001F910895FC0122819181992379F0913040
:100BD00091F081E0820F233108F080E082839F5FF3
:100BE000211190E091838091C201089581E0820FEC
:100BF0008093C201EECF85E1FACF8150833038F483
:100C0000E82FF0E0E55FFE4F8081860F089580E0D9
:100C1000FCCFFC016281643130F481E0860F828375
:100C200081810C94FD058181833030F48F5F818355
:100C300081E0828360E0F4CF80E0F9CFFC01892B72
:100C400089F0862F807F90E1699FB0011124982F51
:100C50009D60908389608183862F8D608283696027
:100C6000638314820895CF93C62F806890E00E941A
:100C7000FE044C2F64E070E00E946D0283EF91E06F
:100C80000197F1F700C00000CF9108959F92AF92B5
:100C9000BF92CF92DF92EF92FF920F931F93CF9369
:100CA000DF9300D000D01F92CDB7DEB7611571057C
:100CB000A9F08B017C016B0185E0982ECE01019695
:100CC0005C01F80101900020E9F73197E01BF10B7E
:100CD000C601801B910B8E179F0788F00F900F9015
:100CE0000F900F900F90DF91CF911F910F91FF9078
:100CF000EF90DF90CF90BF90AF909F900895F70155
:100D00008385882301F1C7010E940906F7016081EC
:100D10000E943306F501892D11928A95E9F7F601B3
:100D200061916F01C5010E941E06F701408164E0D8
:100D300070E0C5010E946D0280EE90E00197F1F72E
:100D400000C00000BECFC7010E94E205DFCFCF93F5
:100D5000DF930E948F138FEF8093560210925502FB
:100D60008093570280E18093540282E0809358027E
:100D7000C7EEDFEF4C2F4095CE0187709927805842
:100D80009F4F242F26952695269530E0322F222737
:100D9000820F931F092E000CAA0BBB0B80934F02EE
:100DA00090935002A0935102B09352024093530289
:100DB00087E492E00E94840A2196C13F8FEFD80712
:100DC000C9F60E94080FDF91CF910C948B13CF923C
:100DD000DF92EF92FF92CF93DF93CDB7DEB76497A8
:100DE0000FB6F894DEBF0FBECDBF6B017C01409102
:100DF000090250910A0260910B0270910C02CE011F
:100E000001960E944C0C49815A816B817C8141156D
:100E100051056105710511F480E01CC089859A8532
:100E2000AB85BC858C159D05AE05BF0541F785E0FA
:100E300090E0A0E0B0E08093F9019093FA01A093D4
:100E4000FB01B093FC0187E090E09093FE0180935A
:100E5000FD0181E064960FB6F894DEBF0FBECDBFF2
:100E6000DF91CF91FF90EF90DF90CF9008958F9218
:100E70009F92AF92BF92CF92DF92EF92FF920F9329
:100E80001F93CF93DF93CDB7DEB7A8970FB6F89433
:100E9000DEBF0FBECDBF4091110250911202609192
:100EA000130270911402CE0101960E944C0C00E3D3
:100EB00010E030E2A32EB12C4091090250910A02B9
:100EC00060910B0270910C02CE0145960E944C0C71
:100ED0000E944216B8010E946D1499249394980EB2
:100EE0000E944216B5010E946D1488248394880ED6
:100EF00028E0829EC0011124C92CC694C694C694D1
:100F0000D12CDC2CCC24292D80FC3BC030E020955A
:100F1000309527703327280F391FC20ED31E0D2C92
:100F2000000CEE08FF0880E04D895E896F89788D9E
:100F3000411551056105710549F5882309F4BCCFB8
:100F40009D868E868FEF888B1F86198AC986DA86E2
:100F5000EB86FC86CE0101960E947D0EA8960FB608
:100F6000F894DEBF0FBECDBFDF91CF911F910F91DF
:100F7000FF90EF90DF90CF90BF90AF909F908F90B9
:100F800008952770280F392F311DC7CF8D8D9E8D65
:100F9000AF8DB8A18C159D05AE05BF0509F48CCFAA
:100FA000CE0145960E944C0C81E0BECFCF92DF92DD
:100FB000EF92FF920F931F93CF93DF93CDB7DEB7DE
:100FC000A8970FB6F894DEBF0FBECDBF6B017C01B2
:100FD0008A014091110250911202609113027091A6
:100FE0001402CE0145960E944C0C4091090250918A
:100FF0000A0260910B0270910C02CE0101960E94D0
:101000004C0C49815A816B817C81411551056105E8
:101010007105F1F588898CA38F858BA389898DA3B0
:101020008A898EA3CE0145960E94840A8091F5019B
:101030009091F60101969093F6018093F5010E943C
:1010400037078EA1833081F585E090E0A0E0B0E025
:101050008093F9019093FA01A093FB01B093FC01F6
:1010600083E090E09093FE018093FD0181E0F80120
:101070008083A8960FB6F894DEBF0FBECDBFDF9178
:10108000CF911F910F91FF90EF90DF90CF90089537
:101090008D8D9E8DAF8DB8A18C159D05AE05BF05BC
:1010A00009F4ABCF80E0E5CF81E0E3CF8F929F9250
:1010B000AF92BF92CF92DF92EF92FF920F931F9366
:1010C000CF93DF93CDB7DEB7A9970FB6F894DEBF05
:1010D0000FBECDBF0E940C1040910D0250910E0228
:1010E00060910F0270911002CE0145960E944C0C47
:1010F0008D8C9E8CAF8CB8A0F090F90140910902C4
:1011000050910A0260910B0270910C02CE0145963B
:101110000E944C0C19A10AA119A682E0F816A9F0A8
:101120008F1548F081E0F81671F0103391F01F3FF1
:1011300089F41FE20FC083E0F81649F084E0F8124A
:10114000F4CF1150F2CF0F5FF0CF0150EECF1F5F01
:10115000ECCF10E0003221F00F3F19F40FE101C095
:1011600000E088E0089F90011124C12EC694C69427
:10117000C694D12CDC2CCC24812F00FD2AC090E019
:101180008095909587709927820F931FC80ED91E5E
:101190000D2C000CEE08FF08C701B6010E94E706FF
:1011A0008823E1F085E391E00E94AF04A9960FB691
:1011B000F894DEBF0FBECDBFDF91CF911F910F918D
:1011C000FF90EF90DF90CF90BF90AF909F908F9067
:1011D00008958770820F932F911DD8CFAE01475D80
:1011E0005F4FC701B6010E94D60789A5882319F071
:1011F00089E491E0D9CF40910D0250910E026091A7
:101200000F0270911002CE0145960E944C0C498D40
:101210005A8D6B8D7C8D411551056105710541F528
:101220004091090250910A0260910B0270910C02E8
:10123000CE0145960E944C0C19A30AA3CD8EDE8EDA
:10124000EF8EF8A24091090250910A0260910B02C0
:1012500070910C02CE0145960E94200D95018401EB
:1012600040E060E080E00E940A0E0E94080F9ECFDE
:10127000CE0101960E944C0C8D8589A38E858AA390
:1012800089859A85AB85BC858D8F9E8FAF8FB8A3DE
:1012900049815A816B817C81CE0145960E94200D47
:1012A000498D5A8D6B8D7C8DAECFEF92FF920F934F
:1012B0001F93CF93DF93EC017B0180E09FEFA0E0D1
:1012C000B0E08A879B87AC87BD870AE010E00E9468
:1012D0008F13B701CE010E948B132FE78FE492E1A9
:1012E000215080409040E1F700C0000001501109FA
:1012F00071F7CE01DF91CF911F910F91FF90EF9089
:101300000C946E019F92AF92BF92CF92DF92EF92B8
:10131000FF920F931F93CF93DF93B62EC42FA02E6F
:10132000D22F6C018AEF982E940EF12CE12C2B2DEC
:101330002E19F60180810E2C01C0880F0A94EAF75D
:101340000C2F87FF1EC04A2D612F8D2F0E94A513E1
:10135000FFEFEF1AFF0A88E0E816F10441F7C150E9
:10136000EFEFCE1ADE0A9C12E0CFDF91CF911F91F2
:101370000F91FF90EF90DF90CF90BF90AF909F9034
:10138000089540E060E080E0E1CF0F931F93CF939A
:10139000DF9300D000D000D0CDB7DEB786E0EEE01E
:1013A000F1E0DE01119601900D928A95E1F700E0DF
:1013B0001FEF2FEF30E045E16DE2CE0101960E9474
:1013C000820926960FB6F894DEBF0FBECDBFDF911F
:1013D000CF911F910F910895EBEDF1E081E290E044
:1013E000958F848F8FE090E091A780A787E184AFED
:1013F00087E190E090932B0280932A0289E092E1AA
:10140000A0E0B0E08093300290933102A0933202CA
:10141000B09333020895CF93DF93EEE6F2E080E2DB
:1014200090E0A0E0B0E0808B918BA28BB38BCBEDF2
:10143000D1E08091300290913102A0913202B091BE
:1014400033028096A11DB11D80879187A287B38743
:101450002CAD820F911DA11DB11D84839583A683A0
:10146000B78328A539A5AC01BD01420F531F611DEB
:10147000711D40835183628373838C8D9D8DB0E099
:10148000A0E08096A11DB11D840F951FA61FB71F58
:10149000848B958BA68BB78B20912A0230912B02DF
:1014A000820F931FA11DB11D84879587A687B787DB
:1014B000DF91CF9108953B98409A08950E94EC09DE
:1014C0000E940B0A109234020895CF92DF92EF929D
:1014D000FF92C12CD12C7601A701960160E083E434
:1014E00092E00E941C118FEFC81AD80AE80AF80A85
:1014F0008FEFC816D80681E0E806F10469F7FF907F
:10150000EF90DF90CF9008952F923F924F925F928D
:101510006F927F928F929F92AF92BF92CF92DF9203
:10152000EF92FF920F931F93CF93DF9380902A0245
:1015300090902B02B12CA12C209015023090160215
:101540002114310409F0D8C0C0907A02D0907B02F7
:10155000E0907C02F0907D02412C512C32018C0CE9
:101560009D1CAE1CBF1C8114910422E0A206B10494
:1015700008F0AFC0EC0104E010E0A70196016FE5B0
:1015800071E083E492E00E94AF11488559856A8535
:101590007B8597018601035F1F4F2F4F3F4F83E4E9
:1015A00092E00E946611A70196012F5E3F4F4F4FB8
:1015B0005F4F6C8583E492E00E941C11A7019601A5
:1015C0002E5E3F4F4F4F5F4F6D8583E492E00E9448
:1015D0001C11A70196012D5E3F4F4F4F5F4F6F8546
:1015E00083E492E00E941C11A70196012C5E3F4FFC
:1015F0004F4F5F4F6E8583E492E00E941C11A7015C
:1016000096012B5E3F4F4F4F5F4F688983E492E016
:101610000E941C11A70196012A5E3F4F4F4F5F4F5A
:10162000698983E492E00E941C1197018601075F9B
:101630001F4F2F4F3F4FB301A20183E492E00E945E
:1016400066114C825D826E827F82970186010B5FFC
:101650001F4F2F4F3F4F40E050E0BA0183E492E02C
:101660000E946611188219821A821B82232809F4AB
:1016700054C0930182010B5F1F4F2F4F3F4FB701A3
:10168000A60183E492E00E946611A70196012C5FF7
:101690003F4F4F4F5F4F65EA83E492E00E941C1179
:1016A00080911502909116020196909316028093F4
:1016B0001502C0920D02D0920E02E0920F02F0923B
:1016C00010028092050290920602A0920702B09248
:1016D0000802DF91CF911F910F91FF90EF90DF9063
:1016E000CF90BF90AF909F908F907F906F905F90C2
:1016F0004F903F902F900895C0900502D090060221
:10170000E0900702F090080240900D0250900E0207
:1017100060900F027090100222CFC0920902D09206
:101720000A02E0920B02F0920C02AFCF4F925F924E
:101730006F927F928F929F92AF92BF92CF92DF92E1
:10174000EF92FF920F931F93CF93DF9300D000D0BF
:10175000CDB7DEB78091150290911602892B09F45E
:1017600064C040902A0250902B02712C612CC090D2
:101770000D02D0900E02E0900F02F090100219823C
:101780001A821B821C82A70196012C5F3F4F4F4F8C
:101790005F4F60E083E492E00E941C11A701960174
:1017A000275F3F4F4F4F5F4FBE016F5F7F4F83E417
:1017B00092E00E943E1209811A812B813C81011521
:1017C00011052105310509F445C00B5F1F4F2F4F4F
:1017D0003F4F40E050E0BA0183E492E00E9466117E
:1017E00089819A81AB81BC8180930D0290930E0216
:1017F000A0930F02B0931002812C912C54018414F9
:101800009504A604B704B8F1C0920502D09206026E
:10181000E0920702F0920802809115029091160260
:10182000019790931602809315020F900F900F90DE
:101830000F90DF91CF911F910F91FF90EF90DF906C
:10184000CF90BF90AF909F908F907F906F905F9060
:101850004F90089510920D0210920E0210920F02F6
:10186000109210021092090210920A0210920B02BA
:1018700010920C02C1CFA50194012C0D3D1D4E1DEF
:101880005F1D60E083E492E00E941C118FEF881AD4
:10189000980AA80AB80AB3CF8F929F92AF92BF92CC
:1018A000CF92DF92EF92FF920F931F93CF93DF932C
:1018B000CDB7DEB7AD970FB6F894DEBF0FBECDBF84
:1018C0007C014A015B0184E1F70111928A95E9F7F5
:1018D0001DA66E01F9E2CF0ED11C9B018A0144E0E6
:1018E00050E0B60183E492E00E94B6126FE571E029
:1018F000C6010E945216892BE9F084E691E00E940D
:10190000AF04DF92CF928FE591E09F938F9380E8B1
:1019100091E09F938F938E010F5F1F4F1F930F9343
:101920000E946216C8010E94AF040FB6F894DEBF91
:101930000FBECDBFA50194012B5F3F4F4F4F5F4FAF
:10194000B70183E492E00E943E12A5019401275F53
:101950003F4F4F4F5F4FB7016C5F7F4F83E492E083
:101960000E943E12A5019401235F3F4F4F4F5F4FEE
:10197000B701685F7F4F83E492E00E943E12A501A9
:1019800094012F5E3F4F4F4F5F4FB701645F7F4F12
:1019900083E492E00E94D711A50194012E5E3F4F8F
:1019A0004F4F5F4FB701635F7F4F83E492E00E9428
:1019B000D711A50194012D5E3F4F4F4F5F4FB701E7
:1019C000615F7F4F83E492E00E94D711A5019401EB
:1019D0002C5E3F4F4F4F5F4FB701625F7F4F83E4F5
:1019E00092E00E94D711A50194012B5E3F4F4F4F0B
:1019F0005F4FB701605F7F4F83E492E00E94D71191
:101A0000A50194012A5E3F4F4F4F5F4FB7016F5EB4
:101A10007F4F83E492E00E94D711AD960FB6F89401
:101A2000DEBF0FBECDBFDF91CF911F910F91FF9011
:101A3000EF90DF90CF90BF90AF909F908F900895E0
:101A4000CF92DF92EF92FF920F931F93CF93DF938A
:101A5000EC016A017B019B018A010B5F1F4F2F4F35
:101A60003F4F488159816A817B8183E492E00E94E3
:101A7000661197018601075F1F4F2F4F3F4F4C8123
:101A80005D816E817F8183E492E00E9466119701FF
:101A90008601035F1F4F2F4F3F4F488559856A8549
:101AA0007B8583E492E00E946611A70196012F5E78
:101AB0003F4F4F4F5F4F6C8583E492E00E941C11B3
:101AC000A70196012E5E3F4F4F4F5F4F6D8583E418
:101AD00092E00E941C11A70196012D5E3F4F4F4FCF
:101AE0005F4F6F8583E492E00E941C11A70196016D
:101AF0002C5E3F4F4F4F5F4F6E8583E492E00E9414
:101B00001C11A70196012B5E3F4F4F4F5F4F688915
:101B100083E492E00E941C11A70196012A5E3F4FC8
:101B20004F4F5F4F698983E492E0DF91CF911F911E
:101B30000F91FF90EF90DF90CF900C941C11CF92FB
:101B4000DF92EF92FF920F931F93C0907602D09096
:101B50007702E0907802F090790204E010E0A701AB
:101B6000960160EA71E083E492E00E94AF11A70160
:101B700096012B5E3F4F4F4F5F4F60911502709162
:101B8000160283E492E00E944711970186010B5FE1
:101B90001F4F2F4F3F4F40E050E0BA0183E492E0E7
:101BA0000E94661197018601075F1F4F2F4F3F4F1D
:101BB00040E050E0BA0183E492E00E946611970190
:101BC0008601035F1F4F2F4F3F4F40E050E0BA01A7
:101BD00083E492E00E946611970186010F5E1F4F19
:101BE0002F4F3F4F40E050E0BA0183E492E00E9463
:101BF0006611A70196012C5F3F4F4F4F5F4F65EA7B
:101C000083E492E01F910F91FF90EF90DF90CF90CF
:101C10000C941C118F929F92AF92BF92CF92DF9241
:101C2000EF92FF920F931F93CF93F82FE62FC42FBD
:101C300080907E0290907F02A0908002B0908102FE
:101C4000A3E0B0E0A90198010E94A3146B017C01FC
:101C5000C80CD91CEA1CFB1CA7019601275F3F4F4B
:101C60004F4F5F4F8091300290913102A09132022C
:101C7000B0913302880D991DAA1DBB1D4C015D0159
:101C800069E0860E911CA11CB11C82169306A40665
:101C9000B50638F1AE2E6F2F83E492E00E941C113E
:101CA000A7019601265F3F4F4F4F5F4F6A2D83E498
:101CB00092E00E941C11A7019601255F3F4F4F4FF4
:101CC0005F4F6C2F83E492E0CF911F910F91FF90B3
:101CD000EF90DF90CF90BF90AF909F908F900C943B
:101CE0001C11CF911F910F91FF90EF90DF90CF903B
:101CF000BF90AF909F908F900895CF92DF92EF9218
:101D0000FF920F931F93CF93DF93EC01C090820259
:101D1000D0908302E0908402F090850280910001CF
:101D20008823A1F004E010E0A70196016FE571E0BF
:101D300083E492E00E94AF1110920001C092110260
:101D4000D0921202E0921302F092140297018601DF
:101D5000035F1F4F2F4F3F4F488559856A857B850D
:101D600083E492E00E946611A70196012F5E3F4F27
:101D70004F4F5F4F6C8583E492E00E941C11A701D6
:101D800096012E5E3F4F4F4F5F4F6D8583E492E08B
:101D90000E941C11A70196012D5E3F4F4F4F5F4FD0
:101DA0006F8583E492E00E941C11A70196012C5ECE
:101DB0003F4F4F4F5F4F6E8583E492E00E941C11AE
:101DC000A70196012B5E3F4F4F4F5F4F688983E419
:101DD00092E00E941C11A70196012A5E3F4F4F4FCF
:101DE0005F4F698983E492E00E941C110885198580
:101DF0002A853B8548896E858F850E940A0EDF9172
:101E0000CF911F910F91FF90EF90DF90CF900895A9
:101E10000F931F93CF93DF93CDB7DEB764970FB6C1
:101E2000F894DEBF0FBECDBF8091150290911602CF
:101E3000892BA1F04091090250910A0260910B0296
:101E400070910C02CE0101960E944C0C89819A81FE
:101E5000AB81BC81892B8A2B8B2B59F464960FB6EE
:101E6000F894DEBF0FBECDBFDF91CF911F910F91D0
:101E7000089509851A852B853C8549896F85888950
:101E80000E940A0E49815A816B817C81DBCF0F93BE
:101E90001F9300917E0210917F0220918002309169
:101EA0008102075F1F4F2F4F3F4F40E056E060E039
:101EB00070E083E492E00E94E0121F910F91089578
:101EC000CF92DF92EF92FF920F931F93C12CD12CF0
:101ED00076019701860140E060E080E00E940A0EF2
:101EE0008FEFC81AD80AE80AF80AC11482E1D806A6
:101EF000E104F10471F71F910F91FF90EF90DF90D3
:101F0000CF900895CF92DF92EF92FF92C0907E0221
:101F1000D0907F02E0908002F090810289E0C80EAC
:101F2000D11CE11CF11CC11486E0D806E104F104C7
:101F300028F0FF90EF90DF90CF900895A7019601D1
:101F400060E083E492E00E941C118FEFC81AD80A67
:101F5000E80AF80AE8CFCF92DF92EF92FF920F9350
:101F60001F93CF93DF93C0907202D0907302E090E2
:101F70007402F090750202E010E0A701960165EA94
:101F800071E083E492E00E94AF11970186010B5F3C
:101F90001F4F2F4F3F4FCBEDD1E04E8D5F8D68A18E
:101FA00079A183E492E00E946611A7019601275F60
:101FB0003F4F4F4F5F4F6AA17BA183E492E00E94A5
:101FC0004711A7019601255F3F4F4F4F5F4F6CA10F
:101FD0007DA183E492E00E944711A7019601235F4F
:101FE0003F4F4F4F5F4F6EA17FA183E492E00E946D
:101FF0004711A70196012C5F3F4F4F4F5F4F65EA96
:1020000083E492E0DF91CF911F910F91FF90EF90C9
:10201000DF90CF900C941C11CF92DF92EF92FF9241
:10202000C0907202D0907302E0907402F09075023A
:10203000A70196012B5F3F4F4F4F5F4F69EF71E054
:1020400083E492E00E943E12A7019601275F3F4F72
:102050004F4F5F4F6DEF71E083E492E00E94FE11FD
:10206000A7019601255F3F4F4F4F5F4F6FEF71E024
:1020700083E492E00E94FE11A7019601235F3F4F87
:102080004F4F5F4F61E072E083E492E0FF90EF908A
:10209000DF90CF900C94FE11CF92DF92EF92FF92DF
:1020A0000F931F93C0906E02D0906F02E090700269
:1020B000F090710204E010E0A70196016AEA71E075
:1020C00083E492E00E94AF11A7019601235E3F4F87
:1020D0004F4F5F4F6091F3017091F40183E492E000
:1020E0000E944711A7019601215E3F4F4F4F5F4F5E
:1020F0006091F5017091F60183E492E00E9447112E
:102100008BED91E0009769F00CE010E0A7019601DB
:102110002B5F3F4F4F4F5F4FBC0183E492E00E9423
:10212000AF1187EE91E0009769F00CE010E0A70195
:1021300096012F5E3F4F4F4F5F4FBC0183E492E00B
:102140000E94AF11A70196012C5F3F4F4F4F5F4F89
:1021500065EA83E492E01F910F91FF90EF90DF908A
:10216000CF900C941C11CF92DF92EF92FF920F93BD
:102170001F93C0906E02D0906F02E0907002F090BA
:102180007102A7019601235E3F4F4F4F5F4F63EFF0
:1021900071E083E492E00E94FE11A7019601215EA6
:1021A0003F4F4F4F5F4F65EF71E083E492E00E9435
:1021B000FE118091C80181111FC0970186010B5F3C
:1021C0001F4F2F4F3F4F4CE050E06BED71E083E429
:1021D00092E00E94B612970186010F5E1F4F2F4FAB
:1021E0003F4F4CE050E067EE71E083E492E00E94E4
:1021F000B61281E08093C8011F910F91FF90EF907C
:10220000DF90CF900895CF93DF9300D000D0CDB76B
:10221000DEB799838A837B836C8344E050E060E07F
:1022200070E0CE0101960E9416040F900F900F905F
:102230000F90DF91CF910895CF92DF92EF92FF92AE
:102240000F931F93CF93DF931F92CDB7DEB78C010F
:10225000698369017A010E940D03C701B60192608A
:102260000E94031141E050E060E070E0CE01019671
:102270000E941604C8010E9421030F90DF91CF91A4
:102280001F910F91FF90EF90DF90CF900895CF9224
:10229000DF92EF92FF921F93CF93DF93EC01162F03
:1022A000672F69017A010E941C11A70196012F5F17
:1022B0003F4F4F4F5F4F612FCE01DF91CF911F9165
:1022C000FF90EF90DF90CF900C941C118F929F9213
:1022D000AF92BF92CF92DF92EF92FF920F931F9334
:1022E000CF93DF93EC014A015B0179016B2D7727D6
:1022F00088279927A9019801CE010E941C11A701E6
:1023000098012F5F3F4F4F4F5F4FB50188279927A7
:10231000CE010E941C11A70198012E5F3F4F4F4F25
:102320005F4F99278B2D7A2D692DCE010E941C11AC
:10233000A70198012D5F3F4F4F4F5F4F682DCE0192
:10234000DF91CF911F910F91FF90EF90DF90CF9091
:10235000BF90AF909F908F900C941C1108958F9216
:102360009F92AF92BF92EF92FF920F931F93CF93E2
:10237000DF937C01EB0149015A010E940D03C50165
:10238000B40192600E940311A80170E060E0CE01E8
:102390000E941604C701DF91CF911F910F91FF900A
:1023A000EF90BF90AF909F908F900C942103CF92AD
:1023B000DF92EF92FF920F931F93CF93DF93EC0185
:1023C0008B0169017A01FB0110820E940D03C70194
:1023D000B60193600E9403111EBC0DB407FEFDCF31
:1023E0008EB5F8018083CE01DF91CF911F910F91BF
:1023F000FF90EF90DF90CF900C942103AF92BF92AB
:10240000CF92DF92EF92FF920F931F93CF93DF93C0
:102410001F92CDB7DEB75C018B0169017A01FB0128
:10242000118210821982BE016F5F7F4F0E94D71107
:102430002981F80180819181922B91838083A7016A
:1024400096012F5F3F4F4F4F5F4FBE016F5F7F4F32
:10245000C5010E94D7112981F80180819181822BC9
:10246000918380830F90DF91CF911F910F91FF9007
:10247000EF90DF90CF90BF90AF900895AF92BF9252
:10248000CF92DF92EF92FF920F931F93CF93DF9340
:102490001F92CDB7DEB75C018B0169017A01FB01A8
:1024A00010821182128213821982BE016F5F7F4FE8
:1024B0000E94D7112981F80180819181A281B38185
:1024C000B22B80839183A283B383A70196012F5FF0
:1024D0003F4F4F4F5F4FBE016F5F7F4FC5010E945F
:1024E000D7112981F80180819181A281B381A22B2A
:1024F00080839183A283B383A70196012E5F3F4F10
:102500004F4F5F4FBE016F5F7F4FC5010E94D711D4
:102510002981F80180819181A281B381922B8083EE
:102520009183A283B383A70196012D5F3F4F4F4F45
:102530005F4FBE016F5F7F4FC5010E94D711298198
:10254000F80180819181A281B381822B8083918364
:10255000A283B3830F90DF91CF911F910F91FF90D2
:10256000EF90DF90CF90BF90AF9008958F929F92A1
:10257000AF92BF92CF92DF92EF92FF920F931F9391
:10258000CF93DF934C01EB015A0179010E940D03B7
:10259000C701B80193600E940311B501CE010E94EA
:1025A0005804C401DF91CF911F910F91FF90EF90DC
:1025B000DF90CF90BF90AF909F908F900C942103AD
:1025C0008F929F92AF92BF92CF92DF92EF92FF9243
:1025D0000F931F93CF93DF93EC014A015B017901C5
:1025E0000E940D03C701B80193600E940311C50149
:1025F000B4010E946F04CE01DF91CF911F910F9122
:10260000FF90EF90DF90CF90BF90AF909F908F9012
:102610000C9421031F93CF93DF93EC010E940D03D1
:1026200085E08EBD0DB407FEFDCF1EBC0DB407FEC8
:10263000FDCF1EB5CE010E942103812FDF91CF91E6
:102640001F9108951F93CF93DF93262F2F7399F433
:10265000162FEC010E940D0381E08EBD0DB407FE24
:10266000FDCF1EBD0DB407FEFDCFCE01DF91CF9192
:102670001F910C942103DF91CF911F91089508952C
:102680008AB1837C8AB98BB18C638BB9DA9AEDE617
:10269000F0E080818C638083E8E6F0E080818460F4
:1026A00080837894089586B590E025EA8227922762
:1026B0000C944716409A00C00000409884E08A9528
:1026C000F1F700C00895409A83E08A95F1F7000081
:1026D000409800C000C000000895409881E28A95AB
:1026E000F1F7000008950F931F93CF93DF93082F06
:1026F000C8E0D0E010E8802F812351F00E946313DE
:1027000016952197C1F7DF91CF911F910F910895F1
:102710000E945A13F5CF0E94470F0C946D13CF936C
:10272000DF93C0E0D6E080E00E94731380E00E9457
:10273000731380E00E9473132197A9F7DF91CF9163
:102740000C946D13389A409A08950F931F93E22FBB
:10275000502F98E0099FD0011124922F96959695BD
:102760009695092F10E0102F002750FD12C0F0E0C1
:10277000E095F095E770FF27EA0FFB1F0E0F1F1F74
:10278000012E000C220B330B0E940A0E1F910F9199
:102790000895E770EA0FFB2FF11DF0CF4F925F9283
:1027A0006F927F92AF92BF92CF92DF92EF92FF92A1
:1027B0000F931F93CF93DF93D12CC12CF12CE12CDD
:1027C000D0E0C0E0570181E0A822BB242E0183E0C5
:1027D000559447948A95E1F7542C4424CE01A114D2
:1027E000B10411F480959095877099278C0D9D1DEB
:1027F000480E591E052C000C6608770893018201CB
:1028000040E060E08FEF0E940A0E0E948B1393015C
:1028100040E060E080E00E940A0E2196C033D105BE
:10282000A9F68FEFE81AF80A88E0C80ED11C80E2FA
:10283000E816F10429F6DF91CF911F910F91FF90D7
:10284000EF90DF90CF90BF90AF907F906F905F90B0
:102850004F900895CF93DF93CDB7DEB764970FB64F
:10286000F894DEBF0FBECDBF83E492E00E94E70084
:1028700083E492E00E94790361E085E392E00E94A4
:1028800010020E94CE040E94A21360E483E492E04E
:102890000E94221361E08EEC91E00E9427050E94C5
:1028A0005E0A0E949B00CE0101960E947D0E0E944E
:1028B000600F0E948F130E94C5090E94A7060E9404
:1028C00037070E948B1304C080E291E00E94AF049E
:1028D000339BFACF0E945608F4CF97FB072E16F4CD
:1028E000009407D077FD09D00E94AE1407FC05D0F4
:1028F0003EF4909581959F4F0895709561957F4F17
:102900000895A1E21A2EAA1BBB1BFD010DC0AA1F30
:10291000BB1FEE1FFF1FA217B307E407F50720F048
:10292000A21BB30BE40BF50B661F771F881F991FC3
:102930001A9469F760957095809590959B01AC010C
:10294000BD01CF0108950E94C214A59F900DB49FB0
:10295000900DA49F800D911D11240895AA1BBB1BEF
:1029600051E107C0AA1FBB1FA617B70710F0A61B8F
:10297000B70B881F991F5A95A9F780959095BC01B0
:10298000CD010895A29FB001B39FC001A39F700D18
:10299000811D1124911DB29F700D811D1124911D67
:1029A00008950F931F93CF93DF938230910510F416
:1029B00082E090E0E0918802F091890230E020E02E
:1029C000B0E0A0E0309799F42115310509F44AC030
:1029D000281B390B24303105D8F58A819B8161157C
:1029E000710589F1FB0193838283FE0111C040814F
:1029F00051810281138148175907E0F048175907A0
:102A000099F4109761F012960C93129713961C93F9
:102A10003296CF01DF91CF911F910F9108950093CE
:102A2000880210938902F4CF2115310551F0421725
:102A3000530738F0A901DB019A01BD01DF01F8015C
:102A4000C1CFEF01F9CF9093890280938802CDCF57
:102A5000FE01E20FF31F81939193225031093983D4
:102A60002883D7CF2091860230918702232B41F40F
:102A70002091030130910401309387022093860254
:102A800020910101309102012115310541F42DB74A
:102A90003EB74091050150910601241B350BE09192
:102AA0008602F0918702E217F307A0F42E1B3F0B7A
:102AB0002817390778F0AC014E5F5F4F24173507B0
:102AC00048F04E0F5F1F5093870240938602819318
:102AD00091939FCFF0E0E0E09CCFCF93DF930097FE
:102AE000E9F0FC01329713821282A0918802B09122
:102AF0008902ED0130E020E01097A1F420813181BE
:102B0000820F931F20918602309187022817390780
:102B100009F061C0F0938702E0938602DF91CF91C4
:102B20000895EA01CE17DF07E8F54A815B819E012F
:102B300041155105B1F7E901FB83EA8349915991A8
:102B4000C40FD51FEC17FD0761F4808191810296B7
:102B5000840F951FE90199838883828193819B83E8
:102B60008A83F0E0E0E012968D919C911397009794
:102B7000B9F52D913C911197CD010296820F931FCB
:102B800020918602309187022817390739F630974D
:102B900051F51092890210928802B0938702A09397
:102BA0008602BCCFD383C28340815181840F951F9D
:102BB000C817D90761F44E5F5F4F88819981480F2C
:102BC000591F518340838A819B819383828321157E
:102BD000310509F0B0CFF0938902E09388029ECFCF
:102BE000FD01DC01C0CF13821282D7CF8F929F925A
:102BF000AF92BF92CF92DF92EF92FF92CF93DF938B
:102C0000EC01688179818A819B816115710581055B
:102C1000910521F464E279ED8BE597E02DE133EF46
:102C200041E050E00E94031949015A019B01AC01A7
:102C3000A7EAB1E40E94A3146B017C01ACEEB4EFEF
:102C4000A50194010E942519DC01CB018C0D9D1D6D
:102C5000AE1DBF1DB7FF03C00197A109B04888830F
:102C60009983AA83BB839F77DF91CF91FF90EF90E9
:102C7000DF90CF90BF90AF909F908F9008950E946B
:102C8000F615089587E091E00E94F6150895B0E0EA
:102C9000A0E08093070190930801A0930901B093ED
:102CA0000A010895FB01DC018D910190801901104A
:102CB000D9F3990B0895FB01DC0101900D920020DE
:102CC000E1F70895AEE0B0E0E8E6F6E10C943819DB
:102CD0000D891E8986E08C831A8309838FEF9FE715
:102CE0009E838D83AE01475E5F4F6F89788DCE01E5
:102CF00001960E9485162F813885020F131FF80157
:102D000010822E96E4E00C945419ABE0B0E0EBE8AE
:102D1000F6E10C942A197C013B018A01FC0117821F
:102D20001682838181FFC8C1CE0101965C01F70143
:102D30009381F30193FD859193FF81913F01882356
:102D400009F453C1853239F493FD859193FF819144
:102D50003F01853229F4B70190E00E947518E7CF52
:102D6000912C212C312CFFE1F31538F08B3211F12D
:102D700090F4803209F1833229F137FC3CC020ED18
:102D8000280F2A3050F536FE20C08AE0989E200D8C
:102D90001124922E06C08D3291F0803371F7689421
:102DA00030F8F30193FD859193FF81913F018111EB
:102DB000DACF21C0689431F8689432F8F2CF689481
:102DC00033F8EFCF689434F8ECCFEAE02E9E200D74
:102DD0001124222E689435F8E4CF8E3229F436FC83
:102DE00004C1689436F8DDCF8C3619F4689437F84E
:102DF000D8CF8836B1F2982F9F7D95549330E0F06C
:102E00008336A1F18337C1F1833509F063C028010E
:102E1000F2E04F0E511CF801C080D180692D70E0A6
:102E200036FC02C06FEF7FEFC6010E945F184C01B5
:102E3000689437F882010AC00C5F1F4FFFE3F983E3
:102E400088248394912C6501E89437F833FE2DC0D3
:102E5000522C8114910471F5552009F468CFB70103
:102E600080E290E00E9475185A94F6CFF8018081B4
:102E700089830E5F1F4FE4CF2801F2E04F0E511CF3
:102E8000F801C080D180692D70E036FC02C06FEF80
:102E90007FEFC6010E946A184C018201D5CFB701AD
:102EA00080E290E00E9475182A942814190409F011
:102EB000B0F7CECFF60137FC859137FE81916F01D7
:102EC000B70190E00E94751851105A94F1E08F1AE2
:102ED0009108BFCF843619F0893609F077C0F80120
:102EE00037FE6BC060817181828193810C5F1F4FBF
:102EF000F32DFF763F2E97FF09C090958095709532
:102F000061957F4F8F4F9F4F689437F82AE030E0EC
:102F1000A5010E94A518C82ECA188C2C432C36FE79
:102F20000CC0E89440F8C91440F434FE05C032FCEB
:102F300003C0F32DFE7E4F2E892C44FE95C0FE016A
:102F4000EC0DF11D8081803309F087C0242D297E8E
:102F5000422E842D8870582E43FC95C040FE8FC0B1
:102F60009C2C821418F42C0C922C981844FE91C0BE
:102F7000B70180E390E00E94751842FE09C088E71F
:102F800090E041FE02C088E590E0B7010E9475180C
:102F9000C91408F48AC0CA94D12C9FEFC91AD90A5F
:102FA000CA0CDB1CF60182916F01B70190E00E9410
:102FB0007518AC14BD04B1F74FCF60817181072E35
:102FC000000C880B990B0E5F1F4F92CFD32CE89407
:102FD000D4F82AE030E0853739F1232D297FD22E2D
:102FE0008F3601F148F48835A9F0F7018681978181
:102FF0002B96E2E10C944619803749F08837A9F7FF
:10300000D4FE02C06894D2F820E130E00DC068948C
:10301000D4F8F6CF34FE03C0822F8660D82E20E18C
:1030200032E002C028E030E0F801D7FE0FC0608136
:103030007181828193810C5F1F4FA5010E94A518A9
:10304000C82ECA183D2CE89437F867CF608171818B
:1030500090E080E00E5F1F4FF0CF42FC02C08394EF
:1030600078CF8394839475CF842D867809F471CFBB
:10307000F6CFB70180E290E00E9475188394821425
:10308000C0F3512C73CF522C5818821408F46ECF11
:10309000F8CF842D867809F47BCF8BE241FE80E265
:1030A00047FC8DE2B70190E071CFB70180E390E07B
:1030B0000E9475189A946CCF8FEF9FEF99CFFC0107
:1030C0000590615070400110D8F7809590958E0F53
:1030D0009F1F0895FC016150704001900110D8F7C6
:1030E000809590958E0F9F1F08950F931F93CF93F8
:1030F000DF93182F092FEB018B8181FD09C01FEF92
:103100000FEF812F902FDF91CF911F910F91089595
:1031100082FF14C02E813F818C819D812817390741
:103120003CF4E881F981CF0101969983888310836B
:103130008E819F8101969F838E83E3CFE885F985F9
:10314000812F0995892BA1F3DACFFA01AA2728301C
:1031500051F1203181F1E8946F936E7F6E5F7F4F64
:103160008F4F9F4FAF4FB1E03ED0B4E03CD0670FE0
:10317000781F891F9A1FA11D680F791F8A1F911D33
:10318000A11D6A0F711D811D911DA11D20D009F483
:1031900068943F912AE0269F11243019305D3193C5
:1031A000DEF6CF010895462F4770405D4193B3E0AE
:1031B0000FD0C9F7F6CF462F4F70405D4A3318F055
:1031C000495D31FD4052419302D0A9F7EACFB4E006
:1031D000A6959795879577956795BA95C9F70097BE
:1031E0006105710508959B01AC010A2E069457955F
:1031F000479537952795BA95C9F7620F731F841FB6
:10320000951FA01D0895052E97FB1EF400940E94A3
:103210001A1957FD07D00E94811407FC03D04EF401
:103220000C941A1950954095309521953F4F4F4F6A
:103230005F4F089590958095709561957F4F8F4F62
:103240009F4F0895B7FF0C94A3140E94A314821BF0
:10325000930B08952F923F924F925F926F927F92BD
:103260008F929F92AF92BF92CF92DF92EF92FF9296
:103270000F931F93CF93DF93CDB7DEB7CA1BDB0B42
:103280000FB6F894DEBF0FBECDBF09942A883988E7
:1032900048885F846E847D848C849B84AA84B984EE
:1032A000C884DF80EE80FD800C811B81AA81B981FA
:1032B000CE0FD11D0FB6F894DEBF0FBECDBFED010E
:0632C0000895F894FFCF11
:1032C6000100008A0220000100000040145478FC2E
:1032D600ECF8FC78534E414B45004C5543415300A6
:1032E6002E2E77616974696E6720666F722072612F
:1032F6006D2E2E0A00636F6C6C6973696F6E2064A5
:10330600657465637465640A00506F69736F6E2037
:10331600666F6F642064657465637465640A004E45
:103326004F4445004572726F722E2E2E203C496E18
:1033360076616C6964204865616465723E200A00A6
:103346002E2E65787065637465642E2E3C25733E5B
:103356002E2E61637475616C2E2E3C25733E0A0019
:103366005354434B00434F4D4D0053434F520000BF
:00000001FF
