:100000000C9434000C9451000C9451000C94510049
:100010000C9451000C9488090C9451000C945100DC
:100020000C9451000C9451000C9451000C9451000C
:100030000C9451000C9451000C9451000C945100FC
:100040000C9451000C9451000C9451000C945100EC
:100050000C9451000C9451000C9451000C945100DC
:100060000C9451000C94510011241FBECFEFD8E026
:10007000DEBFCDBF12E0A0E0B1E0EAE4F2E202C0F0
:1000800005900D92A638B107D9F722E0A6E8B2E0B4
:1000900001C01D92AD3AB207E1F70E94FB0B0C9430
:1000A00023110C94000088B1806388B985E08A959B
:1000B000F1F70000459885E08A95F1F70000089572
:1000C0004498459A85E08A95F1F70000459885E0C7
:1000D0008A95F1F7000008950E9453000E94530092
:1000E0000E9453000E9460000E9460000E94600015
:1000F0000E9453000C9453000F931F93CF93DF93F0
:10010000C0E2D0E00E9460002197E1F7C4ECD0E0AB
:100110000E946C000E9453000E9453000E945300F2
:100120000E9453000E9453000E9453000E945300FB
:100130000E9453000E9460000E9460000E946000C4
:100140000E9460000E9460000E9460000E946000A7
:100150000E9460000E9460000E9460000E94600097
:100160000E9460000E9460000E9460000E94600087
:100170000E946000219761F6C0E2D0E00E94530027
:100180002197E1F72FEF83ED90E3215080409040DD
:10019000E1F700C00000C0E2D0E00E9460002197BB
:1001A000E1F7C4ECD0E00E946C000E9460000E9465
:1001B00060000E9460000E9460000E9460000E9437
:1001C00060000E9460000E9460000E9453000E9434
:1001D00053000E9453000E9453000E9453000E944B
:1001E00053000E9453000E9453000E9460000E942E
:1001F00060000E9460000E9460000E9460000E94F7
:1002000060000E9460000E946000219761F6C0E2D9
:10021000D0E00E9453002197E1F72FEF83ED90E3A8
:10022000215080409040E1F700C00000C0E2D0E0E3
:100230000E9460002197E1F7C4ECD0E00E946C00BE
:100240000E9460000E9460000E9460000E946000A6
:100250000E9460000E9460000E9460000E94600096
:100260000E9460000E9460000E9460000E94600086
:100270000E9460000E9460000E9460000E94600076
:100280000E9453000E9453000E9453000E9453009A
:100290000E9453000E9453000E9453000E9453008A
:1002A000219761F6C0E2D0E00E9453002197E1F768
:1002B0002FEF83ED90E3215080409040E1F700C0A4
:1002C0000000C0E2D0E00E9460002197E1F7C4EC9A
:1002D000D0E00E946C0008E110E00E946000015034
:1002E0001040D9F72197A9F7C0E2D0E00E9453004F
:1002F0002197E1F7DF91CF911F910F9108950F930F
:100300001F93CF93DF938C01EB01DC0116964D9187
:100310005C91179760E070E014968D919C910E941B
:10032000E60D82E0C115B2E0DB0781F0C115E4E023
:10033000DE0739F080E0C115F8E0DF0739F483E02B
:1003400005C089E591E00E94D30A81E08C60D80164
:100350001496ED91FC9115979C2F907F982B90838C
:100360001496ED91FC91159790819B7F9183EFE31B
:10037000FFE13197F1F700C000001496ED91FC9178
:100380001597C295C07FC82BC2831496ED91FC913E
:10039000159782818B7F83831496ED91FC91148253
:1003A000DF91CF911F910F9108950F931F93CF93DA
:1003B000DF93EC018B0168E270E00E947F018C8189
:1003C0009D8199838883B801CE010E9441098FE8FD
:1003D00091E00197F1F700C0000068E270E0CE0103
:1003E0000E947F018C819D8199838883B801CE0111
:1003F0000E944109AFE8B1E01197F1F700C0000099
:1004000061E070E0CE010E947F018C819D81998323
:100410008883B801CE010E9441098FED9EE20197C9
:10042000F1F700C0000066E070E0CE010E947F019D
:100430008C819D8199838883B801CE010E944109F6
:10044000AFE8B1E01197F1F700C000006FE070E095
:10045000CE010E947F018C819D8199838883B801A0
:10046000CE010E9441098FE891E00197F1F700C0A9
:10047000000064E170E0CE010E947F018C819D81CB
:1004800099838883B801CE010E944109AFE8B1E0A9
:100490001197F1F700C0000062E070E0CE010E9409
:1004A0007F018C819D8199838883B801CE010E9450
:1004B00041098FED9EE20197F1F700C00000EC8149
:1004C000FD8186E0DF011D928A95E9F7DF91CF91EA
:1004D0001F910F910895CF92DF92EF92FF920F93A9
:1004E0001F93CF93DF938C01FC01C081D181FE016A
:1004F00001900020E9F7CF0101976C0186E8E82E12
:1005000082E0F82ECC15DD0549F4DF91CF911F91E3
:100510000F91FF90EF90DF90CF9008958991982FE1
:10052000907F8295807F292F2D602093860299608D
:1005300090938702982F9D609093880289608093A2
:10054000890210928A02F801F182E082C8010E94B9
:10055000C4088FEE90E00197F1F700C00000D2CF01
:10056000EF92FF920F931F93CF93DF93EC018B01D8
:10057000E880F980E114F10479F160E870E00E940C
:100580007F018C819D8199838883B801CE010E946F
:1005900041098FE891E00197F1F700C0000060E0A9
:1005A00074E0CE010E947F018C819D8199838883B4
:1005B000C8010E946808CE010E94C408F982E8823E
:1005C000CE010E946B020E948F08EC81FD8186E0C3
:1005D000DF011D928A95E9F7DF91CF911F910F916D
:1005E000FF90EF9008950F931F93CF93DF93EC014B
:1005F0008B014430E8F42431D8F44230F1F0433038
:10060000F1F0413009F4205C2068622F70E0CE01E7
:100610000E947F018C819D8199838883B801CE01DE
:100620000E9441098FE891E00197F1F700C00000B6
:10063000DF91CF911F910F9108952C5EE5CF2C5A39
:10064000E3CFEF92FF920F931F93CF93DF93EC01D1
:100650007B010E94F30260E074E0CE010E947F0102
:100660008C819D8199838883C7010E946808CE018F
:100670000E94C40808831983CE010E946B020E9465
:100680008F08EC81FD8186E0DF011D928A95E9F7F4
:10069000DF91CF911F910F91FF90EF9008950F93ED
:1006A0001F93F801EF2B11F00E9421031F910F916E
:1006B00008950F931F93CF93DF93CDB7DEB7659760
:1006C0000FB6F894DEBF0FBECDBFE02F8E010F5FD7
:1006D0001F4FD80150E23A2F301B3E1788F0E00F31
:1006E000F12FF11D10820E94210365960FB6F89438
:1006F000DEBF0FBECDBFDF91CF911F910F91089547
:100700005D93E9CFBF92CF92DF92EF92FF920F936A
:100710001F93CF93DF937C01D62E172FB42EC22EBA
:10072000892B11F189E090E00E94630CEC01892B88
:10073000D9F008871B821A8219821882BE82CF8262
:10074000DC821D83D70116968D919C911797009797
:10075000A9F41196DC93CE931396DC93CE93129763
:100760000196F70197838683DF91CF911F910F91B7
:10077000FF90EF90DF90CF90BF900895ED91FC91A6
:100780001197F983E883D383C283CD93DC93E8CFB9
:10079000CF93DF93EC01892BA1F088819981009799
:1007A00081F02A813B818217930771F419821882A4
:1007B0001B821A820E94F90C8E819F8101979F8370
:1007C0008E83DF91CF910895DC01ED91FC91F98347
:1007D000E88313821282EECFCF93DF93EC018E81F8
:1007E0009F81892B19F4DF91CF910895CE010E944A
:1007F000C803F5CF0F931F93CF93DF93AB01FC0199
:10080000329681E090E08417950728F0DF91CF9130
:100810001F910F910895608171819C0121503109D0
:10082000EF0137FD06C0DE011E910E9160177107C2
:1008300028F07983688301963296E5CF13961C934E
:100840000E93129721503109ED01EBCFDF92EF9219
:10085000FF920F931F93CF93DF93F82E192FD62E6D
:10086000E72EC6E1D0E04C2F4F5F9E0183E0359527
:1008700027958A95E1F7822F880F880F880F642FBC
:10088000681B70E068587F4F2F5F2150330B322F69
:100890002227620F731F00E020E18F2D912F0E940D
:1008A00082032197C230D105F1F66D2D7E2D8F2D5B
:1008B000912FDF91CF911F910F91FF90EF90DF90DB
:1008C0000C94330B9B01DC01ED91FC91309711F4FA
:1008D00081E00895848195818217930721F001902A
:1008E000F081E02DF3CF80E008952F923F925F9248
:1008F0006F927F928F929F92AF92BF92CF92DF9230
:10090000EF92FF920F931F93CF93DF931C017B0114
:10091000F901DB0114966D917C91159781E06417C4
:10092000750709F082C0808318960C911897179666
:100930002C91179716964C91C1010E948203E101F8
:100940008F818F938E818F9389E691E09F938F9310
:100950008BE892E09F938F930E94F80D0F900F9079
:100960000F900F900F900F9060E3662E712C70E245
:10097000872E912C01E010E00E94D60DB3010E9459
:10098000120C55245394580E0E94D60DB4010E94A7
:10099000120C8F5FE52DF0E0982F9170282F30E03A
:1009A000BF016150710977FF02C0695F7F4F43E06B
:1009B000759567954A95E1F76F5F6150770BB62F94
:1009C000AA27911144C0A90141505109D3E0440F15
:1009D000551FDA95E1F74E0F5F1F4A0F5B1FE101CC
:1009E000C880D980B12CC114D104E9F5B11421F229
:1009F000E7015E828F8343E0660F771F4A95E1F738
:100A0000E61BF70B91113BC02150310993E0220FF7
:100A1000331F9A95E1F72E0F3F1FA20FB31FF70167
:100A2000B583A483808591E08927DF91CF911F91C1
:100A30000F91FF90EF90DF90CF90BF90AF909F907D
:100A40008F907F906F905F903F902F9008956801F6
:100A5000CE1ADF0AA901C3E0440F551FCA95E1F77A
:100A60004C0D5D1DBACFE601AC80BD80A416B50665
:100A700009F482CFC880D980BB24B394B4CF83E07B
:100A8000220F331F8A95E1F72E1B3F0B2F5F3F4F3D
:100A9000C4CF8F929F92AF92BF92CF92DF92EF928C
:100AA000FF920F931F93CF93DF930F92CDB7DEB7D3
:100AB0006C014B01009709F44BC0672B09F448C047
:100AC000DC01ED91FC91119706811781198218962E
:100AD0008C91833009F453C008F048C0813009F488
:100AE0004AC0823009F449C0013308F04AC00115F8
:100AF00009F449C0113208F048C0111509F447C083
:100B0000202F30E0C90101977C01B3E0F594E79410
:100B1000BA95E1F7887F412F50E0FE2CEE2410FDBE
:100B200038C041505109A3E0440F551FAA95E1F781
:100B30002E0D3F1D281B390B7A01E20EF31EB70163
:100B4000C6010E946204811131C081E0F601838BED
:100B50000F90DF91CF911F910F91FF90EF90DF9059
:100B6000CF90BF90AF909F908F900895843009F000
:100B7000BBCF0F5FB9CF1F5FB7CF1150B5CF0150BB
:100B8000B3CF01E0B7CF00E3B5CF11E0B9CF10E2AA
:100B9000B7CF821B930B0196E80EF91EF3E0440FCA
:100BA000551FFA95E1F7E40EF51EC9CF9E012F5FA0
:100BB0003F4FA701B401C6010E947504811529F2B7
:100BC000D601AD90BC9011978981811136C01296E3
:100BD0000D90BC91A02D1296ED91FC91139730973A
:100BE000E1F4D50116960C93169717961C93179758
:100BF0001596FC92EE921497B401C6010F90DF9106
:100C0000CF911F910F91FF90EF90DF90CF90BF9009
:100C1000AF909F908F900C94330B868116968C9397
:100C20001697878117968C931797848195811596CF
:100C30009C938E931497DF01CECFF5010681178127
:100C400018968C91833009F45DC008F052C0813051
:100C500009F454C0823009F453C0013308F054C081
:100C6000011509F453C0113208F052C0111509F4EE
:100C700051C0202F30E0C90101977C0173E0F59449
:100C8000E7947A95E1F7887F412F50E0FE2CEE241F
:100C900010FD42C04150510963E0440F551F6A9551
:100CA000E1F72E0D3F1D281B390B7A01E20EF31ED2
:100CB000B701C6010E946204811509F446CFF6010E
:100CC000A281B3811296ED91FC911397309709F4AC
:100CD00088CF868116968C931697878117968C936A
:100CE00017978481958115969C938E931497DF01B5
:100CF000E9CF843009F0B1CF0F5FAFCF1F5FADCF29
:100D00001150ABCF0150A9CF01E0ADCF00E3ABCF85
:100D100011E0AFCF10E2ADCF821B930B0196E80E2E
:100D2000F91E83E0440F551F8A95E1F7E40EF51E86
:100D3000BFCF2F923F924F925F926F927F928F928E
:100D40009F92AF92BF92CF92DF92EF92FF920F935A
:100D50001F93CF93DF9300D000D000D0CDB7DEB784
:100D60007C0169837A83412CB2E0CB2ED12C10E137
:100D700008E1502EAA24A394B12C38E0139F40011F
:100D80001124E12FE150FF0B1F0183E0220C331CE3
:100D90008A95E1F71B82F12FF170FC8341109CC012
:100DA0005A94852D90E09C01215031093E832D837A
:100DB00037FF04C0FC013696FE83ED832D813E8112
:100DC000A3E035952795AA95E1F7622E6394220F4B
:100DD000220F220F352D321B832F90E09E838D83AF
:100DE000712CEC81E1117AC0B30161507109762F49
:100DF0006627820D931D680F791F00E0212F452D76
:100E0000C7010E94820369817A81C7010E94330B66
:100E10003FEF80E792E0315080409040E1F700C022
:100E20000000EB81EF5FEB83EC11B8CFF1E06F1ABC
:100E30007108762C662453E0252E22E0C216D104D8
:100E400011F045E0242E312C45018D819E81881AB8
:100E5000990A41104FC01150612F70E010FD4CC035
:100E60006150710933E0660F771F3A95E1F7ED8124
:100E7000FE816E0F7F1F660D771D00E0212F452D2F
:100E8000C7010E94820369817A81C7010E94330BE6
:100E9000FFEF20E732E0F15020403040E1F700C0A2
:100EA000000033943210D5CF81E0482669817A81E1
:100EB000C7010E94330B9FEFE0E7F2E09150E04062
:100EC000F040E1F700C0000022E0C216D104E1F4D6
:100ED00094E0C92ED12C51CF539463CFB5012D810D
:100EE0003E81621B730B680D791DC3010197982F1A
:100EF000882781CF1F5FB0CF23E0660F771F2A9529
:100F0000E1F7680D791DB7CF80E09FEFA0E0B0E07A
:100F1000F70182879387A487B58724E030E03E837A
:100F20002D830E94D50B69817A81C7010E94330B02
:100F30003FEF85EA9EE0315080409040E1F700C0ED
:100F40000000ED81FE813197FE83ED83EF2B49F7A1
:100F50000E94D50BC7010F900F900F900F900F902C
:100F60000F90DF91CF911F910F91FF90EF90DF9045
:100F7000CF90BF90AF909F908F907F906F905F9039
:100F80004F903F902F900C94EC03EF92FF920F93B1
:100F90001F93CF93DF93EC017B0180E09FEFA0E0F4
:100FA000B0E08A879B87AC87BD870AE010E00E948B
:100FB000D50BB701CE010E94330B2FEF85EA9EE0DF
:100FC000215080409040E1F700C0000001501040E7
:100FD00071F7CE01DF91CF911F910F91FF90EF90AC
:100FE0000C94EC038AB1837C8AB98BB18C638BB986
:100FF000DA9AEDE6F0E080818C638083E8E6F0E049
:10100000808184608083789408950E94F2070E9412
:10101000F10A0C94CA0986B590E025EA8227922746
:101020000C94DB0DCF93DF93EC0188858031C9F1FF
:1010300018F5813039F1843059F12C813D814E8190
:101040005F8160E074E284EF90E00E94260CCA01A8
:10105000B9016051710981099109288530E0220F99
:10106000331F032E000C440B550B0E94260C2093BB
:10107000B800DF91CF9108958034F9F68091B900DE
:10108000826009C08091B9008C7F8093B900D5CF70
:101090008091B9008D7F8093B9008091B900816003
:1010A000F4CF8091B90082608093B9008091B9003B
:1010B0008E7FEBCFFC0183858E7E811521F08AE740
:1010C00091E00C94D30A0895089508950895089521
:1010D000FC018185880F92859170892B9091BC00CD
:1010E000946A9093BC009091BC0097FFFCCF8093D2
:1010F000BB008091BC008F7D8093BC008091BC00C0
:1011000084688093BC008091BC0087FFFCCF8091F5
:10111000B900887F08958091B900887F0895ECEB2D
:10112000F0E08081846980838091B900887F089590
:101130000F931F93CF93DF938C01EB01FC019185FB
:101140008B85981719F0CB010E945A08F8019085F9
:101150008985981719F0CE010E9412081AE0CE0175
:101160000E946808883159F09091BC00946990936E
:10117000BC00F5E0FA95F1F700001A9581F7DF91D0
:10118000CF911F910F910895FC0180E090E044E819
:10119000228133818217930710F081E00895209116
:1011A000BC0027FFFCCFA081B181A80FB91F2C91F3
:1011B0002093BB004093BC002091B9002832E1F796
:1011C0000196E6CFFC01892B79F080819181892BF2
:1011D00059F0672B49F08091BC0084698093BC0072
:1011E0008091B900887F089580E008950F931F9340
:1011F000CF93DF93CDB7DEB7EC970FB6F894DEBF91
:101200000FBECDBF8E010F5F1F4F8CE3F80111920F
:101210008A95E9F7C8010E94ED0D8091B900887F99
:10122000883249F158F4883101F1803209F165E9D9
:1012300071E0883049F08AE692E00AC08033F1F02C
:1012400068E472E08833B9F7C8010E94ED0DC80167
:101250000E94D30AEC960FB6F894DEBF0FBECDBF46
:10126000DF91CF911F910F91089565EB71E0ECCF65
:1012700060ED71E0E9CF64EF71E0E6CF6AE172E022
:10128000E3CF0F931F93CF93DF93EC018B01892B57
:10129000E9F188819981892BC9F161157105B1F155
:1012A000CE010E9498088091B900887F883151F161
:1012B00068E772E0C8010E94F6088091BC0084696A
:1012C0008093BC008091B900887FDF91CF911F91FE
:1012D0000F9108952091BC0027FFFCCFE881F98190
:1012E000E80FF91F20812093BB004093BC002091A0
:1012F000B9002832E1F701962A813B8182179307D2
:1013000048F3DBCF80E090E044E8F6CF81E0DDCF2A
:101310008F938FB78F939F9399B180910001892705
:101320009093000182FF0AC091E09093390190935D
:101330003A01909143019F5F9093430183FF0BC05B
:1013400092E09093390191E090933A01909143019A
:101350009F5F9093430184FF0BC093E0909339010A
:1013600091E090933A01909143019F5F90934301E4
:1013700085FF0BC084E08093390181E080933A01BE
:10138000809143018F5F809343019F918F918FBF25
:101390008F91189584B18A6384B92A9A2498299ADE
:1013A0008CB58CBD8CB580648CBD8CB58CBD8CB57A
:1013B00080618CBD8CB58CBD8CB58CBD8CB58260CC
:1013C0008CBD8CB58CBD8DB58DBD08950C94CA09AE
:1013D000CF93DF93DC012998EC0180E090E0FD01E0
:1013E00001900020E9F73197EA1BFB0B8E179F074E
:1013F00020F0299ADF91CF91089529912EBD0DB447
:1014000007FEFDCF0196EBCFFC01680F791FE617B1
:10141000F70709F4089581918EBD0DB407FEFDCF45
:10142000F6CF08952998FC01680F791FE617F70792
:1014300011F4299A08951EBC0DB407FEFDCF8EB598
:101440008193F4CFFC01680F791FE617F70709F4C1
:1014500008951EBC0DB407FEFDCF8EB58193F5CF68
:10146000CF93DF9300D000D0CDB7DEB70E94480CF9
:1014700069837A838B839C8364E070E0CE0101965C
:101480000E94040A0F900F900F900F90DF91CF9160
:101490000895CF93DF930F92CDB7DEB78983299854
:1014A000CB01BA0192600E94300A61E070E0CE0187
:1014B00001960E94040A299A0F90DF91CF91089516
:1014C0000F931F93CF93DF93D82FC92F89012998AA
:1014D000CB01BA0192600E94300AB8018D2F9C2F77
:1014E0000E94040A299ADF91CF911F910F910895CC
:1014F000CF93DF93EC0118822998CB01BA01936056
:101500000E94300A1EBC0DB407FEFDCF8EB5888345
:10151000299ADF91CF9108950F931F93CF93DF9373
:10152000D82FC92F8B012998CA01B90193600E9455
:10153000300AB8018D2F9C2F0E94220A299ADF9130
:10154000CF911F910F910895299885E08EBD0DB41C
:1015500007FEFDCF8FEF8EBD0DB407FEFDCF8EB51C
:10156000299A0895982F9F7391110CC0299891E0A2
:101570009EBD0DB407FEFDCF8EBD0DB407FEFDCFA1
:101580008EB5299A0895FC01680F791FE617F707B1
:1015900011F4089500008091C00085FFFBCF819178
:1015A0008093C600F3CFCF93DF93DC01EC0180E0A2
:1015B00090E0FD0101900020E9F73197EA1BFB0B59
:1015C0008E179F0720F0DF91CF91089500002091A2
:1015D000C00025FFFBCF29912093C6000196E9CFDB
:1015E00008951092C50087E68093C400E2ECF0E015
:1015F00080818F708083808188608083A0ECB0E0E0
:101600008C918D7F8C93A1ECB0E088E18C938C91D0
:101610008B7F8C93808186608083089540980895A5
:101620000F931F93CF93DF93082FC8E0D0E010E80B
:10163000802F8123409A811579F083E08A95F1F714
:101640000E940E0B00C000001695219789F7DF91CC
:10165000CF911F910F91089500C00E940E0B83E05F
:101660008A95F1F7F0CF6F927F928F929F92AF920F
:10167000BF92CF92DF92EF92FF920F931F93CF937F
:10168000DF93CDB7DEB7C85CD1090FB6F894DEBFE3
:101690000FBECDBF8C014B01CE0101965C0188ECE1
:1016A000D5011D928A95E9F7D801ED91FC91D501FC
:1016B000309709F053C0F80166817781C5010E9417
:1016C000FA03EE24E394F12CC12CD12CF4E6CF16CE
:1016D000D10408F04BC0F601EE0FFF1FEA0DFB1D11
:1016E000808191818E159F0509F040C0D8011A961E
:1016F0007C901A971B966C901B971C968C910E945D
:10170000100B862D0E94100B872D0E94100BBFEF2F
:10171000CB1ADB0ABFEFEB1AFB0AE1E0EE16E6E0BC
:10172000FE06A1F60E940E0BF1E2FA95F1F7000019
:10173000C853DF4F0FB6F894DEBF0FBECDBFDF91A9
:10174000CF911F910F91FF90EF90DF90CF90BF90BE
:10175000AF909F908F907F906F9008958481958136
:101760008D939D930190F081E02DA2CFF8018489A3
:10177000811599F0D40114968D919C918E159F0539
:1017800061F47684678480890E94100B862D0E9404
:10179000100B872D0E94100BBDCF80E00E94100B14
:1017A00080E00E94100B80E0F5CFCF93DF93C0E084
:1017B000D6E080E00E94100B80E00E94100B80E0D9
:1017C0000E94100B2197A9F70E940E0B81E28A95C7
:1017D000F1F70000DF91CF910895CF93DF93C2E13D
:1017E000D1E08E819F810E94630C9D838C8380E079
:1017F000DF91CF910895389A0E9405080E94D50B79
:101800000E94ED0B69E070E080E591E00E94C30A60
:101810002FEF89E698E1215080409040E1F700C029
:101820000000F0CF97FB072E16F4009407D077FD49
:1018300009D00E944F0C07FC05D03EF4909581958D
:101840009F4F0895709561957F4F0895A1E21A2EDC
:10185000AA1BBB1BFD010DC0AA1FBB1FEE1FFF1F54
:10186000A217B307E407F50720F0A21BB30BE40BA4
:10187000F50B661F771F881F991F1A9469F76095EB
:101880007095809590959B01AC01BD01CF010895A5
:101890006927962769277827872778270895AA1B1D
:1018A000BB1B51E107C0AA1FBB1FA617B70710F04B
:1018B000A61BB70B881F991F5A95A9F7809590957D
:1018C000BC01CD0108950F931F93CF93DF939C012B
:1018D000029710F422E030E0E091A902F091AA0210
:1018E00080E090E0A0E0B0E0309791F4009709F438
:1018F00048C0821B930B84309105D0F58A819B816F
:101900006115710581F1FB0193838283FE0111C092
:10191000408151810281138142175307D8F0421749
:10192000530799F4109761F012960C93129713963F
:101930001C933296CF01DF91CF911F910F910895A3
:101940000093A9021093AA02F4CF009751F0481710
:10195000590738F0AC01DB01CA01BD01DF01F80114
:10196000C3CFEF01F9CF9093AA028093A902CECF03
:10197000FE01E80FF91F2193319302979983888321
:10198000D9CF4091AB025091AC024115510541F4C1
:1019900040914801509149015093AC024093AB02F1
:1019A0008091460190914701009741F48DB79EB711
:1019B00060914A0170914B01861B970B481759079C
:1019C00008F0B8CF841B950B8217930708F4B2CFA9
:1019D000B9016E5F7F4F8617970708F4ABCF640F8E
:1019E000751F7093AC026093AB02FA01219331939F
:1019F000A1CFCF93DF939C010097E9F0FC013297D0
:101A000013821282C091A902D091AA02DE0180E065
:101A100090E02097A1F480819181280F391F809157
:101A2000AB029091AC028217930709F068C0F09363
:101A3000AC02E093AB02DF91CF910895DA01AE17CB
:101A4000BF0708F042C012964D915C911397CD01EB
:101A50004115510599F7DC011396FC93EE9312970B
:101A60004D915D919D01240F351FE217F30781F41D
:101A7000208131812E5F3F4F240F351FDC011196ED
:101A80003C932E932281338113963C932E9312978D
:101A9000E0E0F0E08A819B810097B1F5DE018D9155
:101AA0009D918A0F9B1F2091AB023091AC022817A9
:101AB000390709F6309759F51092AA021092A90237
:101AC000D093AC02C093AB02B6CFB383A283408164
:101AD0005181240F351FA217B30771F44E5F5F4F7A
:101AE0002D913C911197240F351F3183208312963D
:101AF0002D913C9133832283009709F0ACCFF09372
:101B0000AA02E093A90297CFFE01EC01C3CF138292
:101B10001282D6CF8F929F92AF92BF92CF92DF92D6
:101B2000EF92FF92CF93DF93EC01688179818A81F4
:101B30009B81611571058105910521F464E279EDC0
:101B40008BE597E02DE133EF41E050E00E94AB10D0
:101B500049015A019B01AC01A7EAB1E40E94CA10F5
:101B60006B017C01ACEEB4EFA50194010E94D8108A
:101B7000DC01CB018C0D9D1DAE1DBF1DB7FF03C049
:101B80000197A109B04888839983AA83BB839F7773
:101B9000DF91CF91FF90EF90DF90CF90BF90AF900B
:101BA0009F908F9008950E948A0D08958CE491E093
:101BB0000E948A0D0895A0E0B0E080934C019093BC
:101BC0004D01A0934E01B0934F010895DC0101C077
:101BD0006D9341505040E0F70895FB01DC010D90FA
:101BE0000020E9F7119701900D920020E1F7089588
:101BF000AEE0B0E0EEEFFDE00C94EB100D891E8935
:101C000086E08C831A8309838FEF9FE79E838D8301
:101C1000AE01475E5F4F6F89788DCE0101960E94BD
:101C20001B0E2F813885020F131FF80110822E968C
:101C3000E4E00C940711ABE0B0E0E1E2FEE00C94CC
:101C4000DE106C017B018A01FC0117821682838100
:101C500081FFDAC19AE0492EF6012381F70123FDC5
:101C6000859123FF81917F01811509F41FC1853280
:101C700039F423FD959123FF91917F01953229F449
:101C8000B60190E00E941D10E7CF30E0612C512C8E
:101C9000712CF0E27F1640F59B32D9F058F4903267
:101CA000D1F09332F1F09E3299F576FCFFC0689442
:101CB00076F806C09D3291F09033C1F4689470F8C4
:101CC000F70123FD959123FF91917F019111E1CFC0
:101CD00029C0689471F8689472F8F2CF689473F828
:101CE000EFCF689474F8ECCF77FC1CC080ED890FBF
:101CF0008A30C8F676FE05C0649C800D1124682EDB
:101D0000DFCF549C800D1124582E689475F8D8CFDD
:101D10009C3619F4689477F8D3CF9C3409F44BC0FF
:101D2000983671F2892F8F7D8554833008F445C031
:101D3000933609F466C0933709F469C0933509F402
:101D400075C0943619F0993609F09FC0F80177FEF6
:101D500095C061917191819191918F01272D2F767D
:101D6000722E97FF09C090958095709561957F4F71
:101D70008F4F9F4F689477F82AE030E0AE014F5FB5
:101D80005F4F5A010E944D108A19A82E76FEC5C0D9
:101D9000872D8E7FA61408F0BFC074FE12C172FC9E
:101DA00006C1F72DFE7E7F2EB62C872D86788115F5
:101DB00009F4C0C001C131E083CF3115F9F0085FEB
:101DC0001F4F8FE3898388248394912CAE014F5F4A
:101DD0005F4F5A01E89477F873FC03C085149104AF
:101DE000B0F181149104D1F5511409F435CFB60145
:101DF00080E290E00E941D105A94F6CF0C5F1F4FB6
:101E0000E0CFF801808189830E5F1F4FDCCFF8019E
:101E1000A190B1908F01662D70E076FC02C06FEF4B
:101E20007FEFC5010E9412104C01D4CFF801A190A0
:101E3000B1908F01662D70E076FC02C06FEF7FEFEE
:101E4000C5010E9407104C01689477F8C5CFB60110
:101E500080E290E00E941D105A94C0CFF50177FCFB
:101E6000859177FE81915F01B60190E00E941D107F
:101E700051105A94F1E08F1A9108B3CF619171918A
:101E8000072E000C880B990B68CF372CE89434F898
:101E90002AE030E0953739F1572D597F352E9037AC
:101EA00099F058F49835A9F09F36D9F0F60186815B
:101EB00097812B96E1E10C94FA109837B9F774FCEE
:101EC00005C020E130E00FC0689434F8689432F81F
:101ED000F8CF74FE03C0872D8660382E20E132E0F3
:101EE00002C028E030E0F80137FE11C06191719125
:101EF000819191918F01FE0131965F01AF010E94A6
:101F00004D108A19A82E732CE89477F83FCF619171
:101F1000719180E090E0EECF782EBA2C74FE45CF20
:101F2000FE01EA0DF11D8081803309F043C0272DA9
:101F3000297E722E73FC0EC070FE4FC06A2CB51441
:101F400018F4650C6B18B52C852D8B195B1408F4EF
:101F500080E0B80EB51408F042C05B1874FE41C0B2
:101F6000B60180E390E00E941D1072FE09C088E572
:101F700090E071FC02C088E790E0B6010E941D105D
:101F8000A614D8F1AA94B12C4FEFA41AB40ACE012A
:101F900001963C01A80EB91EF50182915F01B601C0
:101FA00090E00E941D106A147B04B1F71DCFB62C7F
:101FB000782EB6CF72FC02C0B394BCCFB394B39466
:101FC000B9CFB62C782EF1CEB60180E290E00E9417
:101FD0001D1033943514C0F3B7CF3B2CFBCF512CDD
:101FE000BDCF872D8678811559F280E271FC8BE296
:101FF00077FC8DE2B60190E0C1CFB60180E390E0BE
:102000000E941D106A94BCCF8FEF9FEF52CFFC014E
:102010000590615070400110D8F7809590958E0F13
:102020009F1F0895FC016150704001900110D8F786
:10203000809590958E0F9F1F08950F931F93CF93B8
:10204000DF93182F092FEB018B8181FD09C01FEF52
:102050000FEF812F902FDF91CF911F910F91089556
:1020600082FF14C02E813F818C819D812817390702
:102070003CF4E881F981CF0101969983888310832C
:102080008E819F8101969F838E83E3CFE885F985BA
:10209000812F0995892BA1F3DACFFA01AA272830DD
:1020A00051F1203181F1E8946F936E7F6E5F7F4F25
:1020B0008F4F9F4FAF4FB1E03ED0B4E03CD0670FA1
:1020C000781F891F9A1FA11D680F791F8A1F911DF4
:1020D000A11D6A0F711D811D911DA11D20D009F444
:1020E00068943F912AE0269F11243019305D319386
:1020F000DEF6CF010895462F4770405D4193B3E06F
:102100000FD0C9F7F6CF462F4F70405D4A3318F015
:10211000495D31FD4052419302D0A9F7EACFB4E0C6
:10212000A6959795879577956795BA95C9F700977E
:102130006105710508959B01AC010A2E069457951F
:10214000479537952795BA95C9F7620F731F841F76
:10215000951FA01D0895052E97FB1EF400940E9464
:10216000C21057FD07D00E94260C07FC03D04EF486
:102170000C94C21050954095309521953F4F4F4F8C
:102180005F4F089590958095709561957F4F8F4F23
:102190009F4F08950E941411A59F900DB49F900D1C
:1021A000A49F800D911D11240895B7FF0C94CA10AF
:1021B0000E94CA10821B930B08952F923F924F9258
:1021C0005F926F927F928F929F92AF92BF92CF92C7
:1021D000DF92EF92FF920F931F93CF93DF93CDB7D0
:1021E000DEB7CA1BDB0B0FB6F894DEBF0FBECDBF48
:1021F00009942A88398848885F846E847D848C8419
:102200009B84AA84B984C884DF80EE80FD800C8121
:102210001B81AA81B981CE0FD11D0FB6F894DEBF04
:102220000FBECDBFED010895A29FB001B39FC001C5
:10223000A39F700D811D1124911DB29F700D811DF2
:0A2240001124911D0895F894FFCFBA
:10224A00FF2700000000000000000000000000005E
:10225A0000000000000000000600FFFF0000000070
:10226A0040420F000127000000000000210108057C
:10227A00000000000000000000030000FFD700007B
:10228A0000FF000000000000AD0220000100000075
:10229A006C4F4F50494E470A0049542053484F55F6
:1022AA004C4420484552450A0042656C6C792043EB
:1022BA006F756E743A2025640A004572722E2E6973
:1022CA003263436F6E663C496E76616C6964204D79
:1022DA006F64653E002E2E2E20466C6167203C53AB
:1022EA00544152545F52455452414E534D495454ED
:1022FA0045443E0A002E2E2E20466C6167203C5330
:10230A004C415F504C55535F575F41434B3E0A0067
:10231A002E2E2E204572726F72466C6167203C53D6
:10232A004C415F504C55535F575F4E4F545F41438A
:10233A004B3E0A002E2E2E20466C6167203C4441FB
:10234A0054415F425954455F5452414E534D49548A
:10235A005445445F41434B3E0A002E2E2E204572BF
:10236A00726F72466C6167203C444154415F425926
:10237A0054455F5452414E534D49545445445F4E5F
:10238A004F5F41434B3E0A002E2E2E204572726F3C
:10239A0072466C6167203C41524249545241544949
:1023AA004F4E5F4C4F53543E0A00556E6B6E6F771B
:1023BA006E20464C61670A00693263577269746518
:0623CA005F506F6C000083
:00000001FF
