:100000000C9434000C9451000C9451000C94510049
:100010000C9451000C9451000C9451000C9451001C
:100020000C9451000C9451000C9451000C9451000C
:100030000C9451000C9451000C9451000C945100FC
:100040000C9451000C9451000C9451000C945100EC
:100050000C9451000C9451000C9451000C945100DC
:100060000C9451000C94510011241FBECFEFD8E026
:10007000DEBFCDBF11E0A0E0B1E0E2E0F5E302C0F9
:1000800005900D92A03BB107D9F722E0A0EBB1E0BB
:1000900001C01D92AA38B207E1F70E9425150C9401
:1000A0007F1A0C940000CF92DF92EF92FF920F9391
:1000B0001F9300E010E09801680179018FEFC81AE2
:1000C000D80AE80AF80A00FD08C04FEF60E080E0B7
:1000D0000E94D90E97018601EFCF40E060E080E0FA
:1000E0000E94D90E97018601C11486E0D806E1046A
:1000F000F10411F71F910F91FF90EF90DF90CF90D7
:100100000895CF92DF92EF92FF920F931F9300E03A
:1001100010E09801680179018FEFC81AD80AE80A3F
:10012000F80A00FF14C04FEF60E080E00E94D90E93
:1001300097018601C11486E0D806E104F10451F765
:100140001F910F91FF90EF90DF90CF90089540E0C6
:1001500060E080E00E94D90E97018601DBCFCF934B
:10016000DF93C0EBD1E083E090E0A0E0B0E08E8FC1
:100170009F8FA8A3B9A38AEA90E09BA38AA38BEBE5
:1001800090E09DA38CA38CEC90E09FA38EA381E8CC
:1001900090E09B8F8A8F89E990E0998F888F6EE03D
:1001A00071E08CEB91E00E94671764E171E0CE0191
:1001B0000E9467170E9425110E9484101E8E1F8EB8
:1001C00018A219A21BA21AA21DA21CA21FA21EA243
:1001D0001B8E1A8E198E188E8CE0ECEBF1E0DF018D
:1001E000982F1D929A95E9F7DE011D928A95E9F7FD
:1001F000DF91CF910895CF93DF93DC01EAE3F2E042
:1002000081E0848313821082118292E0928385833D
:10021000C3E3D2E0FE83ED83EEE2F2E024E230E0DD
:100220003183208325E230E0338322838483119657
:10023000DC93CE931396FC93EE931297DF91CF91BC
:100240000895BF92CF92DF92EF92FF920F931F9388
:10025000CF93DF937C01D62E172FB42EC22E892B7D
:1002600011F189E090E00E94DB15EC01892BD9F0B7
:1002700008871B821A8219821882BE82CF82DC8292
:100280001D83D70116968D919C9117970097A9F41D
:100290001196DC93CE931396DC93CE93129701962E
:1002A000F70197838683DF91CF911F910F91FF9084
:1002B000EF90DF90CF90BF900895ED91FC91119752
:1002C000F983E883D383C283CD93DC93E8CFCF93C4
:1002D000DF93EC01892BA1F088819981009781F04F
:1002E0002A813B818217930771F4198218821B823D
:1002F0001A820E9471168E819F8101979F838E833F
:10030000DF91CF910895DC01ED91FC91F983E883B1
:1003100013821282EECFCF93DF93EC018E819F8107
:10032000892B19F4DF91CF910895CE010E946701C6
:10033000F5CF0F931F93CF93DF93AB01FC01329660
:1003400081E090E08417950728F0DF91CF911F910D
:100350000F910895608171819C0121503109EF0155
:1003600037FD06C0DE011E910E916017710728F05F
:100370007983688301963296E5CF13961C930E938A
:10038000129721503109ED01EBCFFC0180E092E1A1
:10039000AAE7B0E082879387A487B58780E89AE1CF
:1003A000A6E0B0E084839583A683B783118681E0BD
:1003B000808708950895089508950895CF93DF9351
:1003C000EC0188858430E1F168F5813099F16A8526
:1003D0007B858C859D852C813D814E815F810E942E
:1003E0008415CA01B90160517109810991092885F3
:1003F00030E0220F331F032E000C440B550B0E94DC
:100400008415223008F422E02093B8008091B800CF
:1004100090E0B0E0A0E088839983AA83BB83DF915A
:10042000CF9108958031A9F0803489F68091B90088
:10043000826009C08091B9008C7F8093B900C7CFDA
:100440008091B9008D7F8093B9008091B90081605F
:10045000F4CF8091B90082608093B9008091B90097
:100460008E7FEBCFCF93DF93EC0187B18F7C87B981
:1004700088B1806388B9662319F0CE010E94C50156
:10048000CE01DF91CF910C94DE010895880F682B87
:100490008091BC00846A8093BC008091BC0087FF7F
:1004A000FCCF6093BB008091BC008F7D8093BC002B
:1004B0008091BC0084688093BC008091BC0087FF61
:1004C000FCCF8091B900887F0895ECEBF0E080814B
:1004D000846980838091B900887F08951F93CF93AA
:1004E000DF93D82F162FCAE061E0113009F060E0E9
:1004F0008D2F0E944602883159F09091BC0094697A
:100500009093BC0096E09A95F1F700C0C15061F756
:10051000DF91CF911F9108958091B90008950F93B5
:100520001F93CF93DF93EC01892B21F1842F8B0153
:1005300060E00E946E020C0F1D1F94E88831B1F03C
:100540008091B900DF91CF911F910F910C946502BA
:100550008091BC0087FFFCCF89918093BB00909372
:10056000BC008091B900887F8832D9F7C017D107C5
:1005700079F7E8CF81E0DF91CF911F910F91089536
:10058000009739F0FC01680F791F94E8E617F70728
:1005900011F481E008958091BC0087FFFCCF819128
:1005A0008093BB009093BC008091B900887F883213
:1005B000D9F7ECCF0F931F93CF93DF93EC0181E03A
:1005C0002097A1F0842F8B0161E00E946E020C0F36
:1005D0001D1F94E88831E9F08091B9008091BC003A
:1005E00084698093BC008091B900887FDF91CF91AE
:1005F0001F910F9108958091BC0087FFFCCF8991D6
:100600008093BB009093BC008091B900887F8832B2
:10061000D9F7C017D10779F7E1CF0097F1F0FC01C6
:10062000680F791F94E8E617F70741F49091B90035
:10063000987F81E0983291F480E008958091BC0029
:1006400087FFFCCF81918093BB009093BC00809189
:10065000B900887F8832D9F7E6CF81E00895DC01C0
:10066000ED91FC910580F681E02D14828CB52CB5BE
:1006700090E08F7B8095909582238CBD0895FC013E
:10068000A281B3811296ED91FC911397208114966B
:100690003C9181E090E001C0880F3A95EAF780959F
:1006A000822380830895FC01A281B3811296ED918B
:1006B000FC911397808114969C9121E030E001C059
:1006C000220F9A95EAF7822B80830895DC01ED9141
:1006D000FC91A581B6818C918230C1F028F4811102
:1006E00011C01082118202C0833099F012968C9151
:1006F000803131F188F48430D9F08830E9F08230EB
:1007000091F00895108281E08183F0CF81E08083B1
:10071000E9CF81E08083F8CF8034D1F08038D9F000
:10072000803291F008951382148281E082830895CB
:100730001382148212820895138281E08483F6CF9B
:10074000138281E08483F6CF81E083831482EECF2D
:1007500081E08383EECF81E08383F4CFCF93DF9377
:10076000EC010E94660384B18C6284B9249885B13F
:100770008C6385B9AA81BB81ED91FC911197208191
:1007800014964C9181E090E0BC0102C0660F771F87
:100790004A95E2F7262B2083AA81BB811296ED9120
:1007A000FC911397208114963C9101C0880F3A95D3
:1007B000EAF7822B80838CB5E881F9810580F68188
:1007C000E02D938190FB87F98CBD8CB5E881F98190
:1007D0000580F681E02D918190FB85F98CBD8CB56B
:1007E000E881F9810580F681E02D958190FB84F9FF
:1007F0008CBD8CB5E881F981908190FB83F98CBD2B
:100800008CB5E881F981918190FB82F98CBD8CB522
:10081000E881F981938190FB81F98CBD8CB5E881E9
:10082000F981948190FB80F98CBD8DB5E881F981C7
:10083000928190FB80F98DBD8CB5E881F9810580AE
:10084000F681E02D948190FB86F98CBDDF91CF91EC
:100850000895FC01A081B18115960D90BC91A02D49
:1008600081E014968C93CF010C94AE030F931F93E9
:10087000CF93DF93D82FC92F8B010E943F03D8015C
:1008800080E090E0F80101900020E9F73197E01B4B
:10089000F10B8E179F0740F08D2F9C2FDF91CF918A
:1008A0001F910F910C9453032D912EBD0DB407FE93
:1008B000FDCF0196E7CF0F931F938A019B01FC01A7
:1008C00080E090E0801791071206130618F01F9140
:1008D0000F91089541914EBD0DB407FEFDCF0196D5
:1008E000F1CF8EBD0DB407FEFDCF08958EBD0DB4C2
:1008F00007FEFDCF8EB50895EF92FF920F931F93E1
:10090000CF93DF93D82FC92F7B018A010E943F0329
:10091000F7010E0D1F1DE017F10751F48D2F9C2FCD
:10092000DF91CF911F910F91FF90EF900C945303A3
:100930001EBC0DB407FEFDCF8EB58193ECCFFC013C
:10094000680F791FE617F70709F408951EBC0DB468
:1009500007FEFDCF8EB58193F5CFFC011EBC0DB413
:1009600007FEFDCF8EB5808308958F929F92AF9240
:10097000BF92CF92DF92EF92FF929B01AC01A3E076
:10098000B0E00E94AD154B015C01C12CD12C760169
:10099000C814D904EA04FB0450F0FF90EF90DF90F4
:1009A000CF90BF90AF909F908F900C944B141EBC33
:1009B0000DB407FEFDCF8EB50E9451148FEFC81AFB
:1009C000D80AE80AF80AE4CFFC01680F791FE61795
:1009D000F70711F4089500008091C00085FFFBCF58
:1009E00081918093C600F3CFCF93DF93DC01EC01BC
:1009F00080E090E0FD0101900020E9F73197EA1BCB
:100A0000FB0B8E179F0720F0DF91CF910895000018
:100A10002091C00025FFFBCF29912093C6000196AD
:100A2000E9CF519A8AB11AB88BB183608BB9089516
:100A30000E9411051092C50081E88093C400E2EC89
:100A4000F0E080818F708083808188608083A0EC5B
:100A5000B0E08C918D7F8C93A1ECB0E088E18C9319
:100A60008C918B7F8C938081866080830895FC01BC
:100A700081E08383148285831682178210868187A2
:100A80001286838714861282118287E280830895FA
:100A90009C0110924502211582E03807E9F02115EA
:100AA00084E03807D9F0211588E03807C9F080E0E4
:100AB0008C60922F907F982B909341029B7F909314
:100AC00042022295207F282B209343022B7F2093E4
:100AD000440281E492E0089582E0EACF81E0E8CF29
:100AE00083E0E6CF1F93CF93DF93EC0161110E9467
:100AF000370518818A8520E1829FC00111242C8549
:100B000044E0249F90011124822B932B2B8548E0F5
:100B1000249F90011124822B932B80620E94480510
:100B2000412F64E070E00E948F0283EF91E0019713
:100B3000F1F700C0000018818A8520E1829FC00182
:100B400011242C8544E0249F90011124822B932BA7
:100B50002B8548E0249F90011124822B932B8062E7
:100B60000E944805412F64E070E00E948F0283EFED
:100B700091E00197F1F700C00000188181E090E05A
:100B80000E944805412F64E070E00E948F028FE0D0
:100B900097E20197F1F700C0000018818B8190E087
:100BA000880F991F2C81822B84600E944805412F59
:100BB00064E070E00E948F0283EF91E00197F1F70B
:100BC00000C0000018818D8124E0829FC0011124A3
:100BD0002E8130E0220F331F822B932B2F81822B0B
:100BE00088600E944805412F64E070E00E948F02F7
:100BF00083EF91E00197F1F700C00000188188852C
:100C000028E0829FC0011124298544E0249F90019F
:100C10001124822B932B80610E944805412F64E0B0
:100C200070E00E948F0283EF91E00197F1F700C01E
:100C30000000C88182E090E00E9448054C2F64E0EB
:100C400070E00E948F028FE097E20197F1F700C0F9
:100C50000000DF91CF911F910895FC018281918165
:100C6000911549F0913061F0833198F4811551F07C
:100C70008F5F90E009C021E0280F20934002F4CF5D
:100C800025E1FACF9F5F81E08283918380914002CA
:100C9000089580E0EECFEFEFE80F80E0E33020F43E
:100CA000F0E0E55FFE4F8081860F0895FC016281D0
:100CB00081E0860F643138F08181833040F48F5FAA
:100CC000818381E060E0828381810C944B0680E027
:100CD000F7CFFC01892B79F0862F807F6295607FAA
:100CE000982F9D60908389608183862F8D60828399
:100CF0006960638314820895CF93C62F806890E063
:100D00000E9448054C2F64E070E00E948F0283EF40
:100D100091E00197F1F700C00000CF9108957F9214
:100D20008F929F92AF92BF92CF92DF92EF92FF92FB
:100D30000F931F93CF93DF9300D000D00F92CDB7C6
:100D4000DEB78C017B016115710591F04B01C12C5F
:100D5000D12C85E0782ECE0101965C01F70101903F
:100D60000020E9F73197EE19FF09CE16DF0698F05B
:100D70000F900F900F900F900F90DF91CF911F91D8
:100D80000F91FF90EF90DF90CF90BF90AF909F902A
:100D90008F907F900895F8018385811519F1C8011E
:100DA0000E945606F80160810E947C06F501872D9D
:100DB00011928A95E9F7F40161914F01C5010E94F2
:100DC0006906F801408164E070E0C5010E948F026D
:100DD00080EE90E00197F1F700C000009FEFC91A84
:100DE000D90ABCCFC8010E942D06DCCFCF93DF9378
:100DF0000E946E148FEF80936802109267028093B6
:100E0000690280E18093660282E080936A02C7EE05
:100E1000DFEF4C2F4095CE018770992780589F4F68
:100E2000242F26952695269530E0322F2227820FF3
:100E3000931F092E000CAA0BBB0B809361029093A9
:100E40006202A0936302B09364024093650289E555
:100E500092E00E94530B2196C13F8FEFD807C9F64D
:100E60000E94D50FDF91CF910C946A14CF92DF923C
:100E7000EF92FF920F931F93CF93DF93CDB7DEB71F
:100E800064970FB6F894DEBF0FBECDBF6B017C0137
:100E90004091DE015091DF016091E0017091E1012C
:100EA0008E010F5F1F4FC8010E941B0D49815A819F
:100EB0006B817C81411551056105710511F480E05C
:100EC0001CC089859A85AB85BC858C159D05AE05B2
:100ED000BF0511F585E090E0A0E0B0E08093CE0181
:100EE0009093CF01A093D001B093D10187E090E01F
:100EF0009093D3018093D20181E064960FB6F89469
:100F0000DEBF0FBECDBFDF91CF911F910F91FF903C
:100F1000EF90DF90CF900895C801C6CF2F923F92F7
:100F20004F925F926F927F928F929F92AF92BF92F9
:100F3000CF92DF92EF92FF920F931F93CF93DF93A5
:100F4000CDB7DEB7A8970FB6F894DEBF0FBECDBF02
:100F50004091E6015091E7016091E8017091E9014B
:100F60008E010F5F1F4FC8010E941B0D28018E01CB
:100F70000B5E1F4F90E3E92EF12C20E2C22ED12C04
:100F80004091DE015091DF016091E0017091E1013B
:100F9000C8010E941B0D0E944E17B7010E947015D8
:100FA00077247394780E0E944E17B6010E94701534
:100FB00066246394680E88E0689E90011124872C53
:100FC000869486948694912C982C8824302E212EF9
:100FD000872D60FC40C090E08095909587709927A0
:100FE000820F931F880E991E092C000CAA08BB08BB
:100FF00080E04D895E896F89788D411551056105C5
:10100000710579F5811509F4BBCF7D866E868FEF6A
:10101000888B1F86198A89869A86AB86BC86C20110
:101020000E944A0FA8960FB6F894DEBF0FBECDBF40
:10103000DF91CF911F910F91FF90EF90DF90CF90B4
:10104000BF90AF909F908F907F906F905F904F90E8
:101050003F902F9008958770280F311D820E931EA8
:10106000C3CF8D8D9E8DAF8DB8A188159905AA052A
:10107000BB0509F485CF832D922D0E941B0D81E0C5
:10108000B8CF8F929F92AF92BF92CF92DF92EF92A2
:10109000FF920F931F93CF93DF93CDB7DEB7A8973F
:1010A0000FB6F894DEBF0FBECDBF4B015C016A01E5
:1010B0004091E6015091E7016091E8017091E901EA
:1010C0007E0185E1E80EF11CC7010E941B0D4091D5
:1010D000DE015091DF016091E0017091E1018E012C
:1010E0000F5F1F4FC8010E941B0D49815A816B8100
:1010F0007C81411551056105710569F588898CA3CD
:101100008F858BA389898DA38A898EA3C7010E94AD
:10111000530B8091CA019091CB0101969093CB0122
:101120008093CA010E948E078EA18330F9F081E07E
:10113000A8960FB6F894DEBF0FBECDBFDF91CF915A
:101140001F910F91FF90EF90DF90CF90BF90AF90E5
:101150009F908F9008958D8D9E8DAF8DB8A188152D
:101160009905AA05BB05C1F4C801BDCF85E090E093
:10117000A0E0B0E08093CE019093CF01A093D00186
:10118000B093D10183E090E09093D3018093D2019A
:1011900081E0F6018083CBCF80E0CACF4F925F928F
:1011A0006F927F928F929F92AF92BF92DF92EF9257
:1011B000FF920F931F93CF93DF93CDB7DEB7A9971D
:1011C0000FB6F894DEBF0FBECDBF0E94E510409170
:1011D000E2015091E3016091E4017091E5013E016B
:1011E00025E1620E711CC3010E941B0D8D8C9E8C2B
:1011F000AF8CB8A01091CE014091DE015091DF017B
:101200006091E0017091E101C3010E941B0DF9A002
:101210000AA119A6D62CE72C1330B1F068F41130CE
:1012200079F0123079F080E3F81681F02FEFF212A6
:101230000EC03FE2F32E0BC01430A9F7FA94F3CF9F
:101240000F5FF1CF0150EFCFF394EDCFF12C4F2C86
:101250004694469446940032C1F10F3FC1F100FD1F
:1012600037C06F2D70E0609570956770772728E024
:10127000029FC0011124680F791F842D90E0982FE0
:101280008827680F791F072E000C880B990B0E9486
:101290003607811531F18FE291E00E94F404A9969E
:1012A0000FB6F894DEBF0FBECDBFDF91CF911F9177
:1012B0000F91FF90EF90DF90BF90AF909F908F9035
:1012C0007F906F905F904F90089500E0CACF0FE13C
:1012D00088E0089FB00111248F2D8770680F711D61
:1012E000CCCF512C542C442488E0089F9001112429
:1012F0008F2D00FD1AC090E08095909587709927FA
:10130000820F931F480E591E052C000C66087708A3
:10131000AE01475D5F4FC301B2010E94410889A53C
:10132000811549F083E491E0B8CF8770280F311D13
:10133000420E531EE9CF4091E2015091E3016091CA
:10134000E4017091E5018D2D9E2D0E941B0D498DAC
:101350005A8D6B8D7C8D411551056105710541F5E7
:101360004091DE015091DF016091E0017091E10157
:101370008D2D9E2D0E941B0DF9A20AA34D8E5E8E0F
:101380006F8E78A24091DE015091DF016091E00103
:101390007091E1018D2D9E2D0E94EF0D950184012C
:1013A00040E060E080E00E94D90E0E94D50F77CF28
:1013B000CE0101960E941B0D8D8589A38E858AA37F
:1013C00089859A85AB85BC858D8F9E8FAF8FB8A39D
:1013D00049815A816B817C818D2D9E2D0E94EF0D5C
:1013E000498D5A8D6B8D7C8DAECFEF92FF920F930E
:1013F0001F93CF93DF93EC017B0180E09FEFA0E090
:10140000B0E08A879B87AC87BD870AE010E00E9426
:101410006E14B701CE010E946A142FE78FE492E1A7
:10142000215080409040E1F700C000000150104082
:1014300071F7CE01DF91CF911F910F91FF90EF9047
:101440000C948B012F923F924F925F926F927F92FA
:101450008F929F92AF92BF92CF92DF92EF92FF92C4
:101460000F931F93CF93DF93CDB7DEB728970FB6B7
:10147000F894DEBF0FBECDBF4C0169834A8368017B
:10148000790118861F82BB27AF2D9E2D8D2D8B8352
:101490009C83AD83BE83270166247724A12CB12CC5
:1014A0001A819F81191B2F803884280C391C2981AF
:1014B0002A19D1018C9190E00A2C02C0880F991F43
:1014C0000A94E2F7012F87FF2CC04C2D6B81842DED
:1014D0000E948414BFEFAB1ABB0AE8E0AE16B10459
:1014E00031F78F819885019698878F830697B1F69B
:1014F00028960FB6F894DEBF0FBECDBFDF91CF9117
:101500001F910F91FF90EF90DF90CF90BF90AF9021
:101510009F908F907F906F905F904F903F902F9013
:10152000089540E060E080E0D3CF0F931F93CF9306
:10153000DF9300D000D000D0CDB7DEB786E0E9E57C
:10154000F1E0DE01119601900D928A95E1F700E03D
:101550001FEF2FEF30E045E16DE2CE0101960E94D2
:10156000220A0F900F900F900F900F900F90DF9125
:10157000CF911F910F910895E0EBF1E081E290E0AF
:10158000958F848F8FE090E091A780A787E184AF4B
:1015900087E190E0909300028093FF0189E092E15F
:1015A000A0E0B0E08093050290930602A0930702AA
:1015B000B09308020895EDE6F2E080E290E0A0E04A
:1015C000B0E0808B918BA28BB38BA0EBB1E040910C
:1015D0000502509106026091070270910802405E78
:1015E0005F4F6F4F7F4F4087518762877387DC96CD
:1015F0008C91DC97480F511D611D711D44835583EB
:101600006683778398968D919C919997480F591F7F
:10161000611D711D40835183628373835C968D913C
:101620009C91A0E0B0E08096A11DB11D840F951F94
:10163000A61FB71F848B958BA68BB78B2091FF01BC
:1016400030910002820F931FA11DB11D84879587E1
:10165000A687B78708953B9808950E94BC0A0E9408
:10166000DB0A109209020895CF92DF92EF92FF9267
:10167000C12CD12C7601A701960160E08AE092E0AE
:101680000E94FB118FEFC81AD80AE80AF80A8FEFF8
:10169000C816D80681E0E806F10469F7FF90EF90DC
:1016A000DF90CF9008952F923F924F925F926F926A
:1016B0007F928F929F92AF92BF92CF92DF92EF92E2
:1016C000FF920F931F93CF93DF93EC018090FF0164
:1016D00090900002A12CB12C2090EA013090EB01F7
:1016E0002114310409F0D7C0C0907902D0907A0259
:1016F000E0907B02F0907C02412C512C32018C0C4A
:101700009D1CAE1CBF1C8114910482E0A806B1048C
:1017100008F0AEC004E010E0A701960160E671E0B9
:101720008AE092E00E949812488559856A857B85F7
:1017300097018601035F1F4F2F4F3F4F8AE092E0D2
:101740000E944912A70196012F5E3F4F4F4F5F4FF6
:101750006C858AE092E00E94FB11A70196012E5E43
:101760003F4F4F4F5F4F6D858AE092E00E94FB1123
:10177000A70196012D5E3F4F4F4F5F4F6F858AE067
:1017800092E00E94FB11A70196012C5E3F4F4F4F44
:101790005F4F6E858AE092E00E94FB11A7019601DF
:1017A0002B5E3F4F4F4F5F4F68898AE092E00E9467
:1017B000FB11A70196012A5E3F4F4F4F5F4F69898A
:1017C0008AE092E00E94FB1197018601075F1F4F9C
:1017D0002F4F3F4FB301A2018AE092E00E944912CD
:1017E0004C825D826E827F82970186010B5F1F4F64
:1017F0002F4F3F4F40E050E0BA018AE092E00E9454
:101800004912188219821A821B82232809F454C0B3
:10181000930182010B5F1F4F2F4F3F4FB701A6016E
:101820008AE092E00E944912A70196012C5F3F4F87
:101830004F4F5F4F65EA8AE092E00E94FB11809172
:10184000EA019091EB0101969093EB018093EA01FC
:10185000C092E201D092E301E092E401F092E5014E
:101860008092DA019092DB01A092DC01B092DD015E
:10187000DF91CF911F910F91FF90EF90DF90CF906C
:10188000BF90AF909F908F907F906F905F904F90A0
:101890003F902F900895C090DA01D090DB01E09046
:1018A000DC01F090DD014090E2015090E301609096
:1018B000E4017090E50123CFC092DE01D092DF01F8
:1018C000E092E001F092E101AFCF4F925F926F9210
:1018D0007F928F929F92AF92BF92CF92DF92EF92C0
:1018E000FF920F931F93CF93DF9300D000D0CDB71B
:1018F000DEB78091EA019091EB01892B09F464C075
:101900004090FF0150900002612C712CC090E201C8
:10191000D090E301E090E401F090E50119821A8291
:101920001B821C82A70196012C5F3F4F4F4F5F4FD8
:1019300060E08AE092E00E94FB11A7019601275F18
:101940003F4F4F4F5F4FBE016F5F7F4F8AE092E086
:101950000E942A1309811A812B813C8101151105EE
:101960002105310509F445C00B5F1F4F2F4F3F4F35
:1019700040E050E0BA018AE092E00E944912898179
:101980009A81AB81BC818093E2019093E301A093A3
:10199000E401B093E501812C912C54018414950449
:1019A000A604B704B8F1C092DA01D092DB01E0924C
:1019B000DC01F092DD018091EA019091EB01019749
:1019C0009093EB018093EA010F900F900F900F908E
:1019D000DF91CF911F910F91FF90EF90DF90CF900B
:1019E000BF90AF909F908F907F906F905F904F903F
:1019F00008951092E2011092E3011092E401109216
:101A0000E5011092DE011092DF011092E0011092C8
:101A1000E101C1CFA50194012C0D3D1D4E1D5F1D9F
:101A200060E08AE092E00E94FB118FEF881A980A2A
:101A3000A80AB80AB3CF8F929F92AF92BF92CF926B
:101A4000DF92EF92FF920F931F93CF93DF93CDB767
:101A5000DEB7AD970FB6F894DEBF0FBECDBF5C0109
:101A60006A017B0184E1F50111928A95E9F71DA6CF
:101A70004E01F9E28F0E911C9701860144E050E07F
:101A8000B4018AE092E00E94A31360E671E0C40111
:101A90000E945E17892BE9F085E691E00E94F4042C
:101AA0009F928F9280E691E09F938F9381E891E0DF
:101AB0009F938F938E010F5F1F4F1F930F930E9471
:101AC0006E17C8010E94F4040FB6F894DEBF0FBE73
:101AD000CDBFA70196012B5F3F4F4F4F5F4FB50121
:101AE0008AE092E00E942A13A7019601275F3F4FE8
:101AF0004F4F5F4FB5016C5F7F4F8AE092E00E94CD
:101B00002A13A7019601235F3F4F4F4F5F4FB50147
:101B1000685F7F4F8AE092E00E942A13A701960136
:101B20002F5E3F4F4F4F5F4FB501645F7F4F8AE09D
:101B300092E00E94C412A70196012E5E3F4F4F4FC4
:101B40005F4FB501635F7F4F8AE092E00E94C4124D
:101B5000A70196012D5E3F4F4F4F5F4FB501615F6B
:101B60007F4F8AE092E00E94C412A70196012C5E8A
:101B70003F4F4F4F5F4FB501625F7F4F8AE092E06A
:101B80000E94C412A70196012B5E3F4F4F4F5F4F3B
:101B9000B501605F7F4F8AE092E00E94C412A70106
:101BA00096012A5E3F4F4F4F5F4FB5016F5E7F4FEB
:101BB0008AE092E00E94C412AD960FB6F894DEBFA0
:101BC0000FBECDBFDF91CF911F910F91FF90EF908E
:101BD000DF90CF90BF90AF909F908F900895CF925D
:101BE000DF92EF92FF920F931F93CF93DF93EC015D
:101BF0006A017B01970186010B5F1F4F2F4F3F4FFB
:101C0000488159816A817B818AE092E00E94491271
:101C100097018601075F1F4F2F4F3F4F4C815D811A
:101C20006E817F818AE092E00E94491297018601CD
:101C3000035F1F4F2F4F3F4F488559856A857B852E
:101C40008AE092E00E944912A70196012F5E3F4F61
:101C50004F4F5F4F6C858AE092E00E94FB11A70115
:101C600096012E5E3F4F4F4F5F4F6D858AE092E0A9
:101C70000E94FB11A70196012D5E3F4F4F4F5F4F12
:101C80006F858AE092E00E94FB11A70196012C5E0D
:101C90003F4F4F4F5F4F6E858AE092E00E94FB11ED
:101CA000A70196012B5E3F4F4F4F5F4F68898AE037
:101CB00092E00E94FB11A70196012A5E3F4F4F4F11
:101CC0005F4F69898AE092E0DF91CF911F910F9178
:101CD000FF90EF90DF90CF900C94FB11CF92DF92AA
:101CE000EF92FF920F931F93C0907502D0907602EF
:101CF000E0907702F090780204E010E0A7019601EE
:101D000061EA71E08AE092E00E949812A7019601D0
:101D10002B5E3F4F4F4F5F4F6091EA017091EB0197
:101D20008AE092E00E942612970186010B5F1F4F06
:101D30002F4F3F4F40E050E0BA018AE092E00E940E
:101D4000491297018601075F1F4F2F4F3F4F40E019
:101D500050E0BA018AE092E00E94491297018601A0
:101D6000035F1F4F2F4F3F4F40E050E0BA018AE022
:101D700092E00E944912970186010F5E1F4F2F4F7C
:101D80003F4F40E050E0BA018AE092E00E944912E1
:101D9000A70196012C5F3F4F4F4F5F4F65EA8AE0E6
:101DA00092E01F910F91FF90EF90DF90CF900C94F5
:101DB000FB118F929F92AF92BF92CF92DF92EF92E0
:101DC000FF920F931F93CF93DF93E82FD62FC42F4B
:101DD00080907D0290907E02A0907F02B090800261
:101DE000A3E0B0E0A90198010E94AD156B017C0150
:101DF000C80CD91CEA1CFB1CA7019601275F3F4FAA
:101E00004F4F5F4F8091050290910602A09107020B
:101E1000B0910802880D991DAA1DBB1D0996A11D30
:101E2000B11D82179307A407B50738F16E2F8AE01A
:101E300092E00E94FB11A7019601265F3F4F4F4F92
:101E40005F4F6D2F8AE092E00E94FB11A70196017F
:101E5000255F3F4F4F4F5F4F6C2F8AE092E0DF913D
:101E6000CF911F910F91FF90EF90DF90CF90BF9097
:101E7000AF909F908F900C94FB11DF91CF911F91A9
:101E80000F91FF90EF90DF90CF90BF90AF909F9019
:101E90008F900895CF92DF92EF92FF920F931F934E
:101EA000CF93DF93EC01C0908102D0908202E0904A
:101EB0008302F0908402809100018115A1F004E07A
:101EC00010E0A701960160E671E08AE092E00E94CE
:101ED000981210920001C092E601D092E701E092C0
:101EE000E801F092E90197018601035F1F4F2F4F30
:101EF0003F4F488559856A857B858AE092E00E943C
:101F00004912A70196012F5E3F4F4F4F5F4F6C85DF
:101F10008AE092E00E94FB11A70196012E5E3F4FDE
:101F20004F4F5F4F6D858AE092E00E94FB11A70141
:101F300096012D5E3F4F4F4F5F4F6F858AE092E0D5
:101F40000E94FB11A70196012C5E3F4F4F4F5F4F40
:101F50006E858AE092E00E94FB11A70196012B5E3C
:101F60003F4F4F4F5F4F68898AE092E00E94FB111C
:101F7000A70196012A5E3F4F4F4F5F4F69898AE064
:101F800092E00E94FB11088519852A853B854889C6
:101F90006E858F850E94D90EDF91CF911F910F9191
:101FA000FF90EF90DF90CF900895EF92FF920F9304
:101FB0001F93CF93DF93CDB7DEB764970FB6F89436
:101FC000DEBF0FBECDBF8091EA019091EB01892B5E
:101FD000C1F04091DE015091DF016091E00170910C
:101FE000E1018E010F5F1F4FC8010E941B0DF02EF3
:101FF000E12E89819A81AB81BC81892B8A2B8B2B25
:1020000069F464960FB6F894DEBF0FBECDBFDF91C2
:10201000CF911F910F91FF90EF90089509851A8538
:102020002B853C8549896F8588890E94D90E498115
:102030005A816B817C818F2D9E2D0E941B0DD9CFE3
:102040000F931F9300917D0210917E0220917F02D9
:1020500030918002075F1F4F2F4F3F4F40E056E007
:1020600060E070E08AE092E00E94D0131F910F912F
:102070000895CF92DF92EF92FF920F931F93C12C9E
:10208000D12C76019701860140E060E080E00E945B
:10209000D90E8FEFC81AD80AE80AF80AC11482E1EB
:1020A000D806E104F10471F71F910F91FF90EF90B2
:1020B000DF90CF900895CF92DF92EF92FF92C09081
:1020C0007D02D0907E02E0907F02F090800289E055
:1020D000C80ED11CE11CF11CC11486E0D806E10435
:1020E000F10428F0FF90EF90DF90CF900895A701C2
:1020F000960160E08AE092E00E94FB118FEFC81A1F
:10210000D80AE80AF80AE8CFCF92DF92EF92FF925E
:102110000F931F93CF93DF93C0907102D090720200
:10212000E0907302F090740202E010E0A7019601C3
:1021300066EA71E08AE092E00E94981297018601B7
:102140000B5F1F4F2F4F3F4FC0EBD1E04E8D5F8D88
:1021500068A179A18AE092E00E944912A701960144
:10216000275F3F4F4F4F5F4F6AA17BA18AE092E00C
:102170000E942612A7019601255F3F4F4F4F5F4FE8
:102180006CA17DA18AE092E00E942612A70196012F
:10219000235F3F4F4F4F5F4F6EA17FA18AE092E0D8
:1021A0000E942612A70196012C5F3F4F4F4F5F4FB1
:1021B00065EA8AE092E0DF91CF911F910F91FF9045
:1021C000EF90DF90CF900C94FB11CF92DF92EF92C3
:1021D000FF92C0907102D0907202E0907302F09072
:1021E0007402A70196012B5F3F4F4F4F5F4F6EEC7C
:1021F00071E08AE092E00E942A13A7019601275F0E
:102200003F4F4F4F5F4F62ED71E08AE092E00E94D6
:10221000E912A7019601255F3F4F4F4F5F4F64EDD5
:1022200071E08AE092E00E94E912A7019601235F23
:102230003F4F4F4F5F4F66ED71E08AE092E0FF90B5
:10224000EF90DF90CF900C94E912CF92DF92EF9253
:10225000FF920F931F93CF93DF93C0906D02D090A6
:102260006E02E0906F02F090700204E010E0A701AF
:1022700096016BEA71E08AE092E00E949812A70151
:102280009601235E3F4F4F4F5F4FC0EBD1E060910F
:10229000C8017091C9018AE092E00E942612A7014C
:1022A0009601215E3F4F4F4F5F4F6091CA01709181
:1022B000CB018AE092E00E942612209769F00CE0A0
:1022C00010E0A70196012B5F3F4F4F4F5F4FBE01BC
:1022D0008AE092E00E9498128CEB91E0009769F0FE
:1022E0000CE010E0A70196012F5E3F4F4F4F5F4F6C
:1022F000BC018AE092E00E949812A70196012C5F2F
:102300003F4F4F4F5F4F65EA8AE092E0DF91CF91F8
:102310001F910F91FF90EF90DF90CF900C94FB11E5
:10232000CF92DF92EF92FF920F931F93C0906D02B6
:10233000D0906E02E0906F02F0907002A7019601BB
:10234000235E3F4F4F4F5F4F68EC71E08AE092E0B1
:102350000E94E912A7019601215E3F4F4F4F5F4F48
:102360006AEC71E08AE092E00E94E91280918502B5
:1023700081111FC0970186010B5F1F4F2F4F3F4FE9
:102380004CE050E060EB71E08AE092E00E94A31321
:10239000970186010F5E1F4F2F4F3F4F4CE050E0DB
:1023A0006CEB71E08AE092E00E94A31381E08093DD
:1023B00085021F910F91FF90EF90DF90CF900895CD
:1023C000CF93DF9300D000D0CDB7DEB70E94A61523
:1023D00069837A838B839C8344E050E060E070E003
:1023E000CE0101960E945B040F900F900F900F900A
:1023F000DF91CF910895CF92DF92EF92FF920F93EA
:102400001F93CF93DF930F92CDB7DEB78C01698313
:1024100069017A010E943F03C701B60192600E94E0
:10242000E01141E050E060E070E0CE0101960E94D2
:102430005B04C8010E9453030F90DF91CF911F915D
:102440000F91FF90EF90DF90CF900895CF92DF92A1
:10245000EF92FF921F93CF93DF93D82FC92F162FA0
:10246000672F69017A01A70196010E94FB11A7015C
:1024700096012F5F3F4F4F4F5F4F612F8D2F9C2F46
:10248000DF91CF911F91FF90EF90DF90CF900C9450
:10249000FB118F929F92AF92BF92CF92DF92EF92F9
:1024A000FF920F931F93CF93DF93D82FC92F4A0129
:1024B0005B01680179016B2D772788279927A70190
:1024C00096018D2F9C2F0E94FB11A70196012F5F73
:1024D0003F4F4F4F5F4FB501882799278D2F9C2F76
:1024E0000E94FB11A70196012E5F3F4F4F4F5F4F98
:1024F00099278B2D7A2D692D8D2F9C2F0E94FB11F2
:10250000A70196012D5F3F4F4F4F5F4F682D8D2FD5
:102510009C2FDF91CF911F910F91FF90EF90DF9053
:10252000CF90BF90AF909F908F900C94FB11089527
:102530008F929F92AF92BF92CF92DF92EF92FF92D3
:102540000F931F93CF93DF935C014B0169017A01D5
:102550000E943F03C701B60192600E94E011A801EA
:1025600060E070E0C4010E945B04C501DF91CF917F
:102570001F910F91FF90EF90DF90CF90BF90AF90A1
:102580009F908F900C945303CF92DF92EF92FF9223
:102590000F931F93CF93DF938C01EB0169017A01B5
:1025A00018820E943F03C701B60193600E94E011A8
:1025B0001EBC0DB407FEFDCF8EB58883C801DF9128
:1025C000CF911F910F91FF90EF90DF90CF900C94DF
:1025D0005303AF92BF92CF92DF92EF92FF920F938D
:1025E0001F93CF93DF930F92CDB7DEB75C018B01C2
:1025F00069017A01FB0111821082A7019601BE01D7
:102600006F5F7F4F0E94C4122981F8018081918100
:10261000922B91838083A70196012F5F3F4F4F4FED
:102620005F4FBE016F5F7F4FC5010E94C4122981B9
:10263000F80180819181822B918380830F90DF91BB
:10264000CF911F910F91FF90EF90DF90CF90BF90AF
:10265000AF900895AF92BF92CF92DF92EF92FF9228
:102660000F931F93CF93DF930F92CDB7DEB75C012B
:102670008B0169017A01FB0110821182128213829F
:10268000A7019601BE016F5F7F4F0E94C41229818E
:10269000F80180819181A281B381B22B80839183E3
:1026A000A283B383A70196012F5F3F4F4F4F5F4F28
:1026B000BE016F5F7F4FC5010E94C4122981F801DE
:1026C00080819181A281B381A22B80839183A28397
:1026D000B383A70196012E5F3F4F4F4F5F4FBE015F
:1026E0006F5F7F4FC5010E94C4122981F80180816C
:1026F0009181A281B381922B80839183A283B38342
:10270000A70196012D5F3F4F4F4F5F4FBE016F5F97
:102710007F4FC5010E94C4122981F80180819181F7
:10272000A281B381822B80839183A283B3830F9094
:10273000DF91CF911F910F91FF90EF90DF90CF909D
:10274000BF90AF9008958F929F92AF92BF92CF9219
:10275000DF92EF92FF920F931F93CF93DF93D82FC7
:10276000C92F5B014A01680179010E943F03C7013B
:10277000B60193600E94E011B401C5010E949F045C
:102780008D2F9C2FDF91CF911F910F91FF90EF9094
:10279000DF90CF90BF90AF909F908F900C94530399
:1027A0008F929F92AF92BF92CF92DF92EF92FF9261
:1027B0000F931F93CF93DF93D82FC92F4A015B014B
:1027C000680179010E943F03C701B60193600E942E
:1027D000E011B401C5010E94B5048D2F9C2FDF913B
:1027E000CF911F910F91FF90EF90DF90CF90BF900E
:1027F000AF909F908F900C9453031F93CF93DF93D0
:10280000D82FC92F0E943F0385E08EBD0DB407FE6F
:10281000FDCF1EBC0DB407FEFDCF1EB58D2F9C2F26
:102820000E945303812FDF91CF911F9108951F9331
:10283000CF93DF93D82FC92F162F862F8F73811137
:1028400013C08D2F0E943F0381E08EBD0DB407FEA3
:10285000FDCF1EBD0DB407FEFDCF8D2F9C2FDF9148
:10286000CF911F910C945303DF91CF911F91089545
:10287000409A00C00000409884E08A95F1F700C0BB
:102880000895409A83E08A95F1F70000409800C0CF
:1028900000C000000895409881E28A95F1F7000099
:1028A00008950F931F93CF93DF93082FC8E0D0E0D4
:1028B00010E8802F8123811551F00E944114169554
:1028C0002197B9F7DF91CF911F910F9108950E9441
:1028D0003814F5CF0E9420100C944B14CF93DF9343
:1028E000C0E0D6E080E00E94511480E00E945114C4
:1028F00080E00E9451142197A9F7DF91CF910C94A9
:102900004B14389A409A08950F931F93902F38E0F4
:10291000039FF0011124022F06950695069510E0FD
:10292000102F002790FD12C030E0209530952770C1
:1029300033272E0F3F1F020F131F012E000C220BF7
:10294000330B0E94D90E1F910F9108952770E20F4B
:10295000F11D0E0F1F1FF1CF4F925F926F927F926A
:10296000AF92BF92CF92DF92EF92FF920F931F939D
:10297000CF93DF93C12CD12CE12CF12CCFEFDFEFE3
:10298000E0FAAA24BB24A0F8CE01809590952C01F2
:1029900023E0559447942A95E1F7542C4424A1143C
:1029A000B10409F4CE01877099278C0D9D1D480E46
:1029B000591E052C000C660877089301820140E03F
:1029C00060E08FEF0E94D90E0E946A149301820189
:1029D00040E060E080E00E94D90E2197CF3C8FEF6D
:1029E000D80791F68FEFE81AF80A88E0C80ED11CD4
:1029F00080E2E816F10411F6DF91CF911F910F915B
:102A0000FF90EF90DF90CF90BF90AF907F906F904E
:102A10005F904F9008958AB1837C8AB98BB18C63A3
:102A20008BB9DA9AEDE6F0E080818C638083E8E68A
:102A3000F0E08081846080837894089586B590E08A
:102A400025EA822792270C945317CDB7DEB76497F7
:102A50000FB6F894DEBF0FBECDBF8AE092E00E94B1
:102A6000FB008AE092E00E94AE0361E083E192E025
:102A70000E9432020E9418050E94811460E48AE0DC
:102A800092E00E94171461E081E292E00E947205D8
:102A90000E942D0B0E94AF00CE0101960E944A0FAA
:102AA0000E9439100E946E140E94950A0E94F60638
:102AB0000E948E070E946A14339B0DC08AE092E048
:102AC0000E9429040E94CE080E946A148AE092E0C3
:102AD0000E942F03F1CF8AE191E00E94F404ECCF31
:102AE00097FB072E16F4009407D077FD09D00E94BB
:102AF000B81507FC05D03EF4909581959F4F089539
:102B0000709561957F4F0895A1E21A2EAA1BBB1BF9
:102B1000FD010DC0AA1FBB1FEE1FFF1FA217B307A9
:102B2000E407F50720F0A21BB30BE40BF50B661FBF
:102B3000771F881F991F1A9469F760957095809583
:102B400090959B01AC01BD01CF010895692796279F
:102B5000692778278727782708950E94CC15A59F95
:102B6000900DB49F900DA49F800D911D1124089588
:102B7000AA1BBB1B51E107C0AA1FBB1FA617B707A3
:102B800010F0A61BB70B881F991F5A95A9F78095BF
:102B90009095BC01CD010895A29FB001B39FC001E3
:102BA000A39F700D811D1124911DB29F700D811D79
:102BB0001124911D08950F931F93CF93DF939C01D0
:102BC000029710F422E030E0E0918602F091870253
:102BD00080E090E0A0E0B0E0309791F4009709F435
:102BE00048C0821B930B84309105D0F58A819B816C
:102BF0006115710581F1FB0193838283FE0111C090
:102C0000408151810281138142175307D8F0421746
:102C1000530799F4109761F012960C93129713963C
:102C20001C933296CF01DF91CF911F910F910895A0
:102C30000093860210938702F4CF009751F0481753
:102C4000590738F0AC01DB01CA01BD01DF01F80111
:102C5000C3CFEF01F9CF9093870280938602CECF46
:102C6000FE01E80FF91F219331930297998388831E
:102C7000D9CF40918802509189024115510541F404
:102C800040910301509104015093890240938802BE
:102C90008091010190910201009741F48DB79EB798
:102CA0006091050170910601861B970B4817590723
:102CB00008F0B8CF841B950B8217930708F4B2CFA6
:102CC000B9016E5F7F4F8617970708F4ABCF640F8B
:102CD000751F7093890260938802FA0121933193E2
:102CE000A1CFCF93DF939C010097E9F0FC013297CD
:102CF00013821282C0918602D0918702DE0180E0A9
:102D000090E02097A1F480819181280F391F809154
:102D10008802909189028217930709F068C0F093A6
:102D20008902E0938802DF91CF910895DA01AE170E
:102D3000BF0708F042C012964D915C911397CD01E8
:102D40004115510599F7DC011396FC93EE93129708
:102D50004D915D919D01240F351FE217F30781F41A
:102D6000208131812E5F3F4F240F351FDC011196EA
:102D70003C932E932281338113963C932E9312978A
:102D8000E0E0F0E08A819B810097B1F5DE018D9152
:102D90009D918A0F9B1F20918802309189022817EC
:102DA000390709F6309759F510928702109286027A
:102DB000D0938902C0938802B6CFB383A2834081A7
:102DC0005181240F351FA217B30771F44E5F5F4F77
:102DD0002D913C911197240F351F3183208312963A
:102DE0002D913C9133832283009709F0ACCFF0936F
:102DF0008702E093860297CFFE01EC01C3CF1382D6
:102E00001282D6CF8F929F92AF92BF92CF92DF92D3
:102E1000EF92FF92CF93DF93EC01688179818A81F1
:102E20009B81611571058105910521F464E279EDBD
:102E30008BE597E02DE133EF41E050E00E94211A4D
:102E400049015A019B01AC01A7EAB1E40E94AD150A
:102E50006B017C01ACEEB4EFA50194010E94431A12
:102E6000DC01CB018C0D9D1DAE1DBF1DB7FF03C046
:102E70000197A109B04888839983AA83BB839F7770
:102E8000DF91CF91FF90EF90DF90CF90BF90AF9008
:102E90009F908F9008950E940217089587E091E017
:102EA0000E9402170895A0E0B0E08093070190937C
:102EB0000801A0930901B0930A010895FB01DC0108
:102EC0008D91019080190110D9F3990B0895FB01A0
:102ED000DC0101900D920020E1F70895AEE0B0E032
:102EE000E4E7F7E10C94561A0D891E8986E08C837D
:102EF0001A8309838FEF9FE79E838D83AE01475E20
:102F00005F4F6F89788DCE0101960E9491172F81B6
:102F10003885020F131FF80110822E96E4E00C94FE
:102F2000721AABE0B0E0E7E9F7E10C94491A6C01E2
:102F30007B018A01FC0117821682838181FFDAC13D
:102F40009AE0492EF6012381F70123FD859123FFA5
:102F500081917F01811509F41FC1853239F423FD68
:102F6000959123FF91917F01953229F4B60190E06C
:102F70000E949319E7CF30E0612C512C712CF0E2C4
:102F80007F1640F59B32D9F058F49032D1F093324D
:102F9000F1F09E3299F576FCFFC0689476F806C091
:102FA0009D3291F09033C1F4689470F8F70123FDDD
:102FB000959123FF91917F019111E1CF29C06894F0
:102FC00071F8689472F8F2CF689473F8EFCF689450
:102FD00074F8ECCF77FC1CC080ED890F8A30C8F6FE
:102FE00076FE05C0649C800D1124682EDFCF549CB2
:102FF000800D1124582E689475F8D8CF9C3619F49A
:10300000689477F8D3CF9C3409F44BC0983671F2AA
:10301000892F8F7D8554833008F445C0933609F499
:1030200066C0933709F469C0933509F475C09436C6
:1030300019F0993609F09FC0F80177FE95C06191AB
:103040007191819191918F01272D2F76722E97FF8B
:1030500009C090958095709561957F4F8F4F9F4FD8
:10306000689477F82AE030E0AE014F5F5F4F5A0175
:103070000E94C3198A19A82E76FEC5C0872D8E7F9F
:10308000A61408F0BFC074FE12C172FC06C1F72D71
:10309000FE7E7F2EB62C872D8678811509F4C0C060
:1030A00001C131E083CF3115F9F0085F1F4F8FE385
:1030B000898388248394912CAE014F5F5F4F5A011E
:1030C000E89477F873FC03C085149104B0F181147F
:1030D0009104D1F5511409F435CFB60180E290E0A6
:1030E0000E9493195A94F6CF0C5F1F4FE0CFF8015E
:1030F000808189830E5F1F4FDCCFF801A190B190D2
:103100008F01662D70E076FC02C06FEF7FEFC50186
:103110000E9488194C01D4CFF801A190B1908F0181
:10312000662D70E076FC02C06FEF7FEFC5010E9454
:103130007D194C01689477F8C5CFB60180E290E024
:103140000E9493195A94C0CFF50177FC859177FEC0
:1031500081915F01B60190E00E94931951105A9439
:10316000F1E08F1A9108B3CF61917191072E000C95
:10317000880B990B68CF372CE89434F82AE030E0BC
:10318000953739F1572D597F352E903799F058F4EE
:103190009835A9F09F36D9F0F601868197812B9654
:1031A000E1E10C94651A9837B9F774FC05C020E189
:1031B00030E00FC0689434F8689432F8F8CF74FEA9
:1031C00003C0872D8660382E20E132E002C028E05F
:1031D00030E0F80137FE11C06191719181919191B8
:1031E0008F01FE0131965F01AF010E94C3198A1958
:1031F000A82E732CE89477F83FCF6191719180E00D
:1032000090E0EECF782EBA2C74FE45CFFE01EA0D89
:10321000F11D8081803309F043C0272D297E722E55
:1032200073FC0EC070FE4FC06A2CB51418F4650C08
:103230006B18B52C852D8B195B1408F480E0B80E43
:10324000B51408F042C05B1874FE41C0B60180E3BB
:1032500090E00E94931972FE09C088E590E071FC2D
:1032600002C088E790E0B6010E949319A614D8F135
:10327000AA94B12C4FEFA41AB40ACE0101963C01D6
:10328000A80EB91EF50182915F01B60190E00E947F
:1032900093196A147B04B1F71DCFB62C782EB6CFE4
:1032A00072FC02C0B394BCCFB394B394B9CFB62C24
:1032B000782EF1CEB60180E290E00E94931933940B
:1032C0003514C0F3B7CF3B2CFBCF512CBDCF872D8E
:1032D0008678811559F280E271FC8BE277FC8DE2F1
:1032E000B60190E0C1CFB60180E390E00E9493194F
:1032F0006A94BCCF8FEF9FEF52CFFC0105906150D5
:1033000070400110D8F7809590958E0F9F1F0895FB
:10331000FC016150704001900110D8F780959095A4
:103320008E0F9F1F08950F931F93CF93DF93182F36
:10333000092FEB018B8181FD09C01FEF0FEF812F5A
:10334000902FDF91CF911F910F91089582FF14C0AC
:103350002E813F818C819D81281739073CF4E881BB
:10336000F981CF0101969983888310838E819F8193
:1033700001969F838E83E3CFE885F985812F099598
:10338000892BA1F3DACFFA01AA27283051F1203195
:1033900081F1E8946F936E7F6E5F7F4F8F4F9F4FE9
:1033A000AF4FB1E03ED0B4E03CD0670F781F891F2B
:1033B0009A1FA11D680F791F8A1F911DA11D6A0FF9
:1033C000711D811D911DA11D20D009F468943F91AC
:1033D0002AE0269F11243019305D3193DEF6CF01AB
:1033E0000895462F4770405D4193B3E00FD0C9F771
:1033F000F6CF462F4F70405D4A3318F0495D31FDDE
:103400004052419302D0A9F7EACFB4E0A695979530
:10341000879577956795BA95C9F700976105710506
:1034200008959B01AC010A2E069457954795379550
:103430002795BA95C9F7620F731F841F951FA01DAA
:103440000895052E97FB1EF400940E94381A57FD2C
:1034500007D00E94841507FC03D04EF40C94381A50
:1034600050954095309521953F4F4F4F5F4F0895B0
:1034700090958095709561957F4F8F4F9F4F0895E0
:10348000B7FF0C94AD150E94AD15821B930B0895E8
:103490002F923F924F925F926F927F928F929F9264
:1034A000AF92BF92CF92DF92EF92FF920F931F9352
:1034B000CF93DF93CDB7DEB7CA1BDB0B0FB6F89403
:1034C000DEBF0FBECDBF09942A88398848885F8443
:1034D0006E847D848C849B84AA84B984C884DF80B4
:1034E000EE80FD800C811B81AA81B981CE0FD11D98
:1034F0000FB6F894DEBF0FBECDBFED010895F8946E
:02350000FFCFFB
:103502000100008A02200001000000401454534EC2
:10351200414B45004C55434153002E2E776169744F
:10352200696E6720666F722072616D2E2E0A0063CB
:103532006F6C6C6973696F6E206465746563746522
:10354200640A00506F69736F6E20666F6F64206447
:10355200657465637465640A0078FCECF8FC7800B5
:103562004E4F4445004572726F722E2E2E203C49FA
:103572006E76616C6964204865616465723E200AFA
:10358200002E2E65787065637465642E2E3C25735B
:103592003E2E2E61637475616C2E2E3C25733E0A9D
:1035A200005354434B00434F4D4D0053434F520081
:00000001FF
