:100000000C9434000C9451000C9451000C94510049
:100010000C9451000C9451000C9451000C9451001C
:100020000C9451000C9451000C9451000C9451000C
:100030000C9451000C9451000C9451000C945100FC
:100040000C9451000C9451000C9451000C945100EC
:100050000C9451000C9451000C9451000C945100DC
:100060000C9451000C94510011241FBECFEFD8E026
:10007000DEBFCDBF11E0A0E0B1E0E8E7FCE002C0E8
:1000800005900D92A638B107D9F721E0A6E8B1E0B6
:1000900001C01D92AA38B207E1F70E942A040C940D
:1000A0003A060C94000088B1806388B985E08A958F
:1000B000F1F70000459885E08A95F1F70000089572
:1000C0004498459A85E08A95F1F70000459885E0C7
:1000D0008A95F1F700000895EF92FF920F931F9316
:1000E000CF93DF93082FC7E0D0E081EEE82EF12C0C
:1000F000C7010C2E02C0969587950A94E2F780FFFF
:100100003AC00E945300219798F7C7E0D0E010E072
:10011000C8010C2E02C0969587950A94E2F780FFDD
:100120002DC00E945300219798F70E9460000E9402
:1001300060000E9460000E9460000E9460000E94B7
:1001400060000E9460000E9460000E9460000E94A7
:1001500060000E9460000E9460000E9460000E9497
:1001600060000E946000DF91CF911F910F91FF907E
:10017000EF900C9460000E946000C5CF0E94600068
:10018000D2CFCF93DF9300D000D01F92CDB7DEB790
:1001900021E029831D821C8210E000E0F12CE12C7B
:1001A0009981EBE3CE2EE1E0DE2E911104C07AE0DE
:1001B000C72E71E0D72E298181E02827298360E2AC
:1001C000A62EB12C0E94600091E0A91AB108D1F7C7
:1001D000AA24BB24A01AB10A27E0209FC001219FB6
:1001E000900D1124C81AD90AC6018E199F099B8344
:1001F0008A83D12CC12C460191E0892299244EE0BA
:10020000442E512C66246394712CC0FE09C09DE0DD
:10021000892E912C44244A94542C66246A94762C7A
:1002200027E02C9D10012D9D300C11248A819B818B
:10023000280E391E84149504E1F52FEFC21AD20A54
:100240008FEFA81AB80A9EE0C916D104A1F680E281
:10025000C82ED12C0E94530021E0C21AD108D1F738
:100260008FE790E225E0815090402040E1F700C008
:1002700000008C819D818130910509F43FC084F597
:10028000892B09F08DCF97E0E916F10424F42FEFC4
:10029000E21AF20A85CF81E090E09D838C8380CFC3
:1002A00082E090E0FACF83E090E0F7CF1D821C82DD
:1002B00077CFC4018E199F09079780F497E0A9169C
:1002C000B10460F4F101E80DF91D8081882331F05B
:1002D0008FEF0E946C00860C971CACCF80E0F9CFAA
:1002E0008C819D818230910579F0039709F058CF78
:1002F00001151105D9F20150110952CF073011052E
:100300007CF60F5F1F4F4CCFE114F10461F281E0E6
:10031000E81AF10845CF0E9453000E9453000E9442
:1003200053000E9460000E9460000E9460000E94D2
:1003300053000C9453000F931F93CF93DF93C0E2AD
:10034000D0E00E9460002197E1F7CCEDD0E00E9460
:100350008B010E9453000E9453000E9453000E9490
:1003600053000E9453000E9453000E9453000E94B9
:1003700053000E9460000E9460000E9460000E9482
:1003800060000E9460000E9460000E9460000E9465
:1003900060000E9460000E9460000E9460000E9455
:1003A00060000E9460000E9460000E9460000E9445
:1003B0006000219761F6C0E2D0E00E9453002197CF
:1003C000E1F72FEF83ED90E3215080409040E1F77B
:1003D00000C00000C0E2D0E00E9460002197E1F779
:1003E000CCEDD0E00E948B010E9460000E94600072
:1003F0000E9460000E9460000E9460000E946000F5
:100400000E9460000E9460000E9453000E945300FE
:100410000E9453000E9453000E9453000E94530008
:100420000E9453000E9453000E9460000E946000DE
:100430000E9460000E9460000E9460000E946000B4
:100440000E9460000E946000219761F6C0E2D0E047
:100450000E9453002197E1F72FEF83ED90E32150A5
:1004600080409040E1F700C00000C0E2D0E00E9470
:1004700060002197E1F7CCEDD0E00E948B010E9453
:1004800060000E9460000E9460000E9460000E9464
:1004900060000E9460000E9460000E9460000E9454
:1004A00060000E9460000E9460000E9460000E9444
:1004B00060000E9460000E9460000E9460000E9434
:1004C00053000E9453000E9453000E9453000E9458
:1004D00053000E9453000E9453000E945300219732
:1004E00061F6C0E2D0E00E9453002197E1F72FEFC0
:1004F00083ED90E3215080409040E1F700C0000080
:10050000C0E2D0E00E9460002197E1F7CCEDD0E09E
:100510000E948B0108E110E00E9460000150110967
:10052000D9F72197A9F7C0E2D0E00E9453002197A4
:10053000E1F7DF91CF911F910F910895DF92EF9234
:10054000FF920F931F93CF93DF930097F9F0122F31
:10055000D42E7B01EC0189E090E00E944F04FC0165
:10056000892BA1F000871382128211821082D68219
:100570001783F582E4828E819F81009779F4F98355
:10058000E883FB83EA8301969F838E83DF91CF917B
:100590001F910F91FF90EF90DF900895A881B9818E
:1005A000B183A0831396FC93EE931297F983E883AB
:1005B000EACFCF93DF93EC01892BA1F08881998159
:1005C000009781F02A813B818217930771F4198289
:1005D00018821B821A820E94EB048E819F810197F0
:1005E0009F838E83DF91CF910895FC01A081B1811B
:1005F000B983A88313961C921E921297ECCFCF93C7
:10060000DF93EC018E819F81892B19F4DF91CF91CB
:100610000895CE010E94D902F5CF0F931F93CF9377
:10062000DF93FC01329681E090E08617970728F06F
:10063000DF91CF911F910F910895DF014D915D9151
:100640009C01215031098F0137FD05C0D291C29123
:100650004C175D0730F0F801518340830196FD018E
:10066000E4CFD383C283EDCF0C940D048AB1837C95
:100670008AB98BB18C638BB9DA9AEDE6F0E08081B0
:100680008C638083E8E6F0E08081846080837894E6
:10069000089586B590E025EA822792270C94C50537
:1006A00084B1896384B92A9A2498289A8CB58CBD20
:1006B0008CB580648CBD8CB58CBD8CB580618CBDD7
:1006C0008CB58CBD8CB58CBD8CB582608CBD8CB569
:1006D0008CBD8DB58DBD089584B18C6284B9389A76
:1006E0002A9A2498289A8CB58CBD8CB580648CBDD0
:1006F0008CB58CBD8CB580618CBD8CB58CBD8CB53A
:100700008CBD8CB582608CBD8CB58CBD8DB58DBD1E
:1007100008952898DC01FC0101900020E9F7319749
:10072000E81BF90B9D01281B390B2E173F0710F012
:10073000289A08952D912EBD0DB407FEFDCFEBCF65
:10074000680F791F8617970709F40895FC01219116
:10075000CF012EBD0DB407FEFDCFF4CF8EBD0DB47D
:1007600007FEFDCF08958EBD0DB407FEFDCF8EB5FB
:10077000089508952898680F791F8617970711F430
:10078000289A08951EBC0DB407FEFDCF2EB5FC01BE
:100790002193CF01F2CF680F791F8617970709F4CD
:1007A00008951EBC0DB407FEFDCF2EB5FC012193AC
:1007B000CF01F3CF1EBC0DB407FEFDCF2EB5FC015B
:1007C000208308950895680F791F8617970711F4FD
:1007D000089500002091C00025FFFBCFFC0121916E
:1007E000CF012093C600F1CFDC01FC010190002075
:1007F000E9F73197E81BF90B9D01281B390B2E17E0
:100800003F0710F0089500002091C00025FFFBCFA6
:100810002D912093C600E9CF08951092C50087E678
:100820008093C400E2ECF0E080818F70808380814F
:1008300088608083A0ECB0E08C918D7F8C93A1ECDC
:10084000B0E088E18C938C918B7F8C938081866063
:1008500080830895CF93DF93CDB7DEB76E970FB641
:10086000F894DEBF0FBECDBF87B1806387B9389AD9
:100870000E9434036CE671E0CE0101960E94D0051F
:10088000CE0101960E94F4032FEF81EE94E02150F7
:1008900080409040E1F700C000000E94C1000F932B
:1008A0001F93CF93DF938230910510F482E090E0A4
:1008B000E0918801F091890130E020E0B0E0A0E013
:1008C000309799F42115310509F44AC0281B390BDA
:1008D00024303105D8F58A819B816115710589F134
:1008E000FB0193838283FE0111C04081518102810B
:1008F000138148175907E0F04817590799F41097E2
:1009000061F012960C93129713961C933296CF01B6
:10091000DF91CF911F910F9108950093880110935B
:100920008901F4CF2115310551F04217530738F0F2
:10093000A901DB019A01BD01DF01F801C1CFEF017F
:10094000F9CF9093890180938801CDCFFE01E20F0A
:10095000F31F819391932250310939832883D7CF94
:100960002091860130918701232B41F420910201CF
:10097000309103013093870120938601209100017B
:10098000309101012115310541F42DB73EB7409159
:10099000040150910501241B350BE0918601F09173
:1009A0008701E217F307A0F42E1B3F0B2817390726
:1009B00078F0AC014E5F5F4F2417350748F04E0FBB
:1009C0005F1F5093870140938601819391939FCF3E
:1009D000F0E0E0E09CCFCF93DF930097E9F0FC01DB
:1009E000329713821282A0918801B0918901ED01A2
:1009F00030E020E01097A1F420813181820F931F15
:100A000020918601309187012817390709F061C0CC
:100A1000F0938701E0938601DF91CF910895EA0179
:100A2000CE17DF07E8F54A815B819E01411551052C
:100A3000B1F7E901FB83EA8349915991C40FD51FAE
:100A4000EC17FD0761F4808191810296840F951F58
:100A5000E90199838883828193819B838A83F0E073
:100A6000E0E012968D919C9113970097B9F52D9126
:100A70003C911197CD010296820F931F2091860120
:100A8000309187012817390739F6309751F51092C0
:100A9000890110928801B0938701A0938601BCCF91
:100AA000D383C28340815181840F951FC817D90712
:100AB00061F44E5F5F4F88819981480F591F5183C0
:100AC00040838A819B81938382832115310509F0BC
:100AD000B0CFF0938901E09388019ECFFD01DC0146
:100AE000C0CF13821282D7CF8F929F92AF92BF92C4
:100AF000CF92DF92EF92FF92CF93DF93EC01688168
:100B000079818A819B81611571058105910521F4A7
:100B100064E279ED8BE597E02DE133EF41E050E0C1
:100B20000E94D70549015A019B01AC01A7EAB1E433
:100B30000E94F6056B017C01ACEEB4EFA5019401B7
:100B40000E940406DC01CB018C0D9D1DAE1DBF1D56
:100B5000B7FF03C00197A109B04888839983AA838E
:100B6000BB839F77DF91CF91FF90EF90DF90CF9085
:100B7000BF90AF909F908F9008950E947405089544
:100B800086E091E00E9474050895B0E0A0E08093B3
:100B9000060190930701A0930801B09309010895FD
:100BA000FB01DC0101900D920020E1F70895052E74
:100BB00097FB1EF400940E94EE0557FD07D00E949B
:100BC000090607FC03D04EF40C94EE0550954095B1
:100BD000309521953F4F4F4F5F4F089590958095E9
:100BE000709561957F4F8F4F9F4F08950E942B0600
:100BF000A59F900DB49F900DA49F800D911D112471
:100C00000895B7FF0C94F6050E94F605821B930B1E
:100C10000895A1E21A2EAA1BBB1BFD010DC0AA1F3D
:100C2000BB1FEE1FFF1FA217B307E407F50720F055
:100C3000A21BB30BE40BF50B661F771F881F991FD0
:100C40001A9469F760957095809590959B01AC0119
:100C5000BD01CF010895A29FB001B39FC001A39F22
:100C6000700D811D1124911DB29F700D811D1124E5
:080C7000911D0895F894FFCFD7
:100C780000008A01200001000000000001010100BD
:100C8800000001010101010001010101010101014F
:100C9800010101010101010101010101010001013D
:100CA8000101010000000101010000000001010133
:100CB8000000000101010101000101010101010120
:100CC8000101010000000001010101010000000113
:100CD80001010100000000010101000048454C4CE1
:100CE8004F20574F524C4420534E414B45205052B1
:060CF8004F4A4543540081
:00000001FF
