:100000000C9434000C9451000C9451000C94510049
:100010000C9451000C9420090C9451000C94510044
:100020000C9451000C9451000C9451000C9451000C
:100030000C9451000C9451000C9451000C945100FC
:100040000C9451000C9451000C9451000C945100EC
:100050000C9451000C9451000C9451000C945100DC
:100060000C9451000C94510011241FBECFEFD4E02A
:10007000DEBFCDBF12E0A0E0B1E0E2EDF2E202C0EF
:1000800005900D92A03AB107D9F722E0A0EAB2E0BC
:1000900001C01D92AB3DB207E1F70E94EF0B0C943B
:1000A00067110C94000088B1806388B985E08A9557
:1000B000F1F70000459885E08A95F1F70000089572
:1000C0004498459A85E08A95F1F70000459885E0C7
:1000D0008A95F1F7000008950E9453000E94530092
:1000E0000E9453000E9460000E9460000E94600015
:1000F0000E9453000C9453000F931F93CF93DF93F0
:10010000C0E2D0E00E9460002197E1F7C4ECD0E0AB
:100110000E946C000E9453000E9453000E945300F2
:100120000E9453000E9453000E9453000E945300FB
:100130000E9453000E9460000E9460000E946000C4
:100140000E9460000E9460000E9460000E946000A7
:100150000E9460000E9460000E9460000E94600097
:100160000E9460000E9460000E9460000E94600087
:100170000E946000219761F6C0E2D0E00E94530027
:100180002197E1F72FEF83ED90E3215080409040DD
:10019000E1F700C00000C0E2D0E00E9460002197BB
:1001A000E1F7C4ECD0E00E946C000E9460000E9465
:1001B00060000E9460000E9460000E9460000E9437
:1001C00060000E9460000E9460000E9453000E9434
:1001D00053000E9453000E9453000E9453000E944B
:1001E00053000E9453000E9453000E9460000E942E
:1001F00060000E9460000E9460000E9460000E94F7
:1002000060000E9460000E946000219761F6C0E2D9
:10021000D0E00E9453002197E1F72FEF83ED90E3A8
:10022000215080409040E1F700C00000C0E2D0E0E3
:100230000E9460002197E1F7C4ECD0E00E946C00BE
:100240000E9460000E9460000E9460000E946000A6
:100250000E9460000E9460000E9460000E94600096
:100260000E9460000E9460000E9460000E94600086
:100270000E9460000E9460000E9460000E94600076
:100280000E9453000E9453000E9453000E9453009A
:100290000E9453000E9453000E9453000E9453008A
:1002A000219761F6C0E2D0E00E9453002197E1F768
:1002B0002FEF83ED90E3215080409040E1F700C0A4
:1002C0000000C0E2D0E00E9460002197E1F7C4EC9A
:1002D000D0E00E946C0008E110E00E946000015034
:1002E0001109D9F72197A9F7C0E2D0E00E94530085
:1002F0002197E1F7DF91CF911F910F9108950F930F
:100300001F93CF93DF938C01EB01DC0116964D9187
:100310005C91179770E060E014968D919C910E941B
:10032000370E82E0C115B2E0DB0781F0C115E4E0D1
:10033000DE0739F080E0C115F8E0DF0739F483E02B
:1003400005C083E791E00E94DC0A81E08C60D8015F
:100350001496ED91FC9115979C2F907F982B90838C
:100360001496ED91FC91159790819B7F9183EFE31B
:10037000FFE13197F1F700C000001496ED91FC9178
:100380001597C295C07FC82BC2831496ED91FC913E
:10039000159782818B7F83831496ED91FC91148253
:1003A000DF91CF911F910F9108950F931F93CF93DA
:1003B000DF93EC018B0168E270E00E947F018C8189
:1003C0009D8199838883B801CE010E94D9088FE866
:1003D00091E00197F1F700C0000068E270E0CE0103
:1003E0000E947F018C819D8199838883B801CE0111
:1003F0000E94D908AFE8B1E01197F1F700C0000002
:1004000061E070E0CE010E947F018C819D81998323
:100410008883B801CE010E94D9088FED9EE2019732
:10042000F1F700C0000066E070E0CE010E947F019D
:100430008C819D8199838883B801CE010E94D9085F
:10044000AFE8B1E01197F1F700C000006FE070E095
:10045000CE010E947F018C819D8199838883B801A0
:10046000CE010E94D9088FE891E00197F1F700C012
:10047000000064E170E0CE010E947F018C819D81CB
:1004800099838883B801CE010E94D908AFE8B1E012
:100490001197F1F700C0000062E070E0CE010E9409
:1004A0007F018C819D8199838883B801CE010E9450
:1004B000D9088FED9EE20197F1F700C00000EC81B2
:1004C000FD8186E0DF011D928A95E9F7DF91CF91EA
:1004D0001F910F910895CF92DF92EF92FF920F93A9
:1004E0001F93CF93DF936C01FC01C081D181FE018A
:1004F00001900020E9F78F010150110980EAE82EF0
:1005000082E0F82EC017D10749F4DF91CF911F91F7
:100510000F91FF90EF90DF90CF9008958991982FE1
:10052000907F9D609093A0029B7F9093A102F0E149
:100530008F02C00111248D608093A2028B7F809373
:10054000A3021092A402F601F182E082C6010E9489
:100550005D088FEE90E00197F1F700C00000D2CF68
:10056000EF92FF920F931F93CF93DF93DC01ED90F7
:10057000FC90E114F10489F18B01EC0160E870E07A
:100580000E947F018C819D8199838883B801CE016F
:100590000E94D908EFE8F1E03197F1F700C00000C0
:1005A00060E074E0CE010E947F018C819D8199837F
:1005B0008883C8010E940108CE010E945D08F9826B
:1005C000E882CE010E946B020E942808EC81FD8126
:1005D00086E0DF011D928A95E9F7DF91CF911F91A7
:1005E0000F91FF90EF900895DF92EF92FF920F939B
:1005F0001F93CF93DF930097F9F0122FD42E7B0136
:10060000EC0189E090E00E94970CFC01892BA1F09D
:1006100000871382128211821082D6821783F5829C
:10062000E4828E819F81009779F4F983E883FB83CC
:10063000EA8301969F838E83DF91CF911F910F9163
:10064000FF90EF90DF900895A881B981B183A083D6
:100650001396FC93EE931297F983E883EACFCF9336
:10066000DF93EC01892BA1F088819981009781F0BB
:100670002A813B818217930771F4198218821B82A9
:100680001A820E942D0D8E819F8101979F838E83F8
:10069000DF91CF910895FC01A081B181B983A88336
:1006A00013961C921E921297ECCFCF93DF93EC011E
:1006B0008E819F81892B19F4DF91CF910895CE010E
:1006C0000E942F03F5CF0F931F93CF93DF93FC016D
:1006D000329681E090E08617970728F0DF91CF915E
:1006E0001F910F910895DF014D915D919C01215063
:1006F00031098F0137FD05C0D291C2914C175D07BA
:1007000030F0F801518340830196FD01E4CFD3839B
:10071000C283EDCFDF92EF92FF920F931F93CF939F
:10072000DF93F82E192FD62EE72EC6E1D0E04C2FFE
:100730004F5F9E0183E0359527958A95E1F7822FDB
:10074000880F880F880F642F681B70E068587F4FF0
:100750002F5F2150330B322F2227620F731F00E0CF
:1007600020E18F2D912F0E94F4022197C230D105F4
:10077000F1F66D2D7E2D8F2D912FDF91CF911F9151
:100780000F91FF90EF90DF900C942A0B9B01DC01FE
:10079000ED91FC91309711F481E008958481958169
:1007A0008217930721F00190F081E02DF3CF80E0D4
:1007B00008953F924F925F926F927F928F929F9295
:1007C000AF92BF92CF92DF92EF92FF920F931F935F
:1007D000CF93DF93CDB7DEB7A0970FB6F894DEBF07
:1007E0000FBECDBF6C017B01F901DB0114966D9149
:1007F0007C91159781E06417750709F092C080839A
:1008000018960C91189717962C91179716964C914D
:10081000C6010E94F402F60187818F9386818F932F
:1008200083E891E09F938F93CE0101969F938F93DE
:100830000E94500E0F900F900F900F900F900F90FE
:1008400000E3802E912C80E2A82EB12C66246394C4
:10085000712C0E94270EB4010E94460C442443943C
:10086000480E0E94270EB5010E94460C5524539451
:10087000580E642D70E0F52DF1703F2E852D90E01F
:10088000AB014150510957FF02C0495F5F4FB3E0D0
:1008900055954795BA95E1F74F5F4150550B342F69
:1008A000222738A32F8F311054C09C0121503109C9
:1008B000A3E0220F331FAA95E1F7260F371FAF8D54
:1008C000B8A12A0F3B1FF601A081B18110E010975B
:1008D00009F04FC0112309F4BCCFD70116964C92F2
:1008E000169717965C92E3E0440F551FEA95E1F7DF
:1008F000641B750B31104AC0019733E0880F991FB4
:100900003A95E1F7680F791FEF8DF8A1E60FF71F11
:10091000D7011596FC93EE93149718968C9191E05D
:100920008927A0960FB6F894DEBF0FBECDBFDF912A
:10093000CF911F910F91FF90EF90DF90CF90BF90DC
:10094000AF909F908F907F906F905F904F903F906F
:100950000895D301A61BB70B9C01F3E0220F331FB0
:10096000FA95E1F72A0F3B1FEF8DF8A12E0F3F1FDD
:10097000AACF14960D911C9115970217130709F42D
:1009800068CF0D90BC91A02D11E0A1CF23E0880F7E
:10099000991F2A95E1F7861B970B0196EF8DF8A119
:1009A000E80FF91FB5CF8F929F92AF92BF92CF926F
:1009B000DF92EF92FF920F931F93CF93DF930F92EB
:1009C000CDB7DEB77C016B01009709F450C0672BEF
:1009D00009F44DC0DC01ED91FC9111978680978060
:1009E000198218968C91833009F458C008F04DC0D4
:1009F000813009F44FC0823009F44EC0B0E3B8151D
:100A000008F44EC0811002C080E3882EE0E2E915B0
:100A100008F449C0911002C000E2902E482D50E029
:100A2000CA010197BC01B3E075956795BA95E1F7E6
:100A3000887F292D30E0762F662790FC37C0215023
:100A40003109A3E0220F331FAA95E1F78A01060FAF
:100A5000171F081B190B020F131FB801C7010E94B3
:100A6000C603811130C081E0D70153968C930F905B
:100A7000DF91CF911F910F91FF90EF90DF90CF907A
:100A8000BF90AF909F908F900895843009F0B6CFBB
:100A90008394B4CF9394B2CF9A94B0CF8A94AECFCC
:100AA00088248394B3CF99249394B8CF8C01041BEA
:100AB000150B0F5F1F4F060F171FF3E0220F331F99
:100AC000FA95E1F7C8CF9E012F5F3F4FA801B6010D
:100AD000C7010E94D903882331F2F701A080B180B9
:100AE0008981811129C0A281B3811296ED91FC9177
:100AF0001397309789F4D50116968C92169717960E
:100B00009C92179715961C930E9314971982B60111
:100B1000C7010E942A0BABCF868116968C9316973D
:100B2000878117968C9317978481958115969C934E
:100B30008E931497DF01D9CFF50106811781D70174
:100B400018968C91833009F458C008F04DC081305C
:100B500009F44FC0823009F44EC0013308F04FC091
:100B6000011101C000E3113208F04BC0111101C0A6
:100B700010E2402F50E0CA0101979C0173E03595C7
:100B800027957A95E1F7887F812E912C322F2227A5
:100B900010FD39C0B1E08B1A910863E0880C991CF4
:100BA0006A95E1F7240F351F281B390B820E931E1F
:100BB000B401C7010E94C603882309F454CFF7018A
:100BC000A281B3811296ED91FC911397309741F574
:100BD000D50116960C93169717961C931797159692
:100BE0009C928E92149792CF843009F0B6CF0F5F0B
:100BF000B4CF1F5FB2CF1150B0CF0150AECF01E0E4
:100C0000B2CF11E0B6CF841B950B0196820F931FD4
:100C100023E0880C991C2A95E1F7880E991EC8CF0D
:100C2000868116968C931697878117968C931797C3
:100C30008481958115969C938E931497DF01C2CF82
:100C40002F923F924F925F926F927F928F929F92DC
:100C5000AF92BF92CF92DF92EF92FF920F931F93CA
:100C6000CF93DF9300D000D000D0CDB7DEB77C01AA
:100C7000562E172F72E0372E23E02983412C30E1C6
:100C80003D8388E18E8388248394912C3D8128E0E4
:100C9000329F30011124E32FE150FF0B9F0183E0CD
:100CA000220F331F8A95E1F73B832A83212C3D8154
:100CB00031703C834110CDC09E8191509E83FE8156
:100CC0002F2F30E0C901019797FD079663E09595B6
:100CD00087956A95E1F7CC24C394C80E880F880FD6
:100CE000880FAE80A81AB12CD12C2C812111B5C04F
:100CF000B60161507109762F66278A819B818A0D22
:100D00009B1D680F791F00E02D814E81C7010E9455
:100D1000F402652D712FC7010E942A0B3FEF80E777
:100D200092E0315080409040E1F700C000002394F1
:100D30002310C0CF34016A187B08E1E0CE1AD10835
:100D4000DC2CCC24212C411092C0FD81F150FD837C
:100D50003D81632F70E030FD8EC06150710923E04A
:100D6000660F771F2A95E1F76A0D7B1D6C0D7D1DBF
:100D700000E02D814E81C7010E94F402652D712F84
:100D8000C7010E942A0B8FEF90E7E2E0815090406C
:100D9000E040E1F700C000002394F9812F12D3CF87
:100DA00021E04226652D712FC7010E942A0B3FEFDB
:100DB00080E792E0315080409040E1F700C00000B1
:100DC000E2E0E20DE98333943394F5E02F125ECF35
:100DD00080E09FEFA0E0B0E0F70182879387A487CF
:100DE000B58724E030E03B832A830E94CB0B652D3E
:100DF000712FC7010E942A0B3FEF85EA9EE0315018
:100E000080409040E1F700C00000EA81FB8131970B
:100E1000FB83EA83EF2B49F70E94CB0BC701269691
:100E20000FB6F894DEBF0FBECDBFDF91CF911F91FB
:100E30000F91FF90EF90DF90CF90BF90AF909F9079
:100E40008F907F906F905F904F903F902F900C9479
:100E50005503EE81EF5FEE8332CFB4016A197B094F
:100E6000660D771DC6010197982F88274ACF2D81DF
:100E70002F5F2D836DCF93E0660F771F9A95E1F773
:100E8000660D771D73CFEF92FF920F931F93CF9351
:100E9000DF93EC017B0180E09FEFA0E0B0E08A8768
:100EA0009B87AC87BD870AE010E00E94CB0BB7019F
:100EB000CE010E942A0B2FEF85EA9EE02150804050
:100EC0009040E1F700C000000150110971F7CE0118
:100ED000DF91CF911F910F91FF90EF900C945503EC
:100EE0008AB1837C8AB98BB18C638BB9DA9AEDE6CF
:100EF000F0E080818C638083E8E6F0E080818460AC
:100F00008083789408950E9470070E94F50A0C94DB
:100F1000620986B590E025EA822792270C942C0E70
:100F2000CF93DF9300D000D000D0CDB7DEB78D8354
:100F30009E83AD81BE8118968C91803109F44BC09F
:100F4000A8F58130C9F18430E9F1ED81FE81248179
:100F500035814681578160E074E284EF90E00E9421
:100F60005A0CDA01C9014097A109B10989839A8312
:100F7000AB83BC83AD81BE8118962C9130E0220FEB
:100F8000331F032E000C440B550B69817A818B8132
:100F90009C810E945A0C2093B80026960FB6F894B4
:100FA000DEBF0FBECDBFDF91CF910895803469F6CB
:100FB0008091B900826009C08091B9008C7F8093D4
:100FC000B900C3CF8091B9008D7F8093B900809123
:100FD000B9008160F4CF8091B90082608093B9003C
:100FE0008091B9008E7FEBCFFC0183858E7E21F04E
:100FF00084E991E00C94DC0A089508950895089519
:101000000895FC018185880F92859170892B9091BC
:10101000BC00946A9093BC009091BC0097FFFCCFF9
:101020008093BB008091BC008F7D8093BC00809139
:10103000BC0084688093BC008091BC0087FFFCCF1B
:101040008091B900887F08958091B900887F0895C4
:10105000ECEBF0E08081846980838091B900887F27
:1010600008950F931F93CF93DF938C01EB01FC0145
:1010700091858B85981719F0CB010E94F407F80130
:1010800090858985981719F0CE010E9490071AE083
:10109000CE010E940108883159F09091BC009469FA
:1010A0009093BC00F5E0FA95F1F70000115081F73C
:1010B000DF91CF911F910F910895FC0190E080E0A6
:1010C00044E8228133818217930708F00895209124
:1010D000BC0027FFFCCFA081B181A80FB91F2C91C4
:1010E0002093BB004093BC002091B9002832E1F767
:1010F0000196E7CFFC01CB01309731F0208131819F
:10110000232B11F0892B09F408958091BC00846988
:101110008093BC008091B900887F08950895CF9393
:10112000DF93CDB7DEB7EC970FB6F894DEBF0FBEF6
:10113000CDBF1A821982FE0133968AE3DF011D9228
:101140008A95E9F7CE0101960E943E0E8091B90082
:10115000887F883241F168F4883111F16AEE71E0DC
:10116000803269F06FEA71E0883049F084E892E0FB
:101170000CC08033D9F062E672E08833B9F7CE0153
:1011800001960E943E0ECE0101960E94DC0AEC966A
:101190000FB6F894DEBF0FBECDBFDF91CF9108959B
:1011A0006FEC71E0ECCF6EE072E0E9CF64E372E0E7
:1011B000E6CF0F931F93CF93DF93EC018B01892B25
:1011C000E9F188819981892BC9F161157105B1F126
:1011D000CE010E9431088091B900887F883151F199
:1011E00062E972E0C8010E948F088091BC008469A6
:1011F0008093BC008091B900887FDF91CF911F91CF
:101200000F9108952091BC0027FFFCCFE881F98160
:10121000E80FF91F20812093BB004093BC00209170
:10122000B9002832E1F701962A813B8182179307A2
:1012300048F3DBCF90E080E044E8F6CF81E0DDCFFB
:101240008F938FB78F939F9399B1809100018927D6
:101250009093000182FF0AC091E09093390190932E
:101260003A01909143019F5F9093430183FF0BC02C
:1012700092E09093390191E090933A01909143016B
:101280009F5F9093430184FF0BC093E090933901DB
:1012900091E090933A01909143019F5F90934301B5
:1012A00085FF0BC084E08093390181E080933A018F
:1012B000809143018F5F809343019F918F918FBFF6
:1012C0008F91189584B1896384B92A9A2498289AB1
:1012D0008CB58CBD8CB580648CBD8CB58CBD8CB54B
:1012E00080618CBD8CB58CBD8CB58CBD8CB582609D
:1012F0008CBD8CB58CBD8DB58DBD089584B18C62CF
:1013000084B9389A2A9A2498289A8CB58CBD8CB5C1
:1013100080648CBD8CB58CBD8CB580618CBD8CB56A
:101320008CBD8CB58CBD8CB582608CBD8CB58CBDF4
:101330008DB58DBD0895DC01289890E080E0FD0119
:1013400001900020E9F73197EA1BFB0B8E179F07EE
:1013500010F0289A0895FD01E80FF91F20812EBD95
:101360000DB407FEFDCF0196EACFFC01680F791F8F
:10137000E617F70709F4089581918EBD0DB407FEB5
:10138000FDCFF6CF8EBD0DB407FEFDCF08958EBD07
:101390000DB407FEFDCF8EB5089508952898FC0181
:1013A000680F791FE617F70711F4289A08951EBCF5
:1013B0000DB407FEFDCF8EB58193F4CFFC01680F0D
:1013C000791FE617F70709F408951EBC0DB407FE50
:1013D000FDCF8EB58193F5CFFC011EBC0DB407FE89
:1013E000FDCF8EB5808308950895CF93DF9300D00D
:1013F00000D0CDB7DEB70E947C0C69837A838B83E3
:101400009C8364E070E0CE0101960E94B5090F90C4
:101410000F900F900F90DF91CF910895CF93DF93AE
:1014200000D000D00F92CDB7DEB789832898DB01BA
:10143000CA01B2608A839B83AC83BD83BC01CD01AA
:101440000E94F50961E070E0CE0101960E94B509A5
:10145000289A0F900F900F900F900F90DF91CF91DF
:1014600008950F931F93CF93DF9300D000D000D047
:10147000CDB7DEB78E839D8389012898DB01CA0131
:10148000B26089839A83AB83BC83BC01CD010E9487
:10149000F509B8018E819D810E94B509289A26968A
:1014A0000FB6F894DEBF0FBECDBFDF91CF911F9175
:1014B0000F910895CF93DF9300D000D000D0CDB727
:1014C000DEB78D839E83AD81BE811C922898DB019F
:1014D000CA01B36089839A83AB83BC83BC01CD010D
:1014E0000E94F5091EBC0DB407FEFDCF8EB5AD817F
:1014F000BE818C93289A26960FB6F894DEBF0FBE55
:10150000CDBFDF91CF9108950F931F93CF93DF93BA
:1015100000D000D000D0CDB7DEB78E839D838B0185
:101520002898DA01C901B36089839A83AB83BC83AD
:10153000BC01CD010E94F509B8018E819D810E94F8
:10154000DE09289A26960FB6F894DEBF0FBECDBFEF
:10155000DF91CF911F910F910895289885E08EBD5E
:101560000DB407FEFDCF8FEF8EBD0DB407FEFDCF8E
:101570008EB5289A0895982F9F7361F4289891E06A
:101580009EBD0DB407FEFDCF8EBD0DB407FEFDCF91
:101590008EB5289A0895680F791F8617970711F45A
:1015A000089500002091C00025FFFBCFFC01219190
:1015B000CF012093C600F1CFDC01FC010190002097
:1015C000E9F73197E81BF90B9D01281B390B2E1702
:1015D0003F0710F0089500002091C00025FFFBCFC9
:1015E0002D912093C600E9CF08951092C50087E69B
:1015F0008093C400E2ECF0E080818F708083808172
:1016000088608083A0ECB0E08C918D7F8C93A1ECFE
:10161000B0E088E18C938C918B7F8C938081866085
:101620008083089528E030E090E8482F4923409ACD
:1016300059F043E04A95F1F7409800C000009695B4
:101640002150310991F7089500C0409843E04A9530
:10165000F1F7F4CF6F927F928F929F92AF92BF92E9
:10166000CF92DF92EF92FF920F931F93CF93DF936E
:10167000CDB7DEB7C85CD1090FB6F894DEBF0FBE98
:10168000CDBF8C014B01CE0101965C0188ECD501E8
:101690001D928A95E9F7D801ED91FC91D50130971B
:1016A00009F052C0F80166817781C5010E94630389
:1016B000EE24E394F12CD12CC12CF4E6CF16D10406
:1016C00008F04AC0F601EE0FFF1FEA0DFB1D8081F6
:1016D00091818E159F0509F03FC0D8011A967C9024
:1016E0001A971B966C901B971C968C910E94120B5C
:1016F000862D0E94120B872D0E94120BBFEFCB1A72
:10170000DB0ABFEFEB1AFB0AE1E0EE16E6E0FE06AD
:10171000A1F64098F1E2FA95F1F70000C853DF4FC7
:101720000FB6F894DEBF0FBECDBFDF91CF911F91F2
:101730000F91FF90EF90DF90CF90BF90AF909F9070
:101740008F907F906F900895848195818D939D9364
:101750000190F081E02DA3CFF8018489882399F0CE
:10176000D40114968D919C918E159F0561F4768419
:10177000678480890E94120B862D0E94120B872D90
:101780000E94120BBECF80E00E94120B80E00E94EC
:10179000120B80E0F5CFCF93DF93C0E0D6E080E07E
:1017A0000E94120B80E00E94120B80E00E94120B3C
:1017B0002197A9F7409881E28A95F1F70000DF911F
:1017C000CF910895CF93DF93C2E1D1E08E819F81C5
:1017D0000E94970C9D838C83DF91CF910895CDB7A4
:1017E000DEB76E970FB6F894DEBF0FBECDBF389A46
:1017F0000E9483070E94CB0B0E94E20B6CE171E018
:1018000082E191E00E94D50160E571E08E010F5FF9
:101810001F4FC8010E94490EC8010E94DC0A2FEF29
:1018200081EE94E0215080409040E1F700C000003C
:101830008091120190911301FC0101900020E9F7C1
:101840003197AF01481B590B70E060E00E94370EE2
:10185000109313010093120141E051E06CE171E03B
:1018600082E191E00E94B0020E947C0069E070E099
:101870008AE691E00E94CB0A2FEF89E698E1215099
:1018800080409040E1F700C00000EECF97FB072EAC
:1018900016F4009407D077FD09D00E94830C07FC52
:1018A00005D03EF4909581959F4F08957095619570
:1018B0007F4F0895A1E21A2EAA1BBB1BFD010DC08C
:1018C000AA1FBB1FEE1FFF1FA217B307E407F507F0
:1018D00020F0A21BB30BE40BF50B661F771F881FCC
:1018E000991F1A9469F760957095809590959B0162
:1018F000AC01BD01CF010895692796276927782794
:10190000872778270895AA1BBB1B51E107C0AA1F90
:10191000BB1FA617B70710F0A61BB70B881F991F90
:101920005A95A9F780959095BC01CD0108950F9324
:101930001F93CF93DF939C01029710F422E030E0D5
:10194000E091D902F091DA0290E080E0B0E0A0E00E
:10195000309791F4009709F445C0821B930B8430B3
:101960009105B8F58A819B816115710569F1FB01CB
:1019700093838283FE0111C04081518102811381D2
:1019800042175307F0F04217530799F4109761F08C
:1019900012960C93129713961C933296CF01DF91F7
:1019A000CF911F910F9108950093D9021093DA02FD
:1019B000F4CF009719F04817590718F4CA01BD0170
:1019C000EF01DF01F801C4CF9093DA028093D902CE
:1019D000D1CFFE01E80FF91F21933193029799832C
:1019E0008883DCCF8091D7029091D802892B41F473
:1019F00080914801909149019093D8028093D70239
:101A00008091460190914701009741F48DB79EB7B0
:101A100040914A0150914B01841B950B4091D70294
:101A20005091D8024817590708F0B8CF841B950B7E
:101A30008217930708F4B2CFB9016E5F7F4F861704
:101A4000970708F4ABCF640F751F7093D8026093AB
:101A5000D702FA0121933193A1CFCF93DF939C0159
:101A60000097E9F0FC01329713821282C091D902EB
:101A7000D091DA02DE0190E080E02097A1F480812D
:101A80009181280F391F8091D7029091D802821737
:101A9000930709F067C0F093D802E093D702DF9173
:101AA000CF910895DA01AE17BF0708F041C0129632
:101AB0004D915C911397CD014115510599F7DC01CA
:101AC0001396FC93EE9312974D915D91A40FB51F61
:101AD000EA17FB0781F4208131812E5F3F4F240FED
:101AE000351FDC0111963C932E932281338113968E
:101AF0003C932E931297B0E0A0E08A819B810097DF
:101B0000B1F5FE0181919191E80FF91F8091D70203
:101B10009091D8028E179F0711F6109759F51092E1
:101B2000DA021092D902D093D802C093D702B7CF6D
:101B3000B383A28340815181240F351FA217B307BD
:101B400071F44E5F5F4F2D913C911197420F531FDF
:101B50005183408312962D913C91338322830097C9
:101B600009F0ADCFF093DA02E093D90298CFDE010D
:101B7000EC01C3CF13961C921E921297D4CFCF9232
:101B8000DF92EF92FF92CF93DF93CDB7DEB72A9724
:101B90000FB6F894DEBF0FBECDBF89879A87A9859F
:101BA000BA852D913D914D915C9129833A834B8368
:101BB0005C83232B242B252B41F424E239ED4BE5C8
:101BC00057E029833A834B835C8369817A818B81D7
:101BD0009C812DE133EF41E050E00E94EF1069015C
:101BE0007A01A7EAB1E49B01AC010E940E1169835E
:101BF0007A838B839C83ACEEB4EFA70196010E949D
:101C00001C119B01AC0189819A81AB81BC81820F3F
:101C1000931FA41FB51FB7FF03C00197A109B048C8
:101C2000E985FA8580839183A283B3839F772A967F
:101C30000FB6F894DEBF0FBECDBFDF91CF91FF90FE
:101C4000EF90DF90CF9008950E94BF0D08958CE42F
:101C500091E00E94BF0D0895B0E0A0E080934C0198
:101C600090934D01A0934E01B0934F010895DC0174
:101C700001C06D9341505040E0F70895FB01DC0135
:101C80000D900020E9F7119701900D920020E1F7E7
:101C90000895FB01DC0101900D920020E1F7089509
:101CA000AEE0B0E0E6E5FEE00C942F110D891E8950
:101CB00086E08C831A8309838FEF9FE79E838D8351
:101CC000AE01475E5F4F6F89788DCE0101960E940D
:101CD000730E2F813885020F131FF80110822E9684
:101CE000E4E00C944B11AFE0B0E0E9E7FEE00C94C7
:101CF00021117C013B018A01DC0117961C921E9286
:101D0000169713968C9181FFC3C19AE0292EFE018C
:101D100031964F01D70113969C91F30193FD859164
:101D200093FF81913F01882309F448C1853239F43A
:101D300093FD859193FF81913F01853229F4B7018D
:101D400090E00E946110E6CFB12C412C512CBFE1F4
:101D5000B51538F08B3209F188F4803201F1833205
:101D600021F157FC3AC020ED280F2A3040F556FEED
:101D70001FC0B29C200D1124B22E06C08D3291F0EE
:101D8000803379F7689450F8F30193FD859193FFC0
:101D900081913F018111DBCF20C0689451F8689494
:101DA00052F8F2CF689453F8EFCF689454F8ECCF20
:101DB000429C200D1124422E689455F8E5CF8E32B6
:101DC00029F456FCFBC0689456F8DECF8C3619F423
:101DD000689457F8D9CF8836B9F2982F9F7D9554DB
:101DE0009330C0F08336A1F18337C1F1833509F018
:101DF0005BC0D801CD90DD908D016B2D70E056FC5D
:101E000002C06FEF7FEFC6010E944B105C01689427
:101E100057F80AC00C5F1F4FEFE3E983AA24A3948D
:101E2000B12C6401E89457F853FC04C04A141B0415
:101E300009F018F5342CA114B10431F5332009F45C
:101E400069CFB70180E290E00E9461103A94F6CF2A
:101E5000D8018C9189830E5F1F4FE0CFF801C190AC
:101E6000D1908F016B2D70E056FC02C06FEF7FEFB9
:101E7000C6010E9456105C01D5CFB70180E290E008
:101E80000E9461104A94D2CFF60157FC859157FE0B
:101E900081916F01B70190E00E94611031103A9476
:101EA000B1E0AB1AB108C7CF843619F0893609F012
:101EB00074C0F80157FE6AC061917191819191914E
:101EC0008F01E52DEF76DE2E97FF09C09095809566
:101ED000709561957F4F8F4F9F4F6894D7F82AE098
:101EE00030E0A4010E949110C82EC818AC2C5D2CC3
:101EF000D6FE0CC0E89450F8CB1440F4D4FE05C0D4
:101F0000D2FC03C05D2D5E7E552EAB2C54FE98C0D6
:101F1000FE01EC0DF11D8081803309F08AC0652D32
:101F2000697E562E752D7870372E53FC98C050FE62
:101F300092C0BC2CA41418F44C0CB42CBA1854FE47
:101F400094C0B70180E390E00E94611052FE09C086
:101F500088E790E051FE02C088E590E0B7010E945A
:101F60006110CB1408F48DC0CA94D12C8FEFC81A1D
:101F7000D80AC80CD91CD6018E916D01B70190E02A
:101F80000E9461108C149D04B1F758CF619171913A
:101F9000072E000C880B990B93CFD52CE894D4F81E
:101FA0002AE030E0853739F1F52DF97FDF2E8037D3
:101FB000A9F058F48835A9F08F36D9F0F701868159
:101FC00097812F96E2E10C943D118837B9F7D4FE42
:101FD00002C06894D2F820E130E00DC06894D4F8D3
:101FE000F6CF54FE03C02F2F2660D22E20E132E020
:101FF00002C028E030E0F801D7FE15C041915191B0
:10200000619171914C875D876E877F878F01A401F5
:102010006C857D858E859F850E949110C82EC8187D
:10202000E894D7F863CF81919191AC0170E060E0C2
:10203000E9CF52FC02C0A39475CFA394A39472CFAE
:10204000852D867809F46ECFF6CFB70180E290E057
:102050000E946110A394A414C0F3312C70CF342CCF
:102060003A18A41408F46BCFF8CF852D867809F4BC
:1020700078CF8BE251FE80E257FC8DE2B70190E011
:102080006ECFB70180E390E00E946110BA9469CFEF
:102090008FEF9FEF96CFFC010590615070400110CB
:1020A000D8F7809590958E0F9F1F0895FC01615081
:1020B000704001900110D8F7809590958E0F9F1F6A
:1020C00008950F931F93CF93DF93182F092FEB01E0
:1020D0008B8181FD09C01FEF0FEF812F902FDF91C2
:1020E000CF911F910F91089582FF14C02E813F81DF
:1020F0008C819D81281739073CF4E881F981CF0153
:1021000001969983888310838E819F8101969F8396
:102110008E83E3CFE885F985812F0995892BA1F37B
:10212000DACFFA01AA27283051F1203181F1E89461
:102130006F936E7F6E5F7F4F8F4F9F4FAF4FB1E0BA
:102140003ED0B4E03CD0670F781F891F9A1FA11DB5
:10215000680F791F8A1F911DA11D6A0F711D811DB6
:10216000911DA11D20D009F468943F912AE0269F7B
:1021700011243019305D3193DEF6CF010895462FDA
:102180004770405D4193B3E00FD0C9F7F6CF462FBB
:102190004F70405D4A3318F0495D31FD4052419324
:1021A00002D0A9F7EACFB4E0A695979587957795E1
:1021B0006795BA95C9F700976105710508959B0168
:1021C000AC010A2E06945795479537952795BA95F1
:1021D000C9F7620F731F841F951FA01D0895052E58
:1021E00097FB1EF400940E94061157FD07D00E9431
:1021F0005A0C07FC03D04EF40C94061150954095F0
:10220000309521953F4F4F4F5F4F089590958095A2
:10221000709561957F4F8F4F9F4F08950E94581181
:10222000A59F900DB49F900DA49F800D911D11242A
:102230000895B7FF0C940E110E940E11821B930B90
:1022400008952F923F924F925F926F927F928F925A
:102250009F92AF92BF92CF92DF92EF92FF920F9335
:102260001F93CF93DF93CDB7DEB7CA1BDB0B0FB63F
:10227000F894DEBF0FBECDBF09942A8839884888FC
:102280005F846E847D848C849B84AA84B984C88492
:10229000DF80EE80FD800C811B81AA81B981CE0F89
:1022A000D11D0FB6F894DEBF0FBECDBFED0108956E
:1022B000A29FB001B39FC001A39F700D811D112487
:1022C000911DB29F700D811D1124911D0895F894E8
:0222D000FFCF3E
:1022D200FF270000000000000000000000000000D6
:1022E20000000000000000000600FFFF00000000E8
:1022F20040420F00012700000000000021010805F4
:10230200000000000000000000030000FFD70000F2
:1023120000FF000000000000DB02200001000000BE
:1023220048454C4C4F20574F524C4420534E414B42
:10233200452050524F4A454354006C4F4F50494E2E
:10234200470A0049542053484F554C4420484552AF
:10235200450A0042656C6C7920436F756E743A20B1
:1023620025640A004572722E2E693263436F6E66CF
:102372003C496E76616C6964204D6F64653E002E47
:102382002E2E20466C6167203C53544152545F52BA
:10239200455452414E534D49545445443E0A002E31
:1023A2002E2E20466C6167203C534C415F504C55A9
:1023B200535F575F41434B3E0A002E2E2E2045723B
:1023C200726F72466C6167203C534C415F504C55B2
:1023D200535F575F4E4F545F41434B3E0A002E2ED0
:1023E2002E20466C6167203C444154415F4259545F
:1023F200455F5452414E534D49545445445F414305
:102402004B3E0A002E2E2E204572726F72466C6170
:1024120067203C444154415F425954455F54524104
:102422004E534D49545445445F4E4F5F41434B3EDA
:102432000A002E2E2E204572726F72466C61672042
:102442003C4152424954524154494F4E5F4C4F53C2
:10245200543E0A00556E6B6E6F776E20464C616774
:102462000A0069326357726974655F506F6C0000CD
:00000001FF
