:100000000C9434000C9451000C9451000C94510049
:100010000C9451000C94EE070C9451000C94510078
:100020000C9451000C9451000C9451000C9451000C
:100030000C9451000C9451000C9451000C945100FC
:100040000C9451000C9451000C9451000C945100EC
:100050000C9451000C9451000C9451000C945100DC
:100060000C9451000C94510011241FBECFEFD4E02A
:10007000DEBFCDBF13E0A0E0B1E0E0E8F2E202C0F5
:1000800005900D92A233B107D9F723E0A2E3B3E0C4
:1000900001C01D92AD36B207E1F70E94570B0C94D8
:1000A0003E110C9400000F931F93CF93DF938C01AC
:1000B000EB01DC0116964D915C91179770E060E0C2
:1000C00014968D919C910E94130E82E0C115B2E0AE
:1000D000DB0781F0C115E4E0DE0739F080E0C115EF
:1000E000F8E0DF0739F483E005C086E092E00E9483
:1000F0004A0981E08C60D8011496ED91FC91159726
:100100009C2F907F982B90831496ED91FC911597DE
:1001100090819B7F9183EFE3FFE13197F1F700C07E
:1001200000001496ED91FC911597C295C07FC82BE5
:10013000C2831496ED91FC91159782818B7F838306
:100140001496ED91FC911482DF91CF911F910F9144
:1001500008950F931F93CF93DF93EC018B0168E217
:1001600070E00E9453008C819D8199838883B8013F
:10017000CE010E94A6078FE891E00197F1F700C039
:10018000000068E270E0CE010E9453008C819D81E6
:1001900099838883B801CE010E94A607AFE8B1E039
:1001A0001197F1F700C0000061E070E0CE010E94FD
:1001B00053008C819D8199838883B801CE010E9470
:1001C000A6078FED9EE20197F1F700C0000066E000
:1001D00070E0CE010E9453008C819D8199838883B9
:1001E000B801CE010E94A607AFE8B1E01197F1F780
:1001F00000C000006FE070E0CE010E9453008C81CF
:100200009D8199838883B801CE010E94A6078FE85B
:1002100091E00197F1F700C0000064E170E0CE01C9
:100220000E9453008C819D8199838883B801CE01FF
:100230000E94A607AFE8B1E01197F1F700C00000F7
:1002400062E070E0CE010E9453008C819D81998311
:100250008883B801CE010E94A6078FED9EE2019728
:10026000F1F700C00000EC81FD8186E0DF011D9206
:100270008A95E9F7DF91CF911F910F910895CF9261
:10028000DF92EF92FF920F931F93CF93DF936C0156
:10029000FC01C081D181FE0101900020E9F78F01AE
:1002A0000150110982E3E82E83E0F82EC017D10730
:1002B00049F4DF91CF911F910F91FF90EF90DF9064
:1002C000CF9008958991982F907F9D6090933203ED
:1002D0009B7F90933303F0E18F02C00111248D6066
:1002E000809334038B7F8093350310923603F6019D
:1002F000F182E082C6010E9428078FEE90E001970C
:10030000F1F700C00000D2CFEF92FF920F931F933E
:10031000CF93DF93DC01ED90FC90E114F10489F1BF
:100320008B01EC0160E870E00E9453008C819D819C
:1003300099838883B801CE010E94A607EFE8F1E017
:100340003197F1F700C0000060E074E0CE010E9438
:1003500053008C819D8199838883C8010E94CC06BB
:10036000CE010E942807F982E882CE010E943F0157
:100370000E94F306EC81FD8186E0DF011D928A95E3
:10038000E9F7DF91CF911F910F91FF90EF900895C2
:10039000DF92EF92FF920F931F93CF93DF9300971B
:1003A000F9F0122FD42E7B01EC0189E090E00E943D
:1003B000920CFC01892BA1F000871382128211821A
:1003C0001082D6821783F582E4828E819F81009706
:1003D00079F4F983E883FB83EA8301969F838E8314
:1003E000DF91CF911F910F91FF90EF90DF900895D3
:1003F000A881B981B183A0831396FC93EE931297E1
:10040000F983E883EACFCF93DF93EC01892BA1F046
:1004100088819981009781F02A813B818217930717
:1004200071F4198218821B821A820E942E0D8E810D
:100430009F8101979F838E83DF91CF910895FC0167
:10044000A081B181B983A88313961C921E92129742
:10045000ECCFCF93DF93EC018E819F81892B19F430
:10046000DF91CF910895CE010E940302F5CF0F9343
:100470001F93CF93DF93FC01329681E090E08617C3
:10048000970728F0DF91CF911F910F910895DF0119
:100490004D915D919C01215031098F0137FD05C0BF
:1004A000D291C2914C175D0730F0F801518340831F
:1004B0000196FD01E4CFD383C283EDCFCF92DF92CB
:1004C000EF92FF920F93CF93DF936C017B01C6E114
:1004D000D0E04C2F4F5FCE0123E0959587952A956C
:1004E000E1F7982F990F990F990F642F691B262F09
:1004F00030E028583F4F61E0680F6150770B762F4E
:100500006627620F731F00E020E1C6010E94C80148
:100510002197C230D105E9F6B701C601DF91CF912D
:100520000F91FF90EF90DF90CF900C949809DC0131
:10053000ED91FC91309711F481E0089584819581CB
:100540008617970721F00190F081E02DF3CF80E02E
:1005500008953F924F925F926F927F928F929F92F7
:10056000AF92BF92CF92DF92EF92FF920F931F93C1
:10057000CF93DF93CDB7DEB7A0970FB6F894DEBF69
:100580000FBECDBFFB01A481B581A417B50709F04B
:10059000C7C0F9017B016C0181E08083FB0100850C
:1005A00027814681BD01C6010E94C801F6018781ED
:1005B0008F9386818F9386E192E09F938F93CE01F4
:1005C00001969F938F930E94250E0F900F900F908E
:1005D0000F900F900F9070E3672E712CE0E28E2E3B
:1005E000912CAA24A394B12C0E94030EB3010E9463
:1005F000480C44244394480E0E94030EB4010E9408
:10060000480C55245394580E842D90E0F52DF1702C
:100610003F2E252D30E0FC013197F7FD379643E062
:10062000F595E7954A95E1F7EF5F4E2F4150550B51
:1006300058A34F8F742F662731104DC0A901415028
:10064000510903E0440F551F0A95E1F7480F591F60
:10065000460F571FF601A081B18110E0109709F0F5
:1006600046C0112309F4C0CFF70146825782EF8DAF
:10067000F8A1A3E0EE0FFF1FAA95E1F78E1B9F0BD9
:10068000311042C02150310953E0220F331F5A95D7
:10069000E1F7820F931F680F791FF7017583648359
:1006A000808591E08927A0960FB6F894DEBF0FBE33
:1006B000CDBFDF91CF911F910F91FF90EF90DF9011
:1006C000CF90BF90AF909F908F907F906F905F90F2
:1006D0004F903F900895D501A81BB90BA90113E0D5
:1006E000440F551F1A95E1F74A0F5B1FB1CF1496BF
:1006F0000D911C9115970417150709F475CF0D90EE
:10070000BC91A02D11E0AACF43E0220F331F4A95E0
:10071000E1F7281B390B2F5F3F4F620F731FBDCFCF
:1007200081E0C1CF8F929F92AF92BF92CF92DF9222
:10073000EF92FF920F931F93CF93DF931F92CDB74A
:10074000DEB7009709F451C06115710509F44DC079
:10075000DC01ED91FC9111978680978019821896A3
:100760002C91223009F458C008F04DC0213009F412
:1007700051C0B0E3B81508F453C0882009F453C041
:10078000E0E2E91508F452C0992009F452C0E82DBE
:10079000F0E09F012150310913E0359527951A9516
:1007A000E1F7A90103E0440F551F0A95E1F7E41BA7
:1007B000F50B492D50E0122F002790FC3DC0415011
:1007C0005109B3E0440F551FBA95E1F70E0F1F1FF3
:1007D000040F151F5B017C01B8010E949702811173
:1007E00035C081E0D70153968C930F90DF91CF9164
:1007F0001F910F91FF90EF90DF90CF90BF90AF903F
:100800009F908F900895233049F0243009F0B1CFA4
:100810008394AFCF9394ADCF9A94ABCF8A94A9CF62
:1008200088248394ADCF10E3812EAACF992493948A
:10083000AECFB0E29B2EABCF0F5F1F4F0E1B1F0B37
:10084000A3E0440F551FAA95E1F7C2CF9E012F5F89
:100850003F4FA801B501C7010E94A902882309F2F0
:10086000F701C080D1808981811129C0A281B38123
:100870001296ED91FC911397309789F4D601169654
:100880008C92169717969C92179715961C930E9319
:1008900014971982B501C7010E949809A6CF8681D5
:1008A00016968C931697878117968C931797848149
:1008B000958115969C938E931497DF01D9CFF601FD
:1008C00086809780D70118968C91823009F45FC09A
:1008D00008F054C0813009F458C0B0E3B81508F4EA
:1008E0005AC0882009F45AC0E0E2E91508F459C05A
:1008F000992009F459C0482D50E0CA01019723E01E
:10090000959587952A95E1F79C0163E0220F331FA7
:100910006A95E1F7421B530B292D30E0182F002771
:1009200090FC45C02150310993E0220F331F9A9566
:10093000E1F7040F151F020F131FB801C7010E9432
:100940009702882309F44DCFF701A281B381129653
:10095000ED91FC911397309709F490CF868116960C
:100960008C931697878117968C931797848195811E
:1009700015969C938E931497DF01E9CF833049F04D
:10098000843009F0AACF8394A8CF9394A6CF9A94E9
:10099000A4CF8A94A2CF88248394A6CFF0E38F2E8D
:1009A000A3CF99249394A7CFE0E29E2EA4CF0F5F0C
:1009B0001F4F041B150B83E0220F331F8A95E1F7AD
:1009C000BACF2F923F924F925F926F927F928F9207
:1009D0009F92AF92BF92CF92DF92EF92FF920F93CE
:1009E0001F93CF93DF9300D000D000D01F92CDB7DC
:1009F000DEB77C015B01412CA2E0CA2ED12C10E1B4
:100A0000B8E15B2E22242394312C612E712CC3017A
:100A100023E0880F991F2A95E1F79F838E8391E049
:100A2000691A710833E0660C771C3A95E1F7CB82BE
:100A30001982E12FE170ED834110EEC05A94852CAC
:100A4000912CB4016150710977FF02C0695F7F4F3B
:100A5000E3E075956795EA95E1F7862F880F880F93
:100A6000880F252D281B822F90E06F5F6150770B38
:100A7000762F66273D813111D1C0860D971D680FF5
:100A8000791F00E0212F452DC7010E94C801B50143
:100A9000C7010E9498093FEF80E792E03150804003
:100AA0009040E1F700C00000E981EF5FE983FB813E
:100AB000EF13C2CF96012F5F3F4F3C832B83C401BE
:100AC00001979A83898397FF04C0F4013696FA83CD
:100AD000E98329813A8163E0359527956A95E1F7A5
:100AE000822F880F880F880F852C881A912CC101BE
:100AF000881999099A8389832F5FE22FE150FF0BB0
:100B00003E2F22273F832E83712C612C41108FC0F2
:100B10001150612F70E010FD8CC06150710953E0DD
:100B2000660F771F5A95E1F7680D791D8E819F81B9
:100B3000680F791F00E0212F452DC7010E94C801D1
:100B4000B501C7010E9498093FEF80E792E031505C
:100B500080409040E1F700C00000EFEF6E1A7E0A7F
:100B60002B813C816216730688F232E0C30ED11CE1
:100B700081E04826B501C7010E9498099FEFE0E790
:100B8000F2E09150E040F040E1F700C0000026E0C4
:100B9000C216D10409F039CF80E09FEFA0E0B0E0A9
:100BA000F70182879387A487B58724E030E03A83F2
:100BB00029830E94390AB501C7010E9498093FEFB5
:100BC00085EA9EE0315080409040E1F700C000008F
:100BD000E981FA813197FA83E983EF2B51F70E947B
:100BE000390AC70127960FB6F894DEBF0FBECDBFF6
:100BF000DF91CF911F910F91FF90EF90DF90CF90F9
:100C0000BF90AF909F908F907F906F905F904F902C
:100C10003F902F900C942902539411CFF101E81BBF
:100C2000F90BCF012E813F81820F931F28CF1F5FC9
:100C300070CF43E0660F771F4A95E1F7E981FA81AB
:100C40006E0F7F1F2E813F81620F731F73CFEF9254
:100C5000FF920F931F93CF93DF93EC017B0180E012
:100C60009FEFA0E0B0E08A879B87AC87BD870AE052
:100C700010E00E94390AB701CE010E9498092FEFB7
:100C800085EA9EE0215080409040E1F700C00000DE
:100C90000150110971F7CE01DF91CF911F910F9192
:100CA000FF90EF900C9429028AB1837C8AB98BB1B2
:100CB0008C638BB9DA9AEDE6F0E080818C638083F7
:100CC000E8E6F0E0808184608083789408950E9453
:100CD00054060E9463090C94350886B590E025EA15
:100CE000822792270C94080ECF93DF93EC0188851E
:100CF000843081F108F5813039F12C813D814E81BC
:100D00005F8160E074E284EF90E00E945C0CCA01B5
:100D1000B9016051710981099109288530E0220FDC
:100D2000331F032E000C440B550B0E945C0C2093C8
:100D3000B800DF91CF9108958031A9F08034E9F6B1
:100D40008091B900826009C08091B9008C7F809346
:100D5000B900D3CF8091B9008D7F8093B900809185
:100D6000B9008160F4CF8091B90082608093B900AE
:100D70008091B9008E7FEBCFFC018385823038F003
:100D80008051823020F087E292E00C944A09089565
:100D90000895089508950895FC019185990F82851D
:100DA0008170892B9091BC00946A9093BC009091C3
:100DB000BC0097FFFCCF8093BB008091BC008F7D6F
:100DC0008093BC008091BC0084688093BC008091BB
:100DD000BC0087FFFCCF8091B900887F0895809187
:100DE000B900887F0895ECEBF0E08081846980830E
:100DF0008091B900887F08950F931F93CF93DF935D
:100E00008C01EB01FC0191858B85981719F0CB01C2
:100E10000E94BC06F80190858985981719F0CE01CB
:100E20000E9474061AE0CE010E94CC06883159F067
:100E30009091BC0094699093BC00F5E0FA95F1F7AD
:100E40000000115081F7DF91CF911F910F9108950C
:100E500030E020E064E8FC0142815381241735072B
:100E600008F008954091BC0047FFFCCFDC01ED91F4
:100E7000FC91E20FF31F40814093BB006093BC00E4
:100E80004091B9004832E1F72F5F3F4FE4CF009720
:100E900081F0FC0180819181892B59F0672B49F009
:100EA0008091BC0084698093BC008091B900887FE8
:100EB0000895089508950F931F93CF93DF93CDB7AF
:100EC000DEB7EC970FB6F894DEBF0FBECDBF8E0134
:100ED0000F5F1F4F8CE3F80111928A95E9F7C80163
:100EE0000E941A0E8091B900887F803231F148F457
:100EF000883081F062E672E0883171F087E193E03A
:100F00000FC08033E9F08833F1F08832B9F761EA35
:100F100072E002C062E472E0C8010E941A0EC801C9
:100F20000E944A09EC960FB6F894DEBF0FBECDBF03
:100F3000DF91CF911F910F9108956DE772E0ECCF93
:100F400067EC72E0E9CF65EF72E0E6CF0F931F9395
:100F5000CF93DF93009709F43FC0FC0120813181DA
:100F6000232BD1F161157105B9F18B01EC010E94C0
:100F7000FC068091B900887F883151F165E273E009
:100F8000C8010E945B078091BC0084698093BC000B
:100F90008091B900887FDF91CF911F910F910895C3
:100FA0002091BC0027FFFCCFE881F981E80FF91FF1
:100FB00020812093BB004093BC002091B9002832CF
:100FC000E1F701962A813B818217930748F3DBCF33
:100FD00090E080E044E8F6CF81E0DDCF1F920F92F1
:100FE0000FB60F9211248F939F9399B180911201A4
:100FF00089279093120182FF0AC091E090934B01E0
:1010000090934C01909155019F5F9093550183FF00
:101010000BC092E090934B0191E090934C01909122
:1010200055019F5F9093550184FF0BC093E090930F
:101030004B0191E090934C01909155019F5F9093EB
:10104000550185FF0BC084E080934B0181E08093C4
:101050004C01809155018F5F809355019F918F9135
:101060000F900FBE0F901F90189584B1896384B9BB
:101070002A9A2498289A8CB58CBD8CB580648CBD36
:101080008CB58CBD8CB580618CBD8CB58CBD8CB5A0
:101090008CBD8CB582608CBD8CB58CBD8DB58DBD85
:1010A00008950C9435082898DC01FC01019000207B
:1010B000E9F73197E81BF90B9D01281B390B2E1717
:1010C0003F0710F0289A08952D912EBD0DB407FE0C
:1010D000FDCFEBCF680F791F8617970709F40895A6
:1010E000FC012191CF012EBD0DB407FEFDCFF4CF41
:1010F0008EBD0DB407FEFDCF08958EBD0DB407FE65
:10110000FDCF8EB5089508952898680F791F86172A
:10111000970711F4289A08951EBC0DB407FEFDCF61
:101120002EB5FC012193CF01F2CF680F791F8617EE
:10113000970709F408951EBC0DB407FEFDCF2EB528
:10114000FC012193CF01F3CF1EBC0DB407FEFDCFF0
:101150002EB5FC01208308950895CF93DF9300D02E
:1011600000D0CDB7DEB799838A837B836C8364E03C
:1011700070E0CE0101960E946A080F900F900F90C8
:101180000F90DF91CF910895CF93DF931F92CDB74A
:10119000DEB789832898CB01BA0192600E94AD081E
:1011A00061E070E0CE0101960E946A08289A0F90D3
:1011B000DF91CF9108950F931F93CF93DF93EC01AD
:1011C00089012898CB01BA0192600E94AD08B8014C
:1011D000CE010E946A08289ADF91CF911F910F914A
:1011E0000895CF93DF93EC0118822898CB01BA01C0
:1011F00093600E94AD081EBC0DB407FEFDCF8EB5F6
:101200008883289ADF91CF9108950F931F93CF93EE
:10121000DF93EC018B012898CA01B90193600E9409
:10122000AD08B801CE010E949508289ADF91CF91B0
:101230001F910F910895289885E08EBD0DB407FE8B
:10124000FDCF8FEF8EBD0DB407FEFDCF8EB5289A72
:101250000895982F9F7361F4289891E09EBD0DB476
:1012600007FEFDCF8EBD0DB407FEFDCF8EB5289ACB
:101270000895680F791F8617970711F408950000E5
:101280002091C00025FFFBCFFC012191CF012093CD
:10129000C600F1CFDC01FC0101900020E9F7319795
:1012A000E81BF90B9D01281B390B2E173F0710F087
:1012B000089500002091C00025FFFBCF2D912093C1
:1012C000C600E9CF08951092C50087E68093C40058
:1012D000E2ECF0E080818F70808380818860808381
:1012E000A0ECB0E08C918D7F8C93A1ECB0E088E114
:1012F0008C938C918B7F8C93808186608083089502
:1013000028E030E090E8482F4923409A59F043E024
:101310004A95F1F7409800C0000096952150310998
:1013200091F7089500C0409843E04A95F1F7F4CF53
:101330006F927F928F929F92AF92BF92CF92DF92E5
:10134000EF92FF920F931F93CF93DF93CDB7DEB74A
:10135000C85CD1090FB6F894DEBF0FBECDBF8C01BB
:101360004B01CE0101965C0188ECD5011D928A9556
:10137000E9F7D801ED91FC91D501309709F052C001
:10138000F80166817781C5010E943702EE24E3945B
:10139000F12CD12CC12CF4E6CF16D10408F04AC0B0
:1013A000F601EE0FFF1FEA0DFB1D808191818E1566
:1013B0009F0509F03FC0D8011A967C901A971B969A
:1013C0006C901B971C968C910E948009862D0E9420
:1013D0008009872D0E948009BFEFCB1ADB0ABFEF7F
:1013E000EB1AFB0AE1E0EE16E6E0FE06A1F64098F5
:1013F000F1E2FA95F1F70000C853DF4F0FB6F89409
:10140000DEBF0FBECDBFDF91CF911F910F91FF9037
:10141000EF90DF90CF90BF90AF909F908F907F9094
:101420006F900895848195818D939D930190F081B3
:10143000E02DA3CFF8018489882399F0D401149674
:101440008D919C918E159F0561F4768467848089C7
:101450000E948009862D0E948009872D0E948009A4
:10146000BECF80E00E94800980E00E94800980E079
:10147000F5CFCF93DF93C0E0D6E080E00E948009F3
:1014800080E00E94800980E00E9480092197A9F7EE
:10149000409881E28A95F1F70000DF91CF9108959D
:1014A000CF93DF93C4E2D1E08E819F810E94920CA2
:1014B0009D838C83DF91CF91089585B18E7D85B911
:1014C00023E02A95F1F70000289A83E08A95F1F746
:1014D000000028989FEF21EE84E09150204080404A
:1014E000E1F700C000000895CF93DF93EC018CEA90
:1014F0000E94780883E50E947808CE0140960E94F9
:10150000A40880E0DF91CF910C9478080F931F938B
:10151000CF938C01CBE00E945D0AC8010E94740A3F
:10152000F8019089933511F0C150A9F781E0933506
:1015300009F080E0CF911F910F9108950F931F93B1
:10154000CF938C01C62F80E30E94780880E00E9430
:1015500078088C2F0E947808C13069F030F0C230D2
:1015600069F0CF911F910F910895C801CF911F91FC
:101570000F910C94A408C8010196F8CFC8010296F7
:10158000F5CF0F931F93CF93DF938C01C62F662364
:10159000B9F080E5D0E0613009F0D8E00E94780829
:1015A0008D2F0E94780880E00E947808C13051F0A9
:1015B00088F0C23091F0DF91CF911F910F91089583
:1015C00088E5EBCFC8010B96DF91CF911F910F916A
:1015D0000C94A408C8010C96F7CFC8010D96F4CF5F
:1015E000CF93DF93FC0120853185232B29F0EC017B
:1015F00086819781892B81F5DF91CF91089580E4D1
:101600000E94780880E00E9478088B850E94780804
:101610008B8590E0880F991F2E813F81820F931F49
:10162000FC0180810E94780888E40E94780880E0AC
:101630000E9478088B850E9478082E813F818B85D7
:1016400091E0980F9B8790E0880F991F820F931F5E
:10165000FC0181810E9478089B858C85903438F448
:10166000288539859217130610F487FFC8CFF0E458
:101670008F9FC0011124998388838CE40E9478088D
:1016800089810E94780888810E94780880E00E9401
:1016900078088C858F5F8C871B862FEF89EF90E011
:1016A000215080409040E1F700C00000A5CFCF93CB
:1016B000DF93CDB7DEB7C456D1090FB6F894DEBFBD
:1016C0000FBECDBF8E010F5F1F4F84E6F801119250
:1016D0008A95E9F70E9463090E94350880E091E04D
:1016E0000E94860A882309F4CEC080E091E00E941F
:1016F000740A60E080E091E00E949E0A61E080E070
:1017000091E00E949E0A62E080E091E00E949E0AC1
:1017100061E080E091E00E94C10A60E080E091E039
:101720000E94C10A62E080E091E00E94C10A20911B
:101730000001822F90E0B0E0A0E0DC01992788272B
:1017400030910201832B4091010150E0542F442736
:1017500070E060E0842B952BA62BB72B80930301C0
:1017600090930401A0930501B09306011F922F935B
:1017700082E691E09F938F931F930F930E94250E13
:10178000C8010E944A09809101011F928F9385E749
:1017900091E09F938F931F930F930E94250EC80192
:1017A0000E944A09809102011F928F9388E891E07C
:1017B0009F938F931F930F930E94250EC8010E9441
:1017C0004A09809106018F93809105018F93809142
:1017D00004018F93809103018F938BE991E09F9394
:1017E0008F931F930F930E94250EC8010E944A09F0
:1017F00080910B011F921F921F928F9382EB91E0B9
:101800009F938F931F930F930E94250E0FB6F8940A
:10181000DEBF0FBECDBFC8010E944A0980910C01F6
:101820001F921F921F928F9385EC91E09F938F934D
:101830001F930F930E94250EC8010E944A098091B0
:101840000D011F921F921F928F9388ED91E09F933D
:101850008F931F930F930E94250EC8010E944A097F
:101860000FB6F894DEBF0FBECDBF8DEF91E00E94A2
:101870004A09FFEF23E284EFF15020408040E1F776
:1018800000C00000F2CF8DEE91E00E944A09EDCF3A
:1018900097FB072E16F4009407D077FD09D00E941D
:1018A0007E0C07FC05D03EF4909581959F4F0895DE
:1018B000709561957F4F0895A1E21A2EAA1BBB1B5C
:1018C000FD010DC0AA1FBB1FEE1FFF1FA217B3070C
:1018D000E407F50720F0A21BB30BE40BF50B661F22
:1018E000771F881F991F1A9469F7609570958095E6
:1018F00090959B01AC01BD01CF010895AA1BBB1BB4
:1019000051E107C0AA1FBB1FA617B70710F0A61BFF
:10191000B70B881F991F5A95A9F780959095BC0120
:10192000CD0108950F931F93CF93DF9382309105DC
:1019300010F482E090E0E0916B03F0916C0330E0F2
:1019400020E0B0E0A0E0309799F42115310509F4CA
:101950004AC0281B390B24303105D8F58A819B8178
:101960006115710589F1FB0193838283FE0111C02A
:10197000408151810281138148175907E0F04817CF
:10198000590799F4109761F012960C9312971396D9
:101990001C933296CF01DF91CF911F910F91089543
:1019A00000936B0310936C03F4CF2115310551F0B4
:1019B0004217530738F0A901DB019A01BD01DF018D
:1019C000F801C1CFEF01F9CF90936C0380936B03C3
:1019D000CDCFFE01E20FF31F819391932250310985
:1019E00039832883D7CF2091690330916A03232B51
:1019F00041F420915A0130915B0130936A032093A6
:101A0000690320915801309159012115310541F4A4
:101A10002DB73EB740915C0150915D01241B350B01
:101A2000E0916903F0916A03E217F307A0F42E1B1B
:101A30003F0B2817390778F0AC014E5F5F4F241732
:101A4000350748F04E0F5F1F50936A0340936903B8
:101A5000819391939FCFF0E0E0E09CCFCF93DF9311
:101A60000097E9F0FC01329713821282A0916B0378
:101A7000B0916C03ED0130E020E01097A1F42081DB
:101A80003181820F931F2091690330916A032817D7
:101A9000390709F061C0F0936A03E0936903DF91AD
:101AA000CF910895EA01CE17DF07E8F54A815B81FF
:101AB0009E0141155105B1F7E901FB83EA83499184
:101AC0005991C40FD51FEC17FD0761F480819181F6
:101AD0000296840F951FE9019983888382819381FF
:101AE0009B838A83F0E0E0E012968D919C9113979E
:101AF0000097B9F52D913C911197CD010296820F77
:101B0000931F2091690330916A032817390739F62A
:101B1000309751F510926C0310926B03B0936A03E7
:101B2000A0936903BCCFD383C28340815181840FCA
:101B3000951FC817D90761F44E5F5F4F888199815F
:101B4000480F591F518340838A819B8193838283ED
:101B50002115310509F0B0CFF0936C03E0936B03CE
:101B60009ECFFD01DC01C0CF13821282D7CF8F92AE
:101B70009F92AF92BF92CF92DF92EF92FF92CF935C
:101B8000DF93EC01688179818A819B816115710500
:101B90008105910521F464E279ED8BE597E02DE173
:101BA00033EF41E050E00E94C61049015A019B0109
:101BB000AC01A7EAB1E40E94E5106B017C01ACEE38
:101BC000B4EFA50194010E94F310DC01CB018C0D50
:101BD0009D1DAE1DBF1DB7FF03C00197A109B048F1
:101BE00088839983AA83BB839F77DF91CF91FF90EE
:101BF000EF90DF90CF90BF90AF909F908F9008951F
:101C00000E94B70D08958EE591E00E94B70D0895EA
:101C1000B0E0A0E080935E0190935F01A09360012B
:101C2000B09361010895DC0101C06D9341505040B3
:101C3000E0F70895FB01DC010D900020E9F7119712
:101C400001900D920020E1F70895AEE0B0E0EBE2E4
:101C5000FEE00C9406110D891E8986E08C831A83A0
:101C600009838FEF9FE79E838D83AE01475E5F4FB1
:101C70006F89788DCE0101960E94480E2F8138859C
:101C8000020F131FF80110822E96E4E00C9422112B
:101C9000ABE0B0E0EEE4FEE00C94F8107C013B0118
:101CA0008A01FC0117821682838181FFC8C1CE019F
:101CB00001965C01F7019381F30193FD859193FFF8
:101CC00081913F01882309F453C1853239F493FD92
:101CD000859193FF81913F01853229F4B70190E00E
:101CE0000E943810E7CF912C212C312CFFE1F31505
:101CF00038F08B3211F190F4803209F1833229F1FE
:101D000037FC3CC020ED280F2A3050F536FE20C0AD
:101D10008AE0989E200D1124922E06C08D3291F0FB
:101D2000803371F7689430F8F30193FD859193FF48
:101D300081913F018111DACF21C0689431F8689414
:101D400032F8F2CF689433F8EFCF689434F8ECCFE0
:101D5000EAE02E9E200D1124222E689435F8E4CF5F
:101D60008E3229F436FC04C1689436F8DDCF8C3607
:101D700019F4689437F8D8CF8836B1F2982F9F7D40
:101D800095549330E0F08336A1F18337C1F1833568
:101D900009F063C02801F2E04F0E511CF801C08029
:101DA000D180692D70E036FC02C06FEF7FEFC60175
:101DB0000E9422104C01689437F882010AC00C5F1F
:101DC0001F4FFFE3F98388248394912C6501E894E5
:101DD00037F833FE2DC0522C8114910471F5552033
:101DE00009F468CFB70180E290E00E9438105A945D
:101DF000F6CFF801808189830E5F1F4FE4CF280161
:101E0000F2E04F0E511CF801C080D180692D70E0C6
:101E100036FC02C06FEF7FEFC6010E942D104C010F
:101E20008201D5CFB70180E290E00E9438102A9459
:101E30002814190409F0B0F7CECFF60137FC8591CC
:101E400037FE81916F01B70190E00E943810511068
:101E50005A94F1E08F1A9108BFCF843619F0893671
:101E600009F077C0F80137FE6BC060817181828113
:101E700093810C5F1F4FF32DFF763F2E97FF09C014
:101E800090958095709561957F4F8F4F9F4F689487
:101E900037F82AE030E0A5010E946810C82ECA1861
:101EA0008C2C432C36FE0CC0E89440F8C91440F446
:101EB00034FE05C032FC03C0F32DFE7E4F2E892C6C
:101EC00044FE95C0FE01EC0DF11D8081803309F0C8
:101ED00087C0242D297E422E842D8870582E43FCE5
:101EE00095C040FE8FC09C2C821418F42C0C922CB0
:101EF000981844FE91C0B70180E390E00E9438102A
:101F000042FE09C088E790E041FE02C088E590E00B
:101F1000B7010E943810C91408F48AC0CA94D12CA1
:101F20009FEFC91AD90ACA0CDB1CF60182916F0116
:101F3000B70190E00E943810AC14BD04B1F74FCF48
:101F400060817181072E000C880B990B0E5F1F4F6B
:101F500092CFD32CE894D4F82AE030E0853739F1D9
:101F6000232D297FD22E8F3601F148F48835A9F030
:101F7000F701868197812B96E2E10C94141180374A
:101F800049F08837A9F7D4FE02C06894D2F820E15E
:101F900030E00DC06894D4F8F6CF34FE03C0822F31
:101FA0008660D82E20E132E002C028E030E0F8015F
:101FB000D7FE0FC060817181828193810C5F1F4FBA
:101FC000A5010E946810C82ECA183D2CE89437F865
:101FD00067CF6081718190E080E00E5F1F4FF0CF8E
:101FE00042FC02C0839478CF8394839475CF842D70
:101FF000867809F471CFF6CFB70180E290E00E94B5
:10200000381083948214C0F3512C73CF522C58187B
:10201000821408F46ECFF8CF842D867809F47BCF34
:102020008BE241FE80E247FC8DE2B70190E071CF88
:10203000B70180E390E00E9438109A946CCF8FEF44
:102040009FEF99CFFC010590615070400110D8F7C7
:10205000809590958E0F9F1F0895FC0161507040F0
:1020600001900110D8F7809590958E0F9F1F0895CD
:102070000F931F93CF93DF93182F092FEB018B81C1
:1020800081FD09C01FEF0FEF812F902FDF91CF91BE
:102090001F910F91089582FF14C02E813F818C8182
:1020A0009D81281739073CF4E881F981CF01019619
:1020B0009983888310838E819F8101969F838E836D
:1020C000E3CFE885F985812F0995892BA1F3DACF34
:1020D000FA01AA27283051F1203181F1E8946F9359
:1020E0006E7F6E5F7F4F8F4F9F4FAF4FB1E03ED0FF
:1020F000B4E03CD0670F781F891F9A1FA11D680F9D
:10210000791F8A1F911DA11D6A0F711D811D911DCF
:10211000A11D20D009F468943F912AE0269F112444
:102120003019305D3193DEF6CF010895462F4770A8
:10213000405D4193B3E00FD0C9F7F6CF462F4F7003
:10214000405D4A3318F0495D31FD4052419302D061
:10215000A9F7EACFB4E0A695979587957795679507
:10216000BA95C9F700976105710508959B01AC0107
:102170000A2E06945795479537952795BA95C9F72E
:10218000620F731F841F951FA01D0895052E97FBD6
:102190001EF400940E94DD1057FD07D00E945C0CD5
:1021A00007FC03D04EF40C94DD105095409530950B
:1021B00021953F4F4F4F5F4F0895909580957095B3
:1021C00061957F4F8F4F9F4F08950E942F11A59FBC
:1021D000900DB49F900DA49F800D911D1124089522
:1021E000B7FF0C94E5100E94E510821B930B089535
:1021F0002F923F924F925F926F927F928F929F9217
:10220000AF92BF92CF92DF92EF92FF920F931F9304
:10221000CF93DF93CDB7DEB7CA1BDB0B0FB6F894B5
:10222000DEBF0FBECDBF09942A88398848885F84F5
:102230006E847D848C849B84AA84B984C884DF8066
:10224000EE80FD800C811B81AA81B981CE0FD11D4A
:102250000FB6F894DEBF0FBECDBFED010895A29F6B
:10226000B001B39FC001A39F700D811D1124911D6A
:10227000B29F700D811D1124911D0895F894FFCF18
:10228000000000000000000000000000000000004E
:10229000FF00FF2700000000000000000000000019
:1022A000000000000000000000000600FFFF00002A
:1022B000000040420F000127000000000000210143
:1022C0000805000000000000000000030000FFD728
:1022D000000000FF0000000000006D03200001006E
:1022E00000004465766963652056656E646F723AD6
:1022F0002025580A004465766963652046616D694A
:102300006C793A2025580A00446576696365204E49
:10231000756D6265723A2025580A004465766963D6
:1023200065205369676E61747572653A20256C5833
:102330000A00446576696365206C667573653A20AA
:10234000256C580A00446576696365206866757374
:10235000653A20256C580A004465766963652065F6
:102360007874667573653A20256C580A0046616971
:102370006C656420746F2053796E630A006C4F4F54
:1023800050494E470A0049542053484F554C442069
:10239000484552450A0042656C6C7920436F756E62
:1023A000743A2025640A004572722E2E6932634306
:1023B0006F6E663C496E76616C6964204D6F646532
:1023C0003E002E2E2E20466C6167203C5354415215
:1023D000545F52455452414E534D49545445443E26
:1023E0000A002E2E2E20466C6167203C534C415F24
:1023F000504C55535F575F41434B3E0A002E2E2EE3
:10240000204572726F72466C6167203C534C415F8D
:10241000504C55535F575F4E4F545F41434B3E0AFC
:10242000002E2E2E20466C6167203C444154415FB3
:10243000425954455F5452414E534D4954544544BA
:102440005F41434B3E0A002E2E2E204572726F7262
:10245000466C6167203C444154415F425954455F9A
:102460005452414E534D49545445445F4E4F5F4181
:10247000434B3E0A002E2E2E204572726F72466C20
:102480006167203C4152424954524154494F4E5F8A
:102490004C4F53543E0A00556E6B6E6F776E20465C
:1024A0004C61670A0069326357726974655F506FE7
:0224B0006C00BE
:00000001FF
