:100000000C9434000C9451000C9451000C94510049
:100010000C9451000C941A090C9451000C9451004A
:100020000C9451000C9451000C9451000C9451000C
:100030000C9451000C9451000C9451000C945100FC
:100040000C9451000C9451000C9451000C945100EC
:100050000C9451000C9451000C9451000C945100DC
:100060000C9451000C94510011241FBECFEFD4E02A
:10007000DEBFCDBF12E0A0E0B1E0EEEDF1E202C0E4
:1000800005900D92A03AB107D9F722E0A0EAB2E0BC
:1000900001C01D92AB3DB207E1F70E94A30B0C9487
:1000A000ED100C94000088B1806388B985E08A95D2
:1000B000F1F70000459885E08A95F1F70000089572
:1000C0004498459A85E08A95F1F70000459885E0C7
:1000D0008A95F1F7000008950E9453000E94530092
:1000E0000E9453000E9460000E9460000E94600015
:1000F0000E9453000C9453000F931F93CF93DF93F0
:10010000C0E2D0E00E9460002197E1F7C4ECD0E0AB
:100110000E946C000E9453000E9453000E945300F2
:100120000E9453000E9453000E9453000E945300FB
:100130000E9453000E9460000E9460000E946000C4
:100140000E9460000E9460000E9460000E946000A7
:100150000E9460000E9460000E9460000E94600097
:100160000E9460000E9460000E9460000E94600087
:100170000E946000219761F6C0E2D0E00E94530027
:100180002197E1F72FEF83ED90E3215080409040DD
:10019000E1F700C00000C0E2D0E00E9460002197BB
:1001A000E1F7C4ECD0E00E946C000E9460000E9465
:1001B00060000E9460000E9460000E9460000E9437
:1001C00060000E9460000E9460000E9453000E9434
:1001D00053000E9453000E9453000E9453000E944B
:1001E00053000E9453000E9453000E9460000E942E
:1001F00060000E9460000E9460000E9460000E94F7
:1002000060000E9460000E946000219761F6C0E2D9
:10021000D0E00E9453002197E1F72FEF83ED90E3A8
:10022000215080409040E1F700C00000C0E2D0E0E3
:100230000E9460002197E1F7C4ECD0E00E946C00BE
:100240000E9460000E9460000E9460000E946000A6
:100250000E9460000E9460000E9460000E94600096
:100260000E9460000E9460000E9460000E94600086
:100270000E9460000E9460000E9460000E94600076
:100280000E9453000E9453000E9453000E9453009A
:100290000E9453000E9453000E9453000E9453008A
:1002A000219761F6C0E2D0E00E9453002197E1F768
:1002B0002FEF83ED90E3215080409040E1F700C0A4
:1002C0000000C0E2D0E00E9460002197E1F7C4EC9A
:1002D000D0E00E946C0008E110E00E946000015034
:1002E0001109D9F72197A9F7C0E2D0E00E94530085
:1002F0002197E1F7DF91CF911F910F9108950F930F
:100300001F93CF93DF938C01EB01DC0116964D9187
:100310005C91179770E060E014968D919C910E941B
:10032000BB0D82E0C115B2E0DB0781F0C115E4E04E
:10033000DE0739F080E0C115F8E0DF0739F483E02B
:1003400005C083E791E00E94900A81E08C60D801AB
:100350001496ED91FC9115979C2F907F982B90838C
:100360001496ED91FC91159790819B7F9183EFE31B
:10037000FFE13197F1F700C000001496ED91FC9178
:100380001597C295C07FC82BC2831496ED91FC913E
:10039000159782818B7F83831496ED91FC91148253
:1003A000DF91CF911F910F9108950F931F93CF93DA
:1003B000DF93EC018B0168E270E00E947F018C8189
:1003C0009D8199838883B801CE010E94D2088FE86D
:1003D00091E00197F1F700C0000068E270E0CE0103
:1003E0000E947F018C819D8199838883B801CE0111
:1003F0000E94D208AFE8B1E01197F1F700C0000009
:1004000061E070E0CE010E947F018C819D81998323
:100410008883B801CE010E94D2088FED9EE2019739
:10042000F1F700C0000066E070E0CE010E947F019D
:100430008C819D8199838883B801CE010E94D20866
:10044000AFE8B1E01197F1F700C000006FE070E095
:10045000CE010E947F018C819D8199838883B801A0
:10046000CE010E94D2088FE891E00197F1F700C019
:10047000000064E170E0CE010E947F018C819D81CB
:1004800099838883B801CE010E94D208AFE8B1E019
:100490001197F1F700C0000062E070E0CE010E9409
:1004A0007F018C819D8199838883B801CE010E9450
:1004B000D2088FED9EE20197F1F700C00000EC81B9
:1004C000FD8186E0DF011D928A95E9F7DF91CF91EA
:1004D0001F910F910895CF92DF92EF92FF920F93A9
:1004E0001F93CF93DF936C01FC01C081D181FE018A
:1004F00001900020E9F78F010150110980EAE82EF0
:1005000082E0F82EC017D10749F4DF91CF911F91F7
:100510000F91FF90EF90DF90CF9008958991982FE1
:10052000907F9D609093A0029B7F9093A102F0E149
:100530008F02C00111248D608093A2028B7F809373
:10054000A3021092A402F601F182E082C6010E9489
:1005500054088FEE90E00197F1F700C00000D2CF71
:10056000EF92FF920F931F93CF93DF93DC01ED90F7
:10057000FC90E114F10489F18B01EC0160E870E07A
:100580000E947F018C819D8199838883B801CE016F
:100590000E94D208EFE8F1E03197F1F700C00000C7
:1005A00060E074E0CE010E947F018C819D8199837F
:1005B0008883C8010E94F807CE010E945408F9827E
:1005C000E882CE010E946B020E941F08EC81FD812F
:1005D00086E0DF011D928A95E9F7DF91CF911F91A7
:1005E0000F91FF90EF900895DF92EF92FF920F939B
:1005F0001F93CF93DF930097F9F0122FD42E7B0136
:10060000EC0189E090E00E943A0CFC01892BA1F0FA
:1006100000871382128211821082D6821783F5829C
:10062000E4828E819F81009779F4F983E883FB83CC
:10063000EA8301969F838E83DF91CF911F910F9163
:10064000FF90EF90DF900895A881B981B183A083D6
:100650001396FC93EE931297F983E883EACFCF9336
:10066000DF93EC01892BA1F088819981009781F0BB
:100670002A813B818217930771F4198218821B82A9
:100680001A820E94D60C8E819F8101979F838E8350
:10069000DF91CF910895FC01A081B181B983A88336
:1006A00013961C921E921297ECCFCF93DF93EC011E
:1006B0008E819F81892B19F4DF91CF910895CE010E
:1006C0000E942F03F5CF0F931F93CF93DF93FC016D
:1006D000329681E090E08617970728F0DF91CF915E
:1006E0001F910F910895DF014D915D919C01215063
:1006F00031098F0137FD05C0D291C2914C175D07BA
:1007000030F0F801518340830196FD01E4CFD3839B
:10071000C283EDCFCF92DF92EF92FF920F93CF93F0
:10072000DF936C017B01C6E1D0E04C2F4F5FCE011F
:1007300023E0959587952A95E1F7982F990F990FC2
:10074000990F642F691B262F30E028583F4F61E036
:10075000680F6150770B762F6627620F731F00E0DA
:1007600020E1C6010E94F4022197C230D105E9F6CA
:10077000B701C601DF91CF910F91FF90EF90DF900D
:10078000CF900C94DE0ADC01ED91FC91309711F4CE
:1007900081E00895848195818617970721F0019063
:1007A000F081E02DF3CF80E008953F924F925F9269
:1007B0006F927F928F929F92AF92BF92CF92DF9271
:1007C000EF92FF920F931F93CF93DF93CDB7DEB7D6
:1007D000A0970FB6F894DEBF0FBECDBFFB01A4817A
:1007E000B581A417B50709F0C7C0F9017B016C01F9
:1007F00081E08083FB01008527814681BD01C60120
:100800000E94F402F60187818F9386818F9383E89B
:1008100091E09F938F93CE0101969F938F930E94B7
:10082000D40D0F900F900F900F900F900F9070E3DA
:10083000672E712CE0E28E2E912CAA24A394B12C69
:100840000E94AB0DB3010E94F00B44244394480E68
:100850000E94AB0DB4010E94F00B55245394580E26
:10086000842D90E0F52DF1703F2E252D30E0FC0118
:100870003197F7FD379643E0F595E7954A95E1F70F
:10088000EF5F4E2F4150550B58A34F8F742F6627A3
:1008900031104DC0A9014150510903E0440F551FCB
:1008A0000A95E1F7480F591F460F571FF601A0811F
:1008B000B18110E0109709F046C0112309F4C0CFB0
:1008C000F70146825782EF8DF8A1A3E0EE0FFF1FDC
:1008D000AA95E1F78E1B9F0B311042C021503109C0
:1008E00053E0220F331F5A95E1F7820F931F680FD1
:1008F000791FF70175836483808591E08927A0962D
:100900000FB6F894DEBF0FBECDBFDF91CF911F9120
:100910000F91FF90EF90DF90CF90BF90AF909F909E
:100920008F907F906F905F904F903F900895D5018A
:10093000A81BB90BA90113E0440F551F1A95E1F745
:100940004A0F5B1FB1CF14960D911C911597041798
:10095000150709F475CF0D90BC91A02D11E0AACF19
:1009600043E0220F331F4A95E1F7281B390B2F5F15
:100970003F4F620F731FBDCF81E0C1CF8F929F9217
:10098000AF92BF92CF92DF92EF92FF920F931F939D
:10099000CF93DF931F92CDB7DEB7009709F451C014
:1009A0006115710509F44DC0DC01ED91FC911197C1
:1009B00086809780198218962C91223009F458C0AD
:1009C00008F04DC0213009F451C0B0E3B81508F467
:1009D00053C0882009F453C0E0E2E91508F452C07E
:1009E000992009F452C0E82DF0E09F01215031090F
:1009F00013E0359527951A95E1F7A90103E0440F17
:100A0000551F0A95E1F7E41BF50B492D50E0122F15
:100A1000002790FC3DC041505109B3E0440F551FE1
:100A2000BA95E1F70E0F1F1F040F151F5B017C0124
:100A3000B8010E94C303811135C081E0D7015396EC
:100A40008C930F90DF91CF911F910F91FF90EF90BA
:100A5000DF90CF90BF90AF909F908F9008952330FC
:100A600049F0243009F0B1CF8394AFCF9394ADCF48
:100A70009A94ABCF8A94A9CF88248394ADCF10E306
:100A8000812EAACF99249394AECFB0E29B2EABCF08
:100A90000F5F1F4F0E1B1F0BA3E0440F551FAA959E
:100AA000E1F7C2CF9E012F5F3F4FA801B501C701FB
:100AB0000E94D503882309F2F701C080D180898183
:100AC000811129C0A281B3811296ED91FC911397F7
:100AD000309789F4D60116968C92169717969C92A9
:100AE000179715961C930E9314971982B501C70199
:100AF0000E94DE0AA6CF868116968C931697878170
:100B000017968C9317978481958115969C938E9355
:100B10001497DF01D9CFF60186809780D701189608
:100B20008C91823009F45FC008F054C0813009F420
:100B300058C0B0E3B81508F45AC0882009F45AC068
:100B4000E0E2E91508F459C0992009F459C0482D8C
:100B500050E0CA01019723E0959587952A95E1F722
:100B60009C0163E0220F331F6A95E1F7421B530B90
:100B7000292D30E0182F002790FC45C02150310965
:100B800093E0220F331F9A95E1F7040F151F020F10
:100B9000131FB801C7010E94C303882309F44DCF76
:100BA000F701A281B3811296ED91FC9113973097D2
:100BB00009F490CF868116968C93169787811796A5
:100BC0008C9317978481958115969C938E93149797
:100BD000DF01E9CF833049F0843009F0AACF839454
:100BE000A8CF9394A6CF9A94A4CF8A94A2CF882416
:100BF0008394A6CFF0E38F2EA3CF99249394A7CF0D
:100C0000E0E29E2EA4CF0F5F1F4F041B150B83E065
:100C1000220F331F8A95E1F7BACF2F923F924F925E
:100C20005F926F927F928F929F92AF92BF92CF927C
:100C3000DF92EF92FF920F931F93CF93DF9300D039
:100C400000D000D01F92CDB7DEB77C015B01412CF4
:100C5000A2E0CA2ED12C10E1B8E15B2E222423940D
:100C6000312C612E712CC30123E0880F991F2A9526
:100C7000E1F79F838E8391E0691A710833E0660C77
:100C8000771C3A95E1F7CB821982E12FE170ED8371
:100C90004110EEC05A94852C912CB4016150710919
:100CA00077FF02C0695F7F4FE3E075956795EA952E
:100CB000E1F7862F880F880F880F252D281B822F9C
:100CC00090E06F5F6150770B762F66273D81311181
:100CD000D1C0860D971D680F791F00E0212F452D8B
:100CE000C7010E94F402B501C7010E94DE0A3FEF6E
:100CF00080E792E0315080409040E1F700C0000072
:100D0000E981EF5FE983FB81EF13C2CF96012F5F8B
:100D10003F4F3C832B83C40101979A83898397FFBC
:100D200004C0F4013696FA83E98329813A8163E0AD
:100D3000359527956A95E1F7822F880F880F880FE0
:100D4000852C881A912CC101881999099A83898365
:100D50002F5FE22FE150FF0B3E2F22273F832E8390
:100D6000712C612C41108FC01150612F70E010FD6B
:100D70008CC06150710953E0660F771F5A95E1F7F7
:100D8000680D791D8E819F81680F791F00E0212FEA
:100D9000452DC7010E94F402B501C7010E94DE0A79
:100DA0003FEF80E792E0315080409040E1F700C093
:100DB0000000EFEF6E1A7E0A2B813C8162167306EB
:100DC00088F232E0C30ED11C81E04826B501C7018C
:100DD0000E94DE0A9FEFE0E7F2E09150E040F04031
:100DE000E1F700C0000026E0C216D10409F039CFB7
:100DF00080E09FEFA0E0B0E0F70182879387A487AF
:100E0000B58724E030E03A8329830E947F0BB50147
:100E1000C7010E94DE0A3FEF85EA9EE03150804024
:100E20009040E1F700C00000E981FA813197FA8330
:100E3000E983EF2B51F70E947F0BC70127960FB66E
:100E4000F894DEBF0FBECDBFDF91CF911F910F9100
:100E5000FF90EF90DF90CF90BF90AF909F908F90DA
:100E60007F906F905F904F903F902F900C94550320
:100E7000539411CFF101E81BF90BCF012E813F8173
:100E8000820F931F28CF1F5F70CF43E0660F771F3D
:100E90004A95E1F7E981FA816E0F7F1F2E813F812C
:100EA000620F731F73CFEF92FF920F931F93CF9335
:100EB000DF93EC017B0180E09FEFA0E0B0E08A8748
:100EC0009B87AC87BD870AE010E00E947F0BB701CB
:100ED000CE010E94DE0A2FEF85EA9EE0215080407D
:100EE0009040E1F700C000000150110971F7CE01F8
:100EF000DF91CF911F910F91FF90EF900C945503CC
:100F00008AB1837C8AB98BB18C638BB9DA9AEDE6AE
:100F1000F0E080818C638083E8E6F0E0808184608B
:100F20008083789408950E9480070E94A90A0C94F7
:100F3000610986B590E025EA822792270C94B00DCE
:100F4000CF93DF93EC018885843081F108F58130FF
:100F500039F12C813D814E815F8160E074E284EF44
:100F600090E00E94040CCA01B90160517109810925
:100F70009109288530E0220F331F032E000C440B0B
:100F8000550B0E94040C2093B800DF91CF91089577
:100F90008031A9F08034E9F68091B900826009C0FF
:100FA0008091B9008C7F8093B900D3CF8091B90034
:100FB0008D7F8093B9008091B9008160F4CF8091DA
:100FC000B90082608093B9008091B9008E7FEBCF29
:100FD000FC018385823038F08051823020F084E932
:100FE00091E00C94900A0895089508950895089545
:100FF000FC019185990F82858170892B9091BC00AD
:10100000946A9093BC009091BC0097FFFCCF8093B2
:10101000BB008091BC008F7D8093BC008091BC00A0
:1010200084688093BC008091BC0087FFFCCF8091D6
:10103000B900887F08958091B900887F0895ECEB0E
:10104000F0E08081846980838091B900887F089571
:101050000F931F93CF93DF938C01EB01FC019185DC
:101060008B85981719F0CB010E94E807F80190854D
:101070008985981719F0CE010E94A0071AE0CE01C9
:101080000E94F807883159F09091BC0094699093C0
:10109000BC00F5E0FA95F1F70000115081F7DF91FF
:1010A000CF911F910F91089530E020E064E8FC019A
:1010B000428153812417350708F008954091BC0000
:1010C00047FFFCCFDC01ED91FC91E20FF31F408163
:1010D0004093BB006093BC004091B9004832E1F7F7
:1010E0002F5F3F4FE4CF009781F0FC018081918119
:1010F000892B59F0672B49F08091BC00846980935B
:10110000BC008091B900887F0895089508950F93D9
:101110001F93CF93DF93CDB7DEB7EC970FB6F8945C
:10112000DEBF0FBECDBF8E010F5F1F4F8CE3F801F6
:1011300011928A95E9F7C8010E94C20D8091B90009
:10114000887F803231F148F4883081F06FEC71E0B3
:10115000883171F084E892E00FC08033E9F0883381
:10116000F1F08832B9F76EE072E002C06FEA71E028
:10117000C8010E94C20DC8010E94900AEC960FB6E9
:10118000F894DEBF0FBECDBFDF91CF911F910F91BD
:1011900008956AEE71E0ECCF64E372E0E9CF62E6B5
:1011A00072E0E6CF0F931F93CF93DF93009709F47C
:1011B0003FC0FC0120813181232BD1F161157105E4
:1011C000B9F18B01EC010E9428088091B900887F59
:1011D000883151F162E972E0C8010E94870880916C
:1011E000BC0084698093BC008091B900887FDF9146
:1011F000CF911F910F9108952091BC0027FFFCCF44
:10120000E881F981E80FF91F20812093BB0040930A
:10121000BC002091B9002832E1F701962A813B8178
:101220008217930748F3DBCF90E080E044E8F6CFE5
:1012300081E0DDCF1F920F920FB60F9211248F9392
:101240009F9399B18091000189279093000182FFBB
:101250000AC091E09093390190933A019091430133
:101260009F5F9093430183FF0BC092E090933901FD
:1012700091E090933A01909143019F5F90934301D5
:1012800084FF0BC093E09093390191E090933A0171
:10129000909143019F5F9093430185FF0BC084E0D1
:1012A0008093390181E080933A01809143018F5FFF
:1012B000809343019F918F910F900FBE0F901F90CD
:1012C000189584B1896384B92A9A2498289A8CB590
:1012D0008CBD8CB580648CBD8CB58CBD8CB58061AB
:1012E0008CBD8CB58CBD8CB58CBD8CB582608CBD35
:1012F0008CB58CBD8DB58DBD089584B18D6284B9DA
:101300002A9A2498289A8CB58CBD8CB580648CBDA3
:101310008CB58CBD8CB580618CBD8CB58CBD8CB50D
:101320008CBD8CB582608CBD8CB58CBD8DB58DBDF2
:1013300008952898DC01FC0101900020E9F731971D
:10134000E81BF90B9D01281B390B2E173F0710F0E6
:10135000289A08952D912EBD0DB407FEFDCFEBCF39
:10136000680F791F8617970709F40895FC012191EA
:10137000CF012EBD0DB407FEFDCFF4CF8EBD0DB451
:1013800007FEFDCF08958EBD0DB407FEFDCF8EB5CF
:10139000089508952898680F791F8617970711F404
:1013A000289A08951EBC0DB407FEFDCF2EB5FC0192
:1013B0002193CF01F2CF680F791F8617970709F4A1
:1013C00008951EBC0DB407FEFDCF2EB5FC01219380
:1013D000CF01F3CF1EBC0DB407FEFDCF2EB5FC012F
:1013E000208308950895CF93DF9300D000D0CDB728
:1013F000DEB799838A837B836C8364E070E0CE01DF
:1014000001960E94B0090F900F900F900F90DF91FE
:10141000CF910895CF93DF931F92CDB7DEB7898325
:101420002898CB01BA0192600E94F30961E070E054
:10143000CE0101960E94B009289A0F90DF91CF91BA
:1014400008950F931F93CF93DF93EC0189012898A0
:10145000CB01BA0192600E94F309B801CE010E944B
:10146000B009289ADF91CF911F910F910895CF93E2
:10147000DF93EC0118822898CB01BA0193600E9497
:10148000F3091EBC0DB407FEFDCF8EB58883289AE4
:10149000DF91CF9108950F931F93CF93DF93EC01CA
:1014A0008B012898CA01B90193600E94F309B80121
:1014B000CE010E94DB09289ADF91CF911F910F91F5
:1014C0000895289885E08EBD0DB407FEFDCF8FEFFF
:1014D0008EBD0DB407FEFDCF8EB5289A0895982FC6
:1014E0009F7361F4289891E09EBD0DB407FEFDCF77
:1014F0008EBD0DB407FEFDCF8EB5289A0895680FF6
:10150000791F8617970711F4089500002091C000F5
:1015100025FFFBCFFC012191CF012093C600F1CF25
:10152000DC01FC0101900020E9F73197E81BF90B81
:101530009D01281B390B2E173F0710F0089500005E
:101540002091C00025FFFBCF2D912093C600E9CF4D
:1015500008951092C50087E68093C400E2ECF0E0A5
:1015600080818F708083808188608083A0ECB0E070
:101570008C918D7F8C93A1ECB0E088E18C938C9161
:101580008B7F8C93808186608083089528E030E093
:1015900090E8482F4923409A59F043E04A95F1F7E3
:1015A000409800C0000096952150310991F70895A8
:1015B00000C0409843E04A95F1F7F4CF6F927F92D4
:1015C0008F929F92AF92BF92CF92DF92EF92FF9253
:1015D0000F931F93CF93DF93CDB7DEB7C85CD109CC
:1015E0000FB6F894DEBF0FBECDBF8C014B01CE010C
:1015F00001965C0188ECD5011D928A95E9F7D80126
:10160000ED91FC91D501309709F052C0F801668147
:101610007781C5010E946303EE24E394F12CD12C61
:10162000C12CF4E6CF16D10408F04AC0F601EE0F43
:10163000FF1FEA0DFB1D808191818E159F0509F02A
:101640003FC0D8011A967C901A971B966C901B97F6
:101650001C968C910E94C60A862D0E94C60A872D70
:101660000E94C60ABFEFCB1ADB0ABFEFEB1AFB0AD8
:10167000E1E0EE16E6E0FE06A1F64098F1E2FA950A
:10168000F1F70000C853DF4F0FB6F894DEBF0FBE6E
:10169000CDBFDF91CF911F910F91FF90EF90DF9021
:1016A000CF90BF90AF909F908F907F906F90089554
:1016B000848195818D939D930190F081E02DA3CF3E
:1016C000F8018489882399F0D40114968D919C9116
:1016D0008E159F0561F47684678480890E94C60A0E
:1016E000862D0E94C60A872D0E94C60ABECF80E0C2
:1016F0000E94C60A80E00E94C60A80E0F5CFCF9320
:10170000DF93C0E0D6E080E00E94C60A80E00E943D
:10171000C60A80E00E94C60A2197A9F7409881E294
:101720008A95F1F70000DF91CF910895CF93DF9371
:10173000C2E1D1E08E819F810E943A0C9D838C830F
:10174000DF91CF910895CF93DF93CDB7DEB76E973A
:101750000FB6F894DEBF0FBECDBF87B1806387B9E7
:1017600088B1806388B9389A0E947F0B60E571E088
:101770008E010F5F1F4FC8010E94CD0DC8010E944E
:10178000900A2FEF81EE94E0215080409040E1F7E5
:1017900000C000008091120190911301FC010190A2
:1017A0000020E9F73197AF01481B590B70E060E06A
:1017B0000E94BB0D10931301009312010E947C0044
:1017C00069E070E08AE691E00E947F0A2FEF89E6E7
:1017D00098E1215080409040E1F700C00000EECF3A
:1017E00097FB072E16F4009407D077FD09D00E94CE
:1017F000260C07FC05D03EF4909581959F4F0895E7
:10180000709561957F4F0895A1E21A2EAA1BBB1B0C
:10181000FD010DC0AA1FBB1FEE1FFF1FA217B307BC
:10182000E407F50720F0A21BB30BE40BF50B661FD2
:10183000771F881F991F1A9469F760957095809596
:1018400090959B01AC01BD01CF010895AA1BBB1B64
:1018500051E107C0AA1FBB1FA617B70710F0A61BB0
:10186000B70B881F991F5A95A9F780959095BC01D1
:10187000CD0108950F931F93CF93DF93823091058D
:1018800010F482E090E0E091D902F091DA0230E0C9
:1018900020E0B0E0A0E0309799F42115310509F47B
:1018A0004AC0281B390B24303105D8F58A819B8129
:1018B0006115710589F1FB0193838283FE0111C0DB
:1018C000408151810281138148175907E0F0481780
:1018D000590799F4109761F012960C93129713968A
:1018E0001C933296CF01DF91CF911F910F910895F4
:1018F0000093D9021093DA02F4CF2115310551F08B
:101900004217530738F0A901DB019A01BD01DF013D
:10191000F801C1CFEF01F9CF9093DA028093D90299
:10192000CDCFFE01E20FF31F819391932250310935
:1019300039832883D7CF2091D7023091D802232B27
:1019400041F420914801309149013093D80220930D
:10195000D70220914601309147012115310541F40C
:101960002DB73EB740914A0150914B01241B350BD6
:10197000E091D702F091D802E217F307A0F42E1BF2
:101980003F0B2817390778F0AC014E5F5F4F2417E3
:10199000350748F04E0F5F1F5093D8024093D7028F
:1019A000819391939FCFF0E0E0E09CCFCF93DF93C2
:1019B0000097E9F0FC01329713821282A091D902BC
:1019C000B091DA02ED0130E020E01097A1F420811F
:1019D0003181820F931F2091D7023091D8022817AE
:1019E000390709F061C0F093D802E093D702DF9184
:1019F000CF910895EA01CE17DF07E8F54A815B81B0
:101A00009E0141155105B1F7E901FB83EA83499134
:101A10005991C40FD51FEC17FD0761F480819181A6
:101A20000296840F951FE9019983888382819381AF
:101A30009B838A83F0E0E0E012968D919C9113974E
:101A40000097B9F52D913C911197CD010296820F27
:101A5000931F2091D7023091D8022817390739F601
:101A6000309751F51092DA021092D902B093D80251
:101A7000A093D702BCCFD383C28340815181840F0E
:101A8000951FC817D90761F44E5F5F4F8881998110
:101A9000480F591F518340838A819B81938382839E
:101AA0002115310509F0B0CFF093DA02E093D902A5
:101AB0009ECFFD01DC01C0CF13821282D7CF8F925F
:101AC0009F92AF92BF92CF92DF92EF92FF92CF930D
:101AD000DF93EC01688179818A819B8161157105B1
:101AE0008105910521F464E279ED8BE597E02DE124
:101AF00033EF41E050E00E94751049015A019B010B
:101B0000AC01A7EAB1E40E9494106B017C01ACEE39
:101B1000B4EFA50194010E94A210DC01CB018C0D51
:101B20009D1DAE1DBF1DB7FF03C00197A109B048A1
:101B300088839983AA83BB839F77DF91CF91FF909E
:101B4000EF90DF90CF90BF90AF909F908F900895CF
:101B50000E945F0D08958CE491E00E945F0D08954E
:101B6000B0E0A0E080934C0190934D01A0934E0112
:101B7000B0934F010895DC0101C06D934150504076
:101B8000E0F70895FB01DC010D900020E9F71197C3
:101B900001900D920020E1F70895FB01DC01019016
:101BA0000D920020E1F70895AEE0B0E0EAEDFDE02F
:101BB0000C94B5100D891E8986E08C831A830983E5
:101BC0008FEF9FE79E838D83AE01475E5F4F6F89E6
:101BD000788DCE0101960E94F70D2F813885020F76
:101BE000131FF80110822E96E4E00C94D110ABE0A4
:101BF000B0E0EDEFFDE00C94A7107C013B018A0101
:101C0000FC0117821682838181FFC8C1CE01019633
:101C10005C01F7019381F30193FD859193FF81911D
:101C20003F01882309F453C1853239F493FD85912E
:101C300093FF81913F01853229F4B70190E00E9422
:101C4000E70FE7CF912C212C312CFFE1F31538F071
:101C50008B3211F190F4803209F1833229F137FC93
:101C60003CC020ED280F2A3050F536FE20C08AE017
:101C7000989E200D1124922E06C08D3291F0803353
:101C800071F7689430F8F30193FD859193FF81918A
:101C90003F018111DACF21C0689431F8689432F89D
:101CA000F2CF689433F8EFCF689434F8ECCFEAE0E1
:101CB0002E9E200D1124222E689435F8E4CF8E320A
:101CC00029F436FC04C1689436F8DDCF8C3619F45B
:101CD000689437F8D8CF8836B1F2982F9F7D955405
:101CE0009330E0F08336A1F18337C1F1833509F0F9
:101CF00063C02801F2E04F0E511CF801C080D18072
:101D0000692D70E036FC02C06FEF7FEFC6010E94C4
:101D1000D10F4C01689437F882010AC00C5F1F4F45
:101D2000FFE3F98388248394912C6501E89437F8C4
:101D300033FE2DC0522C8114910471F5552009F405
:101D400068CFB70180E290E00E94E70F5A94F6CF87
:101D5000F801808189830E5F1F4FE4CF2801F2E0F4
:101D60004F0E511CF801C080D180692D70E036FC07
:101D700002C06FEF7FEFC6010E94DC0F4C018201B1
:101D8000D5CFB70180E290E00E94E70F2A94281493
:101D9000190409F0B0F7CECFF60137FC859137FE74
:101DA00081916F01B70190E00E94E70F51105A94A2
:101DB000F1E08F1A9108BFCF843619F0893609F007
:101DC00077C0F80137FE6BC0608171818281938199
:101DD0000C5F1F4FF32DFF763F2E97FF09C09095A4
:101DE0008095709561957F4F8F4F9F4F689437F81E
:101DF0002AE030E0A5010E941710C82ECA188C2CCA
:101E0000432C36FE0CC0E89440F8C91440F434FE6C
:101E100005C032FC03C0F32DFE7E4F2E892C44FEFC
:101E200095C0FE01EC0DF11D8081803309F087C063
:101E3000242D297E422E842D8870582E43FC95C077
:101E400040FE8FC09C2C821418F42C0C922C9818F5
:101E500044FE91C0B70180E390E00E94E70F42FE8C
:101E600009C088E790E041FE02C088E590E0B70134
:101E70000E94E70FC91408F48AC0CA94D12C9FEFBE
:101E8000C91AD90ACA0CDB1CF60182916F01B7018D
:101E900090E00E94E70FAC14BD04B1F74FCF608112
:101EA0007181072E000C880B990B0E5F1F4F92CF8C
:101EB000D32CE894D4F82AE030E0853739F1232D8B
:101EC000297FD22E8F3601F148F48835A9F0F70129
:101ED000868197812B96E2E10C94C310803749F0FC
:101EE0008837A9F7D4FE02C06894D2F820E130E028
:101EF0000DC06894D4F8F6CF34FE03C0822F8660FC
:101F0000D82E20E132E002C028E030E0F801D7FE10
:101F10000FC060817181828193810C5F1F4FA50189
:101F20000E941710C82ECA183D2CE89437F867CFC6
:101F30006081718190E080E00E5F1F4FF0CF42FC26
:101F400002C0839478CF8394839475CF842D867850
:101F500009F471CFF6CFB70180E290E00E94E70F5D
:101F600083948214C0F3512C73CF522C58188214CE
:101F700008F46ECFF8CF842D867809F47BCF8BE2FE
:101F800041FE80E247FC8DE2B70190E071CFB701DE
:101F900080E390E00E94E70F9A946CCF8FEF9FEF61
:101FA00099CFFC010590615070400110D8F78095E1
:101FB00090958E0F9F1F0895FC0161507040019015
:101FC0000110D8F7809590958E0F9F1F08950F935D
:101FD0001F93CF93DF93182F092FEB018B8181FD86
:101FE00009C01FEF0FEF812F902FDF91CF911F912D
:101FF0000F91089582FF14C02E813F818C819D81B5
:10200000281739073CF4E881F981CF0101969983BB
:10201000888310838E819F8101969F838E83E3CF77
:10202000E885F985812F0995892BA1F3DACFFA018B
:10203000AA27283051F1203181F1E8946F936E7F07
:102040006E5F7F4F8F4F9F4FAF4FB1E03ED0B4E0F8
:102050003CD0670F781F891F9A1FA11D680F791F39
:102060008A1F911DA11D6A0F711D811D911DA11D4A
:1020700020D009F468943F912AE0269F112430195A
:10208000305D3193DEF6CF010895462F4770405DF5
:102090004193B3E00FD0C9F7F6CF462F4F70405DA4
:1020A0004A3318F0495D31FD4052419302D0A9F7FF
:1020B000EACFB4E0A6959795879577956795BA95F9
:1020C000C9F700976105710508959B01AC010A2EBF
:1020D00006945795479537952795BA95C9F7620F96
:1020E000731F841F951FA01D0895052E97FB1EF4D6
:1020F00000940E948C1057FD07D00E94040C07FC2E
:1021000003D04EF40C948C10509540953095219549
:102110003F4F4F4F5F4F0895909580957095619513
:102120007F4F8F4F9F4F08950E94DE10A59F900D07
:10213000B49F900DA49F800D911D11240895B7FFA9
:102140000C9494100E949410821B930B08952F926C
:102150003F924F925F926F927F928F929F92AF9237
:10216000BF92CF92DF92EF92FF920F931F93CF9384
:10217000DF93CDB7DEB7CA1BDB0B0FB6F894DEBF1B
:102180000FBECDBF09942A88398848885F846E8441
:102190007D848C849B84AA84B984C884DF80EE808B
:1021A000FD800C811B81AA81B981CE0FD11D0FB694
:1021B000F894DEBF0FBECDBFED010895A29FB00120
:1021C000B39FC001A39F700D811D1124911DB29F6B
:0E21D000700D811D1124911D0895F894FFCF0C
:1021DE00FF270000000000000000000000000000CB
:1021EE0000000000000000000600FFFF00000000DD
:1021FE0040420F00012700000000000021010805E9
:10220E00000000000000000000030000FFD70000E7
:10221E0000FF000000000000DB02200001000000B3
:10222E0048454C4C4F20574F524C4420534E414B37
:10223E00452050524F4A454354006C4F4F50494E23
:10224E00470A0049542053484F554C4420484552A4
:10225E00450A0042656C6C7920436F756E743A20A6
:10226E0025640A004572722E2E693263436F6E66C4
:10227E003C496E76616C6964204D6F64653E002E3C
:10228E002E2E20466C6167203C53544152545F52AF
:10229E00455452414E534D49545445443E0A002E26
:1022AE002E2E20466C6167203C534C415F504C559E
:1022BE00535F575F41434B3E0A002E2E2E20457230
:1022CE00726F72466C6167203C534C415F504C55A7
:1022DE00535F575F4E4F545F41434B3E0A002E2EC5
:1022EE002E20466C6167203C444154415F42595454
:1022FE00455F5452414E534D49545445445F4143FA
:10230E004B3E0A002E2E2E204572726F72466C6165
:10231E0067203C444154415F425954455F545241F9
:10232E004E534D49545445445F4E4F5F41434B3ECF
:10233E000A002E2E2E204572726F72466C61672037
:10234E003C4152424954524154494F4E5F4C4F53B7
:10235E00543E0A00556E6B6E6F776E20464C616769
:10236E000A0069326357726974655F506F6C0000C2
:00000001FF
