:100000000C9434000C9451000C9451000C94510049
:100010000C9451000C9451000C9451000C9451001C
:100020000C9451000C9451000C9451000C9451000C
:100030000C9451000C9451000C9451000C945100FC
:100040000C9451000C9451000C9451000C945100EC
:100050000C9451000C9451000C9451000C945100DC
:100060000C9451000C94510011241FBECFEFD8E026
:10007000DEBFCDBF11E0A0E0B1E0E8E7FDE202C0E5
:1000800005900D92A235B107D9F722E0A2E5B1E0C3
:1000900001C01D92A131B207E1F70E9486140C94B1
:1000A000BA160C940000CF92DF92EF92FF920F935A
:1000B0001F93C12CD12C76019701860140E06FEF90
:1000C000C0FC60E080E00E942F0E8FEFC81AD80AB3
:1000D000E80AF80AC11486E0D806E104F10461F7E1
:1000E0001F910F91FF90EF90DF90CF900895CF92E6
:1000F000DF92EF92FF920F931F93C12CD12C7601C8
:100100009701860140E06FEFC0FE60E080E00E9452
:100110002F0E8FEFC81AD80AE80AF80AC11486E031
:10012000D806E104F10461F71F910F91FF90EF9061
:10013000DF90CF900895CF93DF93DC01EEE5F1E0FF
:1001400091E0948313821082118282E082839583EE
:10015000C7E5D1E0FE83ED83E2E5F1E024E230E0A3
:100160003183208325E230E0338322839483119608
:10017000DC93CE931396FC93EE931297DF91CF917D
:1001800008958EEC91E00E949B008EEC91E00E941D
:1001900096030E94F2130E94940A60E48EEC91E0B0
:1001A0000E945F130E94AF0A0E94920A87EB98E8B0
:1001B0000197F1F700C000000895DF92EF92FF92DF
:1001C0000F931F93CF93DF930097F9F0122FD42E44
:1001D0007B01EC0189E090E00E941015FC01892B65
:1001E000A1F000871382128211821082D6821783B7
:1001F000F582E4828E819F81009779F4F983E88308
:10020000FB83EA8301969F838E83DF91CF911F91B9
:100210000F91FF90EF90DF900895A881B981B1838D
:10022000A0831396FC93EE931297F983E883EACFA9
:10023000CF93DF93EC01892BA1F0888199810097FE
:1002400081F02A813B818217930771F41982188209
:100250001B821A820E94A6158E819F8101979F831F
:100260008E83DF91CF910895FC01A081B181B98384
:10027000A88313961C921E921297ECCFCF93DF9314
:10028000EC018E819F81892B19F4DF91CF91089524
:10029000CE010E941801F5CF0F931F93CF93DF93E8
:1002A000FC01329681E090E08617970728F0DF91F5
:1002B000CF911F910F910895DF014D915D919C01A8
:1002C000215031098F0137FD05C0D291C2914C17E1
:1002D0005D0730F0F801518340830196FD01E4CFC2
:1002E000D383C283EDCFFC0180E092E1AAE7B0E0C6
:1002F00082879387A487B58780E89AE1A6E0B0E07B
:1003000084839583A683B783118681E080870895CF
:100310000895089508950895CF93DF93EC0188859B
:100320008430E1F168F5813099F16A857B858C85AF
:100330009D852C813D814E815F810E94B914CA0147
:10034000B9016051710981099109288530E0220FB6
:10035000331F032E000C440B550B0E94B91422309E
:1003600008F422E02093B8008091B80090E0B0E05B
:10037000A0E088839983AA83BB83DF91CF910895FE
:100380008031A9F0803489F68091B900826009C07B
:100390008091B9008C7F8093B900C7CF8091B9005C
:1003A0008D7F8093B9008091B9008160F4CF8091F6
:1003B000B90082608093B9008091B9008E7FEBCF45
:1003C000CF93DF93EC0187B18F7C87B988B18063CD
:1003D00088B9662319F0CE010E947301CE01DF9126
:1003E000CF910C948C010895880F682B8091BC00EC
:1003F000846A8093BC008091BC0087FFFCCF60932F
:10040000BB008091BC008F7D8093BC008091BC00BC
:1004100084688093BC008091BC0087FFFCCF8091F2
:10042000B900887F0895ECEBF0E0808184698083D7
:100430008091B900887F08951F93CF93DF93D82FC1
:10044000162FCAE061E0113009F060E08D2F0E94A4
:10045000F401883159F09091BC0094699093BC00EC
:1004600096E09A95F1F700C0C15061F7DF91CF9106
:100470001F9108958091B90008950F931F93CF9312
:10048000DF93EC01892B21F1842F8B0160E00E9426
:100490001C020C0F1D1F94E88831B1F08091B90047
:1004A000DF91CF911F910F910C9413028091BC00AA
:1004B00087FFFCCF89918093BB009093BC00809113
:1004C000B900887F8832D9F7C017D10779F7E8CF0C
:1004D00081E0DF91CF911F910F910895009739F03E
:1004E000FC01680F791F94E8E617F70711F481E023
:1004F00008958091BC0087FFFCCF81918093BB0061
:100500009093BC008091B900887F8832D9F7ECCFF6
:100510000F931F93CF93DF93EC0181E02097A1F01D
:10052000842F8B0161E00E941C020C0F1D1F94E8B8
:100530008831E9F08091B9008091BC008469809392
:10054000BC008091B900887FDF91CF911F910F91FE
:1005500008958091BC0087FFFCCF89918093BB00F8
:100560009093BC008091B900887F8832D9F7C0177A
:10057000D10779F7E1CF0097F1F0FC01680F791FFF
:1005800094E8E617F70741F49091B900987F81E06D
:10059000983291F480E008958091BC0087FFFCCFF1
:1005A00081918093BB009093BC008091B900887FBB
:1005B0008832D9F7E6CF81E00895CF93DF93FC012D
:1005C000C281D381A881B9819C918C8121E030E0E6
:1005D000A90101C0440F8A95EAF7942B9C93A2814C
:1005E000B3811296ED91FC911397808114969C91A2
:1005F00001C0220F9A95EAF7209528232083DF91E6
:10060000CF910895FC01A281B381ED91FC911197E6
:10061000608114962C9141E050E0DA0102C0AA0FEB
:10062000BB1F2A95E2F79D01209526232083FC011C
:10063000A281B3811296ED91FC911397808114965B
:100640009C9101C0440F9A95EAF7482B4083089586
:10065000CF93DF93EC01E881F9810580F681E02DED
:10066000148284B1837F84B985B18C6085B9CE0151
:100670000E9402033CB52CB5E881F9810580F68122
:10068000E02D848140E4849FC00111248074992767
:100690003F7B832B8095909582238CBDDF91CF91FA
:1006A0000895DC01ED91FC91A581B6818C9181309A
:1006B000C1F0A0F08230C1F08330C9F012968C9165
:1006C000803151F1B8F48430F9F0883009F182308A
:1006D000F1F41382148281E08283089510821182E2
:1006E000EDCF10828183EACF81E08083F8CF81E073
:1006F0008083F8CF8034A1F08038A9F0803239F4BB
:1007000081E083831482E8CF1382148212820895D9
:10071000138281E08483E0CF138281E08483F6CF6B
:1007200081E08383F2CF81E08383F8CFCF93DF939F
:10073000EC010E94510384B18C6284B9249885B184
:100740008C6385B9AA81BB81ED91FC9111972081C1
:1007500014963C9181E090E0AC0101C0440F3A95C1
:10076000EAF7242B2083AA81BB811296ED91FC919C
:100770001397208114963C9101C0880F3A95EAF7AF
:10078000822B80838CB5E881F9810580F681E02D8C
:10079000938190FB87F98CBD8CB5E881F981058048
:1007A000F681E02D918190FB85F98CBD8CB5E881B7
:1007B000F9810580F681E02D958190FB84F98CBD4F
:1007C0008CB5E881F981908190FB83F98CBD8CB563
:1007D000E881F981918190FB82F98CBD8CB5E8812B
:1007E000F981938190FB81F98CBD8CB5E881F98109
:1007F000948190FB80F98CBD8DB5E881F98192815F
:1008000090FB80F98DBD8CB5E881F9810580F6817A
:10081000E02D948190FB86F98CBDDF91CF910895F6
:10082000DC01ED91FC910580F681E02D21E024832F
:100830000C9496030F931F93CF93DF938C01EB01DE
:100840000E94DD02DE01FE0101900020E9F73197F0
:10085000EC1BFD0BCD018C1B9D0B8E179F0738F0F9
:10086000C801DF91CF911F910F910C9402038D91DC
:100870008EBD0DB407FEFDCFE6CF0F931F93FC0195
:100880008F01081B190B30E020E00417150726071D
:10089000370718F01F910F91089521912EBD0DB4C7
:1008A00007FEFDCFEDCF8EBD0DB407FEFDCF089541
:1008B0008EBD0DB407FEFDCF8EB50895EF92FF9269
:1008C0000F931F93CF93DF938C017B01EA010E946A
:1008D000DD02F701CE0DDF1DEC17FD0749F4C8015D
:1008E000DF91CF911F910F91FF90EF900C94020335
:1008F0001EBC0DB407FEFDCF8EB58193EDCF680F02
:10090000791F8617970709F408951EBC0DB407FEDA
:10091000FDCF2EB5FC012193CF01F3CF1EBC0DB44A
:1009200007FEFDCF2EB5FC0120830895EF92FF92C4
:100930000F931F93CF93DF93CDB7DEB7D6500FB68B
:10094000F894DEBF0FBECDBF03E010E07E018FEF55
:10095000E81A89EFF80AFE013196CF011EBC0DB4EA
:1009600007FEFDCF2EB52193EE16FF06B9F70E94C4
:10097000B1130150110979F7DA5F0FB6F894DEBFB1
:100980000FBECDBFDF91CF911F910F91FF90EF90E0
:100990000895680F791F8617970711F408950000CE
:1009A0002091C00025FFFBCFFC012191CF012093B6
:1009B000C600F1CFDC01FC0101900020E9F731977E
:1009C000E81BF90B9D01281B390B2E173F0710F070
:1009D000089500002091C00025FFFBCF2D912093AA
:1009E000C600E9CF519A8AB11AB88BB183608BB92E
:1009F00008950E94F2041092C50081E88093C4001B
:100A0000E2ECF0E080818F70808380818860808359
:100A1000A0ECB0E08C918D7F8C93A1ECB0E088E1EC
:100A20008C938C918B7F8C938081866080830895DA
:100A3000FC0181E0838314828583168217821086ED
:100A400081871286838714861282118287E28083CF
:100A5000089510926901811522E09207E9F081154D
:100A600024E09207D9F0811528E09207C9F020E030
:100A70002C60982F907F922B909365019B7F909391
:100A800066018295807F822B809367018B7F8093A4
:100A9000680185E691E0089522E0EACF21E0E8CF01
:100AA00023E0E6CF1F93CF93DF93EC0161110E9407
:100AB000180518812A8540E1249F900111248B8517
:100AC00048E0849FC0011124282B392B20628C859B
:100AD00044E0849FC0011124822B932B0E9429059E
:100AE000412F64E070E00E943D0283EF91E00197A6
:100AF000F1F700C0000018812A8590E1299F90013C
:100B000011248B8548E0849FC0011124282B392BA8
:100B100020628C8544E0849FC0011124822B932B9A
:100B20000E942905412F64E070E00E943D0283EF9E
:100B300091E00197F1F700C00000188181E090E09A
:100B40000E942905412F64E070E00E943D028FE081
:100B500097E20197F1F700C0000018818B8190E0C7
:100B6000880F991F2C812460822B0E942905412F18
:100B700064E070E00E943D0283EF91E00197F1F79D
:100B800000C0000018818D8124E0829FC0011124E3
:100B90002E8130E0220F331F822B932B2F81286070
:100BA000822B0E942905412F64E070E00E943D02E3
:100BB00083EF91E00197F1F700C00000188188856C
:100BC00028E0829FC0011124298544E0249F9001E0
:100BD0001124822B932B80610E942905412F64E010
:100BE00070E00E943D0283EF91E00197F1F700C0B1
:100BF0000000C88182E090E00E9429054C2F64E04B
:100C000070E00E943D028FE097E20197F1F700C08B
:100C10000000DF91CF911F910895FC012281918105
:100C2000992379F0913091F081E0820F233108F01F
:100C300080E082839F5F211190E091838091640125
:100C4000089581E0820F80936401EECF85E1FACFB1
:100C50008150833038F4E82FF0E0E55FFE4F80816B
:100C6000860F089580E0FCCFFC016281643130F48E
:100C700081E0860F828381810C94280681818330F4
:100C800030F48F5F818381E0828360E0F4CF80E085
:100C9000F9CFFC01892B89F0862F807F90E1699F35
:100CA000B0011124982F9D60908389608183862FE5
:100CB0008D6082836960638314820895CF93C62F09
:100CC000806890E00E9429054C2F64E070E00E944B
:100CD0003D0283EF91E00197F1F700C00000CF9152
:100CE00008959F92AF92BF92CF92DF92EF92FF92C0
:100CF0000F931F93CF93DF9300D000D01F92CDB7F7
:100D0000DEB761157105A9F08B017C016B0185E0EF
:100D1000982ECE0101965C01F80101900020E9F7C0
:100D20003197E01BF10BC601801B910B8E179F07BB
:100D300088F00F900F900F900F900F90DF91CF9150
:100D40001F910F91FF90EF90DF90CF90BF90AF90E9
:100D50009F900895F7018385882301F1C7010E94C0
:100D60003406F70160810E945E06F501892D11921B
:100D70008A95E9F7F60161916F01C5010E94490664
:100D8000F701408164E070E0C5010E943D0280EE01
:100D900090E00197F1F700C00000BECFC7010E94AC
:100DA0000D06DFCFCF930E94CF138FEF8093E10129
:100DB0001092E0018093E20184E08093DF0182E001
:100DC0008093E301C4E08C2F90E08095909587702C
:100DD000992780962C2F26952695269530E0322F40
:100DE0002227820F931F092E000CAA0BBB0B8093A6
:100DF000DA019093DB01A093DC01B093DD01C09395
:100E0000DE0182ED91E00E94D70AC150CA3FD9F6B7
:100E10000E942D0FCF910C94CB13CF92DF92EF92C3
:100E2000FF92CF93DF93CDB7DEB764970FB6F894F8
:100E3000DEBF0FBECDBF6B017C014091A20150917E
:100E4000A3016091A4017091A501CE0101960E94B9
:100E50009F0C49815A816B817C8141155105610547
:100E6000710511F480E01CC089859A85AB85BC852D
:100E70008C159D05AE05BF0541F785E090E0A0E02B
:100E8000B0E08093920190939301A0939401B0936A
:100E9000950187E090E0909397018093960181E01F
:100EA00064960FB6F894DEBF0FBECDBFDF91CF9131
:100EB000FF90EF90DF90CF9008958F929F92AF9226
:100EC000BF92CF92DF92EF92FF920F931F93CF9337
:100ED000DF93CDB7DEB7A8970FB6F894DEBF0FBE8D
:100EE000CDBF4091AA015091AB016091AC017091CE
:100EF000AD01CE0101960E949F0C00E310E030E2AC
:100F0000A32EB12C4091A2015091A3016091A401A4
:100F10007091A501CE0145960E949F0C0E948316F8
:100F2000B8010E94A51499249394980E0E948316E8
:100F3000B5010E94A51488248394880E28E0829E1F
:100F4000C0011124C92CC694C694C694D12CDC2CA3
:100F5000CC24292D80FC3BC030E0209530952770B3
:100F60003327280F391FC20ED31E0D2C000CEE089C
:100F7000FF0880E04D895E896F89788D41155105A4
:100F80006105710549F5882309F4BCCF9D868E86DD
:100F9000188A8FEF8F87198AC986DA86EB86FC86D6
:100FA000CE0101960E94A20EA8960FB6F894DEBF5D
:100FB0000FBECDBFDF91CF911F910F91FF90EF90AA
:100FC000DF90CF90BF90AF909F908F900895277043
:100FD000280F392F311DC7CF8D8D9E8DAF8DB8A1B4
:100FE0008C159D05AE05BF0509F48CCFCE01459645
:100FF0000E949F0C81E0BECFCF92DF92EF92FF92D2
:101000000F931F93CF93DF93CDB7DEB7A8970FB69B
:10101000F894DEBF0FBECDBF6B017C018A01409109
:10102000AA015091AB016091AC017091AD01CE016C
:1010300045960E949F0C4091A2015091A30160919E
:10104000A4017091A501CE0101960E949F0C4981D7
:101050005A816B817C814115510561057105F1F55E
:1010600088898CA38F858BA389898DA38A898EA378
:10107000CE0145960E94D70A80918E0190918F01F2
:10108000019690938F0180938E010E945D078EA13F
:10109000833081F585E090E0A0E0B0E0809392019C
:1010A00090939301A0939401B093950183E090E015
:1010B000909397018093960181E0F8018083A89630
:1010C0000FB6F894DEBF0FBECDBFDF91CF911F9159
:1010D0000F91FF90EF90DF90CF9008958D8D9E8DB2
:1010E000AF8DB8A18C159D05AE05BF0509F4ABCF3A
:1010F00080E0E5CF81E0E3CF8F929F92AF92BF92E5
:10110000CF92DF92EF92FF920F931F93CF93DF93D3
:10111000CDB7DEB7A9970FB6F894DEBF0FBECDBF2F
:101120000E9431104091A6015091A7016091A80141
:101130007091A901CE0145960E949F0C8D8C9E8CCA
:10114000AF8CB8A0F09092014091A2015091A30100
:101150006091A4017091A501CE0145960E949F0C5B
:1011600019A10AA119A682E0F816A9F08F1548F076
:1011700081E0F81671F0103391F01F3F89F41FE2FF
:101180000FC083E0F81649F084E0F812F4CF115054
:10119000F2CF0F5FF0CF0150EECF1F5FECCF10E02A
:1011A000003221F00F3F19F40FE101C000E088E0A8
:1011B000089F90011124C12EC694C694C694D12CC8
:1011C000DC2CCC24812F00FD2AC090E080959095E6
:1011D00087709927820F931FC80ED91E0D2C000C03
:1011E000EE08FF08C701B6010E940D078823E1F051
:1011F00084E191E00E94DA04A9960FB6F894DEBF6C
:101200000FBECDBFDF91CF911F910F91FF90EF9057
:10121000DF90CF90BF90AF909F908F900895877090
:10122000820F932F911DD8CFAE01475D5F4FC7014D
:10123000B6010E94FC0789A5882319F088E291E095
:10124000D9CF4091A6015091A7016091A80170915A
:10125000A901CE0145960E949F0C498D5A8D6B8D38
:101260007C8D411551056105710541F54091A20143
:101270005091A3016091A4017091A501CE01459602
:101280000E949F0C19A30AA3CD8EDE8EEF8EF8A2CA
:101290004091A2015091A3016091A4017091A50118
:1012A000CE0145960E94450D9501840140E060E025
:1012B00080E00E942F0E0E942D0F9ECFCE0101963E
:1012C0000E949F0C8D8589A38E858AA389859A8526
:1012D000AB85BC858D8F9E8FAF8FB8A349815A8116
:1012E0006B817C81CE0145960E94450D498D5A8DBA
:1012F0006B8D7C8DAECFEF92FF920F931F93CF93A8
:10130000DF93EC017B0180E09FEFA0E0B0E08A87F3
:101310009B87AC87BD870AE010E00E94CF13B7011E
:10132000CE010E94CB132FE78FE492E12150804041
:101330009040E1F700C000000150110971F7CE01A3
:10134000DF91CF911F910F91FF90EF900C943E0190
:101350009F92AF92BF92CF92DF92EF92FF920F9344
:101360001F93CF93DF93B62EC42FA02ED22F6C01E4
:101370008AEF982E940EF12CE12C2B2D2E19F601CC
:1013800080810E2C01C0880F0A94EAF70C2F87FF8A
:101390001EC04A2D612F8D2F0E94F813FFEFEF1A08
:1013A000FF0A88E0E816F10441F7C150EFEFCE1ACA
:1013B000DE0A9C12E0CFDF91CF911F910F91FF9039
:1013C000EF90DF90CF90BF90AF909F90089540E056
:1013D00060E080E0E1CF0F931F93CF93DF9300D0C5
:1013E00000D000D0CDB7DEB786E0EEE0F1E0DE0160
:1013F000119601900D928A95E1F700E01FEF2FEF13
:1014000030E045E16DE2CE0101960E94A8092696E2
:101410000FB6F894DEBF0FBECDBFDF91CF911F9105
:101420000F910895E4E7F1E081E290E0958F848FD9
:101430008FE090E091A780A787E184AF87E190E0FB
:101440009093C4018093C30189E092E1A0E0B0E0F1
:101450008093C9019093CA01A093CB01B093CC01B2
:101460000895CF93DF93E9EFF1E080E290E0A0E010
:10147000B0E0808B918BA28BB38BC4E7D1E08091DD
:10148000C9019091CA01A091CB01B091CC01809685
:10149000A11DB11D80879187A287B3872CAD820FD4
:1014A000911DA11DB11D84839583A683B78328A5B3
:1014B00039A5AC01BD01420F531F611D711D408351
:1014C0005183628373838C8D9D8DB0E0A0E0809604
:1014D000A11DB11D840F951FA61FB71F848B958B6F
:1014E000A68BB78B2091C3013091C401820F931F4B
:1014F000A11DB11D84879587A687B787DF91CF91FE
:1015000008953B98429A3A9A089530E020E02817CF
:1015100039070CF0089546E04A95F1F700C02F5FB7
:101520003F4FF5CF429A0895CF93DF93CAE0D0E0C2
:10153000339BFECF429886E08A95F1F700C033993D
:101540000BC00E94920A0E948316BE010E94A5143D
:1015500001960E94850AECCFDF91CF9108950E94F9
:10156000120A0E94310A0E94810A1092CD01089548
:10157000CF92DF92EF92FF92C12CD12C7601A7017E
:10158000960160E08EEC91E00E9443118FEFC81A43
:10159000D80AE80AF80A8FEFC816D80681E0E806EC
:1015A000F10469F7FF90EF90DF90CF9008952F92AC
:1015B0003F924F925F926F927F928F929F92AF92E3
:1015C000BF92CF92DF92EF92FF920F931F93CF9330
:1015D000DF938090C3019090C401B12CA12C209086
:1015E000AE013090AF012114310409F0D8C0C09091
:1015F0000502D0900602E0900702F0900802412C0C
:10160000512C32018C0C9D1CAE1CBF1C811491040A
:1016100022E0A206B10408F0AFC0EC0104E010E043
:10162000A70196016EE371E08EEC91E00E94E0115B
:10163000488559856A857B8597018601035F1F4F21
:101640002F4F3F4F8EEC91E00E949111A701960120
:101650002F5E3F4F4F4F5F4F6C858EEC91E00E94A5
:101660004311A70196012E5E3F4F4F4F5F4F6D858F
:101670008EEC91E00E944311A70196012D5E3F4F31
:101680004F4F5F4F6F858EEC91E00E944311A70191
:1016900096012C5E3F4F4F4F5F4F6E858EEC91E071
:1016A0000E944311A70196012B5E3F4F4F4F5F4FA2
:1016B00068898EEC91E00E944311A70196012A5E91
:1016C0003F4F4F4F5F4F69898EEC91E00E9443116D
:1016D00097018601075F1F4F2F4F3F4FB301A201B4
:1016E0008EEC91E00E9491114C825D826E827F822D
:1016F000970186010B5F1F4F2F4F3F4F40E050E097
:10170000BA018EEC91E00E949111188219821A821E
:101710001B82232809F454C0930182010B5F1F4FE1
:101720002F4F3F4FB701A6018EEC91E00E9491111F
:10173000A70196012C5F3F4F4F4F5F4F65EA8EEC3C
:1017400091E00E9443118091AE019091AF0101960A
:101750009093AF018093AE01C092A601D092A701F1
:10176000E092A801F092A90180929E0190929F01BF
:10177000A092A001B092A101DF91CF911F910F9192
:10178000FF90EF90DF90CF90BF90AF909F908F90A1
:101790007F906F905F904F903F902F900895C090F2
:1017A0009E01D0909F01E090A001F090A101409097
:1017B000A6015090A7016090A8017090A90122CFC6
:1017C000C092A201D092A301E092A401F092A501DF
:1017D000AFCF4F925F926F927F928F929F92AF9214
:1017E000BF92CF92DF92EF92FF920F931F93CF930E
:1017F000DF9300D000D0CDB7DEB78091AE019091DD
:10180000AF01892B09F464C04090C3015090C4011A
:10181000712C612CC090A601D090A701E090A80186
:10182000F090A90119821A821B821C82A7019601DD
:101830002C5F3F4F4F4F5F4F60E08EEC91E00E9476
:101840004311A7019601275F3F4F4F4F5F4FBE01E6
:101850006F5F7F4F8EEC91E00E94721209811A81B6
:101860002B813C81011511052105310509F445C085
:101870000B5F1F4F2F4F3F4F40E050E0BA018EECFF
:1018800091E00E94911189819A81AB81BC81809302
:10189000A6019093A701A093A801B093A901812C60
:1018A000912C540184149504A604B704B8F1C09295
:1018B0009E01D0929F01E092A001F092A10180913F
:1018C000AE019091AF0101979093AF018093AE016B
:1018D0000F900F900F900F90DF91CF911F910F916C
:1018E000FF90EF90DF90CF90BF90AF909F908F9040
:1018F0007F906F905F904F9008951092A601109284
:10190000A7011092A8011092A9011092A2011092B1
:10191000A3011092A4011092A501C1CFA5019401C9
:101920002C0D3D1D4E1D5F1D60E08EEC91E00E9470
:1019300043118FEF881A980AA80AB80AB3CF8F927A
:101940009F92AF92BF92EF92FF920F931F93CF930C
:10195000DF9300D000D01F92CDB7DEB77C014A01E3
:101960005B0184E1F70111928A95E9F71D829B01E1
:101970008A0144E050E0BE016F5F7F4F8EEC91E042
:101980000E94EB12A50194012B5F3F4F4F4F5F4F19
:10199000B7018EEC91E00E947212A5019401275FBD
:1019A0003F4F4F4F5F4FB7016C5F7F4F8EEC91E021
:1019B0000E947212A5019401235F3F4F4F4F5F4F6A
:1019C000B701685F7F4F8EEC91E00E947212A50113
:1019D00094012F5E3F4F4F4F5F4FB701645F7F4FC2
:1019E0008EEC91E00E940C12A50194012E5E3F4FF7
:1019F0004F4F5F4FB701635F7F4F8EEC91E00E94C6
:101A00000C12A50194012D5E3F4F4F4F5F4FB70160
:101A1000615F7F4F8EEC91E00E940C12A501940152
:101A20002C5E3F4F4F4F5F4FB701625F7F4F8EEC91
:101A300091E00E940C12A50194012B5E3F4F4F4F85
:101A40005F4FB701605F7F4F8EEC91E00E940C12F8
:101A5000A50194012A5E3F4F4F4F5F4FB7016F5E64
:101A60007F4F8EEC91E00E940C120F900F900F9020
:101A70000F900F90DF91CF911F910F91FF90EF90FA
:101A8000BF90AF909F908F900895CF92DF92EF928A
:101A9000FF920F931F93CF93DF93EC016A017B01B9
:101AA0009B018A010B5F1F4F2F4F3F4F4881598188
:101AB0006A817B818EEC91E00E94911197018601F1
:101AC000075F1F4F2F4F3F4F4C815D816E817F819C
:101AD0008EEC91E00E94911197018601035F1F4FE8
:101AE0002F4F3F4F488559856A857B858EEC91E065
:101AF0000E949111A70196012F5E3F4F4F4F5F4FFC
:101B00006C858EEC91E00E944311A70196012E5E38
:101B10003F4F4F4F5F4F6D858EEC91E00E94431118
:101B2000A70196012D5E3F4F4F4F5F4F6F858EECA3
:101B300091E00E944311A70196012C5E3F4F4F4F49
:101B40005F4F6E858EEC91E00E944311A7019601D4
:101B50002B5E3F4F4F4F5F4F68898EEC91E00E94A4
:101B60004311A70196012A5E3F4F4F4F5F4F69898E
:101B70008EEC91E0DF91CF911F910F91FF90EF904C
:101B8000DF90CF900C944311CF92DF92EF92FF92AF
:101B90000F931F93C0900102D0900202E0900302C5
:101BA000F090040204E010E0A701960163E471E004
:101BB0008EEC91E00E94E011A70196012B5E3F4F51
:101BC0004F4F5F4F6091AE017091AF018EEC91E08D
:101BD0000E946E11970186010B5F1F4F2F4F3F4FE1
:101BE00040E050E0BA018EEC91E00E949111970123
:101BF0008601075F1F4F2F4F3F4F40E050E0BA0173
:101C00008EEC91E00E94911197018601035F1F4FB6
:101C10002F4F3F4F40E050E0BA018EEC91E00E9420
:101C20009111970186010F5E1F4F2F4F3F4F40E0EC
:101C300050E0BA018EEC91E00E949111A70196014B
:101C40002C5F3F4F4F4F5F4F65EA8EEC91E01F9145
:101C50000F91FF90EF90DF90CF900C9443118F92F3
:101C60009F92AF92BF92CF92DF92EF92FF920F932B
:101C70001F93CF93F82FE62FC42F809009029090E6
:101C80000A02A0900B02B0900C02A3E0B0E0A90100
:101C900098010E94E2146B017C01C80CD91CEA1C5B
:101CA000FB1CA7019601275F3F4F4F4F5F4F80916D
:101CB000C9019091CA01A091CB01B091CC01880DCE
:101CC000991DAA1DBB1D4C015D0169E0860E911C8A
:101CD000A11CB11C82169306A406B50638F1AE2EDF
:101CE0006F2F8EEC91E00E944311A7019601265FB1
:101CF0003F4F4F4F5F4F6A2D8EEC91E00E94431192
:101D0000A7019601255F3F4F4F4F5F4F6C2F8EEC21
:101D100091E0CF911F910F91FF90EF90DF90CF90C6
:101D2000BF90AF909F908F900C944311CF911F91D3
:101D30000F91FF90EF90DF90CF90BF90AF909F906A
:101D40008F900895CF92DF92EF92FF920F931F939F
:101D5000CF93DF93EC01C0900D02D0900E02E09083
:101D60000F02F0901002809100018823A1F004E09E
:101D700010E0A70196016EE371E08EEC91E00E9405
:101D8000E01110920001C092AA01D092AB01E09242
:101D9000AC01F092AD0197018601035F1F4F2F4FF9
:101DA0003F4F488559856A857B858EEC91E00E947E
:101DB0009111A70196012F5E3F4F4F4F5F4F6C85EA
:101DC0008EEC91E00E944311A70196012E5E3F4FD9
:101DD0004F4F5F4F6D858EEC91E00E944311A7013C
:101DE00096012D5E3F4F4F4F5F4F6F858EEC91E018
:101DF0000E944311A70196012C5E3F4F4F4F5F4F4A
:101E00006E858EEC91E00E944311A70196012B5E36
:101E10003F4F4F4F5F4F68898EEC91E00E94431116
:101E2000A70196012A5E3F4F4F4F5F4F69898EECA5
:101E300091E00E944311088519852A853B854889D0
:101E40006E858F850E942F0EDF91CF911F910F918C
:101E5000FF90EF90DF90CF9008950F931F93CF9353
:101E6000DF93CDB7DEB764970FB6F894DEBF0FBE31
:101E7000CDBF8091AE019091AF01892BA1F040912F
:101E8000A2015091A3016091A4017091A501CE011E
:101E900001960E949F0C89819A81AB81BC81892B1C
:101EA0008A2B8B2B59F464960FB6F894DEBF0FBEC5
:101EB000CDBFDF91CF911F910F91089509851A85AC
:101EC0002B853C8549896F8588890E942F0E498121
:101ED0005A816B817C81DBCF0F931F9300910902A4
:101EE00010910A0220910B0230910C02075F1F4FE4
:101EF0002F4F3F4F40E056E060E070E08EEC91E005
:101F00000E9418131F910F910895CF92DF92EF92C4
:101F1000FF920F931F93C12CD12C7601970186015C
:101F200040E060E080E00E942F0E8FEFC81AD80AD0
:101F3000E80AF80AC11482E1D806E104F10471F755
:101F40001F910F91FF90EF90DF90CF900895CF9267
:101F5000DF92EF92FF92C0900902D0900A02E090C7
:101F60000B02F0900C0289E0C80ED11CE11CF11CA0
:101F7000C11486E0D806E104F10428F0FF90EF9048
:101F8000DF90CF900895A701960160E08EEC91E07C
:101F90000E9443118FEFC81AD80AE80AF80AE8CF5E
:101FA000CF92DF92EF92FF920F931F93CF93DF9325
:101FB000C090FD01D090FE01E090FF01F090000282
:101FC00002E010E0A701960168E471E08EEC91E078
:101FD0000E94E011970186010B5F1F4F2F4F3F4F6B
:101FE000C4E7D1E04E8D5F8D68A179A18EEC91E0C0
:101FF0000E949111A7019601275F3F4F4F4F5F4FFE
:102000006AA17BA18EEC91E00E946E11A70196015E
:10201000255F3F4F4F4F5F4F6CA17DA18EEC91E04C
:102020000E946E11A7019601235F3F4F4F4F5F4FF4
:102030006EA17FA18EEC91E00E946E11A701960126
:102040002C5F3F4F4F4F5F4F65EA8EEC91E0DF9181
:10205000CF911F910F91FF90EF90DF90CF900C9454
:102060004311CF92DF92EF92FF92C090FD01D0908A
:10207000FE01E090FF01F0900002A70196012B5FA6
:102080003F4F4F4F5F4F62E971E08EEC91E00E944D
:102090007212A7019601275F3F4F4F4F5F4F66E9CE
:1020A00071E08EEC91E00E943112A7019601255F4C
:1020B0003F4F4F4F5F4F68E971E08EEC91E00E9417
:1020C0003112A7019601235F3F4F4F4F5F4F6AE9DF
:1020D00071E08EEC91E0FF90EF90DF90CF900C9448
:1020E0003112CF92DF92EF92FF920F931F93C09025
:1020F000F901D090FA01E090FB01F090FC0104E0BE
:1021000010E0A70196016DE471E08EEC91E00E9471
:10211000E011A7019601235E3F4F4F4F5F4F609143
:102120008C0170918D018EEC91E00E946E11A701DF
:102130009601215E3F4F4F4F5F4F60918E0170912E
:102140008F018EEC91E00E946E1184E791E0009780
:1021500069F00CE010E0A70196012B5F3F4F4F4F55
:102160005F4FBC018EEC91E00E94E01180E891E0AD
:10217000009769F00CE010E0A70196012F5E3F4F39
:102180004F4F5F4FBC018EEC91E00E94E011A70120
:1021900096012C5F3F4F4F4F5F4F65EA8EEC91E009
:1021A0001F910F91FF90EF90DF90CF900C9443110F
:1021B000CF92DF92EF92FF920F931F93C090F9019D
:1021C000D090FA01E090FB01F090FC01A70196018C
:1021D000235E3F4F4F4F5F4F6CE871E08EEC91E014
:1021E0000E943112A7019601215E3F4F4F4F5F4F72
:1021F0006EE871E08EEC91E00E94311280916A01EC
:1022000081111FC0970186010B5F1F4F2F4F3F4F5A
:102210004CE050E064E771E08EEC91E00E94EB123C
:10222000970186010F5E1F4F2F4F3F4F4CE050E04C
:1022300060E871E08EEC91E00E94EB1281E0809307
:102240006A011F910F91FF90EF90DF90CF9008955A
:10225000CF93DF9300D000D0CDB7DEB70E94DB1460
:1022600069837A838B839C8344E050E060E070E074
:10227000CE0101960E943D040F900F900F900F9099
:10228000DF91CF910895CF92DF92EF92FF920F935B
:102290001F93CF93DF930F92CDB7DEB78C01698385
:1022A00069017A010E94DD02C701B60192600E94B5
:1022B000281141E050E060E070E0CE0101960E94FC
:1022C0003D04C8010E9402030F90DF91CF911F913E
:1022D0000F91FF90EF90DF90CF900895CF92DF9213
:1022E000EF92FF921F93CF93DF93D82FC92F162F12
:1022F000672F69017A01A70196010E944311A70186
:1023000096012F5F3F4F4F4F5F4F612F8D2F9C2FB7
:10231000DF91CF911F91FF90EF90DF90CF900C94C1
:1023200043118F929F92AF92BF92CF92DF92EF9222
:10233000FF920F931F93CF93DF93D82FC92F4A019A
:102340005B01680179016B2D772788279927A70101
:1023500096018D2F9C2F0E944311A70196012F5F9C
:102360003F4F4F4F5F4FB501882799278D2F9C2FE7
:102370000E944311A70196012E5F3F4F4F4F5F4FC1
:1023800099278B2D7A2D692D8D2F9C2F0E9443111B
:10239000A70196012D5F3F4F4F4F5F4F682D8D2F47
:1023A0009C2FDF91CF911F910F91FF90EF90DF90C5
:1023B000CF90BF90AF909F908F900C944311089551
:1023C0008F929F92AF92BF92CF92DF92EF92FF9245
:1023D0000F931F93CF93DF935C014B0169017A0147
:1023E0000E94DD02C701B60192600E942811A80177
:1023F00060E070E0C4010E943D04C501DF91CF910F
:102400001F910F91FF90EF90DF90CF90BF90AF9012
:102410009F908F900C940203CF92DF92EF92FF92E5
:102420000F931F93CF93DF938C01EB0169017A0126
:1024300018820E94DD02C701B60193600E94281134
:102440001EBC0DB407FEFDCF8EB58883C801DF9199
:10245000CF911F910F91FF90EF90DF90CF900C9450
:102460000203AF92BF92CF92DF92EF92FF920F934F
:102470001F93CF93DF930F92CDB7DEB75C018B0133
:1024800069017A01FB0111821082A7019601BE0148
:102490006F5F7F4F0E940C122981F801808191812A
:1024A000922B91838083A70196012F5F3F4F4F4F5F
:1024B0005F4FBE016F5F7F4FC5010E940C122981E3
:1024C000F80180819181822B918380830F90DF912D
:1024D000CF911F910F91FF90EF90DF90CF90BF9021
:1024E000AF900895AF92BF92CF92DF92EF92FF929A
:1024F0000F931F93CF93DF930F92CDB7DEB75C019D
:102500008B0169017A01FB01108211821282138210
:10251000A7019601BE016F5F7F4F0E940C122981B7
:10252000F80180819181A281B381B22B8083918354
:10253000A283B383A70196012F5F3F4F4F4F5F4F99
:10254000BE016F5F7F4FC5010E940C122981F80107
:1025500080819181A281B381A22B80839183A28308
:10256000B383A70196012E5F3F4F4F4F5F4FBE01D0
:102570006F5F7F4FC5010E940C122981F801808195
:102580009181A281B381922B80839183A283B383B3
:10259000A70196012D5F3F4F4F4F5F4FBE016F5F09
:1025A0007F4FC5010E940C122981F8018081918121
:1025B000A281B381822B80839183A283B3830F9006
:1025C000DF91CF911F910F91FF90EF90DF90CF900F
:1025D000BF90AF9008958F929F92AF92BF92CF928B
:1025E000DF92EF92FF920F931F93CF93DF93D82F39
:1025F000C92F5B014A01680179010E94DD02C70110
:10260000B60193600E942811B401C5010E947F04A5
:102610008D2F9C2FDF91CF911F910F91FF90EF9005
:10262000DF90CF90BF90AF909F908F900C9402035B
:102630008F929F92AF92BF92CF92DF92EF92FF92D2
:102640000F931F93CF93DF93D82FC92F4A015B01BC
:10265000680179010E94DD02C701B60193600E9402
:102660002811B401C5010E9496048D2F9C2FDF9183
:10267000CF911F910F91FF90EF90DF90CF90BF907F
:10268000AF909F908F900C9402031F93CF93DF9392
:10269000D82FC92F0E94DD0285E08EBD0DB407FE44
:1026A000FDCF1EBC0DB407FEFDCF1EB58D2F9C2F98
:1026B0000E940203812FDF91CF911F9108951F93F4
:1026C000CF93DF93D82FC92F162F862F8F738111A9
:1026D00013C08D2F0E94DD0281E08EBD0DB407FE78
:1026E000FDCF1EBD0DB407FEFDCF8D2F9C2FDF91BA
:1026F000CF911F910C940203DF91CF911F91089508
:102700005A9A00C000005A9884E08A95F1F700C0F8
:1027100008955A9A83E08A95F1F700005A9800C00C
:1027200000C0000008955A9881E28A95F1F70000F0
:1027300008950F931F93CF93DF93082FC8E0D0E045
:1027400010E8802F812351F00E948913169521975C
:10275000C1F7DF91CF911F910F9108950E948013CF
:10276000F5CFF894FC019C013A5F4FEF8BB14BB968
:1027700000C000C08BB1919189238BB982E08A950A
:10278000F1F78BB11BB800C000C0E217F30771F777
:1027900078940C9493130E946C0F0C949313CF9223
:1027A000DF92EF92FF920F931F93C12CD12C7601F1
:1027B0009701860140E060E080E00E942F0E8FEFDD
:1027C000C81AD80AE80AF80AC11486E0D806E10453
:1027D000F10471F71F910F91FF90EF90DF90CF9070
:1027E0000C9493138AB18FEF8AB99BB18BB908957A
:1027F0000F931F93E22F502F98E0099FD0011124CF
:10280000922F969596959695092F10E0102F0027F8
:1028100050FD12C0F0E0E095F095E770FF27EA0F59
:10282000FB1F0E0F1F1F012E000C220B330B0E94EB
:102830002F0E1F910F910895E770EA0FFB2FF11DE6
:10284000F0CF4F925F926F927F92AF92BF92CF92F2
:10285000DF92EF92FF920F931F93CF93DF93D12CD0
:10286000C12CF12CE12CD0E0C0E0570181E0A8227E
:10287000BB242E0183E0559447948A95E1F7542CAC
:102880004424CE01A114B10411F480959095877071
:1028900099278C0D9D1D480E591E052C000C6608AD
:1028A00077089301820140E060E08FEF0E942F0ED5
:1028B0000E94CB13930140E060E080E00E942F0E65
:1028C0002196C033D105A9F68FEFE81AF80A88E0FF
:1028D000C80ED11C80E2E816F10429F6DF91CF91F1
:1028E0001F910F91FF90EF90DF90CF90BF90AF902E
:1028F0007F906F905F904F9008950895089586B5EA
:1029000090E025EA822792270C9488160E94C10045
:102910000E94940A8EEC91E00E9410040E945300E1
:102920000E94CB130E9477000E94CB130E94850F58
:102930000E94CB138EEC91E00E9428030E94920A21
:102940008DE08A95F1F70000E3CF97FB072E16F490
:10295000009407D077FD09D00E94ED1407FC05D044
:102960003EF4909581959F4F0895709561957F4FA6
:102970000895A1E21A2EAA1BBB1BFD010DC0AA1FC0
:10298000BB1FEE1FFF1FA217B307E407F50720F0D8
:10299000A21BB30BE40BF50B661F771F881F991F53
:1029A0001A9469F760957095809590959B01AC019C
:1029B000BD01CF01089569279627692778278727C2
:1029C000782708950E940115A59F900DB49F900D42
:1029D000A49F800D911D11240895AA1BBB1B51E1DA
:1029E00007C0AA1FBB1FA617B70710F0A61BB70B7F
:1029F000881F991F5A95A9F780959095BC01CD0124
:102A00000895A29FB001B39FC001A39F700D811DC7
:102A10001124911DB29F700D811D1124911D0895E7
:102A20000F931F93CF93DF939C01029710F422E042
:102A300030E0E0916B01F0916C0180E090E0A0E06B
:102A4000B0E0309791F4009709F448C0821B930BD3
:102A500084309105D0F58A819B816115710581F1E2
:102A6000FB0193838283FE0111C040815181028169
:102A7000138142175307D8F04217530799F4109760
:102A800061F012960C93129713961C933296CF0115
:102A9000DF91CF911F910F91089500936B011093D7
:102AA0006C01F4CF009751F04817590738F0AC018A
:102AB000DB01CA01BD01DF01F801C3CFEF01F9CF8E
:102AC00090936C0180936B01CECFFE01E80FF91F4C
:102AD00021933193029799838883D9CF40916D01D7
:102AE00050916E014115510541F4409103015091FF
:102AF000040150936E0140936D018091010190910A
:102B00000201009741F48DB79EB760910501709165
:102B10000601861B970B4817590708F0B8CF841B8E
:102B2000950B8217930708F4B2CFB9016E5F7F4F00
:102B30008617970708F4ABCF640F751F70936E016B
:102B400060936D01FA0121933193A1CFCF93DF936D
:102B50009C010097E9F0FC01329713821282C09128
:102B60006B01D0916C01DE0180E090E02097A1F430
:102B700080819181280F391F80916D0190916E01A4
:102B80008217930709F068C0F0936E01E0936D011E
:102B9000DF91CF910895DA01AE17BF0708F042C068
:102BA00012964D915C911397CD014115510599F7FE
:102BB000DC011396FC93EE9312974D915D919D016C
:102BC000240F351FE217F30781F4208131812E5F36
:102BD0003F4F240F351FDC0111963C932E93228129
:102BE000338113963C932E931297E0E0F0E08A81B4
:102BF0009B810097B1F5DE018D919D918A0F9B1FFE
:102C000020916D0130916E012817390709F6309730
:102C100059F510926C0110926B01D0936E01C09324
:102C20006D01B6CFB383A28340815181240F351F3C
:102C3000A217B30771F44E5F5F4F2D913C9111972E
:102C4000240F351F3183208312962D913C913383BD
:102C50002283009709F0ACCFF0936C01E0936B01F5
:102C600097CFFE01EC01C3CF13821282D6CF8F9291
:102C70009F92AF92BF92CF92DF92EF92FF92CF934B
:102C8000DF93EC01688179818A819B8161157105EF
:102C90008105910521F464E279ED8BE597E02DE162
:102CA00033EF41E050E00E94931649015A019B0125
:102CB000AC01A7EAB1E40E94E2146B017C01ACEE26
:102CC000B4EFA50194010E94B516DC01CB018C0D77
:102CD0009D1DAE1DBF1DB7FF03C00197A109B048E0
:102CE00088839983AA83BB839F77DF91CF91FF90DD
:102CF000EF90DF90CF90BF90AF909F908F9008950E
:102D00000E943716089587E091E00E9437160895D3
:102D1000A0E0B0E08093070190930801A09309011F
:102D2000B0930A010895052E97FB1EF400940E94AB
:102D3000AA1657FD07D00E94B91407FC03D04EF421
:102D40000C94AA1650954095309521953F4F4F4FC2
:102D50005F4F089590958095709561957F4F8F4F47
:102D60009F4F0895B7FF0C94E2140E94E214821B57
:082D7000930B0895F894FFCFC6
:102D7800010000110220000100000040145478FCFA
:102D8800ECF8FC78636F6C6C6973696F6E2064652E
:102D98007465637465640A00506F69736F6E2066AA
:102DA8006F6F642064657465637465640A004E4FD0
:102DB8004445005354434B00434F4D4D0053434F3C
:022DC8005200B7
:00000001FF
