:100000000C9434000C9451000C9451000C94510049
:100010000C9451000C9402040C9451000C94510067
:100020000C9451000C9451000C9451000C9451000C
:100030000C9451000C9451000C9451000C945100FC
:100040000C9451000C9451000C9451000C945100EC
:100050000C9451000C9451000C9451000C945100DC
:100060000C9451000C94510011241FBECFEFD4E02A
:10007000DEBFCDBF11E0A0E0B1E0ECE1F2E102C0F3
:1000800005900D92A831B107D9F721E0A8E1B1E0C0
:1000900001C01D92A135B207E1F70E94DC060C9465
:1000A0000C090C940000DC011496ED91FC9115975D
:1000B00081E0808311828283838384831582868397
:1000C00017828087118613961C92139787E21296E7
:1000D0008C9308959C01211582E03807F9F02115D1
:1000E00084E03807E9F0211588E03807D9F080E08E
:1000F0008C60922F907F982B90931F019B7F909301
:1001000020012295207F282B209321012B7F2093F3
:100110002201109223018FE191E0089582E0E8CF5F
:1001200081E0E6CF83E0E4CF1F93CF93DF93EC0130
:100130000E9453001881EC81FD81878120E1829F1C
:10014000C0011124218544E0249F90011124822BB9
:10015000932B208548E0249F90011124822B932B20
:1001600080620E946A00412F64E070E00E947D037B
:1001700083EF91E00197F1F700C000001881EC8156
:10018000FD81878120E1829FC0011124218544E007
:10019000249F90011124822B932B208548E0249FDB
:1001A00090011124822B932B80620E946A00412FC0
:1001B00064E070E00E947D0383EF91E00197F1F726
:1001C00000C00000188181E090E00E946A00412F89
:1001D00064E070E00E947D0383EF91E00197F1F706
:1001E00000C000001881EC81FD81808190E0880FC3
:1001F000991F2181822B84600E946A00412F64E054
:1002000070E00E947D0383EF91E00197F1F700C059
:1002100000001881EC81FD81828124E0829FC00171
:100220001124238130E0220F331F822B932B248152
:10023000822B88600E946A00412F64E070E00E9477
:100240007D0383EF91E00197F1F700C00000188172
:10025000EC81FD81858128E0829FC00111242681E7
:1002600044E0249F90011124822B932B80610E94F3
:100270006A00412F64E070E00E947D0383EF91E00B
:100280000197F1F700C00000C88182E090E00E9471
:100290006A004C2F64E070E00E947D0383EF91E0E0
:1002A0000197F1F700C00000DF91CF911F910895F1
:1002B000FC01938182818230D1F040F421E48111EC
:1002C00001C021E0290F20931E0103C025E58330E2
:1002D000C9F321E0290F933108F020E023838F5FD9
:1002E000933008F080E0828380911E01089525E11B
:1002F000E9CFFC0193818281882379F0813091F0EC
:1003000021E0290F933108F020E023838F5F9111C2
:1003100080E0828380911D01089521E0290F2093C0
:100320001D01EECF25E1FACF0F931F93CF93DF93FB
:10033000EC01FC0101900020E9F78F010150110947
:10034000C017D10729F4DF91CF911F910F91089524
:100350008991982F907F9D60909318019B7F909337
:10036000190120E18202C00111248D6080931A01DD
:100370008B7F80931B0110921C0164E070E088E188
:1003800091E00E94AD038BE291E00197F1F700C08C
:100390000000D6CFFF920F931F93CF93DF93EC0112
:1003A0008B01672B71F1EC81FD818085882329F118
:1003B000CE010E945801F880806890E00E946A0097
:1003C0004F2D64E070E00E947D0383EF91E0019780
:1003D000F1F700C0000060E088810E94340396E0DD
:1003E0009A95F1F700C0C8010E949401DF91CF9166
:1003F0001F910F91FF900C945303CE010E9479013D
:10040000DACFDF91CF911F910F91FF900895DF9286
:10041000EF92FF920F931F93CF93DF93EC01F62E91
:10042000172FD42EE22E892BD9F089E090E00E947C
:100430002B07FC01892BA1F0008713821282118205
:100440001082D682E782F48215838E819F81009785
:1004500079F4F983E883FB83EA8301969F838E8393
:10046000DF91CF911F910F91FF90EF90DF90089552
:10047000A881B981B183A0831396FC93EE93129760
:10048000F983E883EACFCF93DF93EC01892BA1F0C6
:1004900088819981009781F02A813B818217930797
:1004A00071F4198218821B821A820E94C1078E8100
:1004B0009F8101979F838E83DF91CF910895DC0107
:1004C000ED91FC91F983E88313821282EECFCF93F2
:1004D000DF93EC018E819F81892B19F4DF91CF91FD
:1004E0000895CE010E944302F5CF0F931F93CF933F
:1004F000DF939B01FC01329681E090E08217930725
:1005000028F0DF91CF911F910F910895DF016D9138
:100510007D91AC01415051098F0157FD05C0D29129
:10052000C2916C177D0730F0F801718360830196EA
:10053000FD01E4CFD383C283EDCF8AB1837C8AB936
:100540008BB18C638BB9DA9AEDE6F0E080818C6335
:100550008083E8E6F0E08081846080837894089569
:100560000C949D0286B590E025EA822792270C9490
:10057000C0080895089508950895CF93DF9300D09B
:1005800000D000D0CDB7DEB78D839E83AD81BE8114
:1005900018968C91803109F453C0E8F5813009F444
:1005A00040C0843009F443C0AD81BE811A968D915C
:1005B0009D910D90BC91A02DED81FE81248135810E
:1005C00046815781BC01CD010E940207DA01C901B1
:1005D0004097A109B10989839A83AB83BC83AD811C
:1005E000BE8118962C9130E0220F331F032E000C91
:1005F000440B550B69817A818B819C810E94020793
:100600002093B80026960FB6F894DEBF0FBECDBF7C
:10061000DF91CF910895803439F68091B9008260DE
:1006200009C08091B9008C7F8093B900BDCF8091C3
:10063000B9008D7F8093B9008091B9008160F4CFBB
:100640008091B90082608093B9008091B9008E7F5B
:10065000EBCF9C0197B1906397B998B1906398B92B
:10066000C9010C94BD020895880F862B9091BC009F
:10067000946A9093BC009091BC0097FFFCCF80934C
:10068000BB008091BC008F7D8093BC008091BC003A
:1006900084688093BC008091BC0087FFFCCF809170
:1006A000B900887F0895ECEBF0E080818469808355
:1006B0008091B900887F08951F93CF93DF93C82F4F
:1006C000162FDAE061E0113009F060E08C2F0E9413
:1006D0003403883159F09091BC0094699093BC0028
:1006E00096E09A95F1F700C0D15061F7DF91CF9174
:1006F0001F9108958091B90008950F931F93CF9390
:10070000DF93EC018B01842F209709F160E00E94B8
:100710005C038831A1F40C0F1D1F84E8C017D107BA
:1007200081F09091BC0097FFFCCF99919093BB0012
:100730008093BC009091B9009832E1F7EFCF80919F
:10074000B900DF91CF911F910F910C94530381E079
:10075000DF91CF911F910F910895FC01CB018E0F76
:100760009F1F24E8309779F481E008953091BC0010
:1007700037FFFCCF31913093BB002093BC00309108
:10078000B9003832E1F7E817F90781F79091B9001D
:1007900081E0983251F780E008950F931F93CF9333
:1007A000DF93EC018B01842F209741F161E00E94DF
:1007B0005C038831A1F40C0F1D1F84E8C017D1071A
:1007C00081F09091BC0097FFFCCF99919093BB0072
:1007D0008093BC009091B9009832E1F7EFCF8091FF
:1007E000B9008091BC0084698093BC008091B900FD
:1007F000887FDF91CF911F910F91089581E0F9CF0C
:100800000C94AD031895FC01A281B3811296ED9171
:10081000FC911397208114963C9181E090E001C0F7
:10082000880F3A95EAF78095822380830895FC012A
:10083000A281B3811296ED91FC9113978081149659
:100840009C9121E030E001C0220F9A95EAF7822BBB
:1008500080830895DC01ED91FC91A581B6818C9196
:100860008230C1F028F4811111C01082118202C0BF
:10087000833099F012968C91803131F188F4843074
:10088000D9F08830E9F0823091F00895108281E04B
:100890008183F0CF81E08083E9CF81E08083F8CF4E
:1008A0008034D1F08038D9F0803291F008951382ED
:1008B000148281E082830895138214821282089543
:1008C000138281E08483F6CF138281E08483F6CFA4
:1008D00081E083831482EECF81E08383EECF81E0D9
:1008E0008383F4CFCF93DF93EC010E942A0484B179
:1008F0008C6284B9249885B18C6385B9AA81BB8147
:10090000ED91FC911197208114963C9181E090E04B
:10091000AC0101C0440F3A95EAF7242B2083AA8149
:10092000BB811296ED91FC911397208114963C9116
:1009300001C0880F3A95EAF7822B80838CB5E88155
:10094000F9810580F681E02D938190FB87F98CBDBC
:100950008CB5E881F9810580F681E02D918190FBCD
:1009600085F98CBD8CB5E881F9810580F681E02D93
:10097000958190FB84F98CBD8CB5E881F9819081DB
:1009800090FB83F98CBD8CB5E881F981918190FB56
:1009900082F98CBD8CB5E881F981938190FB81F956
:1009A0008CBD8CB5E881F981948190FB80F98CBD78
:1009B0008DB5E881F981928190FB80F98DBD8CB570
:1009C000E881F9810580F681E02D948190FB86F91C
:1009D0008CBDDF91CF9108950F931F93CF93DF9339
:1009E0008C01EB010E94030490E080E0FE01019085
:1009F0000020E9F73197EC1BFD0B8E179F0738F0AD
:100A0000C801DF91CF911F910F910C941704FE0143
:100A1000E80FF91F20812EBD0DB407FEFDCF019612
:100A2000E5CFFC01680F791FE617F70709F4089571
:100A300081918EBD0DB407FEFDCFF6CF8EBD0DB4F6
:100A400007FEFDCF08958EBD0DB407FEFDCF8EB518
:100A50000895EF92FF920F931F93CF93DF938C0132
:100A60007B01EA010E940304F701CE0DDF1DEC17A4
:100A7000FD0749F4C801DF91CF911F910F91FF90BD
:100A8000EF900C9417041EBC0DB407FEFDCF8EB57D
:100A90008193EDCFFC01680F791FE617F70709F482
:100AA00008951EBC0DB407FEFDCF8EB58193F5CF22
:100AB000FC011EBC0DB407FEFDCF8EB580830895EA
:100AC0000895CF93DF9300D000D0CDB7DEB70E945A
:100AD000240769837A838B839C8364E070E0CE0172
:100AE00001960E9411050F900F900F900F90DF91CB
:100AF000CF910895CF92DF92EF92FF920F931F93C1
:100B0000CF93DF9300D000D00F92CDB7DEB78C012A
:100B1000698369017A010E940304D701C601B260AA
:100B2000BC01CD010E94610561E070E0CE0101963B
:100B30000E941105C8010E9417040F900F900F909A
:100B40000F900F90DF91CF911F910F91FF90EF9039
:100B5000DF90CF900895AF92BF92CF92DF92EF9245
:100B6000FF920F931F93CF93DF9300D000D000D05C
:100B7000CDB7DEB78E839D835B0169017A010E9448
:100B80000304D701C601B26089839A83AB83BC8317
:100B9000BC01CD010E946105B801C5010E9411058B
:100BA0008E819D8126960FB6F894DEBF0FBECDBF15
:100BB000DF91CF911F910F91FF90EF90DF90CF9039
:100BC000BF90AF900C941704CF92DF92EF92FF92F8
:100BD0000F931F93CF93DF9300D000D000D0CDB7F9
:100BE000DEB78E839D838B0169017A01DB011C9244
:100BF0000E940304D701C601B36089839A83AB8343
:100C0000BC83BC01CD010E9461051EBC0DB407FE72
:100C1000FDCF8EB5D8018C938E819D8126960FB61F
:100C2000F894DEBF0FBECDBFDF91CF911F910F9122
:100C3000FF90EF90DF90CF900C9417048F929F92CB
:100C4000AF92BF92CF92DF92EF92FF920F931F93DA
:100C5000CF93DF9300D000D000D0CDB7DEB78E8326
:100C60009D835B014A0179010E940304D701C801F9
:100C7000B36089839A83AB83BC83BC01CD010E949E
:100C80006105B401C5010E944A058E819D812696A9
:100C90000FB6F894DEBF0FBECDBFDF91CF911F918D
:100CA0000F91FF90EF90DF90CF90BF90AF909F900B
:100CB0008F900C941704CF93DF93D82FC92F0E94E5
:100CC000030485E08EBD0DB407FEFDCF8FEF8EBD12
:100CD0000DB407FEFDCF8EB58D2F9C2FDF91CF91E8
:100CE0000C9417041F93CF93DF93D82FC92F162F7F
:100CF000862F8F73A1F48D2F0E94030481E08EBD97
:100D00000DB407FEFDCF1EBD0DB407FEFDCF8EB5A1
:100D10008D2F9C2FDF91CF911F910C941704DF91A1
:100D2000CF911F910895FC01680F791FE617F7070F
:100D300011F4089500008091C00085FFFBCF8191E0
:100D40008093C600F3CFDC0190E080E0FD010190CC
:100D50000020E9F73197EA1BFB0B8E179F0710F075
:100D6000089500002091C00025FFFBCFFD01E80F92
:100D7000F91F20812093C6000196E8CF08951092B4
:100D8000C50083E38093C400E2ECF0E080818F70C3
:100D90008083808188608083A0ECB0E08C918D7F1F
:100DA0008C93A1ECB0E088E18C938C918B7F8C9339
:100DB000808186608083089580E091E00E9429030D
:100DC000D1E0C0E460E08EE40E94340385B18D2759
:100DD00085B987E893E10197F1F700C000008BB176
:100DE00080588BB987E893E10197F1F700C00000C4
:100DF0008BB18C278BB987E893E10197F1F700C09D
:100E00000000E0CFA1E21A2EAA1BBB1BFD010DC002
:100E1000AA1FBB1FEE1FFF1FA217B307E407F507AA
:100E200020F0A21BB30BE40BF50B661F771F881F86
:100E3000991F1A9469F760957095809590959B011C
:100E4000AC01BD01CF01089569279627692778274E
:100E50008727782708950F931F93CF93DF939C01E3
:100E6000029710F422E030E0E0914F01F091500140
:100E700090E080E0B0E0A0E0309791F4009709F4B2
:100E800045C0821B930B84309105B8F58A819B8104
:100E90006115710569F1FB0193838283FE0111C025
:100EA000408151810281138142175307F0F04217AC
:100EB000530799F4109761F012960C9312971396BA
:100EC0001C933296CF01DF91CF911F910F9108951E
:100ED00000934F0110935001F4CF009719F0481779
:100EE000590718F4CA01BD01EF01DF01F801C4CFB1
:100EF0009093500180934F01D1CFFE01E80FF91F6D
:100F000021933193029799838883DCCF80914D019F
:100F100090914E01892B41F4809110019091110123
:100F200090934E0180934D0180910E0190910F019D
:100F3000009741F48DB79EB7409112015091130173
:100F4000841B950B40914D0150914E014817590754
:100F500008F0B8CF841B950B8217930708F4B2CF23
:100F6000B9016E5F7F4F8617970708F4ABCF640F08
:100F7000751F70934E0160934D01FA0121933193D7
:100F8000A1CFCF93DF939C010097E9F0FC0132974A
:100F900013821282C0914F01D0915001DE0190E086
:100FA00080E02097A1F480819181280F391F8091E2
:100FB0004D0190914E018217930709F067C0F0939D
:100FC0004E01E0934D01DF91CF910895DA01AE1704
:100FD000BF0708F041C012964D915C911397CD0167
:100FE0004115510599F7DC011396FC93EE93129786
:100FF0004D915D91A40FB51FEA17FB0781F4208185
:1010000031812E5F3F4F240F351FDC0111963C9339
:101010002E932281338113963C932E931297B0E046
:10102000A0E08A819B810097B1F5FE0181919191A9
:10103000E80FF91F80914D0190914E018E179F0787
:1010400011F6109759F51092500110924F01D0935C
:101050004E01C0934D01B7CFB383A283408151812C
:10106000240F351FA217B30771F44E5F5F4F2D9108
:101070003C911197420F531F5183408312962D913B
:101080003C9133832283009709F0ADCFF093500158
:10109000E0934F0198CFDE01EC01C3CF13961C9271
:1010A0001E921297D4CFCF92DF92EF92FF92CF93FE
:1010B000DF93CDB7DEB72A970FB6F894DEBF0FBE29
:1010C000CDBF89879A87A985BA852D913D914D918C
:1010D0005C9129833A834B835C83232B242B252B20
:1010E00041F424E239ED4BE557E029833A834B8301
:1010F0005C8369817A818B819C812DE133EF41E0B2
:1011000050E00E94CB0869017A01A7EAB1E49B0193
:10111000AC010E94EA0869837A838B839C83ACEEDE
:10112000B4EFA70196010E94F8089B01AC018981E8
:101130009A81AB81BC81820F931FA41FB51FB7FF9B
:1011400003C00197A109B048E985FA85808391839E
:10115000A283B3839F772A960FB6F894DEBF0FBEA3
:10116000CDBFDF91CF91FF90EF90DF90CF900895AA
:101170000E945308089584E191E00E945308089565
:10118000B0E0A0E08093140190931501A0931601A4
:10119000B09317010895052E97FB1EF400940E944A
:1011A000E20857FD07D00E94020707FC03D04EF467
:1011B0000C94E20850954095309521953F4F4F4F44
:1011C0005F4F089590958095709561957F4F8F4FF3
:1011D0009F4F08950E94FD08A59F900DB49F900D0C
:1011E000A49F800D911D11240895B7FF0C94EA0867
:1011F0000E94EA08821B930B0895A29FB001B39F3F
:10120000C001A39F700D811D1124911DB29F700D0F
:0C121000811D1124911D0895F894FFCF5A
:10121C000000000040420F0001000024F400000018
:08122C00510120000100000047
:00000001FF
