:100000000C9434000C9451000C9451000C94510049
:100010000C9451000C9429040C9451000C94510040
:100020000C9451000C9451000C9451000C9451000C
:100030000C9451000C9451000C9451000C945100FC
:100040000C9451000C9451000C9451000C945100EC
:100050000C9451000C9451000C9451000C945100DC
:100060000C9451000C94510011241FBECFEFD4E02A
:10007000DEBFCDBF11E0A0E0B1E0E4EDF1E102C0F0
:1000800005900D92AA31B107D9F721E0AAE1B1E0BC
:1000900001C01D92A236B207E1F70E94C4060C947B
:1000A000E8080C940000FC0181E0838314828583BE
:1000B00016821782108681871286838714861282A1
:1000C000118287E28083089510921F01811522E03A
:1000D0009207E9F0811524E09207D9F0811528E014
:1000E0009207C9F020E02C60982F907F922B90937C
:1000F0001B019B7F90931C018295807F822B8093B4
:100100001D018B7F80931E018BE191E0089522E019
:10011000EACF21E0E8CF23E0E6CF1F93CF93DF9330
:10012000EC0161110E94530018812A8540E1249F4F
:10013000900111248B8548E0849FC0011124282B55
:10014000392B20628C8544E0849FC0011124822BCE
:10015000932B0E946400412F64E070E00E948903A9
:1001600083EF91E00197F1F700C0000018812A8524
:1001700090E1299F900111248B8548E0849FC00164
:100180001124282B392B20628C8544E0849FC001E8
:100190001124822B932B0E946400412F64E070E0B5
:1001A0000E94890383EF91E00197F1F700C00000FE
:1001B000188181E090E00E946400412F64E070E0CB
:1001C0000E9489038FE097E20197F1F700C00000D9
:1001D00018818B8190E0880F991F2C812460822BDD
:1001E0000E946400412F64E070E00E94890383EF65
:1001F00091E00197F1F700C0000018818D8124E0A3
:10020000829FC00111242E8130E0220F331F822BE8
:10021000932B2F812860822B0E946400412F64E081
:1002200070E00E94890383EF91E00197F1F700C02D
:1002300000001881888528E0829FC001112429854B
:1002400044E0249F90011124822B932B80610E9413
:100250006400412F64E070E00E94890383EF91E025
:100260000197F1F700C00000C88182E090E00E9491
:1002700064004C2F64E070E00E9489038FE097E2F5
:100280000197F1F700C00000DF91CF911F91089511
:10029000FC0122819181992379F0913091F081E0E4
:1002A000820F233108F080E082839F5F211190E06C
:1002B000918380911A01089581E0820F80931A0141
:1002C000EECF85E1FACF8150833038F4E82FF0E0AB
:1002D000E65FFE4F8081860F089580E0FCCFFC0131
:1002E0006281643130F481E0860F828381810C94D5
:1002F00063018181833030F48F5F818381E0828369
:1003000060E0F4CF80E0F9CFFC01892B89F0862FE3
:10031000807F90E1699FB0011124982F9D609083A8
:1003200089608183862F8D608283696063831482F4
:100330000895CF93C62F806890E00E9464004C2FF0
:1003400064E070E00E94890383EF91E00197F1F788
:1003500000C00000CF9108959F92AF92BF92CF92BC
:10036000DF92EF92FF920F931F93CF93DF9300D012
:1003700000D01F92CDB7DEB761157105A9F08B01D2
:100380007C016B0185E0982ECE0101965C01F8019D
:1003900001900020E9F73197E01BF10BC601801BAB
:1003A000910B8E179F0788F00F900F900F900F9072
:1003B0000F90DF91CF911F910F91FF90EF90DF9001
:1003C000CF90BF90AF909F900895F70183858823C9
:1003D00001F1C7010E946F01F70160810E9499013C
:1003E000F501892D11928A95E9F7F60161916F0166
:1003F000C5010E948401F701408164E070E0C501FD
:100400000E94890380EE90E00197F1F700C00000A0
:10041000BECFC7010E944801DFCFDF92EF92FF926B
:100420000F931F93CF93DF930097F9F0122FD42EE1
:100430007B01EC0189E090E00E940707FC01892B19
:10044000A1F000871382128211821082D682178354
:10045000F582E4828E819F81009779F4F983E883A5
:10046000FB83EA8301969F838E83DF91CF911F9157
:100470000F91FF90EF90DF900895A881B981B1832B
:10048000A0831396FC93EE931297F983E883EACF47
:10049000CF93DF93EC01892BA1F08881998100979C
:1004A00081F02A813B818217930771F419821882A7
:1004B0001B821A820E949D078E819F8101979F83D4
:1004C0008E83DF91CF910895FC01A081B181B98322
:1004D000A88313961C921E921297ECCFCF93DF93B2
:1004E000EC018E819F81892B19F4DF91CF910895C2
:1004F000CE010E944802F5CF0F931F93CF93DF9355
:10050000FC01329681E090E08617970728F0DF9192
:10051000CF911F910F910895DF014D915D919C0145
:10052000215031098F0137FD05C0D291C2914C177E
:100530005D0730F0F801518340830196FD01E4CF5F
:10054000D383C283EDCF8AB1837C8AB98BB18C63AC
:100550008BB9DA9AEDE6F0E080818C638083E8E67F
:10056000F0E0808184608083789408950C94A302E5
:1005700086B590E025EA822792270C949C08FC011E
:1005800080E092E1AAE7B0E082879387A487B587ED
:1005900080E89AE1A6E0B0E084839583A683B783E0
:1005A000118681E08087089508950895089508953B
:1005B000CF93DF93EC0188858430E1F168F58130D9
:1005C00099F16A857B858C859D852C813D814E8145
:1005D0005F810E94E506CA01B90160517109810974
:1005E0009109288530E0220F331F032E000C440BA5
:1005F000550B0E94E506223008F422E02093B80053
:100600008091B80090E0B0E0A0E088839983AA834D
:10061000BB83DF91CF9108958031A9F0803489F6B2
:100620008091B900826009C08091B9008C7F80936D
:10063000B900C7CF8091B9008D7F8093B9008091B8
:10064000B9008160F4CF8091B90082608093B900D5
:100650008091B9008E7FEBCFCF93DF93EC0187B110
:100660008F7C87B988B1806388B9662319F0CE0181
:100670000E94BF02CE01DF91CF910C94D802089561
:10068000880F682B8091BC00846A8093BC008091A5
:10069000BC0087FFFCCF6093BB008091BC008F7DC6
:1006A0008093BC008091BC0084688093BC008091E2
:1006B000BC0087FFFCCF8091B900887F0895ECEBE8
:1006C000F0E08081846980838091B900887F0895FB
:1006D0001F93CF93DF93D82F162FCAE061E011301C
:1006E00009F060E08D2F0E944003883159F090910D
:1006F000BC0094699093BC0096E09A95F1F700C015
:10070000C15061F7DF91CF911F9108958091B90099
:1007100008950F931F93CF93DF93EC01892B21F161
:10072000842F8B0160E00E9468030C0F1D1F94E86A
:100730008831B1F08091B900DF91CF911F910F9175
:100740000C945F038091BC0087FFFCCF899180935C
:10075000BB009093BC008091B900887F8832D9F7A4
:10076000C017D10779F7E8CF81E0DF91CF911F91D2
:100770000F910895009739F0FC01680F791F94E8F4
:10078000E617F70711F481E008958091BC0087FF18
:10079000FCCF81918093BB009093BC008091B90005
:1007A000887F8832D9F7ECCF0F931F93CF93DF93D5
:1007B000EC0181E02097A1F0842F8B0161E00E9481
:1007C00068030C0F1D1F94E88831E9F08091B9008F
:1007D0008091BC0084698093BC008091B900887FBF
:1007E000DF91CF911F910F9108958091BC0087FFF9
:1007F000FCCF89918093BB009093BC008091B9009D
:10080000887F8832D9F7C017D10779F7E1CF0097F1
:10081000F1F0FC01680F791F94E8E617F70741F43F
:100820009091B900987F81E0983291F480E008952A
:100830008091BC0087FFFCCF81918093BB00909397
:10084000BC008091B900887F8832D9F7E6CF81E07B
:1008500008951F920F920FB60F9211240F900FBEA2
:100860000F901F901895FC01A281B3811296ED9113
:10087000FC911397208114963C9181E090E001C097
:10088000880F3A95EAF78095822380830895FC01CA
:10089000A281B3811296ED91FC91139780811496F9
:1008A0009C9121E030E001C0220F9A95EAF7822B5B
:1008B00080830895DC01ED91FC91A581B6818C9136
:1008C0008230C1F028F4811111C01082118202C05F
:1008D000833099F012968C91803131F188F4843014
:1008E000D9F08830E9F0823091F00895108281E0EB
:1008F0008183F0CF81E08083E9CF81E08083F8CFEE
:100900008034D1F08038D9F0803291F0089513828C
:10091000148281E0828308951382148212820895E2
:10092000138281E08483F6CF138281E08483F6CF43
:1009300081E083831482EECF81E08383EECF81E078
:100940008383F4CFCF93DF93EC010E945A0484B1E8
:100950008C6284B9249885B18C6385B9AA81BB81E6
:10096000ED91FC911197208114963C9181E090E0EB
:10097000AC0101C0440F3A95EAF7242B2083AA81E9
:10098000BB811296ED91FC911397208114963C91B6
:1009900001C0880F3A95EAF7822B80838CB5E881F5
:1009A000F9810580F681E02D938190FB87F98CBD5C
:1009B0008CB5E881F9810580F681E02D918190FB6D
:1009C00085F98CBD8CB5E881F9810580F681E02D33
:1009D000958190FB84F98CBD8CB5E881F98190817B
:1009E00090FB83F98CBD8CB5E881F981918190FBF6
:1009F00082F98CBD8CB5E881F981938190FB81F9F6
:100A00008CBD8CB5E881F981948190FB80F98CBD17
:100A10008DB5E881F981928190FB80F98DBD8CB50F
:100A2000E881F9810580F681E02D948190FB86F9BB
:100A30008CBDDF91CF9108950F931F93CF93DF93D8
:100A40008C01EB010E94330490E080E0FE010190F4
:100A50000020E9F73197EC1BFD0B8E179F0738F04C
:100A6000C801DF91CF911F910F910C944704FE01B3
:100A7000E80FF91F20812EBD0DB407FEFDCF0196B2
:100A8000E5CFFC01680F791FE617F70709F4089511
:100A900081918EBD0DB407FEFDCFF6CF8EBD0DB496
:100AA00007FEFDCF08958EBD0DB407FEFDCF8EB5B8
:100AB0000895EF92FF920F931F93CF93DF938C01D2
:100AC0007B01EA010E943304F701CE0DDF1DEC1714
:100AD000FD0749F4C801DF91CF911F910F91FF905D
:100AE000EF900C9447041EBC0DB407FEFDCF8EB5ED
:100AF0008193EDCFFC01680F791FE617F70709F422
:100B000008951EBC0DB407FEFDCF8EB58193F5CFC1
:100B1000FC011EBC0DB407FEFDCF8EB58083089589
:100B20000895CF93DF9300D000D0CDB7DEB799837F
:100B30008A837B836C8364E070E0CE0101960E941F
:100B400041050F900F900F900F90DF91CF91089576
:100B5000CF92DF92EF92FF920F931F93CF93DF9389
:100B60001F92CDB7DEB78C01698369017A010E94BB
:100B70003304C701B60192600E94910561E070E004
:100B8000CE0101960E944105C8010E9447040F90C2
:100B9000DF91CF911F910F91FF90EF90DF90CF9059
:100BA0000895AF92BF92CF92DF92EF92FF920F9390
:100BB0001F93CF93DF93EC015B0169017A010E94DF
:100BC0003304C701B60192600E949105B801C501C6
:100BD0000E944105CE01DF91CF911F910F91FF90AF
:100BE000EF90DF90CF90BF90AF900C944704CF92DE
:100BF000DF92EF92FF920F931F93CF93DF93EC015D
:100C00008B0169017A01FB0110820E943304C70144
:100C1000B60193600E9491051EBC0DB407FEFDCF86
:100C20008EB5F8018083CE01DF91CF911F910F9196
:100C3000FF90EF90DF90CF900C9447048F929F929B
:100C4000AF92BF92CF92DF92EF92FF920F931F93DA
:100C5000CF93DF934C01EB015A0179010E943304D9
:100C6000C701B80193600E949105B501CE010E94B1
:100C70007A05C401DF91CF911F910F91FF90EF9002
:100C8000DF90CF90BF90AF909F908F900C944704CF
:100C9000CF93DF93EC010E94330485E08EBD0DB449
:100CA00007FEFDCF8FEF8EBD0DB407FEFDCF8EB5D5
:100CB000CE01DF91CF910C9447041F93CF93DF9324
:100CC000262F2F73A1F4162FEC010E94330481E02C
:100CD0008EBD0DB407FEFDCF1EBD0DB407FEFDCFCA
:100CE0008EB5CE01DF91CF911F910C944704DF9117
:100CF000CF911F910895FC01680F791FE617F70740
:100D000011F4089500008091C00085FFFBCF819110
:100D10008093C600F3CFDC0190E080E0FD010190FC
:100D20000020E9F73197EA1BFB0B8E179F0710F0A5
:100D3000089500002091C00025FFFBCFFD01E80FC2
:100D4000F91F20812093C6000196E8CF08951092E4
:100D5000C50083E38093C400E2ECF0E080818F70F3
:100D60008083808188608083A0ECB0E08C918D7F4F
:100D70008C93A1ECB0E088E18C938C918B7F8C9369
:100D8000808186608083089561E082E391E00E9423
:100D90002C0361E085E291E00E948D002FE78AE15B
:100DA00096E0215080409040E1F700C000006DE0E7
:100DB00071E085E291E00E94AC012FEF81E19AE7BA
:100DC000215080409040E1F7F0CFA1E21A2EAA1BFB
:100DD000BB1BFD010DC0AA1FBB1FEE1FFF1FA217EB
:100DE000B307E407F50720F0A21BB30BE40BF50BE8
:100DF000661F771F881F991F1A9469F76095709571
:100E0000809590959B01AC01BD01CF0108950F9392
:100E10001F93CF93DF939C01029710F422E030E000
:100E2000E0916001F091610190E080E0B0E0A0E02D
:100E3000309791F4009709F445C0821B930B8430DE
:100E40009105B8F58A819B816115710569F1FB01F6
:100E500093838283FE0111C04081518102811381FD
:100E600042175307F0F04217530799F4109761F0B7
:100E700012960C93129713961C933296CF01DF9122
:100E8000CF911F910F91089500936001109361011C
:100E9000F4CF009719F04817590718F4CA01BD019B
:100EA000EF01DF01F801C4CF9093610180936001ED
:100EB000D1CFFE01E80FF91F219331930297998357
:100EC0008883DCCF80915E0190915F01892B41F492
:100ED000809102019091030190935F0180935E01E4
:100EE0008091000190910101009741F48DB79EB768
:100EF0004091040150910501841B950B40915E01C6
:100F000050915F014817590708F0B8CF841B950B23
:100F10008217930708F4B2CFB9016E5F7F4F86172F
:100F2000970708F4ABCF640F751F70935F01609350
:100F30005E01FA0121933193A1CFCF93DF939C01FE
:100F40000097E9F0FC01329713821282C091600190
:100F5000D0916101DE0190E080E02097A1F48081D2
:100F60009181280F391F80915E0190915F01821756
:100F7000930709F067C0F0935F01E0935E01DF9192
:100F8000CF910895DA01AE17BF0708F041C012965D
:100F90004D915C911397CD014115510599F7DC01F5
:100FA0001396FC93EE9312974D915D91A40FB51F8C
:100FB000EA17FB0781F4208131812E5F3F4F240F18
:100FC000351FDC0111963C932E93228133811396B9
:100FD0003C932E931297B0E0A0E08A819B8100970A
:100FE000B1F5FE0181919191E80FF91F80915E01A9
:100FF00090915F018E179F0711F6109759F5109287
:10100000610110926001D0935F01C0935E01B7CF80
:10101000B383A28340815181240F351FA217B307E8
:1010200071F44E5F5F4F2D913C911197420F531F0A
:101030005183408312962D913C91338322830097F4
:1010400009F0ADCFF0936101E093600198CFDE012C
:10105000EC01C3CF13961C921E921297D4CFCF925D
:10106000DF92EF92FF92CF93DF93CDB7DEB72A974F
:101070000FB6F894DEBF0FBECDBF89879A87A985CA
:10108000BA852D913D914D915C9129833A834B8393
:101090005C83232B242B252B41F424E239ED4BE5F3
:1010A00057E029833A834B835C8369817A818B8102
:1010B0009C812DE133EF41E050E00E94A7086901D7
:1010C0007A01A7EAB1E49B01AC010E94C6086983DA
:1010D0007A838B839C83ACEEB4EFA70196010E94C8
:1010E000D4089B01AC0189819A81AB81BC81820FBC
:1010F000931FA41FB51FB7FF03C00197A109B048F4
:10110000E985FA8580839183A283B3839F772A96AA
:101110000FB6F894DEBF0FBECDBFDF91CF91FF9029
:10112000EF90DF90CF9008950E942F08089586E0F9
:1011300091E00E942F080895B0E0A0E0809306019E
:1011400090930701A0930801B09309010895052E1B
:1011500097FB1EF400940E94BE0857FD07D00E9422
:10116000E50607FC03D04EF40C94BE08509540955C
:10117000309521953F4F4F4F5F4F08959095809543
:10118000709561957F4F8F4F9F4F08950E94D908AA
:10119000A59F900DB49F900DA49F800D911D1124CB
:1011A0000895B7FF0C94C6080E94C608821B930BD3
:1011B0000895A29FB001B39FC001A39F700D811D30
:1011C0001124911DB29F700D811D1124911D089550
:0411D000F894FFCFC1
:1011D4000000620120000100000040145448454C06
:0A11E4004C4F20574F524C4420009E
:00000001FF
