:100000000C9434000C9451000C9451000C94510049
:100010000C9451000C9451000C9451000C9451001C
:100020000C9451000C9451000C9451000C9451000C
:100030000C9451000C9451000C9451000C945100FC
:100040000C9451000C9451000C9451000C945100EC
:100050000C9451000C9451000C9451000C945100DC
:100060000C9451000C94510011241FBECFEFD8E026
:10007000DEBFCDBF11E0A0E0B1E0E2EBF0E102C0F5
:1000800005900D92A232B107D9F721E0A2E2B1E0CA
:1000900001C01D92AE35B207E1F70E9475070C94BE
:1000A00057080C940000CF93DF93DC01EEE2F1E0FF
:1000B00091E0948313821082118282E0828395837F
:1000C000C7E2D1E0FE83ED83E2E2F1E024E230E03A
:1000D0003183208325E230E0338322839483119699
:1000E000DC93CE931396FC93EE931297DF91CF910E
:1000F0000895FC01128613861486158614821582D3
:1001000016821782118681E08087089508950895E8
:1001100008950895CF92DF92EF92FF92CF93DF93ED
:10012000EC0188858430C9F150F5813081F12C8152
:100130003D814E815F816A857B858C859D856B01C4
:100140007C01F4E0F694E794D794C794FA95D1F73C
:100150002C153D054E055F0590F11092B800809179
:10016000B80090E0B0E0A0E088839983AA83BB83C5
:10017000DF91CF91FF90EF90DF90CF900895803185
:10018000A9F08034A1F68091B900826009C0809105
:10019000B9008C7F8093B900CACF8091B9008D7F60
:1001A0008093B9008091B9008160F4CF8091B9004B
:1001B00082608093B9008091B9008E7FEBCF0E945E
:1001C0009807CA01B901605171098109910928850F
:1001D00030E050E040E0220F331F441F551F0E94C3
:1001E00098072F3F31054105510529F020F02FEFE9
:1001F00030E040E050E02093B800B1CF27B12F7C31
:1002000027B928B1206328B90C948A000895880F73
:10021000682B8091BC00846A8093BC008091BC00F4
:1002200087FFFCCF6093BB008091BC008F7D8093E3
:10023000BC008091BC0084688093BC008091BC00AD
:1002400087FFFCCF8091B900887F0895ECEBF0E048
:100250008081846980838091B900887F08951F938D
:10026000CF93DF93D82F162FCAE061E0113009F049
:1002700060E08D2F0E940701883159F09091BC00F9
:1002800094699093BC0095E09A95F1F70000C150F5
:1002900061F7DF91CF911F9108958091B900089582
:1002A0000F931F93CF93DF93EC01892B21F1842FC0
:1002B0008B0160E00E942F010C0F1D1F94E8883114
:1002C000B1F08091B900DF91CF911F910F910C9403
:1002D00026018091BC0087FFFCCF89918093BB00F1
:1002E0009093BC008091B900887F8832D9F7C017FD
:1002F000D10779F7E8CF81E0DF91CF911F910F917E
:100300000895009739F0FC01680F791F24E8E6177B
:10031000F70711F481E008958091BC0087FFFCCFBE
:1003200081918093BB002093BC009BE08091B90039
:10033000887F883261F3915051F385E08A95F1F717
:100340000000F4CF0F931F93CF93DF93EC0181E074
:100350002097A1F0842F8B0161E00E942F010C0FE8
:100360001D1F94E88831E9F08091B9008091BC00AC
:1003700084698093BC008091B900887FDF91CF9120
:100380001F910F9108958091BC0087FFFCCF899148
:100390008093BB009093BC008091B900887F883225
:1003A000D9F7C017D10779F7E1CF0097F1F0FC0139
:1003B000680F791F94E8E617F70741F49091B900A8
:1003C000987F81E0983291F480E008958091BC009C
:1003D00087FFFCCF81918093BB009093BC008091FC
:1003E000B900887F8832D9F7E6CF81E00895FC0113
:1003F00081E0838314828583168217821086818729
:100400001286838714861282118287E28083089580
:1004100010923901811522E09207E9F0811524E05C
:100420009207D9F0811528E09207C9F020E02C60EE
:10043000982F907F922B909335019B7F909336015C
:100440008295807F822B809337018B7F8093380148
:1004500085E391E0089522E0EACF21E0E8CF23E0B0
:10046000E6CF1F93CF93DF93EC0161110E94F70158
:1004700018812A8540E1249F900111248B8548E052
:10048000849FC0011124282B392B20628C8544E0E5
:10049000849FC0011124822B932B0E940802412FBC
:1004A00064E070E00E94500183EF91E00197F1F762
:1004B00000C0000018812A8590E1299F9001112435
:1004C0008B8548E0849FC0011124282B392B2062A2
:1004D0008C8544E0849FC0011124822B932B0E94C1
:1004E0000802412F64E070E00E94500183EF91E028
:1004F0000197F1F700C00000188181E090E00E94B0
:100500000802412F64E070E00E9450018FE097E202
:100510000197F1F700C0000018818B8190E0880FEF
:10052000991F2C812460822B0E940802412F64E0D5
:1005300070E00E94500183EF91E00197F1F700C055
:10054000000018818D8124E0829FC00111242E813A
:1005500030E0220F331F822B932B2F812860822BB8
:100560000E940802412F64E070E00E94500183EF76
:1005700091E00197F1F700C000001881888528E01C
:10058000829FC0011124298544E0249F90011124F9
:10059000822B932B80610E940802412F64E070E05F
:1005A0000E94500183EF91E00197F1F700C0000035
:1005B000C88182E090E00E9408024C2F64E070E065
:1005C0000E9450018FE097E20197F1F700C0000010
:1005D000DF91CF911F910895FC0122819181992390
:1005E00079F0913091F081E0820F233108F080E0C2
:1005F00082839F5F211190E091838091340108955F
:1006000081E0820F80933401EECF85E1FACF8150F3
:10061000833038F4E82FF0E0E25FFE4F8081860FF0
:10062000089580E0FCCFFC016281643130F481E008
:10063000860F828381810C9407038181833030F49B
:100640008F5F818381E0828360E0F4CF80E0F9CF27
:10065000FC01892B89F0862F807F90E1699FB00192
:100660001124982F9D60908389608183862F8D60EF
:1006700082836960638314820895CF93C62F806854
:1006800090E00E9408024C2F64E070E00E9450014C
:1006900083EF91E00197F1F700C00000CF9108953A
:1006A0009F92AF92BF92CF92DF92EF92FF920F9301
:1006B0001F93CF93DF9300D000D01F92CDB7DEB74A
:1006C00061157105A9F08B017C016B0185E0982E05
:1006D000CE0101965C01F80101900020E9F7319705
:1006E000E01BF10BC601801B910B8E179F0788F052
:1006F0000F900F900F900F900F90DF91CF911F915F
:100700000F91FF90EF90DF90CF90BF90AF909F90B0
:100710000895F7018385882301F1C7010E9413031F
:10072000F70160810E943D03F501892D11928A95A0
:10073000E9F7F60161916F01C5010E942803F701F5
:10074000408164E070E0C5010E94500180EE90E0BD
:100750000197F1F700C00000BECFC7010E94EC0274
:10076000DFCFCF93DF9300D000D0CDB7DEB7998332
:100770008A837B836C8364E070E0CE0101960E94E3
:10078000DD060F900F900F900F90DF91CF9108959D
:10079000CF92DF92EF92FF920F931F93CF93DF934D
:1007A0001F92CDB7DEB78C01698369017A010E947F
:1007B000D405C701B60192600E94B10361E070E008
:1007C000CE0101960E94DD06C8010E94E8050F9047
:1007D000DF91CF911F910F91FF90EF90DF90CF901D
:1007E0000895CF92DF92EF92FF921F93CF93DF9302
:1007F000EC01162F672F69017A010E94C803A70137
:1008000096012F5F3F4F4F4F5F4F612FCE01DF911A
:10081000CF911F91FF90EF90DF90CF900C94C80381
:100820008F929F92AF92BF92CF92DF92EF92FF9200
:100830000F931F93CF93DF93EC014A015B01790182
:100840006B2D772788279927A9019801CE010E944F
:10085000C803A70198012F5F3F4F4F4F5F4FB5016E
:1008600088279927CE010E94C803A70198012E5F0F
:100870003F4F4F4F5F4F99278B2D7A2D692DCE011A
:100880000E94C803A70198012D5F3F4F4F4F5F4F54
:10089000682DCE01DF91CF911F910F91FF90EF90C6
:1008A000DF90CF90BF90AF909F908F900C94C80333
:1008B000AF92BF92CF92DF92EF92FF920F931F936E
:1008C000CF93DF93EC015B0169017A010E94D405AB
:1008D000C701B60192600E94B103B801C5010E9430
:1008E000DD06CE01DF91CF911F910F91FF90EF9028
:1008F000DF90CF90BF90AF900C94E805CF92DF923D
:10090000EF92FF920F931F93CF93DF93EC018B0134
:1009100069017A01FB0110820E94D405C701B6016A
:1009200093600E94B1031EBC0DB407FEFDCF8EB5CF
:10093000F8018083CE01DF91CF911F910F91FF903D
:10094000EF90DF90CF900C94E805AF92BF92CF92DA
:10095000DF92EF92FF920F931F93CF93DF931F923B
:10096000CDB7DEB75C018B0169017A01FB01118211
:1009700010821982BE016F5F7F4F0E947E04298121
:10098000F80180819181922B91838083A701960148
:100990002F5F3F4F4F4F5F4FBE016F5F7F4FC501CE
:1009A0000E947E042981F80180819181822B9183AC
:1009B00080830F90DF91CF911F910F91FF90EF9067
:1009C000DF90CF90BF90AF900895AF92BF92CF923B
:1009D000DF92EF92FF920F931F93CF93DF931F92BB
:1009E000CDB7DEB75C018B0169017A01FB01108292
:1009F0001182128213821982BE016F5F7F4F0E94A3
:100A00007E042981F80180819181A281B381B22B7A
:100A100080839183A283B383A70196012F5F3F4F09
:100A20004F4F5F4FBE016F5F7F4FC5010E947E0435
:100A30002981F80180819181A281B381A22B8083D9
:100A40009183A283B383A70196012E5F3F4F4F4F3F
:100A50005F4FBE016F5F7F4FC5010E947E042981F9
:100A6000F80180819181A281B381922B808391834F
:100A7000A283B383A70196012D5F3F4F4F4F5F4F76
:100A8000BE016F5F7F4FC5010E947E042981F8017E
:100A900080819181A281B381822B80839183A28303
:100AA000B3830F90DF91CF911F910F91FF90EF9043
:100AB000DF90CF90BF90AF9008958F929F92AF92AA
:100AC000BF92CF92DF92EF92FF920F931F93CF933B
:100AD000DF934C01EB015A0179010E94D405C70153
:100AE000B80193600E94B103B501CE010E941707BF
:100AF000C401DF91CF911F910F91FF90EF90DF9094
:100B0000CF90BF90AF909F908F900C94E805CF93BB
:100B1000DF93EC010E94D40585E08EBD0DB407FE85
:100B2000FDCF8FEF8EBD0DB407FEFDCFCE01DF915F
:100B3000CF910C94E8051F93CF93DF93262F2F734B
:100B400099F4162FEC010E94D40581E08EBD0DB4FE
:100B500007FEFDCF1EBD0DB407FEFDCFCE01DF9118
:100B6000CF911F910C94E805DF91CF911F910895CB
:100B70008AB1837C8AB98BB18C638BB9DA9AEDE642
:100B8000F0E080818C638083E8E6F0E0808184601F
:100B90008083789408950C94B80586B590E025EA92
:100BA000822792270C940B08FC01A281B381129634
:100BB000ED91FC911397208114963C9181E090E097
:100BC00001C0880F3A95EAF78095822380830895C3
:100BD000FC01A281B3811296ED91FC911397808163
:100BE00014969C9121E030E001C0220F9A95EAF71B
:100BF000822B80830895DC01ED91FC91A581B68163
:100C00008C918130C1F0A0F08230C1F08330C9F006
:100C100012968C91803151F1B8F48430F9F088301B
:100C200009F18230F1F41382148281E08283089505
:100C300010821182EDCF10828183EACF81E0808320
:100C4000F8CF81E08083F8CF8034A1F08038A9F01C
:100C5000803239F481E083831482E8CF13821482D6
:100C600012820895138281E08483E0CF138281E0B1
:100C70008483F6CF81E08383F2CF81E08383F8CF52
:100C8000CF93DF93EC010E94FB0584B18C6284B9A1
:100C9000249885B18C6385B9AA81BB81ED91FC91C3
:100CA0001197208114963C9181E090E0AC0101C045
:100CB000440F3A95EAF7242B2083AA81BB81129630
:100CC000ED91FC911397208114963C9101C0880FFF
:100CD0003A95EAF7822B80838CB5E881F98105800B
:100CE000F681E02D938190FB87F98CBD8CB5E8816E
:100CF000F9810580F681E02D918190FB85F98CBD0D
:100D00008CB5E881F9810580F681E02D958190FB15
:100D100084F98CBD8CB5E881F981908190FB83F9D1
:100D20008CBD8CB5E881F981918190FB82F98CBDF5
:100D30008CB5E881F981938190FB81F98CBD8CB5EC
:100D4000E881F981948190FB80F98CBD8DB5E881B3
:100D5000F981928190FB80F98DBD8CB5E881F98194
:100D60000580F681E02D948190FB86F98CBDDF91A2
:100D7000CF9108950F931F93CF93DF938C01EB01D5
:100D80000E94D405DE01FE0101900020E9F73197B1
:100D9000EC1BFD0BCD018C1B9D0B8E179F0738F0B4
:100DA000C801DF91CF911F910F910C94E8058D91AF
:100DB0008EBD0DB407FEFDCFE6CF680F791F8617F5
:100DC000970709F40895FC012191CF012EBD0DB4C0
:100DD00007FEFDCFF4CF8EBD0DB407FEFDCF089505
:100DE0008EBD0DB407FEFDCF8EB50895EF92FF9234
:100DF0000F931F93CF93DF938C017B01EA010E9435
:100E0000D405F701CE0DDF1DEC17FD0749F4C8012D
:100E1000DF91CF911F910F91FF90EF900C94E80517
:100E20001EBC0DB407FEFDCF8EB58193EDCF680FCC
:100E3000791F8617970709F408951EBC0DB407FEA5
:100E4000FDCF2EB5FC012193CF01F3CF1EBC0DB415
:100E500007FEFDCF2EB5FC0120830895680F791F92
:100E60008617970711F4089500002091C00025FF10
:100E7000FBCFFC012191CF012093C600F1CFDC0113
:100E8000FC0101900020E9F73197E81BF90B9D0167
:100E9000281B390B2E173F0710F0089500002091F2
:100EA000C00025FFFBCF2D912093C600E9CF089508
:100EB0001092C50087E68093C400E2ECF0E08081E8
:100EC0008F708083808188608083A0ECB0E08C91FB
:100ED0008D7F8C93A1ECB0E088E18C938C918B7F1B
:100EE0008C93808186608083089561E08CE491E03A
:100EF0000E94FE0061E08FE391E00E9431022FEF3B
:100F000081EE94E0215080409040E1F700C0000065
:100F10002FEF83ED90E3215080409040E1F700C037
:100F2000000061E171E08FE391E00E945003F0CF97
:100F3000A1E21A2EAA1BBB1BFD010DC0AA1FBB1FDD
:100F4000EE1FFF1FA217B307E407F50720F0A21B4F
:100F5000B30BE40BF50B661F771F881F991F1A94BC
:100F600069F760957095809590959B01AC01BD01E6
:100F7000CF0108958F929F92AF92BF92CF92DF924E
:100F8000EF92FF92CF93DF93EC01688179818A81A0
:100F90009B81611571058105910521F464E279ED6C
:100FA0008BE597E02DE133EF41E050E00E94160819
:100FB00049015A019B01AC01A7EAB1E40E9435083E
:100FC0006B017C01ACEEB4EFA50194010E944308D3
:100FD000DC01CB018C0D9D1DAE1DBF1DB7FF03C0F5
:100FE0000197A109B04888839983AA83BB839F771F
:100FF000DF91CF91FF90EF90DF90CF90BF90AF90B7
:101000009F908F9008950E94BA0708958AE091E01A
:101010000E94BA070895B0E0A0E080930A0190937F
:101020000B01A0930C01B0930D010895052E97FBC1
:101030001EF400940E942D0857FD07D00E949807C7
:1010400007FC03D04EF40C942D0850954095309534
:1010500021953F4F4F4F5F4F089590958095709524
:1010600061957F4F8F4F9F4F08950E944808A59F1D
:10107000900DB49F900DA49F800D911D1124089593
:10108000B7FF0C9435080E943508821B930B089516
:10109000A29FB001B39FC001A39F700D811D1124B9
:1010A000911DB29F700D811D1124911D0895F8941A
:0210B000FFCF70
:1010B2000102030405060708090A010000004014A2
:1010C2005448454C4C4F20574F524C4420554D42AA
:0210D20000001C
:00000001FF
