:100000000C9434000C9451000C9451000C94510049
:100010000C94D5010C94B7010C9451000C94510030
:100020000C9451000C9451000C9451000C9451000C
:100030000C9451000C9451000C9451000C945100FC
:100040000C9451000C9451000C9451000C945100EC
:100050000C9451000C9451000C9451000C945100DC
:100060000C9451000C94510011241FBECFEFD8E026
:10007000DEBFCDBF11E0A0E0B1E0E4E5F6E302C0F1
:1000800005900D92A43AB107D9F722E0A4EAB1E0B5
:1000900001C01D92AD39B207E1F70E94B1150C9471
:1000A000281B0C940000CF92DF92EF92FF920F93E7
:1000B0001F9300E010E09801680179018FEFC81AE2
:1000C000D80AE80AF80A00FD08C04FEF60E080E0B7
:1000D0000E945D0F97018601EFCF40E060E080E075
:1000E0000E945D0F97018601C11481E0D806E104EA
:1000F000F10411F71F910F91FF90EF90DF90CF90D7
:100100000895CF92DF92EF92FF920F931F9300E03A
:1001100010E09801680179018FEFC81AD80AE80A3F
:10012000F80A00FF14C04FEF60E080E00E945D0F0E
:1001300097018601C11481E0D806E104F10451F76A
:100140001F910F91FF90EF90DF90CF90089540E0C6
:1001500060E080E00E945D0F97018601DBCFCF93C6
:10016000DF93C4EAD1E083E090E0A0E0B0E08E8FBE
:100170009F8FA8A3B9A38AEA90E09BA38AA38BEBE5
:1001800090E09DA38CA38CEC90E09FA38EA381E8CC
:1001900090E09B8F8A8F89E990E0998F888F60E14A
:1001A00071E080EB91E00E94101866E171E0CE01F1
:1001B0000E9410180E94A9110E9408111E8E1F8E05
:1001C00018A219A21BA21AA21DA21CA21FA21EA243
:1001D0001B8E1A8E198E188E8CE0E0EBF1E0DF0199
:1001E000982F1D929A95E9F7DE011D928A95E9F7FD
:1001F000DF91CF910895CF93DF93DC01EEE2F2E03F
:1002000081E0848313821082118292E0928385833D
:10021000C7E2D2E0FE83ED83E2E2F2E024E230E0E6
:100220003183208325E230E0338322838483119657
:10023000DC93CE931396FC93EE931297DF91CF91BC
:100240000895DF92EF92FF920F931F93CF93DF9366
:100250000097F9F0122FD42E7B01EC0189E090E099
:100260000E948416FC01892BA1F000871382128260
:1002700011821082D6821783F582E4828E819F815B
:10028000009779F4F983E883FB83EA8301969F83DF
:100290008E83DF91CF911F910F91FF90EF90DF90B0
:1002A0000895A881B981B183A0831396FC93EE933E
:1002B0001297F983E883EACFCF93DF93EC01892B80
:1002C000A1F088819981009781F02A813B81821772
:1002D000930771F4198218821B821A820E941A17DE
:1002E0008E819F8101979F838E83DF91CF910895A7
:1002F000FC01A081B181B983A88313961C921E9240
:100300001297ECCFCF93DF93EC018E819F81892BE5
:1003100019F4DF91CF910895CE010E945C01F5CFD1
:100320000F931F93CF93DF93FC01329681E090E00F
:100330008617970728F0DF91CF911F910F910895AD
:10034000DF014D915D919C01215031098F0137FDF5
:1003500005C0D291C2914C175D0730F0F80151836E
:1003600040830196FD01E4CFD383C283EDCF8F9309
:100370008FB78F939F9399B18091010189279093B3
:10038000010182FF03C091E09093340283FF03C018
:1003900092E09093340284FF03C083E080933402A0
:1003A0009F918F918FBF8F9118958F938FB78F9358
:1003B0009F9396B18091000189279093000180FF5F
:1003C00003C084E0809334029F918F918FBF8F91FF
:1003D0001895FC0180E092E1AAE7B0E0828793875C
:1003E000A487B58780E89AE1A6E0B0E0848395838E
:1003F000A683B783118681E08087089508950895C4
:1004000008950895CF93DF93EC0188858430E1F15E
:1004100068F5813099F16A857B858C859D852C8175
:100420003D814E815F810E944116CA01B901605130
:10043000710981099109288530E0220F331F032EAD
:10044000000C440B550B0E944116223008F422E0A8
:100450002093B8008091B80090E0B0E0A0E08883DD
:100460009983AA83BB83DF91CF9108958031A9F04E
:10047000803489F68091B900826009C08091B9000A
:100480008C7F8093B900C7CF8091B9008D7F809316
:10049000B9008091B9008160F4CF8091B900826089
:1004A0008093B9008091B9008E7FEBCFCF93DF931B
:1004B000EC0187B18F7C87B988B1806388B96623E6
:1004C00019F0CE010E94E901CE01DF91CF910C9489
:1004D00002020895880F682B8091BC00846A809383
:1004E000BC008091BC0087FFFCCF6093BB00809173
:1004F000BC008F7D8093BC008091BC008468809399
:10050000BC008091BC0087FFFCCF8091B900887F40
:100510000895ECEBF0E08081846980838091B900DC
:10052000887F08951F93CF93DF93D82F162FCAE0AB
:1005300061E0113009F060E08D2F0E946A0288317D
:1005400059F09091BC0094699093BC0096E09A9504
:10055000F1F700C0C15061F7DF91CF911F9108956D
:100560008091B90008950F931F93CF93DF93EC010F
:10057000892B21F1842F8B0160E00E9492020C0FE5
:100580001D1F94E88831B1F08091B900DF91CF91BF
:100590001F910F910C9489028091BC0087FFFCCFC2
:1005A00089918093BB009093BC008091B900887FB3
:1005B0008832D9F7C017D10779F7E8CF81E0DF910A
:1005C000CF911F910F910895009739F0FC01680FAA
:1005D000791F94E8E617F70711F481E008958091F8
:1005E000BC0087FFFCCF81918093BB009093BC003F
:1005F0008091B900887F8832D9F7ECCF0F931F9391
:10060000CF93DF93EC0181E02097A1F0842F8B0141
:1006100061E00E9492020C0F1D1F94E88831E9F0FE
:100620008091B9008091BC0084698093BC00809166
:10063000B900887FDF91CF911F910F91089580912C
:10064000BC0087FFFCCF89918093BB009093BC00D6
:100650008091B900887F8832D9F7C017D10779F720
:10066000E1CF0097F1F0FC01680F791F94E8E617DD
:10067000F70741F49091B900987F81E0983291F4A6
:1006800080E008958091BC0087FFFCCF819180932A
:10069000BB009093BC008091B900887F8832D9F765
:1006A000E6CF81E00895DC01ED91FC910580F681B3
:1006B000E02D14828CB52CB590E08F7B80959095C1
:1006C00082238CBD0895FC01A281B3811296ED9125
:1006D000FC911397208114963C9181E090E001C039
:1006E000880F3A95EAF78095822380830895FC016C
:1006F000A281B3811296ED91FC911397808114969B
:100700009C9121E030E001C0220F9A95EAF7822BFC
:1007100080830895DC01ED91FC91A581B6818C91D7
:100720008230C1F028F4811111C01082118202C000
:10073000833099F012968C91803131F188F48430B5
:10074000D9F08830E9F0823091F00895108281E08C
:100750008183F0CF81E08083E9CF81E08083F8CF8F
:100760008034D1F08038D9F0803291F0089513822E
:10077000148281E082830895138214821282089584
:10078000138281E08483F6CF138281E08483F6CFE5
:1007900081E083831482EECF81E08383EECF81E01A
:1007A0008383F4CFCF93DF93EC010E948A0384B15B
:1007B0008C6284B9249885B18C6385B9AA81BB8188
:1007C000ED91FC911197208114964C9181E090E07D
:1007D000BC0102C0660F771F4A95E2F7262B2083E3
:1007E000AA81BB811296ED91FC91139720811496FA
:1007F0003C9101C0880F3A95EAF7822B80838CB533
:10080000E881F9810580F681E02D938190FB87F9DD
:100810008CBD8CB5E881F9810580F681E02D918150
:1008200090FB85F98CBD8CB5E881F9810580F68156
:10083000E02D958190FB84F98CBD8CB5E881F98120
:10084000908190FB83F98CBD8CB5E881F981918111
:1008500090FB82F98CBD8CB5E881F981938190FB86
:1008600081F98CBD8CB5E881F981948190FB80F988
:100870008CBD8DB5E881F981928190FB80F98DBDA9
:100880008CB5E881F9810580F681E02D948190FB9B
:1008900086F98CBDDF91CF910895FC01A081B181D3
:1008A00015960D90BC91A02D81E014968C93CF01EC
:1008B0000C94D2030F931F93CF93DF93D82FC92F9C
:1008C0008B010E946303D80180E090E0F801019061
:1008D0000020E9F73197E01BF10B8E179F0740F0DE
:1008E0008D2F9C2FDF91CF911F910F910C94770347
:1008F0002D912EBD0DB407FEFDCF0196E7CF0F93CE
:100900001F938A019B01FC0180E090E08017910712
:100910001206130618F01F910F91089541914EBDD4
:100920000DB407FEFDCF0196F1CF8EBD0DB407FECD
:10093000FDCF08958EBD0DB407FEFDCF8EB5089591
:10094000EF92FF920F931F93CF93DF93D82FC92F6E
:100950007B018A010E946303F7010E0D1F1DE01742
:10096000F10751F48D2F9C2FDF91CF911F910F91A3
:10097000FF90EF900C9477031EBC0DB407FEFDCFE3
:100980008EB58193ECCFFC01680F791FE617F7074E
:1009900009F408951EBC0DB407FEFDCF8EB58193FA
:1009A000F5CFFC011EBC0DB407FEFDCF8EB58083D4
:1009B00008958F929F92AF92BF92CF92DF92EF9263
:1009C000FF929B01AC01A3E0B0E00E946A164B01CC
:1009D0005C01C12CD12C7601C814D904EA04FB04B3
:1009E00050F0FF90EF90DF90CF90BF90AF909F902E
:1009F0008F900C94CF141EBC0DB407FEFDCF8EB5A6
:100A00000E94D5148FEFC81AD80AE80AF80AE4CF72
:100A1000680F791F8617970711F408950000209139
:100A2000C00025FFFBCFFC012191CF012093C60020
:100A3000F1CFDC01FC0101900020E9F73197E81BC0
:100A4000F90B9D01281B390B2E173F0710F0089555
:100A500000002091C00025FFFBCF2D912093C60000
:100A6000E9CF519A8AB11AB88BB183608BB90895D6
:100A70000E9431051092C50081E88093C400E2EC29
:100A8000F0E080818F708083808188608083A0EC1B
:100A9000B0E08C918D7F8C93A1ECB0E088E18C93D9
:100AA0008C918B7F8C938081866080830895FC017C
:100AB00081E0838314828583168217821086818762
:100AC0001286838714861282118287E280830895BA
:100AD00010925802811522E09207E9F0811524E076
:100AE0009207D9F0811528E09207C9F020E02C6028
:100AF000982F907F922B909354029B7F9093550256
:100B00008295807F822B809356028B7F8093570241
:100B100084E592E0089522E0EACF21E0E8CF23E0E7
:100B2000E6CF1F93CF93DF93EC0161110E9457052D
:100B300018812A8540E1249F900111248B8548E08B
:100B4000849FC0011124282B392B20628C8544E01E
:100B5000849FC0011124822B932B0E946805412F92
:100B600064E070E00E94B30283EF91E00197F1F737
:100B700000C0000018812A8590E1299F900111246E
:100B80008B8548E0849FC0011124282B392B2062DB
:100B90008C8544E0849FC0011124822B932B0E94FA
:100BA0006805412F64E070E00E94B30283EF91E09A
:100BB0000197F1F700C00000188181E090E00E94E9
:100BC0006805412F64E070E00E94B3028FE097E275
:100BD0000197F1F700C0000018818B8190E0880F29
:100BE000991F2C812460822B0E946805412F64E0AC
:100BF00070E00E94B30283EF91E00197F1F700C02B
:100C0000000018818D8124E0829FC00111242E8173
:100C100030E0220F331F822B932B2F812860822BF1
:100C20000E946805412F64E070E00E94B30283EFE8
:100C300091E00197F1F700C000001881888528E055
:100C4000829FC0011124298544E0249F9001112432
:100C5000822B932B80610E946805412F64E070E035
:100C60000E94B30283EF91E00197F1F700C000000A
:100C7000C88182E090E00E9468054C2F64E070E03B
:100C80000E94B3028FE097E20197F1F700C00000E5
:100C9000DF91CF911F910895FC01228191819923C9
:100CA00079F0913091F081E0820F233108F080E0FB
:100CB00082839F5F211190E0918380915302089578
:100CC00081E0820F80935302EECF85E1FACF81500D
:100CD000833038F4E82FF0E0E35FFE4F8081860F29
:100CE000089580E0FCCFFC016281643130F481E042
:100CF000860F828381810C9467068181833030F472
:100D00008F5F818381E0828360E0F4CF80E0F9CF60
:100D1000FC01892B89F0862F807F90E1699FB001CB
:100D20001124982F9D60908389608183862F8D6028
:100D300082836960638314820895CF93C62F80688D
:100D400090E00E9468054C2F64E070E00E94B302BE
:100D500083EF91E00197F1F700C00000CF91089573
:100D60009F92AF92BF92CF92DF92EF92FF920F933A
:100D70001F93CF93DF9300D000D01F92CDB7DEB783
:100D800061157105A9F08B017C016B0185E0982E3E
:100D9000CE0101965C01F80101900020E9F731973E
:100DA000E01BF10BC601801B910B8E179F0788F08B
:100DB0000F900F900F900F900F90DF91CF911F9198
:100DC0000F91FF90EF90DF90CF90BF90AF909F90EA
:100DD0000895F7018385882301F1C7010E947306F6
:100DE000F70160810E949D06F501892D11928A9577
:100DF000E9F7F60161916F01C5010E948806F701CC
:100E0000408164E070E0C5010E94B30280EE90E092
:100E10000197F1F700C00000BECFC7010E944C0649
:100E2000DFCFCF93DF930E94F2148FEF80937B028A
:100E300010927A0280937C0280E18093790282E0B2
:100E400080937D02C7EEDFEF4C2F4095CE01877077
:100E5000992780589F4F242F26952695269530E078
:100E6000322F2227820F931F092E000CAA0BBB0BD7
:100E70008093740290937502A0937602B0937702E8
:100E8000409378028CE692E00E94D70B2196C13FF6
:100E90008FEFD807C9F60E945910DF91CF910C94BB
:100EA000EE14CF92DF92EF92FF920F931F93CF93A6
:100EB000DF93CDB7DEB764970FB6F894DEBF0FBEF1
:100EC000CDBF6B017C014091D2015091D301609163
:100ED000D4017091D5018E010F5F1F4FC8010E9490
:100EE0009F0D49815A816B817C81411551056105B6
:100EF000710511F480E01CC089859A85AB85BC859D
:100F00008C159D05AE05BF0511F585E090E0A0E0CC
:100F1000B0E08093C2019093C301A093C401B09349
:100F2000C50187E090E09093C7018093C60181E0FE
:100F300064960FB6F894DEBF0FBECDBFDF91CF91A0
:100F40001F910F91FF90EF90DF90CF900895C8010F
:100F5000C6CF2F923F924F925F926F927F928F9265
:100F60009F92AF92BF92CF92DF92EF92FF920F9338
:100F70001F93CF93DF93CDB7DEB7A8970FB6F89442
:100F8000DEBF0FBECDBF4091DA015091DB01609111
:100F9000DC017091DD018E010F5F1F4FC8010E94BF
:100FA0009F0D28018E010B5E1F4F98E0E92EF12C5A
:100FB00020E2C22ED12C4091D2015091D3016091F8
:100FC000D4017091D501C8010E949F0D0E94F717AE
:100FD000B7010E942D1677247394780E0E94F7179C
:100FE000B6010E942D1666246394680E88E0689E00
:100FF00090011124872C869486948694912C982CA9
:101000008824302E212E872D60FC40C090E08095F2
:10101000909587709927820F931F880E991E092C2F
:10102000000CAA08BB0880E04D895E896F89788D25
:10103000411551056105710579F5811509F4BBCF9D
:101040007D866E868FEF888B1F86198A89869A86A1
:10105000AB86BC86C2010E94CE0FA8960FB6F8944C
:10106000DEBF0FBECDBFDF91CF911F910F91FF90DB
:10107000EF90DF90CF90BF90AF909F908F907F9038
:101080006F905F904F903F902F9008958770280F3A
:10109000311D820E931EC3CF8D8D9E8DAF8DB8A155
:1010A00088159905AA05BB0509F485CF832D922DD6
:1010B0000E949F0D81E0B8CF8F929F92AF92BF9216
:1010C000CF92DF92EF92FF920F931F93CF93DF9314
:1010D000CDB7DEB7A8970FB6F894DEBF0FBECDBF71
:1010E0004B015C016A014091DA015091DB01609192
:1010F000DC017091DD017E0185E1E80EF11CC70184
:101100000E949F0D4091D2015091D3016091D40172
:101110007091D5018E010F5F1F4FC8010E949F0D76
:1011200049815A816B817C814115510561057105A9
:1011300069F588898CA38F858BA389898DA38A897A
:101140008EA3C7010E94D70B8091BE019091BF0171
:1011500001969093BF018093BE010E94A9078EA1C2
:101160008330F9F081E0A8960FB6F894DEBF0FBE89
:10117000CDBFDF91CF911F910F91FF90EF90DF9046
:10118000CF90BF90AF909F908F9008958D8D9E8D42
:10119000AF8DB8A188159905AA05BB05C1F4C80192
:1011A000BDCF85E090E0A0E0B0E08093C2019093D5
:1011B000C301A093C401B093C50183E090E0909374
:1011C000C7018093C60181E0F6018083CBCF80E028
:1011D000CACF4F925F926F927F928F929F92AF92FF
:1011E000BF92DF92EF92FF920F931F93CF93DF9303
:1011F000CDB7DEB7A9970FB6F894DEBF0FBECDBF4F
:101200000E9469114091D6015091D7016091D80197
:101210007091D9013E0125E1620E711CC3010E944B
:101220009F0D8D8C9E8CAF8CB8A01091C201409107
:10123000D2015091D3016091D4017091D501C301C5
:101240000E949F0DF9A00AA119A6D62CE72C1330F5
:10125000B1F068F4113079F0123079F088E0F816C6
:1012600081F02FEFF2120EC037E0F32E0BC01430D6
:10127000A9F7FA94F3CF0F5FF1CF0150EFCFF394BA
:10128000EDCFF12C4F2C4694469446940032C1F198
:101290000F3FC1F100FD37C06F2D70E06095709574
:1012A0006770772728E0029FC0011124680F791F1B
:1012B000842D90E0982F8827680F791F072E000C47
:1012C000880B990B0E945107811531F18CE191E057
:1012D0000E941905A9960FB6F894DEBF0FBECDBFC8
:1012E000DF91CF911F910F91FF90EF90DF90BF9012
:1012F000AF909F908F907F906F905F904F900895E8
:1013000000E0CACF0FE188E0089FB00111248F2DC3
:101310008770680F711DCCCF512C542C442488E069
:10132000089F900111248F2D00FD1AC090E0809538
:10133000909587709927820F931F480E591E052C90
:10134000000C66087708AE01475D5F4FC301B2012C
:101350000E945C0889A5811549F080E391E0B8CF2F
:101360008770280F311D420E531EE9CF4091D601E0
:101370005091D7016091D8017091D9018D2D9E2D8A
:101380000E949F0D498D5A8D6B8D7C8D41155105A5
:101390006105710541F54091D2015091D3016091F1
:1013A000D4017091D5018D2D9E2D0E949F0DF9A223
:1013B0000AA34D8E5E8E6F8E78A24091D20150911D
:1013C000D3016091D4017091D5018D2D9E2D0E9485
:1013D000730E9501840140E060E080E00E945D0FA3
:1013E0000E94591077CFCE0101960E949F0D8D85E6
:1013F00089A38E858AA389859A85AB85BC858D8FC7
:101400009E8FAF8FB8A349815A816B817C818D2DCE
:101410009E2D0E94730E498D5A8D6B8D7C8DAECFA3
:10142000EF92FF920F931F93CF93DF93EC017B0119
:1014300080E09FEFA0E0B0E08A879B87AC87BD8704
:101440000AE010E00E94F214B701CE010E94EE14EF
:101450002FE78FE492E1215080409040E1F700C0F7
:1014600000000150104071F7CE01DF91CF911F9124
:101470000F91FF90EF900C9482012F923F924F9228
:101480005F926F927F928F929F92AF92BF92CF9214
:10149000DF92EF92FF920F931F93CF93DF93CDB71D
:1014A000DEB728970FB6F894DEBF0FBECDBF4C0154
:1014B00069834A836801790118861F82BB27AF2D93
:1014C0009E2D8D2D8B839C83AD83BE832701662447
:1014D0007724A12CB12C1A819F81191B2F8038846D
:1014E000280C391C29812A19D1018C9190E00A2CF1
:1014F00002C0880F991F0A94E2F7012F87FF2CC0C2
:101500004C2D6B81842D0E940815BFEFAB1ABB0ACE
:10151000E8E0AE16B10431F78F819885019698877F
:101520008F830697B1F628960FB6F894DEBF0FBEEC
:10153000CDBFDF91CF911F910F91FF90EF90DF9082
:10154000CF90BF90AF909F908F907F906F905F9063
:101550004F903F902F90089540E060E080E0D3CF1F
:101560000F931F93CF93DF9300D000D000D0CDB75F
:10157000DEB786E0E6E4F1E0DE01119601900D921F
:101580008A95E1F700E01FEF2FEF30E045E16DE2D3
:10159000CE0101960E943D0A0F900F900F900F9080
:1015A0000F900F90DF91CF911F910F910895E4EA72
:1015B000F1E081E290E0958F848F8FE090E091A739
:1015C00080A787E184AF87E190E09093F401809356
:1015D000F30189E093E0A0E0B0E08093F9019093FB
:1015E000FA01A093FB01B093FC010895E0E8F2E05A
:1015F00080E290E0A0E0B0E0808B918BA28BB38B77
:10160000A4EAB1E04091F9015091FA016091FB0127
:101610007091FC01405E5F4F6F4F7F4F4087518755
:1016200062877387DC968C91DC97480F511D611D92
:10163000711D448355836683778398968D919C9121
:101640009997480F591F611D711D40835183628313
:1016500073835C968D919C91A0E0B0E08096A11D73
:10166000B11D840F951FA61FB71F848B958BA68B6A
:10167000B78B2091F3013091F401820F931FA11DCC
:10168000B11D84879587A687B78708952098429AC9
:101690003A9A08959C0180E090E08217930709F43C
:1016A000089546E04A95F1F700C00196F6CF429AB8
:1016B0000895AF92BF92CF92DF92EF92FF920F9375
:1016C0001F93CF93DF93CDB7DEB72F970FB6F89464
:1016D000DEBF0FBECDBF0AE010E08DE4C82E81E072
:1016E000D82ECE0101967C01189BFECF429896E041
:1016F0009A95F1F700C0189921C01F930F93DF92BC
:10170000CF92FF92EF920E941718C7010E9419050D
:101710000E94570B0E94F71758012FEFA21AB20A26
:10172000B8010E94191601960E944A0B0F900F9063
:101730000F900F900F900F908501D6CF2F960FB678
:10174000F894DEBF0FBECDBFDF91CF911F910F91F7
:10175000FF90EF90DF90CF90BF90AF9008950E94E0
:10176000D70A0E94F60A0E94460B1092FD010895C6
:10177000CF92DF92EF92FF92C12CD12C7601A7017C
:10178000960160E08EEF91E00E947F128FEFC81A01
:10179000D80AE80AF80A8FEFC816D80681E0E806EA
:1017A000F10469F7FF90EF90DF90CF9008952F92AA
:1017B0003F924F925F926F927F928F929F92AF92E1
:1017C000BF92CF92DF92EF92FF920F931F93CF932E
:1017D000DF93EC018090F3019090F401A12CB12CE7
:1017E0002090DE013090DF012114310409F0D7C0D0
:1017F000C0908C02D0908D02E0908E02F0908F020B
:10180000412C512C32018C0C9D1CAE1CBF1C811430
:10181000910482E0A806B10408F0AEC004E010E034
:10182000A701960164E571E08EEF91E00E941C1320
:10183000488559856A857B8597018601035F1F4F1F
:101840002F4F3F4F8EEF91E00E94CD12A7019601DE
:101850002F5E3F4F4F4F5F4F6C858EEF91E00E94A0
:101860007F12A70196012E5E3F4F4F4F5F4F6D8550
:101870008EEF91E00E947F12A70196012D5E3F4FEF
:101880004F4F5F4F6F858EEF91E00E947F12A7014F
:1018900096012C5E3F4F4F4F5F4F6E858EEF91E06C
:1018A0000E947F12A70196012B5E3F4F4F4F5F4F63
:1018B00068898EEF91E00E947F12A70196012A5E4F
:1018C0003F4F4F4F5F4F69898EEF91E00E947F122B
:1018D00097018601075F1F4F2F4F3F4FB301A201B2
:1018E0008EEF91E00E94CD124C825D826E827F82EB
:1018F000970186010B5F1F4F2F4F3F4F40E050E095
:10190000BA018EEF91E00E94CD12188219821A82DC
:101910001B82232809F454C0930182010B5F1F4FDF
:101920002F4F3F4FB701A6018EEF91E00E94CD12DD
:10193000A70196012C5F3F4F4F4F5F4F65EA8EEF37
:1019400091E00E947F128091DE019091DF0101966B
:101950009093DF018093DE01C092D601D092D7012F
:10196000E092D801F092D9018092CE019092CF01FD
:10197000A092D001B092D101DF91CF911F910F9130
:10198000FF90EF90DF90CF90BF90AF909F908F909F
:101990007F906F905F904F903F902F900895C090F0
:1019A000CE01D090CF01E090D001F090D1014090D5
:1019B000D6015090D7016090D8017090D90123CF03
:1019C000C092D201D092D301E092D401F092D5011D
:1019D000AFCF4F925F926F927F928F929F92AF9212
:1019E000BF92CF92DF92EF92FF920F931F93CF930C
:1019F000DF9300D000D0CDB7DEB78091DE019091AB
:101A0000DF01892B09F464C04090F3015090F40188
:101A1000612C712CC090D601D090D701E090D801F4
:101A2000F090D90119821A821B821C82A7019601AB
:101A30002C5F3F4F4F4F5F4F60E08EEF91E00E9471
:101A40007F12A7019601275F3F4F4F4F5F4FBE01A7
:101A50006F5F7F4F8EEF91E00E94AE1309811A8174
:101A60002B813C81011511052105310509F445C083
:101A70000B5F1F4F2F4F3F4F40E050E0BA018EEFFA
:101A800091E00E94CD1289819A81AB81BC818093C3
:101A9000D6019093D701A093D801B093D901812C9E
:101AA000912C540184149504A604B704B8F1C09293
:101AB000CE01D092CF01E092D001F092D10180917D
:101AC000DE019091DF0101979093DF018093DE01A9
:101AD0000F900F900F900F90DF91CF911F910F916A
:101AE000FF90EF90DF90CF90BF90AF909F908F903E
:101AF0007F906F905F904F9008951092D601109252
:101B0000D7011092D8011092D9011092D2011092EF
:101B1000D3011092D4011092D501C1CFA501940137
:101B20002C0D3D1D4E1D5F1D60E08EEF91E00E946B
:101B30007F128FEF881A980AA80AB80AB3CF8F923B
:101B40009F92AF92BF92CF92DF92EF92FF920F934C
:101B50001F93CF93DF93CDB7DEB7AD970FB6F89451
:101B6000DEBF0FBECDBF5C016A017B0184E1F501E0
:101B700011928A95E9F71DA64E01F9E28F0E911C8C
:101B80009701860144E050E0B4018EEF91E00E949D
:101B9000271464E571E0C4010E940718892BE9F05D
:101BA00089E591E00E9419059F928F9284E591E06A
:101BB0009F938F9385E791E09F938F938E010F5FA3
:101BC0001F4F1F930F930E941718C8010E941905F9
:101BD0000FB6F894DEBF0FBECDBFA70196012B5FF5
:101BE0003F4F4F4F5F4FB5018EEF91E00E94AE1314
:101BF000A7019601275F3F4F4F4F5F4FB5016C5FC5
:101C00007F4F8EEF91E00E94AE13A7019601235FF4
:101C10003F4F4F4F5F4FB501685F7F4F8EEF91E0B1
:101C20000E94AE13A70196012F5E3F4F4F4F5F4FAB
:101C3000B501645F7F4F8EEF91E00E944813A701CA
:101C400096012E5E3F4F4F4F5F4FB501635F7F4F51
:101C50008EEF91E00E944813A70196012D5E3F4F41
:101C60004F4F5F4FB501615F7F4F8EEF91E00E9454
:101C70004813A70196012C5E3F4F4F4F5F4FB501B0
:101C8000625F7F4F8EEF91E00E944813A70196019B
:101C90002B5E3F4F4F4F5F4FB501605F7F4F8EEF21
:101CA00091E00E944813A70196012A5E3F4F4F4FD3
:101CB0005F4FB5016F5E7F4F8EEF91E00E9448133A
:101CC000AD960FB6F894DEBF0FBECDBFDF91CF91BA
:101CD0001F910F91FF90EF90DF90CF90BF90AF904A
:101CE0009F908F900895CF92DF92EF92FF920F9383
:101CF0001F93CF93DF93EC016A017B01970186016B
:101D00000B5F1F4F2F4F3F4F488159816A817B8165
:101D10008EEF91E00E94CD1297018601075F1F4F61
:101D20002F4F3F4F4C815D816E817F818EEF91E01F
:101D30000E94CD1297018601035F1F4F2F4F3F4F27
:101D4000488559856A857B858EEF91E00E94CD128A
:101D5000A70196012F5E3F4F4F4F5F4F6C858EEF6F
:101D600091E00E947F12A70196012E5E3F4F4F4FD8
:101D70005F4F6D858EEF91E00E947F12A701960163
:101D80002D5E3F4F4F4F5F4F6F858EEF91E00E946A
:101D90007F12A70196012C5E3F4F4F4F5F4F6E851C
:101DA0008EEF91E00E947F12A70196012B5E3F4FBC
:101DB0004F4F5F4F68898EEF91E00E947F12A7011D
:101DC00096012A5E3F4F4F4F5F4F69898EEF91E03A
:101DD000DF91CF911F910F91FF90EF90DF90CF9007
:101DE0000C947F12CF92DF92EF92FF920F931F938A
:101DF000C0908802D0908902E0908A02F0908B0215
:101E000004E010E0A701960165E971E08EEF91E032
:101E10000E941C13A70196012B5E3F4F4F4F5F4F4F
:101E20006091DE017091DF018EEF91E00E94AA12B5
:101E3000970186010B5F1F4F2F4F3F4F40E050E04F
:101E4000BA018EEF91E00E94CD1297018601075FE3
:101E50001F4F2F4F3F4F40E050E0BA018EEF91E00F
:101E60000E94CD1297018601035F1F4F2F4F3F4FF6
:101E700040E050E0BA018EEF91E00E94CD12970150
:101E800086010F5E1F4F2F4F3F4F40E050E0BA01D9
:101E90008EEF91E00E94CD12A70196012C5F3F4F7B
:101EA0004F4F5F4F65EA8EEF91E01F910F91FF90CA
:101EB000EF90DF90CF900C947F128F929F92AF9211
:101EC000BF92CF92DF92EF92FF920F931F93CF9327
:101ED000DF93E82FD62FC42F80909002909091022C
:101EE000A0909202B0909302A3E0B0E0A901980103
:101EF0000E946A166B017C01C80CD91CEA1CFB1CF1
:101F0000A7019601275F3F4F4F4F5F4F8091F90127
:101F10009091FA01A091FB01B091FC01880D991DEF
:101F2000AA1DBB1D0996A11DB11D82179307A40709
:101F3000B50738F16E2F8EEF91E00E947F12A70156
:101F40009601265F3F4F4F4F5F4F6D2F8EEF91E011
:101F50000E947F12A7019601255F3F4F4F4F5F4FB1
:101F60006C2F8EEF91E0DF91CF911F910F91FF9039
:101F7000EF90DF90CF90BF90AF909F908F900C9498
:101F80007F12DF91CF911F910F91FF90EF90DF9023
:101F9000CF90BF90AF909F908F900895CF92DF9297
:101FA000EF92FF920F931F93CF93DF93EC01C090BA
:101FB0009402D0909502E0909602F0909702809162
:101FC00002018115A1F004E010E0A701960164E58B
:101FD00071E08EEF91E00E941C1310920201C092FA
:101FE000DA01D092DB01E092DC01F092DD01970191
:101FF0008601035F1F4F2F4F3F4F488559856A85E4
:102000007B858EEF91E00E94CD12A70196012F5E95
:102010003F4F4F4F5F4F6C858EEF91E00E947F12D4
:10202000A70196012E5E3F4F4F4F5F4F6D858EEF9C
:1020300091E00E947F12A70196012D5E3F4F4F4F06
:102040005F4F6F858EEF91E00E947F12A70196018E
:102050002C5E3F4F4F4F5F4F6E858EEF91E00E9499
:102060007F12A70196012B5E3F4F4F4F5F4F68894C
:102070008EEF91E00E947F12A70196012A5E3F4FEA
:102080004F4F5F4F69898EEF91E00E947F12088564
:1020900019852A853B8548896E858F850E945D0F4D
:1020A000DF91CF911F910F91FF90EF90DF90CF9034
:1020B0000895EF92FF920F931F93CF93DF93CDB7C5
:1020C000DEB764970FB6F894DEBF0FBECDBF809128
:1020D000DE019091DF01892BC1F04091D201509136
:1020E000D3016091D4017091D5018E010F5F1F4F14
:1020F000C8010E949F0DF02EE12E89819A81AB814B
:10210000BC81892B8A2B8B2B69F464960FB6F894CB
:10211000DEBF0FBECDBFDF91CF911F910F91FF901A
:10212000EF90089509851A852B853C8549896F852F
:1021300088890E945D0F49815A816B817C818F2D36
:102140009E2D0E949F0DD9CF0F931F930091900257
:10215000109191022091920230919302075F1F4FDC
:102160002F4F3F4F40E051E060E070E08EEF91E094
:102170000E9454141F910F910895CF92DF92EF9215
:10218000FF920F931F93C12CD12C760197018601EA
:1021900040E060E080E00E945D0F8FEFC81AD80A2F
:1021A000E80AF80AC11483E0D806E104F10471F7E3
:1021B0001F910F91FF90EF90DF90CF900895CF92F5
:1021C000DF92EF92FF92C0909002D0909102E09047
:1021D0009202F090930289E0C80ED11CE11CF11C20
:1021E000C11481E0D806E104F10428F0FF90EF90DB
:1021F000DF90CF900895A701960160E08EEF91E007
:102200000E947F128FEFC81AD80AE80AF80AE8CFAE
:10221000CF92DF92EF92FF920F931F93CF93DF93B2
:10222000C0908402D0908502E0908602F0908702F0
:1022300002E010E0A70196016AE971E08EEF91E0FB
:102240000E941C13970186010B5F1F4F2F4F3F4FBA
:10225000C4EAD1E04E8D5F8D68A179A18EEF91E047
:102260000E94CD12A7019601275F3F4F4F4F5F4F4E
:102270006AA17BA18EEF91E00E94AA12A7019601AC
:10228000255F3F4F4F4F5F4F6CA17DA18EEF91E0D7
:102290000E94AA12A7019601235F3F4F4F4F5F4F45
:1022A0006EA17FA18EEF91E00E94AA12A701960174
:1022B0002C5F3F4F4F4F5F4F65EA8EEF91E0DF910C
:1022C000CF911F910F91FF90EF90DF90CF900C94E2
:1022D0007F12CF92DF92EF92FF92C0908402D09053
:1022E0008502E0908602F0908702A70196012B5F9D
:1022F0003F4F4F4F5F4F62EC71E08EEF91E00E94D5
:10230000AE13A7019601275F3F4F4F4F5F4F66EC1B
:1023100071E08EEF91E00E946D13A7019601255F99
:102320003F4F4F4F5F4F68EC71E08EEF91E00E949E
:102330006D13A7019601235F3F4F4F4F5F4F6AEC2C
:1023400071E08EEF91E0FF90EF90DF90CF900C94D2
:102350006D13CF92DF92EF92FF920F931F93CF9363
:10236000DF93C0908002D0908102E0908202F090D2
:10237000830204E010E0A70196016FE971E08EEF9F
:1023800091E00E941C13A7019601235E3F4F4F4F1F
:102390005F4FC4EAD1E06091BC017091BD018EEF46
:1023A00091E00E94AA12A7019601215E3F4F4F4F74
:1023B0005F4F6091BE017091BF018EEF91E00E946E
:1023C000AA12209769F00CE010E0A70196012B5F9C
:1023D0003F4F4F4F5F4FBE018EEF91E00E941C13A5
:1023E00080EB91E0009769F00CE010E0A701960106
:1023F0002F5E3F4F4F4F5F4FBC018EEF91E00E9429
:102400001C13A70196012C5F3F4F4F4F5F4F65EAAA
:102410008EEF91E0DF91CF911F910F91FF90EF90A0
:10242000DF90CF900C947F12CF92DF92EF92FF92C9
:102430000F931F93C0908002D0908102E09082029F
:10244000F0908302A7019601235E3F4F4F4F5F4FED
:102450006CEB71E08EEF91E00E946D13A701960185
:10246000215E3F4F4F4F5F4F6EEB71E08EEF91E07B
:102470000E946D138091980281111FC097018601FF
:102480000B5F1F4F2F4F3F4F4CE050E064EA71E06D
:102490008EEF91E00E942714970186010F5E1F4F77
:1024A0002F4F3F4F4CE050E060EB71E08EEF91E03A
:1024B0000E94271481E0809398021F910F91FF9052
:1024C000EF90DF90CF900895CF93DF9300D000D0AE
:1024D000CDB7DEB70E94631669837A838B839C83B2
:1024E00044E050E060E070E0CE0101960E947F047D
:1024F0000F900F900F900F90DF91CF910895CF9292
:10250000DF92EF92FF920F931F93CF93DF930F927F
:10251000CDB7DEB78C01698369017A010E9463033C
:10252000C701B60192600E94641241E050E060E091
:1025300070E0CE0101960E947F04C8010E947703DB
:102540000F90DF91CF911F910F91FF90EF90DF904F
:10255000CF900895CF92DF92EF92FF921F93CF9387
:10256000DF93D82FC92F162F672F69017A01A70192
:1025700096010E947F12A70196012F5F3F4F4F4F98
:102580005F4F612F8D2F9C2FDF91CF911F91FF9077
:10259000EF90DF90CF900C947F128F929F92AF922A
:1025A000BF92CF92DF92EF92FF920F931F93CF9340
:1025B000DF93D82FC92F4A015B01680179016B2D88
:1025C000772788279927A70196018D2F9C2F0E9496
:1025D0007F12A70196012F5F3F4F4F4F5F4FB5010D
:1025E000882799278D2F9C2F0E947F12A701960183
:1025F0002E5F3F4F4F4F5F4F99278B2D7A2D692DBF
:102600008D2F9C2F0E947F12A70196012D5F3F4FB7
:102610004F4F5F4F682D8D2F9C2FDF91CF911F91D2
:102620000F91FF90EF90DF90CF90BF90AF909F9071
:102630008F900C947F1208958F929F92AF92BF92C9
:10264000CF92DF92EF92FF920F931F93CF93DF937E
:102650005C014B0169017A010E946303C701B60165
:1026600092600E946412A80160E070E0C4010E94C0
:102670007F04C501DF91CF911F910F91FF90EF90E3
:10268000DF90CF90BF90AF909F908F900C94770386
:10269000CF92DF92EF92FF920F931F93CF93DF932E
:1026A0008C01EB0169017A0118820E946303C70162
:1026B000B60193600E9464121EBC0DB407FEFDCFEC
:1026C0008EB58883C801DF91CF911F910F91FF9044
:1026D000EF90DF90CF900C947703AF92BF92CF92A0
:1026E000DF92EF92FF920F931F93CF93DF930F929E
:1026F000CDB7DEB75C018B0169017A01FB01118264
:102700001082A7019601BE016F5F7F4F0E944813A0
:102710002981F80180819181922B91838083A70187
:1027200096012F5F3F4F4F4F5F4FBE016F5F7F4F4F
:10273000C5010E9448132981F80180819181822B73
:10274000918380830F90DF91CF911F910F91FF9024
:10275000EF90DF90CF90BF90AF900895AF92BF926F
:10276000CF92DF92EF92FF920F931F93CF93DF935D
:102770000F92CDB7DEB75C018B0169017A01FB01D5
:102780001082118212821382A7019601BE016F5F2F
:102790007F4F0E9448132981F80180819181A28195
:1027A000B381B22B80839183A283B383A701960167
:1027B0002F5F3F4F4F4F5F4FBE016F5F7F4FC50190
:1027C0000E9448132981F80180819181A281B381FF
:1027D000A22B80839183A283B383A70196012E5FEE
:1027E0003F4F4F4F5F4FBE016F5F7F4FC5010E944C
:1027F00048132981F80180819181A281B381922BB4
:1028000080839183A283B383A70196012D5F3F4FFD
:102810004F4F5F4FBE016F5F7F4FC5010E9448134E
:102820002981F80180819181A281B381822B8083EB
:102830009183A283B3830F90DF91CF911F910F916A
:10284000FF90EF90DF90CF90BF90AF9008958F9260
:102850009F92AF92BF92CF92DF92EF92FF920F932F
:102860001F93CF93DF93D82FC92F5B014A016801D3
:1028700079010E946303C701B60193600E9464124C
:10288000B401C5010E94C3048D2F9C2FDF91CF910D
:102890001F910F91FF90EF90DF90CF90BF90AF907E
:1028A0009F908F900C9477038F929F92AF92BF92DC
:1028B000CF92DF92EF92FF920F931F93CF93DF930C
:1028C000D82FC92F4A015B01680179010E94630377
:1028D000C701B60193600E946412B401C5010E9451
:1028E000D9048D2F9C2FDF91CF911F910F91FF90D5
:1028F000EF90DF90CF90BF90AF909F908F900C940F
:1029000077031F93CF93DF93D82FC92F0E946303C0
:1029100085E08EBD0DB407FEFDCF1EBC0DB407FED5
:10292000FDCF1EB58D2F9C2F0E947703812FDF9145
:10293000CF911F9108951F93CF93DF93D82FC92F65
:10294000162F862F8F73811113C08D2F0E94630362
:1029500081E08EBD0DB407FEFDCF1EBD0DB407FE98
:10296000FDCF8D2F9C2FDF91CF911F910C9477037A
:10297000DF91CF911F910895409A00C000004098C8
:1029800084E08A95F1F700C00895409A83E08A9523
:10299000F1F70000409800C000C000000895409882
:1029A00081E28A95F1F7000008950F931F93CF936A
:1029B000DF93082FC8E0D0E010E8802F8123811535
:1029C00051F00E94C51416952197B9F7DF91CF9168
:1029D0001F910F9108950E94BC14F5CF0E94A4107E
:1029E0000C94CF14CF93DF93C0E0D1E080E00E943D
:1029F000D51480E00E94D51480E00E94D514219760
:102A0000A9F7DF91CF910C94CF14389A409A08958A
:102A10000F931F93902F38E0039FF0011124022F92
:102A200006950695069510E0102F002790FD12C020
:102A300030E020953095277033272E0F3F1F020F6F
:102A4000131F012E000C220B330B0E945D0F1F91F0
:102A50000F9108952770E20FF11D0E0F1F1FF1CF88
:102A60004F925F926F927F928F929F92AF92BF929E
:102A7000CF92DF92EF92FF920F931F93CF93DF934A
:102A8000E12CF12CC12CD12CC0E0D0E0C0FA88247C
:102A9000992480F8570187E0A80EB11C25014C1A33
:102AA0005D0A8114910419F02E014E0C5F1C052C57
:102AB000000C660877089301820140E060E08FEF28
:102AC0000E945D0F0E94EE149301820140E060E0DD
:102AD00080E00E945D0F2196C830D105F9F68FEF96
:102AE000C81AD80A88E0E80EF11C80E2C816D104A2
:102AF00059F6DF91CF911F910F91FF90EF90DF90EA
:102B0000CF90BF90AF909F908F907F906F905F908D
:102B10004F90089508958AB1837E8AB938988BB111
:102B20008C618BB9409A8BB386608BBBEDE6F0E08D
:102B300080818C618083ECE6F0E08081816080831D
:102B4000E8E6F0E080818660808378940895219A99
:102B50002998089586B590E025EA822792270C945B
:102B6000FC17CDB7DEB764970FB6F894DEBF0FBE83
:102B7000CDBF0E94A7150E94AA150E948B158EEF4B
:102B800091E00E94FB008EEF91E00E94D20361E091
:102B900087E092E00E9456020E9438050E94590B7D
:102BA00060E48EEF91E00E949B140E94AF0B0E94A4
:102BB000AF000E94BD100E941107CE0101960E9435
:102BC000CE0F0E94F2140E94B00A0E94A9078091C1
:102BD000C2018093340214E003E082E0F82EEE2478
:102BE000E3940E94590B80913402813099F4E09271
:102BF000C2011092C3011092C4011092C5018EEF60
:102C000091E00E944D040E94E9088EEF91E00E943D
:102C10005303E7CF823019F4F092C201EACF833038
:102C200019F40093C201E5CF843049F71093C20133
:102C3000E0CFAA1BBB1B51E107C0AA1FBB1FA617F1
:102C4000B70710F0A61BB70B881F991F5A95A9F755
:102C500080959095BC01CD01089597FB072E16F441
:102C6000009407D077FD09D00E94191607FC05D003
:102C70003EF4909581959F4F0895709561957F4F93
:102C80000895A1E21A2EAA1BBB1BFD010DC0AA1FAD
:102C9000BB1FEE1FFF1FA217B307E407F50720F0C5
:102CA000A21BB30BE40BF50B661F771F881F991F40
:102CB0001A9469F760957095809590959B01AC0189
:102CC000BD01CF01089569279627692778278727AF
:102CD000782708950E947516A59F900DB49F900DBA
:102CE000A49F800D911D11240895A29FB001B39F50
:102CF000C001A39F700D811D1124911DB29F700D05
:102D0000811D1124911D08950F931F93CF93DF937D
:102D10009C01029710F422E030E0E0919902F091DA
:102D20009A0280E090E0A0E0B0E0309791F4009744
:102D300009F448C0821B930B84309105D0F58A8139
:102D40009B816115710581F1FB0193838283FE01F3
:102D500011C0408151810281138142175307D8F07D
:102D60004217530799F4109761F012960C9312973B
:102D700013961C933296CF01DF91CF911F910F9143
:102D800008950093990210939A02F4CF009751F09E
:102D90004817590738F0AC01DB01CA01BD01DF015A
:102DA000F801C3CFEF01F9CF90939A028093990273
:102DB000CECFFE01E80FF91F21933193029799833B
:102DC0008883D9CF40919B0250919C0241155105B7
:102DD00041F4409105015091060150939C024093AB
:102DE0009B028091030190910401009741F48DB7FB
:102DF0009EB76091070170910801861B970B4817D9
:102E0000590708F0B8CF841B950B8217930708F475
:102E1000B2CFB9016E5F7F4F8617970708F4ABCF2B
:102E2000640F751F70939C0260939B02FA012193BB
:102E30003193A1CFCF93DF939C010097E9F0FC0180
:102E4000329713821282C0919902D0919A02DE01C8
:102E500080E090E02097A1F480819181280F391FB4
:102E600080919B0290919C028217930709F068C0A1
:102E7000F0939C02E0939B02DF91CF910895DA01D9
:102E8000AE17BF0708F042C012964D915C911397A0
:102E9000CD014115510599F7DC011396FC93EE9392
:102EA00012974D915D919D01240F351FE217F30795
:102EB00081F4208131812E5F3F4F240F351FDC01CB
:102EC00011963C932E932281338113963C932E933B
:102ED0001297E0E0F0E08A819B810097B1F5DE0176
:102EE0008D919D918A0F9B1F20919B0230919C0296
:102EF0002817390709F6309759F510929A0210925F
:102F00009902D0939C02C0939B02B6CFB383A28355
:102F100040815181240F351FA217B30771F44E5F12
:102F20005F4F2D913C911197240F351F31832083E2
:102F300012962D913C9133832283009709F0ACCFF8
:102F4000F0939A02E093990297CFFE01EC01C3CF70
:102F500013821282D6CF8F929F92AF92BF92CF925E
:102F6000DF92EF92FF92CF93DF93EC01688179813A
:102F70008A819B81611571058105910521F464E2C7
:102F800079ED8BE597E02DE133EF41E050E00E94D1
:102F9000CA1A49015A019B01AC01A7EAB1E40E9497
:102FA0006A166B017C01ACEEB4EFA50194010E949E
:102FB000EC1ADC01CB018C0D9D1DAE1DBF1DB7FFB2
:102FC00003C00197A109B04888839983AA83BB8372
:102FD0009F77DF91CF91FF90EF90DF90CF90BF90E0
:102FE000AF909F908F9008950E94AB17089589E04D
:102FF00091E00E94AB170895A0E0B0E08093090132
:1030000090930A01A0930B01B0930C010895FB016A
:10301000DC018D91019080190110D9F3990B08956D
:10302000FB01DC0101900D920020E1F70895AEE074
:10303000B0E0EDE1F8E10C94FF1A0D891E8986E0FD
:103040008C831A8309838FEF9FE79E838D83AE0164
:10305000475E5F4F6F89788DCE0101960E943A18C6
:103060002F813885020F131FF80110822E96E4E09D
:103070000C941B1BABE0B0E0E0E4F8E10C94F21A16
:103080006C017B018A01FC0117821682838181FF1A
:10309000DAC19AE0492EF6012381F70123FD8591DB
:1030A00023FF81917F01811509F41FC1853239F415
:1030B00023FD959123FF91917F01953229F4B6016B
:1030C00090E00E943C1AE7CF30E0612C512C712C2B
:1030D000F0E27F1640F59B32D9F058F49032D1F0EF
:1030E0009332F1F09E3299F576FCFFC0689476F841
:1030F00006C09D3291F09033C1F4689470F8F701E6
:1031000023FD959123FF91917F019111E1CF29C07A
:10311000689471F8689472F8F2CF689473F8EFCFFE
:10312000689474F8ECCF77FC1CC080ED890F8A306E
:10313000C8F676FE05C0649C800D1124682EDFCF92
:10314000549C800D1124582E689475F8D8CF9C3665
:1031500019F4689477F8D3CF9C3409F44BC09836AF
:1031600071F2892F8F7D8554833008F445C09336E2
:1031700009F466C0933709F469C0933509F475C042
:10318000943619F0993609F09FC0F80177FE95C082
:1031900061917191819191918F01272D2F76722EDE
:1031A00097FF09C090958095709561957F4F8F4FDF
:1031B0009F4F689477F82AE030E0AE014F5F5F4F91
:1031C0005A010E946C1A8A19A82E76FEC5C0872D56
:1031D0008E7FA61408F0BFC074FE12C172FC06C137
:1031E000F72DFE7E7F2EB62C872D8678811509F46B
:1031F000C0C001C131E083CF3115F9F0085F1F4F26
:103200008FE3898388248394912CAE014F5F5F4FB5
:103210005A01E89477F873FC03C085149104B0F167
:1032200081149104D1F5511409F435CFB60180E22F
:1032300090E00E943C1A5A94F6CF0C5F1F4FE0CFEB
:10324000F801808189830E5F1F4FDCCFF801A190C8
:10325000B1908F01662D70E076FC02C06FEF7FEFBA
:10326000C5010E94311A4C01D4CFF801A190B19050
:103270008F01662D70E076FC02C06FEF7FEFC50115
:103280000E94261A4C01689477F8C5CFB60180E2F7
:1032900090E00E943C1A5A94C0CFF50177FC8591CA
:1032A00077FE81915F01B60190E00E943C1A5110B7
:1032B0005A94F1E08F1A9108B3CF61917191072E62
:1032C000000C880B990B68CF372CE89434F82AE06F
:1032D00030E0953739F1572D597F352E903799F0D9
:1032E00058F49835A9F09F36D9F0F6018681978178
:1032F0002B96E1E10C940E1B9837B9F774FC05C0CE
:1033000020E130E00FC0689434F8689432F8F8CFC8
:1033100074FE03C0872D8660382E20E132E002C0A3
:1033200028E030E0F80137FE11C061917191819180
:1033300091918F01FE0131965F01AF010E946C1ADD
:103340008A19A82E732CE89477F83FCF6191719178
:1033500080E090E0EECF782EBA2C74FE45CFFE01CF
:10336000EA0DF11D8081803309F043C0272D297EAD
:10337000722E73FC0EC070FE4FC06A2CB51418F488
:10338000650C6B18B52C852D8B195B1408F480E047
:10339000B80EB51408F042C05B1874FE41C0B60107
:1033A00080E390E00E943C1A72FE09C088E590E03C
:1033B00071FC02C088E790E0B6010E943C1AA61496
:1033C000D8F1AA94B12C4FEFA41AB40ACE010196F9
:1033D0003C01A80EB91EF50182915F01B60190E093
:1033E0000E943C1A6A147B04B1F71DCFB62C782ECC
:1033F000B6CF72FC02C0B394BCCFB394B394B9CF30
:10340000B62C782EF1CEB60180E290E00E943C1AF4
:1034100033943514C0F3B7CF3B2CFBCF512CBDCF29
:10342000872D8678811559F280E271FC8BE277FC5A
:103430008DE2B60190E0C1CFB60180E390E00E943A
:103440003C1A6A94BCCF8FEF9FEF52CFFC010590DE
:10345000615070400110D8F7809590958E0F9F1F96
:103460000895FC016150704001900110D8F78095DB
:1034700090958E0F9F1F08950F931F93CF93DF9307
:10348000182F092FEB018B8181FD09C01FEF0FEF72
:10349000812F902FDF91CF911F910F91089582FF7F
:1034A00014C02E813F818C819D81281739073CF4FF
:1034B000E881F981CF0101969983888310838E81F9
:1034C0009F8101969F838E83E3CFE885F985812FC5
:1034D0000995892BA1F3DACFFA01AA27283051F1F7
:1034E000203181F1E8946F936E7F6E5F7F4F8F4F35
:1034F0009F4FAF4FB1E03ED0B4E03CD0670F781F94
:10350000891F9A1FA11D680F791F8A1F911DA11D78
:103510006A0F711D811D911DA11D20D009F46894B1
:103520003F912AE0269F11243019305D3193DEF659
:10353000CF010895462F4770405D4193B3E00FD00F
:10354000C9F7F6CF462F4F70405D4A3318F0495DFA
:1035500031FD4052419302D0A9F7EACFB4E0A695DD
:103560009795879577956795BA95C9F700976105FF
:10357000710508959B01AC010A2E06945795479555
:1035800037952795BA95C9F7620F731F841F951F4A
:10359000A01D0895052E97FB1EF400940E94E11AC9
:1035A00057FD07D00E94411607FC03D04EF40C943F
:1035B000E11A50954095309521953F4F4F4F5F4F01
:1035C000089590958095709561957F4F8F4F9F4F8F
:1035D0000895B7FF0C946A160E946A16821B930B1B
:1035E00008952F923F924F925F926F927F928F92A7
:1035F0009F92AF92BF92CF92DF92EF92FF920F9382
:103600001F93CF93DF93CDB7DEB7CA1BDB0B0FB68B
:10361000F894DEBF0FBECDBF09942A883988488848
:103620005F846E847D848C849B84AA84B984C884DE
:10363000DF80EE80FD800C811B81AA81B981CE0FD5
:10364000D11D0FB6F894DEBF0FBECDBFED010895BA
:04365000F894FFCF1C
:10365400FFFF0100009D02200001000000401454FF
:10366400534E414B45004C5543415300636F6C6CC2
:103674006973696F6E2064657465637465640A00B8
:10368400506F69736F6E20666F6F64206465746534
:10369400637465640A0078FCECF8FC78006B3A20EB
:1036A40025640A004E4F4445004572726F722E2EF7
:1036B4002E203C496E76616C6964204865616465BE
:1036C400723E200A002E2E65787065637465642E40
:1036D4002E3C25733E2E2E61637475616C2E2E3C38
:1036E40025733E0A005354434B00434F4D4D005342
:0436F400434F5200EE
:00000001FF
